{
	"VaultCoin_flattened.sol": {
		"VaultCoin": {
			"abi": [
				{
					"inputs": [
						{
							"internalType": "address",
							"name": "initialOwner",
							"type": "address"
						},
						{
							"internalType": "address",
							"name": "_taxAddress",
							"type": "address"
						}
					],
					"stateMutability": "nonpayable",
					"type": "constructor"
				},
				{
					"inputs": [
						{
							"internalType": "address",
							"name": "spender",
							"type": "address"
						},
						{
							"internalType": "uint256",
							"name": "allowance",
							"type": "uint256"
						},
						{
							"internalType": "uint256",
							"name": "needed",
							"type": "uint256"
						}
					],
					"name": "ERC20InsufficientAllowance",
					"type": "error"
				},
				{
					"inputs": [
						{
							"internalType": "address",
							"name": "sender",
							"type": "address"
						},
						{
							"internalType": "uint256",
							"name": "balance",
							"type": "uint256"
						},
						{
							"internalType": "uint256",
							"name": "needed",
							"type": "uint256"
						}
					],
					"name": "ERC20InsufficientBalance",
					"type": "error"
				},
				{
					"inputs": [
						{
							"internalType": "address",
							"name": "approver",
							"type": "address"
						}
					],
					"name": "ERC20InvalidApprover",
					"type": "error"
				},
				{
					"inputs": [
						{
							"internalType": "address",
							"name": "receiver",
							"type": "address"
						}
					],
					"name": "ERC20InvalidReceiver",
					"type": "error"
				},
				{
					"inputs": [
						{
							"internalType": "address",
							"name": "sender",
							"type": "address"
						}
					],
					"name": "ERC20InvalidSender",
					"type": "error"
				},
				{
					"inputs": [
						{
							"internalType": "address",
							"name": "spender",
							"type": "address"
						}
					],
					"name": "ERC20InvalidSpender",
					"type": "error"
				},
				{
					"inputs": [
						{
							"internalType": "address",
							"name": "owner",
							"type": "address"
						}
					],
					"name": "OwnableInvalidOwner",
					"type": "error"
				},
				{
					"inputs": [
						{
							"internalType": "address",
							"name": "account",
							"type": "address"
						}
					],
					"name": "OwnableUnauthorizedAccount",
					"type": "error"
				},
				{
					"anonymous": false,
					"inputs": [
						{
							"indexed": true,
							"internalType": "address",
							"name": "owner",
							"type": "address"
						},
						{
							"indexed": true,
							"internalType": "address",
							"name": "spender",
							"type": "address"
						},
						{
							"indexed": false,
							"internalType": "uint256",
							"name": "value",
							"type": "uint256"
						}
					],
					"name": "Approval",
					"type": "event"
				},
				{
					"anonymous": false,
					"inputs": [
						{
							"indexed": true,
							"internalType": "address",
							"name": "previousOwner",
							"type": "address"
						},
						{
							"indexed": true,
							"internalType": "address",
							"name": "newOwner",
							"type": "address"
						}
					],
					"name": "OwnershipTransferred",
					"type": "event"
				},
				{
					"anonymous": false,
					"inputs": [
						{
							"indexed": true,
							"internalType": "address",
							"name": "from",
							"type": "address"
						},
						{
							"indexed": true,
							"internalType": "address",
							"name": "to",
							"type": "address"
						},
						{
							"indexed": false,
							"internalType": "uint256",
							"name": "value",
							"type": "uint256"
						}
					],
					"name": "Transfer",
					"type": "event"
				},
				{
					"inputs": [
						{
							"internalType": "address",
							"name": "account",
							"type": "address"
						}
					],
					"name": "addExemptionToTaxes",
					"outputs": [],
					"stateMutability": "nonpayable",
					"type": "function"
				},
				{
					"inputs": [
						{
							"internalType": "address",
							"name": "account",
							"type": "address"
						}
					],
					"name": "addToBlacklist",
					"outputs": [],
					"stateMutability": "nonpayable",
					"type": "function"
				},
				{
					"inputs": [
						{
							"internalType": "address",
							"name": "account",
							"type": "address"
						}
					],
					"name": "addToWhiteList",
					"outputs": [],
					"stateMutability": "nonpayable",
					"type": "function"
				},
				{
					"inputs": [
						{
							"internalType": "address",
							"name": "owner",
							"type": "address"
						},
						{
							"internalType": "address",
							"name": "spender",
							"type": "address"
						}
					],
					"name": "allowance",
					"outputs": [
						{
							"internalType": "uint256",
							"name": "",
							"type": "uint256"
						}
					],
					"stateMutability": "view",
					"type": "function"
				},
				{
					"inputs": [
						{
							"internalType": "address",
							"name": "spender",
							"type": "address"
						},
						{
							"internalType": "uint256",
							"name": "value",
							"type": "uint256"
						}
					],
					"name": "approve",
					"outputs": [
						{
							"internalType": "bool",
							"name": "",
							"type": "bool"
						}
					],
					"stateMutability": "nonpayable",
					"type": "function"
				},
				{
					"inputs": [
						{
							"internalType": "address",
							"name": "account",
							"type": "address"
						}
					],
					"name": "balanceOf",
					"outputs": [
						{
							"internalType": "uint256",
							"name": "",
							"type": "uint256"
						}
					],
					"stateMutability": "view",
					"type": "function"
				},
				{
					"inputs": [],
					"name": "cooldownTime",
					"outputs": [
						{
							"internalType": "uint256",
							"name": "",
							"type": "uint256"
						}
					],
					"stateMutability": "view",
					"type": "function"
				},
				{
					"inputs": [],
					"name": "decimals",
					"outputs": [
						{
							"internalType": "uint8",
							"name": "",
							"type": "uint8"
						}
					],
					"stateMutability": "view",
					"type": "function"
				},
				{
					"inputs": [],
					"name": "disableTax",
					"outputs": [],
					"stateMutability": "nonpayable",
					"type": "function"
				},
				{
					"inputs": [],
					"name": "enableBlackListing",
					"outputs": [],
					"stateMutability": "nonpayable",
					"type": "function"
				},
				{
					"inputs": [],
					"name": "enableTax",
					"outputs": [],
					"stateMutability": "nonpayable",
					"type": "function"
				},
				{
					"inputs": [],
					"name": "enableWhiteListing",
					"outputs": [],
					"stateMutability": "nonpayable",
					"type": "function"
				},
				{
					"inputs": [],
					"name": "getContractDetials",
					"outputs": [
						{
							"internalType": "address",
							"name": "",
							"type": "address"
						},
						{
							"internalType": "uint256",
							"name": "",
							"type": "uint256"
						},
						{
							"internalType": "uint256",
							"name": "",
							"type": "uint256"
						},
						{
							"internalType": "uint256",
							"name": "",
							"type": "uint256"
						}
					],
					"stateMutability": "view",
					"type": "function"
				},
				{
					"inputs": [],
					"name": "getMaxTxAmount",
					"outputs": [
						{
							"internalType": "uint256",
							"name": "",
							"type": "uint256"
						}
					],
					"stateMutability": "view",
					"type": "function"
				},
				{
					"inputs": [],
					"name": "getSlippageFees",
					"outputs": [
						{
							"internalType": "uint256",
							"name": "",
							"type": "uint256"
						}
					],
					"stateMutability": "view",
					"type": "function"
				},
				{
					"inputs": [],
					"name": "getTaxes",
					"outputs": [
						{
							"internalType": "uint256",
							"name": "",
							"type": "uint256"
						}
					],
					"stateMutability": "view",
					"type": "function"
				},
				{
					"inputs": [
						{
							"internalType": "address",
							"name": "account",
							"type": "address"
						}
					],
					"name": "isBlacklisted",
					"outputs": [
						{
							"internalType": "bool",
							"name": "",
							"type": "bool"
						}
					],
					"stateMutability": "view",
					"type": "function"
				},
				{
					"inputs": [
						{
							"internalType": "address",
							"name": "account",
							"type": "address"
						}
					],
					"name": "isWhiteListed",
					"outputs": [
						{
							"internalType": "bool",
							"name": "",
							"type": "bool"
						}
					],
					"stateMutability": "view",
					"type": "function"
				},
				{
					"inputs": [],
					"name": "maxTxAmount",
					"outputs": [
						{
							"internalType": "uint256",
							"name": "",
							"type": "uint256"
						}
					],
					"stateMutability": "view",
					"type": "function"
				},
				{
					"inputs": [],
					"name": "name",
					"outputs": [
						{
							"internalType": "string",
							"name": "",
							"type": "string"
						}
					],
					"stateMutability": "view",
					"type": "function"
				},
				{
					"inputs": [],
					"name": "owner",
					"outputs": [
						{
							"internalType": "address",
							"name": "",
							"type": "address"
						}
					],
					"stateMutability": "view",
					"type": "function"
				},
				{
					"inputs": [
						{
							"internalType": "address",
							"name": "account",
							"type": "address"
						}
					],
					"name": "removeExemptionFromTaxes",
					"outputs": [],
					"stateMutability": "nonpayable",
					"type": "function"
				},
				{
					"inputs": [
						{
							"internalType": "address",
							"name": "account",
							"type": "address"
						}
					],
					"name": "removeFromBlacklist",
					"outputs": [],
					"stateMutability": "nonpayable",
					"type": "function"
				},
				{
					"inputs": [
						{
							"internalType": "address",
							"name": "account",
							"type": "address"
						}
					],
					"name": "removeFromWhiteList",
					"outputs": [],
					"stateMutability": "nonpayable",
					"type": "function"
				},
				{
					"inputs": [],
					"name": "renounceOwnership",
					"outputs": [],
					"stateMutability": "nonpayable",
					"type": "function"
				},
				{
					"inputs": [
						{
							"internalType": "uint256",
							"name": "newCooldownTime",
							"type": "uint256"
						}
					],
					"name": "setCooldownTime",
					"outputs": [],
					"stateMutability": "nonpayable",
					"type": "function"
				},
				{
					"inputs": [
						{
							"internalType": "uint256",
							"name": "newMaxTxAmount",
							"type": "uint256"
						}
					],
					"name": "setMaxTxAmount",
					"outputs": [],
					"stateMutability": "nonpayable",
					"type": "function"
				},
				{
					"inputs": [
						{
							"internalType": "uint256",
							"name": "newSlippageFee",
							"type": "uint256"
						}
					],
					"name": "setSlippageFees",
					"outputs": [],
					"stateMutability": "nonpayable",
					"type": "function"
				},
				{
					"inputs": [
						{
							"internalType": "uint256",
							"name": "newTaxFee",
							"type": "uint256"
						}
					],
					"name": "setTaxes",
					"outputs": [],
					"stateMutability": "nonpayable",
					"type": "function"
				},
				{
					"inputs": [],
					"name": "slippageFees",
					"outputs": [
						{
							"internalType": "uint256",
							"name": "",
							"type": "uint256"
						}
					],
					"stateMutability": "view",
					"type": "function"
				},
				{
					"inputs": [],
					"name": "symbol",
					"outputs": [
						{
							"internalType": "string",
							"name": "",
							"type": "string"
						}
					],
					"stateMutability": "view",
					"type": "function"
				},
				{
					"inputs": [],
					"name": "taxAddress",
					"outputs": [
						{
							"internalType": "address",
							"name": "",
							"type": "address"
						}
					],
					"stateMutability": "view",
					"type": "function"
				},
				{
					"inputs": [],
					"name": "taxFees",
					"outputs": [
						{
							"internalType": "uint256",
							"name": "",
							"type": "uint256"
						}
					],
					"stateMutability": "view",
					"type": "function"
				},
				{
					"inputs": [],
					"name": "totalSupply",
					"outputs": [
						{
							"internalType": "uint256",
							"name": "",
							"type": "uint256"
						}
					],
					"stateMutability": "view",
					"type": "function"
				},
				{
					"inputs": [
						{
							"internalType": "address",
							"name": "to",
							"type": "address"
						},
						{
							"internalType": "uint256",
							"name": "value",
							"type": "uint256"
						}
					],
					"name": "transfer",
					"outputs": [
						{
							"internalType": "bool",
							"name": "",
							"type": "bool"
						}
					],
					"stateMutability": "nonpayable",
					"type": "function"
				},
				{
					"inputs": [
						{
							"internalType": "address",
							"name": "from",
							"type": "address"
						},
						{
							"internalType": "address",
							"name": "to",
							"type": "address"
						},
						{
							"internalType": "uint256",
							"name": "value",
							"type": "uint256"
						}
					],
					"name": "transferFrom",
					"outputs": [
						{
							"internalType": "bool",
							"name": "",
							"type": "bool"
						}
					],
					"stateMutability": "nonpayable",
					"type": "function"
				},
				{
					"inputs": [
						{
							"internalType": "address",
							"name": "newOwner",
							"type": "address"
						}
					],
					"name": "transferOwnership",
					"outputs": [],
					"stateMutability": "nonpayable",
					"type": "function"
				}
			],
			"devdoc": {
				"errors": {
					"ERC20InsufficientAllowance(address,uint256,uint256)": [
						{
							"details": "Indicates a failure with the `spender`’s `allowance`. Used in transfers.",
							"params": {
								"allowance": "Amount of tokens a `spender` is allowed to operate with.",
								"needed": "Minimum amount required to perform a transfer.",
								"spender": "Address that may be allowed to operate on tokens without being their owner."
							}
						}
					],
					"ERC20InsufficientBalance(address,uint256,uint256)": [
						{
							"details": "Indicates an error related to the current `balance` of a `sender`. Used in transfers.",
							"params": {
								"balance": "Current balance for the interacting account.",
								"needed": "Minimum amount required to perform a transfer.",
								"sender": "Address whose tokens are being transferred."
							}
						}
					],
					"ERC20InvalidApprover(address)": [
						{
							"details": "Indicates a failure with the `approver` of a token to be approved. Used in approvals.",
							"params": {
								"approver": "Address initiating an approval operation."
							}
						}
					],
					"ERC20InvalidReceiver(address)": [
						{
							"details": "Indicates a failure with the token `receiver`. Used in transfers.",
							"params": {
								"receiver": "Address to which tokens are being transferred."
							}
						}
					],
					"ERC20InvalidSender(address)": [
						{
							"details": "Indicates a failure with the token `sender`. Used in transfers.",
							"params": {
								"sender": "Address whose tokens are being transferred."
							}
						}
					],
					"ERC20InvalidSpender(address)": [
						{
							"details": "Indicates a failure with the `spender` to be approved. Used in approvals.",
							"params": {
								"spender": "Address that may be allowed to operate on tokens without being their owner."
							}
						}
					],
					"OwnableInvalidOwner(address)": [
						{
							"details": "The owner is not a valid owner account. (eg. `address(0)`)"
						}
					],
					"OwnableUnauthorizedAccount(address)": [
						{
							"details": "The caller account is not authorized to perform an operation."
						}
					]
				},
				"events": {
					"Approval(address,address,uint256)": {
						"details": "Emitted when the allowance of a `spender` for an `owner` is set by a call to {approve}. `value` is the new allowance."
					},
					"Transfer(address,address,uint256)": {
						"details": "Emitted when `value` tokens are moved from one account (`from`) to another (`to`). Note that `value` may be zero."
					}
				},
				"kind": "dev",
				"methods": {
					"allowance(address,address)": {
						"details": "See {IERC20-allowance}."
					},
					"approve(address,uint256)": {
						"details": "See {IERC20-approve}. NOTE: If `value` is the maximum `uint256`, the allowance is not updated on `transferFrom`. This is semantically equivalent to an infinite approval. Requirements: - `spender` cannot be the zero address."
					},
					"balanceOf(address)": {
						"details": "See {IERC20-balanceOf}."
					},
					"decimals()": {
						"details": "Returns the number of decimals used to get its user representation. For example, if `decimals` equals `2`, a balance of `505` tokens should be displayed to a user as `5.05` (`505 / 10 ** 2`). Tokens usually opt for a value of 18, imitating the relationship between Ether and Wei. This is the default value returned by this function, unless it's overridden. NOTE: This information is only used for _display_ purposes: it in no way affects any of the arithmetic of the contract, including {IERC20-balanceOf} and {IERC20-transfer}."
					},
					"name()": {
						"details": "Returns the name of the token."
					},
					"owner()": {
						"details": "Returns the address of the current owner."
					},
					"renounceOwnership()": {
						"details": "Leaves the contract without owner. It will not be possible to call `onlyOwner` functions. Can only be called by the current owner. NOTE: Renouncing ownership will leave the contract without an owner, thereby disabling any functionality that is only available to the owner."
					},
					"symbol()": {
						"details": "Returns the symbol of the token, usually a shorter version of the name."
					},
					"totalSupply()": {
						"details": "See {IERC20-totalSupply}."
					},
					"transfer(address,uint256)": {
						"details": "See {IERC20-transfer}. Requirements: - `to` cannot be the zero address. - the caller must have a balance of at least `value`."
					},
					"transferFrom(address,address,uint256)": {
						"details": "See {IERC20-transferFrom}. Skips emitting an {Approval} event indicating an allowance update. This is not required by the ERC. See {xref-ERC20-_approve-address-address-uint256-bool-}[_approve]. NOTE: Does not update the allowance if the current allowance is the maximum `uint256`. Requirements: - `from` and `to` cannot be the zero address. - `from` must have a balance of at least `value`. - the caller must have allowance for ``from``'s tokens of at least `value`."
					},
					"transferOwnership(address)": {
						"details": "Transfers ownership of the contract to a new account (`newOwner`). Can only be called by the current owner."
					}
				},
				"version": 1
			},
			"evm": {
				"assembly": "    /* \"VaultCoin_flattened.sol\":24928:29791  contract VaultCoin is ERC20, Ownable {... */\n  mstore(0x40, 0x80)\n    /* \"VaultCoin_flattened.sol\":25016:25026  decimals() */\n  tag_1\n    /* \"VaultCoin_flattened.sol\":25016:25024  decimals */\n  shl(0x20, tag_2)\n    /* \"VaultCoin_flattened.sol\":25016:25026  decimals() */\n  0x20\n  shr\n  jump\t// in\ntag_1:\n    /* \"VaultCoin_flattened.sol\":25012:25014  10 */\n  0x0a\n    /* \"VaultCoin_flattened.sol\":25012:25026  10**decimals() */\n  tag_3\n  swap2\n  swap1\n  tag_4\n  jump\t// in\ntag_3:\n    /* \"VaultCoin_flattened.sol\":25000:25009  100000000 */\n  0x05f5e100\n    /* \"VaultCoin_flattened.sol\":25000:25026  100000000 * 10**decimals() */\n  tag_5\n  swap2\n  swap1\n  tag_6\n  jump\t// in\ntag_5:\n    /* \"VaultCoin_flattened.sol\":24968:25026  uint256 private initialSupply = 100000000 * 10**decimals() */\n  0x06\n  sstore\n    /* \"VaultCoin_flattened.sol\":25058:25071  initialSupply */\n  sload(0x06)\n    /* \"VaultCoin_flattened.sol\":25028:25071  uint256 public  maxTxAmount = initialSupply */\n  0x07\n  sstore\n    /* \"VaultCoin_flattened.sol\":25104:25113  1 minutes */\n  0x3c\n    /* \"VaultCoin_flattened.sol\":25073:25113  uint256 public  cooldownTime = 1 minutes */\n  0x08\n  sstore\n    /* \"VaultCoin_flattened.sol\":25141:25142  5 */\n  0x05\n    /* \"VaultCoin_flattened.sol\":25115:25142  uint256 public  taxFees = 5 */\n  0x09\n  sstore\n    /* \"VaultCoin_flattened.sol\":25175:25176  2 */\n  0x02\n    /* \"VaultCoin_flattened.sol\":25144:25176  uint256 public  slippageFees = 2 */\n  0x0a\n  sstore\n    /* \"VaultCoin_flattened.sol\":25214:25219  false */\n  0x00\n    /* \"VaultCoin_flattened.sol\":25179:25219  bool private _whiteListingEnabled= false */\n  0x0b\n  exp(0x0100, 0x00)\n  dup2\n  sload\n  dup2\n  0xff\n  mul\n  not\n  and\n  swap1\n  dup4\n  iszero\n  iszero\n  mul\n  or\n  swap1\n  sstore\n  pop\n    /* \"VaultCoin_flattened.sol\":25247:25252  false */\n  0x00\n    /* \"VaultCoin_flattened.sol\":25221:25252  bool private _taxEnabled= false */\n  0x0b\n  exp(0x0100, 0x01)\n  dup2\n  sload\n  dup2\n  0xff\n  mul\n  not\n  and\n  swap1\n  dup4\n  iszero\n  iszero\n  mul\n  or\n  swap1\n  sstore\n  pop\n    /* \"VaultCoin_flattened.sol\":25319:25324  false */\n  0x00\n    /* \"VaultCoin_flattened.sol\":25283:25324  bool private _blackListingEnabled = false */\n  0x0b\n  exp(0x0100, 0x16)\n  dup2\n  sload\n  dup2\n  0xff\n  mul\n  not\n  and\n  swap1\n  dup4\n  iszero\n  iszero\n  mul\n  or\n  swap1\n  sstore\n  pop\n    /* \"VaultCoin_flattened.sol\":25502:25781  constructor(address initialOwner, address _taxAddress)... */\n  callvalue\n  dup1\n  iszero\n  tag_7\n  jumpi\n  revert(0x00, 0x00)\ntag_7:\n  pop\n  mload(0x40)\n  sub(codesize, bytecodeSize)\n  dup1\n  bytecodeSize\n  dup4\n  codecopy\n  dup2\n  dup2\n  add\n  0x40\n  mstore\n  dup2\n  add\n  swap1\n  tag_8\n  swap2\n  swap1\n  tag_9\n  jump\t// in\ntag_8:\n    /* \"VaultCoin_flattened.sol\":25601:25613  initialOwner */\n  dup2\n    /* \"VaultCoin_flattened.sol\":12501:12614  constructor(string memory name_, string memory symbol_) {... */\n  mload(0x40)\n  dup1\n  0x40\n  add\n  0x40\n  mstore\n  dup1\n  0x09\n  dup2\n  mstore\n  0x20\n  add\n  0x5661756c74436f696e0000000000000000000000000000000000000000000000\n  dup2\n  mstore\n  pop\n  mload(0x40)\n  dup1\n  0x40\n  add\n  0x40\n  mstore\n  dup1\n  0x05\n  dup2\n  mstore\n  0x20\n  add\n  0x5661756c74000000000000000000000000000000000000000000000000000000\n  dup2\n  mstore\n  pop\n    /* \"VaultCoin_flattened.sol\":12575:12580  name_ */\n  dup2\n    /* \"VaultCoin_flattened.sol\":12567:12572  _name */\n  0x03\n    /* \"VaultCoin_flattened.sol\":12567:12580  _name = name_ */\n  swap1\n  dup2\n  tag_14\n  swap2\n  swap1\n  tag_15\n  jump\t// in\ntag_14:\n  pop\n    /* \"VaultCoin_flattened.sol\":12600:12607  symbol_ */\n  dup1\n    /* \"VaultCoin_flattened.sol\":12590:12597  _symbol */\n  0x04\n    /* \"VaultCoin_flattened.sol\":12590:12607  _symbol = symbol_ */\n  swap1\n  dup2\n  tag_16\n  swap2\n  swap1\n  tag_15\n  jump\t// in\ntag_16:\n  pop\n    /* \"VaultCoin_flattened.sol\":12501:12614  constructor(string memory name_, string memory symbol_) {... */\n  pop\n  pop\n    /* \"VaultCoin_flattened.sol\":23069:23070  0 */\n  0x00\n    /* \"VaultCoin_flattened.sol\":23045:23071  initialOwner == address(0) */\n  0xffffffffffffffffffffffffffffffffffffffff\n  and\n    /* \"VaultCoin_flattened.sol\":23045:23057  initialOwner */\n  dup2\n    /* \"VaultCoin_flattened.sol\":23045:23071  initialOwner == address(0) */\n  0xffffffffffffffffffffffffffffffffffffffff\n  and\n  sub\n    /* \"VaultCoin_flattened.sol\":23041:23136  if (initialOwner == address(0)) {... */\n  tag_18\n  jumpi\n    /* \"VaultCoin_flattened.sol\":23122:23123  0 */\n  0x00\n    /* \"VaultCoin_flattened.sol\":23094:23125  OwnableInvalidOwner(address(0)) */\n  mload(0x40)\n  0x1e4fbdf700000000000000000000000000000000000000000000000000000000\n  dup2\n  mstore\n  0x04\n  add\n  tag_19\n  swap2\n  swap1\n  tag_20\n  jump\t// in\ntag_19:\n  mload(0x40)\n  dup1\n  swap2\n  sub\n  swap1\n  revert\n    /* \"VaultCoin_flattened.sol\":23041:23136  if (initialOwner == address(0)) {... */\ntag_18:\n    /* \"VaultCoin_flattened.sol\":23145:23177  _transferOwnership(initialOwner) */\n  tag_21\n    /* \"VaultCoin_flattened.sol\":23164:23176  initialOwner */\n  dup2\n    /* \"VaultCoin_flattened.sol\":23145:23163  _transferOwnership */\n  shl(0x20, tag_22)\n    /* \"VaultCoin_flattened.sol\":23145:23177  _transferOwnership(initialOwner) */\n  0x20\n  shr\n  jump\t// in\ntag_21:\n    /* \"VaultCoin_flattened.sol\":22997:23184  constructor(address initialOwner) {... */\n  pop\n    /* \"VaultCoin_flattened.sol\":25624:25657  _mint(initialOwner,initialSupply) */\n  tag_24\n    /* \"VaultCoin_flattened.sol\":25630:25642  initialOwner */\n  dup3\n    /* \"VaultCoin_flattened.sol\":25643:25656  initialSupply */\n  sload(0x06)\n    /* \"VaultCoin_flattened.sol\":25624:25629  _mint */\n  shl(0x20, tag_25)\n    /* \"VaultCoin_flattened.sol\":25624:25657  _mint(initialOwner,initialSupply) */\n  0x20\n  shr\n  jump\t// in\ntag_24:\n    /* \"VaultCoin_flattened.sol\":25738:25742  true */\n  0x01\n    /* \"VaultCoin_flattened.sol\":25711:25721  _whiteList */\n  0x0e\n    /* \"VaultCoin_flattened.sol\":25711:25735  _whiteList[initialOwner] */\n  0x00\n    /* \"VaultCoin_flattened.sol\":25722:25734  initialOwner */\n  dup5\n    /* \"VaultCoin_flattened.sol\":25711:25735  _whiteList[initialOwner] */\n  0xffffffffffffffffffffffffffffffffffffffff\n  and\n  0xffffffffffffffffffffffffffffffffffffffff\n  and\n  dup2\n  mstore\n  0x20\n  add\n  swap1\n  dup2\n  mstore\n  0x20\n  add\n  0x00\n  keccak256\n  0x00\n    /* \"VaultCoin_flattened.sol\":25711:25742  _whiteList[initialOwner] = true */\n  0x0100\n  exp\n  dup2\n  sload\n  dup2\n  0xff\n  mul\n  not\n  and\n  swap1\n  dup4\n  iszero\n  iszero\n  mul\n  or\n  swap1\n  sstore\n  pop\n    /* \"VaultCoin_flattened.sol\":25763:25774  _taxAddress */\n  dup1\n    /* \"VaultCoin_flattened.sol\":25752:25762  taxAddress */\n  0x0b\n  0x02\n    /* \"VaultCoin_flattened.sol\":25752:25774  taxAddress=_taxAddress */\n  0x0100\n  exp\n  dup2\n  sload\n  dup2\n  0xffffffffffffffffffffffffffffffffffffffff\n  mul\n  not\n  and\n  swap1\n  dup4\n  0xffffffffffffffffffffffffffffffffffffffff\n  and\n  mul\n  or\n  swap1\n  sstore\n  pop\n    /* \"VaultCoin_flattened.sol\":25502:25781  constructor(address initialOwner, address _taxAddress)... */\n  pop\n  pop\n    /* \"VaultCoin_flattened.sol\":24928:29791  contract VaultCoin is ERC20, Ownable {... */\n  jump(tag_26)\n    /* \"VaultCoin_flattened.sol\":13607:13689  function decimals() public view virtual returns (uint8) {... */\ntag_2:\n    /* \"VaultCoin_flattened.sol\":13656:13661  uint8 */\n  0x00\n    /* \"VaultCoin_flattened.sol\":13680:13682  18 */\n  0x12\n    /* \"VaultCoin_flattened.sol\":13673:13682  return 18 */\n  swap1\n  pop\n    /* \"VaultCoin_flattened.sol\":13607:13689  function decimals() public view virtual returns (uint8) {... */\n  swap1\n  jump\t// out\n    /* \"VaultCoin_flattened.sol\":24684:24871  function _transferOwnership(address newOwner) internal virtual {... */\ntag_22:\n    /* \"VaultCoin_flattened.sol\":24757:24773  address oldOwner */\n  0x00\n    /* \"VaultCoin_flattened.sol\":24776:24782  _owner */\n  0x05\n  0x00\n  swap1\n  sload\n  swap1\n  0x0100\n  exp\n  swap1\n  div\n  0xffffffffffffffffffffffffffffffffffffffff\n  and\n    /* \"VaultCoin_flattened.sol\":24757:24782  address oldOwner = _owner */\n  swap1\n  pop\n    /* \"VaultCoin_flattened.sol\":24801:24809  newOwner */\n  dup2\n    /* \"VaultCoin_flattened.sol\":24792:24798  _owner */\n  0x05\n  0x00\n    /* \"VaultCoin_flattened.sol\":24792:24809  _owner = newOwner */\n  0x0100\n  exp\n  dup2\n  sload\n  dup2\n  0xffffffffffffffffffffffffffffffffffffffff\n  mul\n  not\n  and\n  swap1\n  dup4\n  0xffffffffffffffffffffffffffffffffffffffff\n  and\n  mul\n  or\n  swap1\n  sstore\n  pop\n    /* \"VaultCoin_flattened.sol\":24855:24863  newOwner */\n  dup2\n    /* \"VaultCoin_flattened.sol\":24824:24864  OwnershipTransferred(oldOwner, newOwner) */\n  0xffffffffffffffffffffffffffffffffffffffff\n  and\n    /* \"VaultCoin_flattened.sol\":24845:24853  oldOwner */\n  dup2\n    /* \"VaultCoin_flattened.sol\":24824:24864  OwnershipTransferred(oldOwner, newOwner) */\n  0xffffffffffffffffffffffffffffffffffffffff\n  and\n  0x8be0079c531659141344cd1fd0a4f28419497f9722a3daafe3b4186f6b6457e0\n  mload(0x40)\n  mload(0x40)\n  dup1\n  swap2\n  sub\n  swap1\n  log3\n    /* \"VaultCoin_flattened.sol\":24747:24871  {... */\n  pop\n    /* \"VaultCoin_flattened.sol\":24684:24871  function _transferOwnership(address newOwner) internal virtual {... */\n  pop\n  jump\t// out\n    /* \"VaultCoin_flattened.sol\":18358:18566  function _mint(address account, uint256 value) internal {... */\ntag_25:\n    /* \"VaultCoin_flattened.sol\":18447:18448  0 */\n  0x00\n    /* \"VaultCoin_flattened.sol\":18428:18449  account == address(0) */\n  0xffffffffffffffffffffffffffffffffffffffff\n  and\n    /* \"VaultCoin_flattened.sol\":18428:18435  account */\n  dup3\n    /* \"VaultCoin_flattened.sol\":18428:18449  account == address(0) */\n  0xffffffffffffffffffffffffffffffffffffffff\n  and\n  sub\n    /* \"VaultCoin_flattened.sol\":18424:18515  if (account == address(0)) {... */\n  tag_30\n  jumpi\n    /* \"VaultCoin_flattened.sol\":18501:18502  0 */\n  0x00\n    /* \"VaultCoin_flattened.sol\":18472:18504  ERC20InvalidReceiver(address(0)) */\n  mload(0x40)\n  0xec442f0500000000000000000000000000000000000000000000000000000000\n  dup2\n  mstore\n  0x04\n  add\n  tag_31\n  swap2\n  swap1\n  tag_20\n  jump\t// in\ntag_31:\n  mload(0x40)\n  dup1\n  swap2\n  sub\n  swap1\n  revert\n    /* \"VaultCoin_flattened.sol\":18424:18515  if (account == address(0)) {... */\ntag_30:\n    /* \"VaultCoin_flattened.sol\":18524:18559  _update(address(0), account, value) */\n  tag_32\n    /* \"VaultCoin_flattened.sol\":18540:18541  0 */\n  0x00\n    /* \"VaultCoin_flattened.sol\":18544:18551  account */\n  dup4\n    /* \"VaultCoin_flattened.sol\":18553:18558  value */\n  dup4\n    /* \"VaultCoin_flattened.sol\":18524:18531  _update */\n  shl(0x20, tag_33)\n    /* \"VaultCoin_flattened.sol\":18524:18559  _update(address(0), account, value) */\n  0x20\n  shr\n  jump\t// in\ntag_32:\n    /* \"VaultCoin_flattened.sol\":18358:18566  function _mint(address account, uint256 value) internal {... */\n  pop\n  pop\n  jump\t// out\n    /* \"VaultCoin_flattened.sol\":27966:28898  function _update(address from, address to, uint256 value) internal override {... */\ntag_33:\n    /* \"VaultCoin_flattened.sol\":28061:28071  _blackList */\n  0x0c\n    /* \"VaultCoin_flattened.sol\":28061:28075  _blackList[to] */\n  0x00\n    /* \"VaultCoin_flattened.sol\":28072:28074  to */\n  dup4\n    /* \"VaultCoin_flattened.sol\":28061:28075  _blackList[to] */\n  0xffffffffffffffffffffffffffffffffffffffff\n  and\n  0xffffffffffffffffffffffffffffffffffffffff\n  and\n  dup2\n  mstore\n  0x20\n  add\n  swap1\n  dup2\n  mstore\n  0x20\n  add\n  0x00\n  keccak256\n  0x00\n  swap1\n  sload\n  swap1\n  0x0100\n  exp\n  swap1\n  div\n  0xff\n  and\n    /* \"VaultCoin_flattened.sol\":28060:28075  !_blackList[to] */\n  iszero\n    /* \"VaultCoin_flattened.sol\":28060:28096  !_blackList[to] && !_blackList[from] */\n  dup1\n  iszero\n  tag_35\n  jumpi\n  pop\n    /* \"VaultCoin_flattened.sol\":28080:28090  _blackList */\n  0x0c\n    /* \"VaultCoin_flattened.sol\":28080:28096  _blackList[from] */\n  0x00\n    /* \"VaultCoin_flattened.sol\":28091:28095  from */\n  dup5\n    /* \"VaultCoin_flattened.sol\":28080:28096  _blackList[from] */\n  0xffffffffffffffffffffffffffffffffffffffff\n  and\n  0xffffffffffffffffffffffffffffffffffffffff\n  and\n  dup2\n  mstore\n  0x20\n  add\n  swap1\n  dup2\n  mstore\n  0x20\n  add\n  0x00\n  keccak256\n  0x00\n  swap1\n  sload\n  swap1\n  0x0100\n  exp\n  swap1\n  div\n  0xff\n  and\n    /* \"VaultCoin_flattened.sol\":28079:28096  !_blackList[from] */\n  iszero\n    /* \"VaultCoin_flattened.sol\":28060:28096  !_blackList[to] && !_blackList[from] */\ntag_35:\n    /* \"VaultCoin_flattened.sol\":28052:28119  require(!_blackList[to] && !_blackList[from],\"Blacklisted address\") */\n  tag_36\n  jumpi\n  mload(0x40)\n  0x08c379a000000000000000000000000000000000000000000000000000000000\n  dup2\n  mstore\n  0x04\n  add\n  tag_37\n  swap1\n  tag_38\n  jump\t// in\ntag_37:\n  mload(0x40)\n  dup1\n  swap2\n  sub\n  swap1\n  revert\ntag_36:\n    /* \"VaultCoin_flattened.sol\":28132:28152  _whiteListingEnabled */\n  0x0b\n  0x00\n  swap1\n  sload\n  swap1\n  0x0100\n  exp\n  swap1\n  div\n  0xff\n  and\n    /* \"VaultCoin_flattened.sol\":28129:28259  if(_whiteListingEnabled){... */\n  iszero\n  tag_39\n  jumpi\n    /* \"VaultCoin_flattened.sol\":28175:28185  _whiteList */\n  0x0e\n    /* \"VaultCoin_flattened.sol\":28175:28191  _whiteList[from] */\n  0x00\n    /* \"VaultCoin_flattened.sol\":28186:28190  from */\n  dup5\n    /* \"VaultCoin_flattened.sol\":28175:28191  _whiteList[from] */\n  0xffffffffffffffffffffffffffffffffffffffff\n  and\n  0xffffffffffffffffffffffffffffffffffffffff\n  and\n  dup2\n  mstore\n  0x20\n  add\n  swap1\n  dup2\n  mstore\n  0x20\n  add\n  0x00\n  keccak256\n  0x00\n  swap1\n  sload\n  swap1\n  0x0100\n  exp\n  swap1\n  div\n  0xff\n  and\n    /* \"VaultCoin_flattened.sol\":28175:28209  _whiteList[from] && _whiteList[to] */\n  dup1\n  iszero\n  tag_40\n  jumpi\n  pop\n    /* \"VaultCoin_flattened.sol\":28195:28205  _whiteList */\n  0x0e\n    /* \"VaultCoin_flattened.sol\":28195:28209  _whiteList[to] */\n  0x00\n    /* \"VaultCoin_flattened.sol\":28206:28208  to */\n  dup4\n    /* \"VaultCoin_flattened.sol\":28195:28209  _whiteList[to] */\n  0xffffffffffffffffffffffffffffffffffffffff\n  and\n  0xffffffffffffffffffffffffffffffffffffffff\n  and\n  dup2\n  mstore\n  0x20\n  add\n  swap1\n  dup2\n  mstore\n  0x20\n  add\n  0x00\n  keccak256\n  0x00\n  swap1\n  sload\n  swap1\n  0x0100\n  exp\n  swap1\n  div\n  0xff\n  and\n    /* \"VaultCoin_flattened.sol\":28175:28209  _whiteList[from] && _whiteList[to] */\ntag_40:\n    /* \"VaultCoin_flattened.sol\":28167:28248  require(_whiteList[from] && _whiteList[to], \"Both addresses must be whitelisted\") */\n  tag_41\n  jumpi\n  mload(0x40)\n  0x08c379a000000000000000000000000000000000000000000000000000000000\n  dup2\n  mstore\n  0x04\n  add\n  tag_42\n  swap1\n  tag_43\n  jump\t// in\ntag_42:\n  mload(0x40)\n  dup1\n  swap2\n  sub\n  swap1\n  revert\ntag_41:\n    /* \"VaultCoin_flattened.sol\":28129:28259  if(_whiteListingEnabled){... */\ntag_39:\n    /* \"VaultCoin_flattened.sol\":28285:28296  maxTxAmount */\n  sload(0x07)\n    /* \"VaultCoin_flattened.sol\":28276:28281  value */\n  dup2\n    /* \"VaultCoin_flattened.sol\":28276:28296  value <= maxTxAmount */\n  gt\n  iszero\n    /* \"VaultCoin_flattened.sol\":28268:28329  require(value <= maxTxAmount,\"Token transfer limit exceeded\") */\n  tag_44\n  jumpi\n  mload(0x40)\n  0x08c379a000000000000000000000000000000000000000000000000000000000\n  dup2\n  mstore\n  0x04\n  add\n  tag_45\n  swap1\n  tag_46\n  jump\t// in\ntag_45:\n  mload(0x40)\n  dup1\n  swap2\n  sub\n  swap1\n  revert\ntag_44:\n    /* \"VaultCoin_flattened.sol\":28385:28397  cooldownTime */\n  sload(0x08)\n    /* \"VaultCoin_flattened.sol\":28366:28377  _lastTxTime */\n  0x0f\n    /* \"VaultCoin_flattened.sol\":28366:28383  _lastTxTime[from] */\n  0x00\n    /* \"VaultCoin_flattened.sol\":28378:28382  from */\n  dup6\n    /* \"VaultCoin_flattened.sol\":28366:28383  _lastTxTime[from] */\n  0xffffffffffffffffffffffffffffffffffffffff\n  and\n  0xffffffffffffffffffffffffffffffffffffffff\n  and\n  dup2\n  mstore\n  0x20\n  add\n  swap1\n  dup2\n  mstore\n  0x20\n  add\n  0x00\n  keccak256\n  sload\n    /* \"VaultCoin_flattened.sol\":28366:28397  _lastTxTime[from] +cooldownTime */\n  tag_47\n  swap2\n  swap1\n  tag_48\n  jump\t// in\ntag_47:\n    /* \"VaultCoin_flattened.sol\":28347:28362  block.timestamp */\n  timestamp\n    /* \"VaultCoin_flattened.sol\":28347:28397  block.timestamp >= _lastTxTime[from] +cooldownTime */\n  lt\n  iszero\n    /* \"VaultCoin_flattened.sol\":28339:28421  require(block.timestamp >= _lastTxTime[from] +cooldownTime,\"Cooldown time period\") */\n  tag_49\n  jumpi\n  mload(0x40)\n  0x08c379a000000000000000000000000000000000000000000000000000000000\n  dup2\n  mstore\n  0x04\n  add\n  tag_50\n  swap1\n  tag_51\n  jump\t// in\ntag_50:\n  mload(0x40)\n  dup1\n  swap2\n  sub\n  swap1\n  revert\ntag_49:\n    /* \"VaultCoin_flattened.sol\":28451:28466  block.timestamp */\n  timestamp\n    /* \"VaultCoin_flattened.sol\":28431:28442  _lastTxTime */\n  0x0f\n    /* \"VaultCoin_flattened.sol\":28431:28448  _lastTxTime[from] */\n  0x00\n    /* \"VaultCoin_flattened.sol\":28443:28447  from */\n  dup6\n    /* \"VaultCoin_flattened.sol\":28431:28448  _lastTxTime[from] */\n  0xffffffffffffffffffffffffffffffffffffffff\n  and\n  0xffffffffffffffffffffffffffffffffffffffff\n  and\n  dup2\n  mstore\n  0x20\n  add\n  swap1\n  dup2\n  mstore\n  0x20\n  add\n  0x00\n  keccak256\n    /* \"VaultCoin_flattened.sol\":28431:28466  _lastTxTime[from] = block.timestamp */\n  dup2\n  swap1\n  sstore\n  pop\n    /* \"VaultCoin_flattened.sol\":28493:28501  _taxList */\n  0x0d\n    /* \"VaultCoin_flattened.sol\":28493:28507  _taxList[from] */\n  0x00\n    /* \"VaultCoin_flattened.sol\":28502:28506  from */\n  dup5\n    /* \"VaultCoin_flattened.sol\":28493:28507  _taxList[from] */\n  0xffffffffffffffffffffffffffffffffffffffff\n  and\n  0xffffffffffffffffffffffffffffffffffffffff\n  and\n  dup2\n  mstore\n  0x20\n  add\n  swap1\n  dup2\n  mstore\n  0x20\n  add\n  0x00\n  keccak256\n  0x00\n  swap1\n  sload\n  swap1\n  0x0100\n  exp\n  swap1\n  div\n  0xff\n  and\n    /* \"VaultCoin_flattened.sol\":28493:28523  _taxList[from] || !_taxEnabled */\n  dup1\n  tag_52\n  jumpi\n  pop\n    /* \"VaultCoin_flattened.sol\":28512:28523  _taxEnabled */\n  0x0b\n  0x01\n  swap1\n  sload\n  swap1\n  0x0100\n  exp\n  swap1\n  div\n  0xff\n  and\n    /* \"VaultCoin_flattened.sol\":28511:28523  !_taxEnabled */\n  iszero\n    /* \"VaultCoin_flattened.sol\":28493:28523  _taxList[from] || !_taxEnabled */\ntag_52:\n    /* \"VaultCoin_flattened.sol\":28490:28879  if(_taxList[from] || !_taxEnabled){... */\n  iszero\n  tag_53\n  jumpi\n    /* \"VaultCoin_flattened.sol\":28599:28629  super._update(from, to, value) */\n  tag_54\n    /* \"VaultCoin_flattened.sol\":28613:28617  from */\n  dup4\n    /* \"VaultCoin_flattened.sol\":28619:28621  to */\n  dup4\n    /* \"VaultCoin_flattened.sol\":28623:28628  value */\n  dup4\n    /* \"VaultCoin_flattened.sol\":28599:28612  super._update */\n  shl(0x20, tag_55)\n    /* \"VaultCoin_flattened.sol\":28599:28629  super._update(from, to, value) */\n  0x20\n  shr\n  jump\t// in\ntag_54:\n    /* \"VaultCoin_flattened.sol\":28490:28879  if(_taxList[from] || !_taxEnabled){... */\n  jump(tag_56)\ntag_53:\n    /* \"VaultCoin_flattened.sol\":28648:28659  _taxEnabled */\n  0x0b\n  0x01\n  swap1\n  sload\n  swap1\n  0x0100\n  exp\n  swap1\n  div\n  0xff\n  and\n    /* \"VaultCoin_flattened.sol\":28645:28879  if(_taxEnabled){ ... */\n  iszero\n  tag_57\n  jumpi\n    /* \"VaultCoin_flattened.sol\":28675:28692  uint256 totalFees */\n  0x00\n    /* \"VaultCoin_flattened.sol\":28728:28731  100 */\n  0x64\n    /* \"VaultCoin_flattened.sol\":28713:28725  slippageFees */\n  sload(0x0a)\n    /* \"VaultCoin_flattened.sol\":28705:28712  taxFees */\n  sload(0x09)\n    /* \"VaultCoin_flattened.sol\":28705:28725  taxFees+slippageFees */\n  tag_58\n  swap2\n  swap1\n  tag_48\n  jump\t// in\ntag_58:\n    /* \"VaultCoin_flattened.sol\":28696:28701  value */\n  dup4\n    /* \"VaultCoin_flattened.sol\":28696:28726  value * (taxFees+slippageFees) */\n  tag_59\n  swap2\n  swap1\n  tag_6\n  jump\t// in\ntag_59:\n    /* \"VaultCoin_flattened.sol\":28695:28731  (value * (taxFees+slippageFees))/100 */\n  tag_60\n  swap2\n  swap1\n  tag_61\n  jump\t// in\ntag_60:\n    /* \"VaultCoin_flattened.sol\":28675:28731  uint256 totalFees = (value * (taxFees+slippageFees))/100 */\n  swap1\n  pop\n    /* \"VaultCoin_flattened.sol\":28807:28816  totalFees */\n  dup1\n    /* \"VaultCoin_flattened.sol\":28799:28804  value */\n  dup3\n    /* \"VaultCoin_flattened.sol\":28799:28816  value - totalFees */\n  tag_62\n  swap2\n  swap1\n  tag_63\n  jump\t// in\ntag_62:\n    /* \"VaultCoin_flattened.sol\":28790:28816  value =  value - totalFees */\n  swap2\n  pop\n    /* \"VaultCoin_flattened.sol\":28830:28868  super._update(from, taxAddress, value) */\n  tag_64\n    /* \"VaultCoin_flattened.sol\":28844:28848  from */\n  dup5\n    /* \"VaultCoin_flattened.sol\":28850:28860  taxAddress */\n  0x0b\n  0x02\n  swap1\n  sload\n  swap1\n  0x0100\n  exp\n  swap1\n  div\n  0xffffffffffffffffffffffffffffffffffffffff\n  and\n    /* \"VaultCoin_flattened.sol\":28862:28867  value */\n  dup5\n    /* \"VaultCoin_flattened.sol\":28830:28843  super._update */\n  shl(0x20, tag_55)\n    /* \"VaultCoin_flattened.sol\":28830:28868  super._update(from, taxAddress, value) */\n  0x20\n  shr\n  jump\t// in\ntag_64:\n    /* \"VaultCoin_flattened.sol\":28660:28879  { ... */\n  pop\n    /* \"VaultCoin_flattened.sol\":28645:28879  if(_taxEnabled){ ... */\ntag_57:\n    /* \"VaultCoin_flattened.sol\":28490:28879  if(_taxList[from] || !_taxEnabled){... */\ntag_56:\n    /* \"VaultCoin_flattened.sol\":27966:28898  function _update(address from, address to, uint256 value) internal override {... */\n  pop\n  pop\n  pop\n  jump\t// out\n    /* \"VaultCoin_flattened.sol\":16908:18015  function _update(address from, address to, uint256 value) internal virtual {... */\ntag_55:\n    /* \"VaultCoin_flattened.sol\":17013:17014  0 */\n  0x00\n    /* \"VaultCoin_flattened.sol\":16997:17015  from == address(0) */\n  0xffffffffffffffffffffffffffffffffffffffff\n  and\n    /* \"VaultCoin_flattened.sol\":16997:17001  from */\n  dup4\n    /* \"VaultCoin_flattened.sol\":16997:17015  from == address(0) */\n  0xffffffffffffffffffffffffffffffffffffffff\n  and\n  sub\n    /* \"VaultCoin_flattened.sol\":16993:17533  if (from == address(0)) {... */\n  tag_66\n  jumpi\n    /* \"VaultCoin_flattened.sol\":17149:17154  value */\n  dup1\n    /* \"VaultCoin_flattened.sol\":17133:17145  _totalSupply */\n  0x02\n  0x00\n    /* \"VaultCoin_flattened.sol\":17133:17154  _totalSupply += value */\n  dup3\n  dup3\n  sload\n  tag_67\n  swap2\n  swap1\n  tag_48\n  jump\t// in\ntag_67:\n  swap3\n  pop\n  pop\n  dup2\n  swap1\n  sstore\n  pop\n    /* \"VaultCoin_flattened.sol\":16993:17533  if (from == address(0)) {... */\n  jump(tag_68)\ntag_66:\n    /* \"VaultCoin_flattened.sol\":17185:17204  uint256 fromBalance */\n  0x00\n    /* \"VaultCoin_flattened.sol\":17207:17216  _balances */\n  0x00\n    /* \"VaultCoin_flattened.sol\":17207:17222  _balances[from] */\n  0x00\n    /* \"VaultCoin_flattened.sol\":17217:17221  from */\n  dup6\n    /* \"VaultCoin_flattened.sol\":17207:17222  _balances[from] */\n  0xffffffffffffffffffffffffffffffffffffffff\n  and\n  0xffffffffffffffffffffffffffffffffffffffff\n  and\n  dup2\n  mstore\n  0x20\n  add\n  swap1\n  dup2\n  mstore\n  0x20\n  add\n  0x00\n  keccak256\n  sload\n    /* \"VaultCoin_flattened.sol\":17185:17222  uint256 fromBalance = _balances[from] */\n  swap1\n  pop\n    /* \"VaultCoin_flattened.sol\":17254:17259  value */\n  dup2\n    /* \"VaultCoin_flattened.sol\":17240:17251  fromBalance */\n  dup2\n    /* \"VaultCoin_flattened.sol\":17240:17259  fromBalance < value */\n  lt\n    /* \"VaultCoin_flattened.sol\":17236:17351  if (fromBalance < value) {... */\n  iszero\n  tag_69\n  jumpi\n    /* \"VaultCoin_flattened.sol\":17311:17315  from */\n  dup4\n    /* \"VaultCoin_flattened.sol\":17317:17328  fromBalance */\n  dup2\n    /* \"VaultCoin_flattened.sol\":17330:17335  value */\n  dup4\n    /* \"VaultCoin_flattened.sol\":17286:17336  ERC20InsufficientBalance(from, fromBalance, value) */\n  mload(0x40)\n  0xe450d38c00000000000000000000000000000000000000000000000000000000\n  dup2\n  mstore\n  0x04\n  add\n  tag_70\n  swap4\n  swap3\n  swap2\n  swap1\n  tag_71\n  jump\t// in\ntag_70:\n  mload(0x40)\n  dup1\n  swap2\n  sub\n  swap1\n  revert\n    /* \"VaultCoin_flattened.sol\":17236:17351  if (fromBalance < value) {... */\ntag_69:\n    /* \"VaultCoin_flattened.sol\":17503:17508  value */\n  dup2\n    /* \"VaultCoin_flattened.sol\":17489:17500  fromBalance */\n  dup2\n    /* \"VaultCoin_flattened.sol\":17489:17508  fromBalance - value */\n  sub\n    /* \"VaultCoin_flattened.sol\":17471:17480  _balances */\n  0x00\n    /* \"VaultCoin_flattened.sol\":17471:17486  _balances[from] */\n  0x00\n    /* \"VaultCoin_flattened.sol\":17481:17485  from */\n  dup7\n    /* \"VaultCoin_flattened.sol\":17471:17486  _balances[from] */\n  0xffffffffffffffffffffffffffffffffffffffff\n  and\n  0xffffffffffffffffffffffffffffffffffffffff\n  and\n  dup2\n  mstore\n  0x20\n  add\n  swap1\n  dup2\n  mstore\n  0x20\n  add\n  0x00\n  keccak256\n    /* \"VaultCoin_flattened.sol\":17471:17508  _balances[from] = fromBalance - value */\n  dup2\n  swap1\n  sstore\n  pop\n    /* \"VaultCoin_flattened.sol\":17171:17533  {... */\n  pop\n    /* \"VaultCoin_flattened.sol\":16993:17533  if (from == address(0)) {... */\ntag_68:\n    /* \"VaultCoin_flattened.sol\":17561:17562  0 */\n  0x00\n    /* \"VaultCoin_flattened.sol\":17547:17563  to == address(0) */\n  0xffffffffffffffffffffffffffffffffffffffff\n  and\n    /* \"VaultCoin_flattened.sol\":17547:17549  to */\n  dup3\n    /* \"VaultCoin_flattened.sol\":17547:17563  to == address(0) */\n  0xffffffffffffffffffffffffffffffffffffffff\n  and\n  sub\n    /* \"VaultCoin_flattened.sol\":17543:17968  if (to == address(0)) {... */\n  tag_72\n  jumpi\n    /* \"VaultCoin_flattened.sol\":17726:17731  value */\n  dup1\n    /* \"VaultCoin_flattened.sol\":17710:17722  _totalSupply */\n  0x02\n  0x00\n    /* \"VaultCoin_flattened.sol\":17710:17731  _totalSupply -= value */\n  dup3\n  dup3\n  sload\n  sub\n  swap3\n  pop\n  pop\n  dup2\n  swap1\n  sstore\n  pop\n    /* \"VaultCoin_flattened.sol\":17543:17968  if (to == address(0)) {... */\n  jump(tag_73)\ntag_72:\n    /* \"VaultCoin_flattened.sol\":17938:17943  value */\n  dup1\n    /* \"VaultCoin_flattened.sol\":17921:17930  _balances */\n  0x00\n    /* \"VaultCoin_flattened.sol\":17921:17934  _balances[to] */\n  0x00\n    /* \"VaultCoin_flattened.sol\":17931:17933  to */\n  dup5\n    /* \"VaultCoin_flattened.sol\":17921:17934  _balances[to] */\n  0xffffffffffffffffffffffffffffffffffffffff\n  and\n  0xffffffffffffffffffffffffffffffffffffffff\n  and\n  dup2\n  mstore\n  0x20\n  add\n  swap1\n  dup2\n  mstore\n  0x20\n  add\n  0x00\n  keccak256\n  0x00\n    /* \"VaultCoin_flattened.sol\":17921:17943  _balances[to] += value */\n  dup3\n  dup3\n  sload\n  add\n  swap3\n  pop\n  pop\n  dup2\n  swap1\n  sstore\n  pop\n    /* \"VaultCoin_flattened.sol\":17543:17968  if (to == address(0)) {... */\ntag_73:\n    /* \"VaultCoin_flattened.sol\":17998:18000  to */\n  dup2\n    /* \"VaultCoin_flattened.sol\":17983:18008  Transfer(from, to, value) */\n  0xffffffffffffffffffffffffffffffffffffffff\n  and\n    /* \"VaultCoin_flattened.sol\":17992:17996  from */\n  dup4\n    /* \"VaultCoin_flattened.sol\":17983:18008  Transfer(from, to, value) */\n  0xffffffffffffffffffffffffffffffffffffffff\n  and\n  0xddf252ad1be2c89b69c2b068fc378daa952ba7f163c4a11628f55a4df523b3ef\n    /* \"VaultCoin_flattened.sol\":18002:18007  value */\n  dup4\n    /* \"VaultCoin_flattened.sol\":17983:18008  Transfer(from, to, value) */\n  mload(0x40)\n  tag_74\n  swap2\n  swap1\n  tag_75\n  jump\t// in\ntag_74:\n  mload(0x40)\n  dup1\n  swap2\n  sub\n  swap1\n  log3\n    /* \"VaultCoin_flattened.sol\":16908:18015  function _update(address from, address to, uint256 value) internal virtual {... */\n  pop\n  pop\n  pop\n  jump\t// out\n    /* \"#utility.yul\":7:187   */\ntag_76:\n    /* \"#utility.yul\":55:132   */\n  0x4e487b7100000000000000000000000000000000000000000000000000000000\n    /* \"#utility.yul\":52:53   */\n  0x00\n    /* \"#utility.yul\":45:133   */\n  mstore\n    /* \"#utility.yul\":152:156   */\n  0x11\n    /* \"#utility.yul\":149:150   */\n  0x04\n    /* \"#utility.yul\":142:157   */\n  mstore\n    /* \"#utility.yul\":176:180   */\n  0x24\n    /* \"#utility.yul\":173:174   */\n  0x00\n    /* \"#utility.yul\":166:181   */\n  revert\n    /* \"#utility.yul\":193:295   */\ntag_77:\n    /* \"#utility.yul\":235:243   */\n  0x00\n    /* \"#utility.yul\":282:287   */\n  dup2\n    /* \"#utility.yul\":279:280   */\n  0x01\n    /* \"#utility.yul\":275:288   */\n  shr\n    /* \"#utility.yul\":254:288   */\n  swap1\n  pop\n    /* \"#utility.yul\":193:295   */\n  swap2\n  swap1\n  pop\n  jump\t// out\n    /* \"#utility.yul\":301:1149   */\ntag_78:\n    /* \"#utility.yul\":362:367   */\n  0x00\n    /* \"#utility.yul\":369:373   */\n  0x00\n    /* \"#utility.yul\":393:399   */\n  dup3\n    /* \"#utility.yul\":384:399   */\n  swap2\n  pop\n    /* \"#utility.yul\":417:422   */\n  dup4\n    /* \"#utility.yul\":408:422   */\n  swap1\n  pop\n    /* \"#utility.yul\":431:1143   */\ntag_124:\n    /* \"#utility.yul\":452:453   */\n  0x01\n    /* \"#utility.yul\":442:450   */\n  dup6\n    /* \"#utility.yul\":439:454   */\n  gt\n    /* \"#utility.yul\":431:1143   */\n  iszero\n  tag_126\n  jumpi\n    /* \"#utility.yul\":547:551   */\n  dup1\n    /* \"#utility.yul\":542:545   */\n  dup7\n    /* \"#utility.yul\":538:552   */\n  div\n    /* \"#utility.yul\":532:536   */\n  dup2\n    /* \"#utility.yul\":529:553   */\n  gt\n    /* \"#utility.yul\":526:576   */\n  iszero\n  tag_127\n  jumpi\n    /* \"#utility.yul\":556:574   */\n  tag_128\n  tag_76\n  jump\t// in\ntag_128:\n    /* \"#utility.yul\":526:576   */\ntag_127:\n    /* \"#utility.yul\":606:607   */\n  0x01\n    /* \"#utility.yul\":596:604   */\n  dup6\n    /* \"#utility.yul\":592:608   */\n  and\n    /* \"#utility.yul\":589:1040   */\n  iszero\n  tag_129\n  jumpi\n    /* \"#utility.yul\":1021:1025   */\n  dup1\n    /* \"#utility.yul\":1014:1019   */\n  dup3\n    /* \"#utility.yul\":1010:1026   */\n  mul\n    /* \"#utility.yul\":1001:1026   */\n  swap2\n  pop\n    /* \"#utility.yul\":589:1040   */\ntag_129:\n    /* \"#utility.yul\":1071:1075   */\n  dup1\n    /* \"#utility.yul\":1065:1069   */\n  dup2\n    /* \"#utility.yul\":1061:1076   */\n  mul\n    /* \"#utility.yul\":1053:1076   */\n  swap1\n  pop\n    /* \"#utility.yul\":1101:1133   */\n  tag_130\n    /* \"#utility.yul\":1124:1132   */\n  dup6\n    /* \"#utility.yul\":1101:1133   */\n  tag_77\n  jump\t// in\ntag_130:\n    /* \"#utility.yul\":1089:1133   */\n  swap5\n  pop\n    /* \"#utility.yul\":431:1143   */\n  jump(tag_124)\ntag_126:\n    /* \"#utility.yul\":301:1149   */\n  swap5\n  pop\n  swap5\n  swap3\n  pop\n  pop\n  pop\n  jump\t// out\n    /* \"#utility.yul\":1155:2228   */\ntag_79:\n    /* \"#utility.yul\":1209:1214   */\n  0x00\n    /* \"#utility.yul\":1400:1408   */\n  dup3\n    /* \"#utility.yul\":1390:1430   */\n  tag_132\n  jumpi\n    /* \"#utility.yul\":1421:1422   */\n  0x01\n    /* \"#utility.yul\":1412:1422   */\n  swap1\n  pop\n    /* \"#utility.yul\":1423:1428   */\n  jump(tag_131)\n    /* \"#utility.yul\":1390:1430   */\ntag_132:\n    /* \"#utility.yul\":1449:1453   */\n  dup2\n    /* \"#utility.yul\":1439:1475   */\n  tag_133\n  jumpi\n    /* \"#utility.yul\":1466:1467   */\n  0x00\n    /* \"#utility.yul\":1457:1467   */\n  swap1\n  pop\n    /* \"#utility.yul\":1468:1473   */\n  jump(tag_131)\n    /* \"#utility.yul\":1439:1475   */\ntag_133:\n    /* \"#utility.yul\":1535:1539   */\n  dup2\n    /* \"#utility.yul\":1583:1584   */\n  0x01\n    /* \"#utility.yul\":1578:1605   */\n  dup2\n  eq\n  tag_135\n  jumpi\n    /* \"#utility.yul\":1619:1620   */\n  0x02\n    /* \"#utility.yul\":1614:1805   */\n  dup2\n  eq\n  tag_136\n  jumpi\n    /* \"#utility.yul\":1528:1805   */\n  jump(tag_134)\n    /* \"#utility.yul\":1578:1605   */\ntag_135:\n    /* \"#utility.yul\":1596:1597   */\n  0x01\n    /* \"#utility.yul\":1587:1597   */\n  swap2\n  pop\n    /* \"#utility.yul\":1598:1603   */\n  pop\n  jump(tag_131)\n    /* \"#utility.yul\":1614:1805   */\ntag_136:\n    /* \"#utility.yul\":1659:1662   */\n  0xff\n    /* \"#utility.yul\":1649:1657   */\n  dup5\n    /* \"#utility.yul\":1646:1663   */\n  gt\n    /* \"#utility.yul\":1643:1686   */\n  iszero\n  tag_137\n  jumpi\n    /* \"#utility.yul\":1666:1684   */\n  tag_138\n  tag_76\n  jump\t// in\ntag_138:\n    /* \"#utility.yul\":1643:1686   */\ntag_137:\n    /* \"#utility.yul\":1715:1723   */\n  dup4\n    /* \"#utility.yul\":1712:1713   */\n  0x02\n    /* \"#utility.yul\":1708:1724   */\n  exp\n    /* \"#utility.yul\":1699:1724   */\n  swap2\n  pop\n    /* \"#utility.yul\":1750:1753   */\n  dup5\n    /* \"#utility.yul\":1743:1748   */\n  dup3\n    /* \"#utility.yul\":1740:1754   */\n  gt\n    /* \"#utility.yul\":1737:1777   */\n  iszero\n  tag_139\n  jumpi\n    /* \"#utility.yul\":1757:1775   */\n  tag_140\n  tag_76\n  jump\t// in\ntag_140:\n    /* \"#utility.yul\":1737:1777   */\ntag_139:\n    /* \"#utility.yul\":1790:1795   */\n  pop\n  jump(tag_131)\n    /* \"#utility.yul\":1528:1805   */\ntag_134:\n  pop\n    /* \"#utility.yul\":1914:1916   */\n  0x20\n    /* \"#utility.yul\":1904:1912   */\n  dup4\n    /* \"#utility.yul\":1901:1917   */\n  lt\n    /* \"#utility.yul\":1895:1898   */\n  0x0133\n    /* \"#utility.yul\":1889:1893   */\n  dup4\n    /* \"#utility.yul\":1886:1899   */\n  lt\n    /* \"#utility.yul\":1882:1918   */\n  and\n    /* \"#utility.yul\":1864:1866   */\n  0x4e\n    /* \"#utility.yul\":1854:1862   */\n  dup5\n    /* \"#utility.yul\":1851:1867   */\n  lt\n    /* \"#utility.yul\":1846:1848   */\n  0x0b\n    /* \"#utility.yul\":1840:1844   */\n  dup5\n    /* \"#utility.yul\":1837:1849   */\n  lt\n    /* \"#utility.yul\":1833:1868   */\n  and\n    /* \"#utility.yul\":1817:1928   */\n  or\n    /* \"#utility.yul\":1814:2060   */\n  iszero\n  tag_141\n  jumpi\n    /* \"#utility.yul\":1970:1978   */\n  dup3\n    /* \"#utility.yul\":1964:1968   */\n  dup3\n    /* \"#utility.yul\":1960:1979   */\n  exp\n    /* \"#utility.yul\":1951:1979   */\n  swap1\n  pop\n    /* \"#utility.yul\":2005:2008   */\n  dup4\n    /* \"#utility.yul\":1998:2003   */\n  dup2\n    /* \"#utility.yul\":1995:2009   */\n  gt\n    /* \"#utility.yul\":1992:2032   */\n  iszero\n  tag_142\n  jumpi\n    /* \"#utility.yul\":2012:2030   */\n  tag_143\n  tag_76\n  jump\t// in\ntag_143:\n    /* \"#utility.yul\":1992:2032   */\ntag_142:\n    /* \"#utility.yul\":2045:2050   */\n  jump(tag_131)\n    /* \"#utility.yul\":1814:2060   */\ntag_141:\n    /* \"#utility.yul\":2085:2127   */\n  tag_144\n    /* \"#utility.yul\":2123:2126   */\n  dup5\n    /* \"#utility.yul\":2113:2121   */\n  dup5\n    /* \"#utility.yul\":2107:2111   */\n  dup5\n    /* \"#utility.yul\":2104:2105   */\n  0x01\n    /* \"#utility.yul\":2085:2127   */\n  tag_78\n  jump\t// in\ntag_144:\n    /* \"#utility.yul\":2070:2127   */\n  swap3\n  pop\n  swap1\n  pop\n    /* \"#utility.yul\":2159:2163   */\n  dup2\n    /* \"#utility.yul\":2154:2157   */\n  dup5\n    /* \"#utility.yul\":2150:2164   */\n  div\n    /* \"#utility.yul\":2143:2148   */\n  dup2\n    /* \"#utility.yul\":2140:2165   */\n  gt\n    /* \"#utility.yul\":2137:2188   */\n  iszero\n  tag_145\n  jumpi\n    /* \"#utility.yul\":2168:2186   */\n  tag_146\n  tag_76\n  jump\t// in\ntag_146:\n    /* \"#utility.yul\":2137:2188   */\ntag_145:\n    /* \"#utility.yul\":2217:2221   */\n  dup2\n    /* \"#utility.yul\":2210:2215   */\n  dup2\n    /* \"#utility.yul\":2206:2222   */\n  mul\n    /* \"#utility.yul\":2197:2222   */\n  swap1\n  pop\n    /* \"#utility.yul\":1155:2228   */\ntag_131:\n  swap4\n  swap3\n  pop\n  pop\n  pop\n  jump\t// out\n    /* \"#utility.yul\":2234:2311   */\ntag_80:\n    /* \"#utility.yul\":2271:2278   */\n  0x00\n    /* \"#utility.yul\":2300:2305   */\n  dup2\n    /* \"#utility.yul\":2289:2305   */\n  swap1\n  pop\n    /* \"#utility.yul\":2234:2311   */\n  swap2\n  swap1\n  pop\n  jump\t// out\n    /* \"#utility.yul\":2317:2403   */\ntag_81:\n    /* \"#utility.yul\":2352:2359   */\n  0x00\n    /* \"#utility.yul\":2392:2396   */\n  0xff\n    /* \"#utility.yul\":2385:2390   */\n  dup3\n    /* \"#utility.yul\":2381:2397   */\n  and\n    /* \"#utility.yul\":2370:2397   */\n  swap1\n  pop\n    /* \"#utility.yul\":2317:2403   */\n  swap2\n  swap1\n  pop\n  jump\t// out\n    /* \"#utility.yul\":2409:2690   */\ntag_4:\n    /* \"#utility.yul\":2467:2472   */\n  0x00\n    /* \"#utility.yul\":2491:2514   */\n  tag_150\n    /* \"#utility.yul\":2509:2513   */\n  dup3\n    /* \"#utility.yul\":2491:2514   */\n  tag_80\n  jump\t// in\ntag_150:\n    /* \"#utility.yul\":2483:2514   */\n  swap2\n  pop\n    /* \"#utility.yul\":2535:2560   */\n  tag_151\n    /* \"#utility.yul\":2551:2559   */\n  dup4\n    /* \"#utility.yul\":2535:2560   */\n  tag_81\n  jump\t// in\ntag_151:\n    /* \"#utility.yul\":2523:2560   */\n  swap3\n  pop\n    /* \"#utility.yul\":2579:2683   */\n  tag_152\n    /* \"#utility.yul\":2616:2682   */\n  0xffffffffffffffffffffffffffffffffffffffffffffffffffffffffffffffff\n    /* \"#utility.yul\":2606:2614   */\n  dup5\n    /* \"#utility.yul\":2600:2604   */\n  dup5\n    /* \"#utility.yul\":2579:2683   */\n  tag_79\n  jump\t// in\ntag_152:\n    /* \"#utility.yul\":2570:2683   */\n  swap1\n  pop\n    /* \"#utility.yul\":2409:2690   */\n  swap3\n  swap2\n  pop\n  pop\n  jump\t// out\n    /* \"#utility.yul\":2696:3106   */\ntag_6:\n    /* \"#utility.yul\":2736:2743   */\n  0x00\n    /* \"#utility.yul\":2759:2779   */\n  tag_154\n    /* \"#utility.yul\":2777:2778   */\n  dup3\n    /* \"#utility.yul\":2759:2779   */\n  tag_80\n  jump\t// in\ntag_154:\n    /* \"#utility.yul\":2754:2779   */\n  swap2\n  pop\n    /* \"#utility.yul\":2793:2813   */\n  tag_155\n    /* \"#utility.yul\":2811:2812   */\n  dup4\n    /* \"#utility.yul\":2793:2813   */\n  tag_80\n  jump\t// in\ntag_155:\n    /* \"#utility.yul\":2788:2813   */\n  swap3\n  pop\n    /* \"#utility.yul\":2848:2849   */\n  dup3\n    /* \"#utility.yul\":2845:2846   */\n  dup3\n    /* \"#utility.yul\":2841:2850   */\n  mul\n    /* \"#utility.yul\":2870:2900   */\n  tag_156\n    /* \"#utility.yul\":2888:2899   */\n  dup2\n    /* \"#utility.yul\":2870:2900   */\n  tag_80\n  jump\t// in\ntag_156:\n    /* \"#utility.yul\":2859:2900   */\n  swap2\n  pop\n    /* \"#utility.yul\":3049:3050   */\n  dup3\n    /* \"#utility.yul\":3040:3047   */\n  dup3\n    /* \"#utility.yul\":3036:3051   */\n  div\n    /* \"#utility.yul\":3033:3034   */\n  dup5\n    /* \"#utility.yul\":3030:3052   */\n  eq\n    /* \"#utility.yul\":3010:3011   */\n  dup4\n    /* \"#utility.yul\":3003:3012   */\n  iszero\n    /* \"#utility.yul\":2983:3066   */\n  or\n    /* \"#utility.yul\":2960:3099   */\n  tag_157\n  jumpi\n    /* \"#utility.yul\":3079:3097   */\n  tag_158\n  tag_76\n  jump\t// in\ntag_158:\n    /* \"#utility.yul\":2960:3099   */\ntag_157:\n    /* \"#utility.yul\":2744:3106   */\n  pop\n    /* \"#utility.yul\":2696:3106   */\n  swap3\n  swap2\n  pop\n  pop\n  jump\t// out\n    /* \"#utility.yul\":3193:3310   */\ntag_83:\n    /* \"#utility.yul\":3302:3303   */\n  0x00\n    /* \"#utility.yul\":3299:3300   */\n  0x00\n    /* \"#utility.yul\":3292:3304   */\n  revert\n    /* \"#utility.yul\":3439:3565   */\ntag_85:\n    /* \"#utility.yul\":3476:3483   */\n  0x00\n    /* \"#utility.yul\":3516:3558   */\n  0xffffffffffffffffffffffffffffffffffffffff\n    /* \"#utility.yul\":3509:3514   */\n  dup3\n    /* \"#utility.yul\":3505:3559   */\n  and\n    /* \"#utility.yul\":3494:3559   */\n  swap1\n  pop\n    /* \"#utility.yul\":3439:3565   */\n  swap2\n  swap1\n  pop\n  jump\t// out\n    /* \"#utility.yul\":3571:3667   */\ntag_86:\n    /* \"#utility.yul\":3608:3615   */\n  0x00\n    /* \"#utility.yul\":3637:3661   */\n  tag_164\n    /* \"#utility.yul\":3655:3660   */\n  dup3\n    /* \"#utility.yul\":3637:3661   */\n  tag_85\n  jump\t// in\ntag_164:\n    /* \"#utility.yul\":3626:3661   */\n  swap1\n  pop\n    /* \"#utility.yul\":3571:3667   */\n  swap2\n  swap1\n  pop\n  jump\t// out\n    /* \"#utility.yul\":3673:3795   */\ntag_87:\n    /* \"#utility.yul\":3746:3770   */\n  tag_166\n    /* \"#utility.yul\":3764:3769   */\n  dup2\n    /* \"#utility.yul\":3746:3770   */\n  tag_86\n  jump\t// in\ntag_166:\n    /* \"#utility.yul\":3739:3744   */\n  dup2\n    /* \"#utility.yul\":3736:3771   */\n  eq\n    /* \"#utility.yul\":3726:3789   */\n  tag_167\n  jumpi\n    /* \"#utility.yul\":3785:3786   */\n  0x00\n    /* \"#utility.yul\":3782:3783   */\n  0x00\n    /* \"#utility.yul\":3775:3787   */\n  revert\n    /* \"#utility.yul\":3726:3789   */\ntag_167:\n    /* \"#utility.yul\":3673:3795   */\n  pop\n  jump\t// out\n    /* \"#utility.yul\":3801:3944   */\ntag_88:\n    /* \"#utility.yul\":3858:3863   */\n  0x00\n    /* \"#utility.yul\":3889:3895   */\n  dup2\n    /* \"#utility.yul\":3883:3896   */\n  mload\n    /* \"#utility.yul\":3874:3896   */\n  swap1\n  pop\n    /* \"#utility.yul\":3905:3938   */\n  tag_169\n    /* \"#utility.yul\":3932:3937   */\n  dup2\n    /* \"#utility.yul\":3905:3938   */\n  tag_87\n  jump\t// in\ntag_169:\n    /* \"#utility.yul\":3801:3944   */\n  swap3\n  swap2\n  pop\n  pop\n  jump\t// out\n    /* \"#utility.yul\":3950:4457   */\ntag_9:\n    /* \"#utility.yul\":4029:4035   */\n  0x00\n    /* \"#utility.yul\":4037:4043   */\n  0x00\n    /* \"#utility.yul\":4086:4088   */\n  0x40\n    /* \"#utility.yul\":4074:4083   */\n  dup4\n    /* \"#utility.yul\":4065:4072   */\n  dup6\n    /* \"#utility.yul\":4061:4084   */\n  sub\n    /* \"#utility.yul\":4057:4089   */\n  slt\n    /* \"#utility.yul\":4054:4173   */\n  iszero\n  tag_171\n  jumpi\n    /* \"#utility.yul\":4092:4171   */\n  tag_172\n  tag_83\n  jump\t// in\ntag_172:\n    /* \"#utility.yul\":4054:4173   */\ntag_171:\n    /* \"#utility.yul\":4212:4213   */\n  0x00\n    /* \"#utility.yul\":4237:4301   */\n  tag_173\n    /* \"#utility.yul\":4293:4300   */\n  dup6\n    /* \"#utility.yul\":4284:4290   */\n  dup3\n    /* \"#utility.yul\":4273:4282   */\n  dup7\n    /* \"#utility.yul\":4269:4291   */\n  add\n    /* \"#utility.yul\":4237:4301   */\n  tag_88\n  jump\t// in\ntag_173:\n    /* \"#utility.yul\":4227:4301   */\n  swap3\n  pop\n    /* \"#utility.yul\":4183:4311   */\n  pop\n    /* \"#utility.yul\":4350:4352   */\n  0x20\n    /* \"#utility.yul\":4376:4440   */\n  tag_174\n    /* \"#utility.yul\":4432:4439   */\n  dup6\n    /* \"#utility.yul\":4423:4429   */\n  dup3\n    /* \"#utility.yul\":4412:4421   */\n  dup7\n    /* \"#utility.yul\":4408:4430   */\n  add\n    /* \"#utility.yul\":4376:4440   */\n  tag_88\n  jump\t// in\ntag_174:\n    /* \"#utility.yul\":4366:4440   */\n  swap2\n  pop\n    /* \"#utility.yul\":4321:4450   */\n  pop\n    /* \"#utility.yul\":3950:4457   */\n  swap3\n  pop\n  swap3\n  swap1\n  pop\n  jump\t// out\n    /* \"#utility.yul\":4463:4562   */\ntag_89:\n    /* \"#utility.yul\":4515:4521   */\n  0x00\n    /* \"#utility.yul\":4549:4554   */\n  dup2\n    /* \"#utility.yul\":4543:4555   */\n  mload\n    /* \"#utility.yul\":4533:4555   */\n  swap1\n  pop\n    /* \"#utility.yul\":4463:4562   */\n  swap2\n  swap1\n  pop\n  jump\t// out\n    /* \"#utility.yul\":4568:4748   */\ntag_90:\n    /* \"#utility.yul\":4616:4693   */\n  0x4e487b7100000000000000000000000000000000000000000000000000000000\n    /* \"#utility.yul\":4613:4614   */\n  0x00\n    /* \"#utility.yul\":4606:4694   */\n  mstore\n    /* \"#utility.yul\":4713:4717   */\n  0x41\n    /* \"#utility.yul\":4710:4711   */\n  0x04\n    /* \"#utility.yul\":4703:4718   */\n  mstore\n    /* \"#utility.yul\":4737:4741   */\n  0x24\n    /* \"#utility.yul\":4734:4735   */\n  0x00\n    /* \"#utility.yul\":4727:4742   */\n  revert\n    /* \"#utility.yul\":4754:4934   */\ntag_91:\n    /* \"#utility.yul\":4802:4879   */\n  0x4e487b7100000000000000000000000000000000000000000000000000000000\n    /* \"#utility.yul\":4799:4800   */\n  0x00\n    /* \"#utility.yul\":4792:4880   */\n  mstore\n    /* \"#utility.yul\":4899:4903   */\n  0x22\n    /* \"#utility.yul\":4896:4897   */\n  0x04\n    /* \"#utility.yul\":4889:4904   */\n  mstore\n    /* \"#utility.yul\":4923:4927   */\n  0x24\n    /* \"#utility.yul\":4920:4921   */\n  0x00\n    /* \"#utility.yul\":4913:4928   */\n  revert\n    /* \"#utility.yul\":4940:5260   */\ntag_92:\n    /* \"#utility.yul\":4984:4990   */\n  0x00\n    /* \"#utility.yul\":5021:5022   */\n  0x02\n    /* \"#utility.yul\":5015:5019   */\n  dup3\n    /* \"#utility.yul\":5011:5023   */\n  div\n    /* \"#utility.yul\":5001:5023   */\n  swap1\n  pop\n    /* \"#utility.yul\":5068:5069   */\n  0x01\n    /* \"#utility.yul\":5062:5066   */\n  dup3\n    /* \"#utility.yul\":5058:5070   */\n  and\n    /* \"#utility.yul\":5089:5107   */\n  dup1\n    /* \"#utility.yul\":5079:5160   */\n  tag_179\n  jumpi\n    /* \"#utility.yul\":5145:5149   */\n  0x7f\n    /* \"#utility.yul\":5137:5143   */\n  dup3\n    /* \"#utility.yul\":5133:5150   */\n  and\n    /* \"#utility.yul\":5123:5150   */\n  swap2\n  pop\n    /* \"#utility.yul\":5079:5160   */\ntag_179:\n    /* \"#utility.yul\":5207:5209   */\n  0x20\n    /* \"#utility.yul\":5199:5205   */\n  dup3\n    /* \"#utility.yul\":5196:5210   */\n  lt\n    /* \"#utility.yul\":5176:5194   */\n  dup2\n    /* \"#utility.yul\":5173:5211   */\n  sub\n    /* \"#utility.yul\":5170:5254   */\n  tag_180\n  jumpi\n    /* \"#utility.yul\":5226:5244   */\n  tag_181\n  tag_91\n  jump\t// in\ntag_181:\n    /* \"#utility.yul\":5170:5254   */\ntag_180:\n    /* \"#utility.yul\":4991:5260   */\n  pop\n    /* \"#utility.yul\":4940:5260   */\n  swap2\n  swap1\n  pop\n  jump\t// out\n    /* \"#utility.yul\":5266:5407   */\ntag_93:\n    /* \"#utility.yul\":5315:5319   */\n  0x00\n    /* \"#utility.yul\":5338:5341   */\n  dup2\n    /* \"#utility.yul\":5330:5341   */\n  swap1\n  pop\n    /* \"#utility.yul\":5361:5364   */\n  dup2\n    /* \"#utility.yul\":5358:5359   */\n  0x00\n    /* \"#utility.yul\":5351:5365   */\n  mstore\n    /* \"#utility.yul\":5395:5399   */\n  0x20\n    /* \"#utility.yul\":5392:5393   */\n  0x00\n    /* \"#utility.yul\":5382:5400   */\n  keccak256\n    /* \"#utility.yul\":5374:5400   */\n  swap1\n  pop\n    /* \"#utility.yul\":5266:5407   */\n  swap2\n  swap1\n  pop\n  jump\t// out\n    /* \"#utility.yul\":5413:5506   */\ntag_94:\n    /* \"#utility.yul\":5450:5456   */\n  0x00\n    /* \"#utility.yul\":5497:5499   */\n  0x20\n    /* \"#utility.yul\":5492:5494   */\n  0x1f\n    /* \"#utility.yul\":5485:5490   */\n  dup4\n    /* \"#utility.yul\":5481:5495   */\n  add\n    /* \"#utility.yul\":5477:5500   */\n  div\n    /* \"#utility.yul\":5467:5500   */\n  swap1\n  pop\n    /* \"#utility.yul\":5413:5506   */\n  swap2\n  swap1\n  pop\n  jump\t// out\n    /* \"#utility.yul\":5512:5619   */\ntag_95:\n    /* \"#utility.yul\":5556:5564   */\n  0x00\n    /* \"#utility.yul\":5606:5611   */\n  dup3\n    /* \"#utility.yul\":5600:5604   */\n  dup3\n    /* \"#utility.yul\":5596:5612   */\n  shl\n    /* \"#utility.yul\":5575:5612   */\n  swap1\n  pop\n    /* \"#utility.yul\":5512:5619   */\n  swap3\n  swap2\n  pop\n  pop\n  jump\t// out\n    /* \"#utility.yul\":5625:6018   */\ntag_96:\n    /* \"#utility.yul\":5694:5700   */\n  0x00\n    /* \"#utility.yul\":5744:5745   */\n  0x08\n    /* \"#utility.yul\":5732:5742   */\n  dup4\n    /* \"#utility.yul\":5728:5746   */\n  mul\n    /* \"#utility.yul\":5767:5864   */\n  tag_186\n    /* \"#utility.yul\":5797:5863   */\n  0xffffffffffffffffffffffffffffffffffffffffffffffffffffffffffffffff\n    /* \"#utility.yul\":5786:5795   */\n  dup3\n    /* \"#utility.yul\":5767:5864   */\n  tag_95\n  jump\t// in\ntag_186:\n    /* \"#utility.yul\":5885:5924   */\n  tag_187\n    /* \"#utility.yul\":5915:5923   */\n  dup7\n    /* \"#utility.yul\":5904:5913   */\n  dup4\n    /* \"#utility.yul\":5885:5924   */\n  tag_95\n  jump\t// in\ntag_187:\n    /* \"#utility.yul\":5873:5924   */\n  swap6\n  pop\n    /* \"#utility.yul\":5957:5961   */\n  dup1\n    /* \"#utility.yul\":5953:5962   */\n  not\n    /* \"#utility.yul\":5946:5951   */\n  dup5\n    /* \"#utility.yul\":5942:5963   */\n  and\n    /* \"#utility.yul\":5933:5963   */\n  swap4\n  pop\n    /* \"#utility.yul\":6006:6010   */\n  dup1\n    /* \"#utility.yul\":5996:6004   */\n  dup7\n    /* \"#utility.yul\":5992:6011   */\n  and\n    /* \"#utility.yul\":5985:5990   */\n  dup5\n    /* \"#utility.yul\":5982:6012   */\n  or\n    /* \"#utility.yul\":5972:6012   */\n  swap3\n  pop\n    /* \"#utility.yul\":5701:6018   */\n  pop\n  pop\n    /* \"#utility.yul\":5625:6018   */\n  swap4\n  swap3\n  pop\n  pop\n  pop\n  jump\t// out\n    /* \"#utility.yul\":6024:6084   */\ntag_97:\n    /* \"#utility.yul\":6052:6055   */\n  0x00\n    /* \"#utility.yul\":6073:6078   */\n  dup2\n    /* \"#utility.yul\":6066:6078   */\n  swap1\n  pop\n    /* \"#utility.yul\":6024:6084   */\n  swap2\n  swap1\n  pop\n  jump\t// out\n    /* \"#utility.yul\":6090:6232   */\ntag_98:\n    /* \"#utility.yul\":6140:6149   */\n  0x00\n    /* \"#utility.yul\":6173:6226   */\n  tag_190\n    /* \"#utility.yul\":6191:6225   */\n  tag_191\n    /* \"#utility.yul\":6200:6224   */\n  tag_192\n    /* \"#utility.yul\":6218:6223   */\n  dup5\n    /* \"#utility.yul\":6200:6224   */\n  tag_80\n  jump\t// in\ntag_192:\n    /* \"#utility.yul\":6191:6225   */\n  tag_97\n  jump\t// in\ntag_191:\n    /* \"#utility.yul\":6173:6226   */\n  tag_80\n  jump\t// in\ntag_190:\n    /* \"#utility.yul\":6160:6226   */\n  swap1\n  pop\n    /* \"#utility.yul\":6090:6232   */\n  swap2\n  swap1\n  pop\n  jump\t// out\n    /* \"#utility.yul\":6238:6313   */\ntag_99:\n    /* \"#utility.yul\":6281:6284   */\n  0x00\n    /* \"#utility.yul\":6302:6307   */\n  dup2\n    /* \"#utility.yul\":6295:6307   */\n  swap1\n  pop\n    /* \"#utility.yul\":6238:6313   */\n  swap2\n  swap1\n  pop\n  jump\t// out\n    /* \"#utility.yul\":6319:6588   */\ntag_100:\n    /* \"#utility.yul\":6429:6468   */\n  tag_195\n    /* \"#utility.yul\":6460:6467   */\n  dup4\n    /* \"#utility.yul\":6429:6468   */\n  tag_98\n  jump\t// in\ntag_195:\n    /* \"#utility.yul\":6490:6581   */\n  tag_196\n    /* \"#utility.yul\":6539:6580   */\n  tag_197\n    /* \"#utility.yul\":6563:6579   */\n  dup3\n    /* \"#utility.yul\":6539:6580   */\n  tag_99\n  jump\t// in\ntag_197:\n    /* \"#utility.yul\":6531:6537   */\n  dup5\n    /* \"#utility.yul\":6524:6528   */\n  dup5\n    /* \"#utility.yul\":6518:6529   */\n  sload\n    /* \"#utility.yul\":6490:6581   */\n  tag_96\n  jump\t// in\ntag_196:\n    /* \"#utility.yul\":6484:6488   */\n  dup3\n    /* \"#utility.yul\":6477:6582   */\n  sstore\n    /* \"#utility.yul\":6395:6588   */\n  pop\n    /* \"#utility.yul\":6319:6588   */\n  pop\n  pop\n  pop\n  jump\t// out\n    /* \"#utility.yul\":6594:6667   */\ntag_101:\n    /* \"#utility.yul\":6639:6642   */\n  0x00\n    /* \"#utility.yul\":6660:6661   */\n  0x00\n    /* \"#utility.yul\":6653:6661   */\n  swap1\n  pop\n    /* \"#utility.yul\":6594:6667   */\n  swap1\n  jump\t// out\n    /* \"#utility.yul\":6673:6862   */\ntag_102:\n    /* \"#utility.yul\":6750:6782   */\n  tag_200\n  tag_101\n  jump\t// in\ntag_200:\n    /* \"#utility.yul\":6791:6856   */\n  tag_201\n    /* \"#utility.yul\":6849:6855   */\n  dup2\n    /* \"#utility.yul\":6841:6847   */\n  dup5\n    /* \"#utility.yul\":6835:6839   */\n  dup5\n    /* \"#utility.yul\":6791:6856   */\n  tag_100\n  jump\t// in\ntag_201:\n    /* \"#utility.yul\":6726:6862   */\n  pop\n    /* \"#utility.yul\":6673:6862   */\n  pop\n  pop\n  jump\t// out\n    /* \"#utility.yul\":6868:7054   */\ntag_103:\n    /* \"#utility.yul\":6928:7048   */\ntag_203:\n    /* \"#utility.yul\":6945:6948   */\n  dup2\n    /* \"#utility.yul\":6938:6943   */\n  dup2\n    /* \"#utility.yul\":6935:6949   */\n  lt\n    /* \"#utility.yul\":6928:7048   */\n  iszero\n  tag_205\n  jumpi\n    /* \"#utility.yul\":6999:7038   */\n  tag_206\n    /* \"#utility.yul\":7036:7037   */\n  0x00\n    /* \"#utility.yul\":7029:7034   */\n  dup3\n    /* \"#utility.yul\":6999:7038   */\n  tag_102\n  jump\t// in\ntag_206:\n    /* \"#utility.yul\":6972:6973   */\n  0x01\n    /* \"#utility.yul\":6965:6970   */\n  dup2\n    /* \"#utility.yul\":6961:6974   */\n  add\n    /* \"#utility.yul\":6952:6974   */\n  swap1\n  pop\n    /* \"#utility.yul\":6928:7048   */\n  jump(tag_203)\ntag_205:\n    /* \"#utility.yul\":6868:7054   */\n  pop\n  pop\n  jump\t// out\n    /* \"#utility.yul\":7060:7603   */\ntag_104:\n    /* \"#utility.yul\":7161:7163   */\n  0x1f\n    /* \"#utility.yul\":7156:7159   */\n  dup3\n    /* \"#utility.yul\":7153:7164   */\n  gt\n    /* \"#utility.yul\":7150:7596   */\n  iszero\n  tag_208\n  jumpi\n    /* \"#utility.yul\":7195:7233   */\n  tag_209\n    /* \"#utility.yul\":7227:7232   */\n  dup2\n    /* \"#utility.yul\":7195:7233   */\n  tag_93\n  jump\t// in\ntag_209:\n    /* \"#utility.yul\":7279:7308   */\n  tag_210\n    /* \"#utility.yul\":7297:7307   */\n  dup5\n    /* \"#utility.yul\":7279:7308   */\n  tag_94\n  jump\t// in\ntag_210:\n    /* \"#utility.yul\":7269:7277   */\n  dup2\n    /* \"#utility.yul\":7265:7309   */\n  add\n    /* \"#utility.yul\":7462:7464   */\n  0x20\n    /* \"#utility.yul\":7450:7460   */\n  dup6\n    /* \"#utility.yul\":7447:7465   */\n  lt\n    /* \"#utility.yul\":7444:7493   */\n  iszero\n  tag_211\n  jumpi\n    /* \"#utility.yul\":7483:7491   */\n  dup2\n    /* \"#utility.yul\":7468:7491   */\n  swap1\n  pop\n    /* \"#utility.yul\":7444:7493   */\ntag_211:\n    /* \"#utility.yul\":7506:7586   */\n  tag_212\n    /* \"#utility.yul\":7562:7584   */\n  tag_213\n    /* \"#utility.yul\":7580:7583   */\n  dup6\n    /* \"#utility.yul\":7562:7584   */\n  tag_94\n  jump\t// in\ntag_213:\n    /* \"#utility.yul\":7552:7560   */\n  dup4\n    /* \"#utility.yul\":7548:7585   */\n  add\n    /* \"#utility.yul\":7535:7546   */\n  dup3\n    /* \"#utility.yul\":7506:7586   */\n  tag_103\n  jump\t// in\ntag_212:\n    /* \"#utility.yul\":7165:7596   */\n  pop\n  pop\n    /* \"#utility.yul\":7150:7596   */\ntag_208:\n    /* \"#utility.yul\":7060:7603   */\n  pop\n  pop\n  pop\n  jump\t// out\n    /* \"#utility.yul\":7609:7726   */\ntag_105:\n    /* \"#utility.yul\":7663:7671   */\n  0x00\n    /* \"#utility.yul\":7713:7718   */\n  dup3\n    /* \"#utility.yul\":7707:7711   */\n  dup3\n    /* \"#utility.yul\":7703:7719   */\n  shr\n    /* \"#utility.yul\":7682:7719   */\n  swap1\n  pop\n    /* \"#utility.yul\":7609:7726   */\n  swap3\n  swap2\n  pop\n  pop\n  jump\t// out\n    /* \"#utility.yul\":7732:7901   */\ntag_106:\n    /* \"#utility.yul\":7776:7782   */\n  0x00\n    /* \"#utility.yul\":7809:7860   */\n  tag_216\n    /* \"#utility.yul\":7857:7858   */\n  0x00\n    /* \"#utility.yul\":7853:7859   */\n  not\n    /* \"#utility.yul\":7845:7850   */\n  dup5\n    /* \"#utility.yul\":7842:7843   */\n  0x08\n    /* \"#utility.yul\":7838:7851   */\n  mul\n    /* \"#utility.yul\":7809:7860   */\n  tag_105\n  jump\t// in\ntag_216:\n    /* \"#utility.yul\":7805:7861   */\n  not\n    /* \"#utility.yul\":7890:7894   */\n  dup1\n    /* \"#utility.yul\":7884:7888   */\n  dup4\n    /* \"#utility.yul\":7880:7895   */\n  and\n    /* \"#utility.yul\":7870:7895   */\n  swap2\n  pop\n    /* \"#utility.yul\":7783:7901   */\n  pop\n    /* \"#utility.yul\":7732:7901   */\n  swap3\n  swap2\n  pop\n  pop\n  jump\t// out\n    /* \"#utility.yul\":7906:8201   */\ntag_107:\n    /* \"#utility.yul\":7982:7986   */\n  0x00\n    /* \"#utility.yul\":8128:8157   */\n  tag_218\n    /* \"#utility.yul\":8153:8156   */\n  dup4\n    /* \"#utility.yul\":8147:8151   */\n  dup4\n    /* \"#utility.yul\":8128:8157   */\n  tag_106\n  jump\t// in\ntag_218:\n    /* \"#utility.yul\":8120:8157   */\n  swap2\n  pop\n    /* \"#utility.yul\":8190:8193   */\n  dup3\n    /* \"#utility.yul\":8187:8188   */\n  0x02\n    /* \"#utility.yul\":8183:8194   */\n  mul\n    /* \"#utility.yul\":8177:8181   */\n  dup3\n    /* \"#utility.yul\":8174:8195   */\n  or\n    /* \"#utility.yul\":8166:8195   */\n  swap1\n  pop\n    /* \"#utility.yul\":7906:8201   */\n  swap3\n  swap2\n  pop\n  pop\n  jump\t// out\n    /* \"#utility.yul\":8206:9601   */\ntag_15:\n    /* \"#utility.yul\":8323:8360   */\n  tag_220\n    /* \"#utility.yul\":8356:8359   */\n  dup3\n    /* \"#utility.yul\":8323:8360   */\n  tag_89\n  jump\t// in\ntag_220:\n    /* \"#utility.yul\":8425:8443   */\n  0xffffffffffffffff\n    /* \"#utility.yul\":8417:8423   */\n  dup2\n    /* \"#utility.yul\":8414:8444   */\n  gt\n    /* \"#utility.yul\":8411:8467   */\n  iszero\n  tag_221\n  jumpi\n    /* \"#utility.yul\":8447:8465   */\n  tag_222\n  tag_90\n  jump\t// in\ntag_222:\n    /* \"#utility.yul\":8411:8467   */\ntag_221:\n    /* \"#utility.yul\":8491:8529   */\n  tag_223\n    /* \"#utility.yul\":8523:8527   */\n  dup3\n    /* \"#utility.yul\":8517:8528   */\n  sload\n    /* \"#utility.yul\":8491:8529   */\n  tag_92\n  jump\t// in\ntag_223:\n    /* \"#utility.yul\":8576:8643   */\n  tag_224\n    /* \"#utility.yul\":8636:8642   */\n  dup3\n    /* \"#utility.yul\":8628:8634   */\n  dup3\n    /* \"#utility.yul\":8622:8626   */\n  dup6\n    /* \"#utility.yul\":8576:8643   */\n  tag_104\n  jump\t// in\ntag_224:\n    /* \"#utility.yul\":8670:8671   */\n  0x00\n    /* \"#utility.yul\":8694:8698   */\n  0x20\n    /* \"#utility.yul\":8681:8698   */\n  swap1\n  pop\n    /* \"#utility.yul\":8726:8728   */\n  0x1f\n    /* \"#utility.yul\":8718:8724   */\n  dup4\n    /* \"#utility.yul\":8715:8729   */\n  gt\n    /* \"#utility.yul\":8743:8744   */\n  0x01\n    /* \"#utility.yul\":8738:9356   */\n  dup2\n  eq\n  tag_226\n  jumpi\n    /* \"#utility.yul\":9400:9401   */\n  0x00\n    /* \"#utility.yul\":9417:9423   */\n  dup5\n    /* \"#utility.yul\":9414:9491   */\n  iszero\n  tag_227\n  jumpi\n    /* \"#utility.yul\":9466:9475   */\n  dup3\n    /* \"#utility.yul\":9461:9464   */\n  dup8\n    /* \"#utility.yul\":9457:9476   */\n  add\n    /* \"#utility.yul\":9451:9477   */\n  mload\n    /* \"#utility.yul\":9442:9477   */\n  swap1\n  pop\n    /* \"#utility.yul\":9414:9491   */\ntag_227:\n    /* \"#utility.yul\":9517:9584   */\n  tag_228\n    /* \"#utility.yul\":9577:9583   */\n  dup6\n    /* \"#utility.yul\":9570:9575   */\n  dup3\n    /* \"#utility.yul\":9517:9584   */\n  tag_107\n  jump\t// in\ntag_228:\n    /* \"#utility.yul\":9511:9515   */\n  dup7\n    /* \"#utility.yul\":9504:9585   */\n  sstore\n    /* \"#utility.yul\":9373:9595   */\n  pop\n    /* \"#utility.yul\":8708:9595   */\n  jump(tag_225)\n    /* \"#utility.yul\":8738:9356   */\ntag_226:\n    /* \"#utility.yul\":8790:8794   */\n  0x1f\n    /* \"#utility.yul\":8786:8795   */\n  not\n    /* \"#utility.yul\":8778:8784   */\n  dup5\n    /* \"#utility.yul\":8774:8796   */\n  and\n    /* \"#utility.yul\":8824:8861   */\n  tag_229\n    /* \"#utility.yul\":8856:8860   */\n  dup7\n    /* \"#utility.yul\":8824:8861   */\n  tag_93\n  jump\t// in\ntag_229:\n    /* \"#utility.yul\":8883:8884   */\n  0x00\n    /* \"#utility.yul\":8897:9105   */\ntag_230:\n    /* \"#utility.yul\":8911:8918   */\n  dup3\n    /* \"#utility.yul\":8908:8909   */\n  dup2\n    /* \"#utility.yul\":8905:8919   */\n  lt\n    /* \"#utility.yul\":8897:9105   */\n  iszero\n  tag_232\n  jumpi\n    /* \"#utility.yul\":8990:8999   */\n  dup5\n    /* \"#utility.yul\":8985:8988   */\n  dup10\n    /* \"#utility.yul\":8981:9000   */\n  add\n    /* \"#utility.yul\":8975:9001   */\n  mload\n    /* \"#utility.yul\":8967:8973   */\n  dup3\n    /* \"#utility.yul\":8960:9002   */\n  sstore\n    /* \"#utility.yul\":9041:9042   */\n  0x01\n    /* \"#utility.yul\":9033:9039   */\n  dup3\n    /* \"#utility.yul\":9029:9043   */\n  add\n    /* \"#utility.yul\":9019:9043   */\n  swap2\n  pop\n    /* \"#utility.yul\":9088:9090   */\n  0x20\n    /* \"#utility.yul\":9077:9086   */\n  dup6\n    /* \"#utility.yul\":9073:9091   */\n  add\n    /* \"#utility.yul\":9060:9091   */\n  swap5\n  pop\n    /* \"#utility.yul\":8934:8938   */\n  0x20\n    /* \"#utility.yul\":8931:8932   */\n  dup2\n    /* \"#utility.yul\":8927:8939   */\n  add\n    /* \"#utility.yul\":8922:8939   */\n  swap1\n  pop\n    /* \"#utility.yul\":8897:9105   */\n  jump(tag_230)\ntag_232:\n    /* \"#utility.yul\":9133:9139   */\n  dup7\n    /* \"#utility.yul\":9124:9131   */\n  dup4\n    /* \"#utility.yul\":9121:9140   */\n  lt\n    /* \"#utility.yul\":9118:9297   */\n  iszero\n  tag_233\n  jumpi\n    /* \"#utility.yul\":9191:9200   */\n  dup5\n    /* \"#utility.yul\":9186:9189   */\n  dup10\n    /* \"#utility.yul\":9182:9201   */\n  add\n    /* \"#utility.yul\":9176:9202   */\n  mload\n    /* \"#utility.yul\":9234:9282   */\n  tag_234\n    /* \"#utility.yul\":9276:9280   */\n  0x1f\n    /* \"#utility.yul\":9268:9274   */\n  dup10\n    /* \"#utility.yul\":9264:9281   */\n  and\n    /* \"#utility.yul\":9253:9262   */\n  dup3\n    /* \"#utility.yul\":9234:9282   */\n  tag_106\n  jump\t// in\ntag_234:\n    /* \"#utility.yul\":9226:9232   */\n  dup4\n    /* \"#utility.yul\":9219:9283   */\n  sstore\n    /* \"#utility.yul\":9141:9297   */\n  pop\n    /* \"#utility.yul\":9118:9297   */\ntag_233:\n    /* \"#utility.yul\":9343:9344   */\n  0x01\n    /* \"#utility.yul\":9339:9340   */\n  0x02\n    /* \"#utility.yul\":9331:9337   */\n  dup9\n    /* \"#utility.yul\":9327:9341   */\n  mul\n    /* \"#utility.yul\":9323:9345   */\n  add\n    /* \"#utility.yul\":9317:9321   */\n  dup9\n    /* \"#utility.yul\":9310:9346   */\n  sstore\n    /* \"#utility.yul\":8745:9356   */\n  pop\n  pop\n  pop\n    /* \"#utility.yul\":8708:9595   */\ntag_225:\n  pop\n    /* \"#utility.yul\":8298:9601   */\n  pop\n  pop\n  pop\n    /* \"#utility.yul\":8206:9601   */\n  pop\n  pop\n  jump\t// out\n    /* \"#utility.yul\":9607:9725   */\ntag_108:\n    /* \"#utility.yul\":9694:9718   */\n  tag_236\n    /* \"#utility.yul\":9712:9717   */\n  dup2\n    /* \"#utility.yul\":9694:9718   */\n  tag_86\n  jump\t// in\ntag_236:\n    /* \"#utility.yul\":9689:9692   */\n  dup3\n    /* \"#utility.yul\":9682:9719   */\n  mstore\n    /* \"#utility.yul\":9607:9725   */\n  pop\n  pop\n  jump\t// out\n    /* \"#utility.yul\":9731:9953   */\ntag_20:\n    /* \"#utility.yul\":9824:9828   */\n  0x00\n    /* \"#utility.yul\":9862:9864   */\n  0x20\n    /* \"#utility.yul\":9851:9860   */\n  dup3\n    /* \"#utility.yul\":9847:9865   */\n  add\n    /* \"#utility.yul\":9839:9865   */\n  swap1\n  pop\n    /* \"#utility.yul\":9875:9946   */\n  tag_238\n    /* \"#utility.yul\":9943:9944   */\n  0x00\n    /* \"#utility.yul\":9932:9941   */\n  dup4\n    /* \"#utility.yul\":9928:9945   */\n  add\n    /* \"#utility.yul\":9919:9925   */\n  dup5\n    /* \"#utility.yul\":9875:9946   */\n  tag_108\n  jump\t// in\ntag_238:\n    /* \"#utility.yul\":9731:9953   */\n  swap3\n  swap2\n  pop\n  pop\n  jump\t// out\n    /* \"#utility.yul\":9959:10128   */\ntag_109:\n    /* \"#utility.yul\":10043:10054   */\n  0x00\n    /* \"#utility.yul\":10077:10083   */\n  dup3\n    /* \"#utility.yul\":10072:10075   */\n  dup3\n    /* \"#utility.yul\":10065:10084   */\n  mstore\n    /* \"#utility.yul\":10117:10121   */\n  0x20\n    /* \"#utility.yul\":10112:10115   */\n  dup3\n    /* \"#utility.yul\":10108:10122   */\n  add\n    /* \"#utility.yul\":10093:10122   */\n  swap1\n  pop\n    /* \"#utility.yul\":9959:10128   */\n  swap3\n  swap2\n  pop\n  pop\n  jump\t// out\n    /* \"#utility.yul\":10134:10303   */\ntag_110:\n    /* \"#utility.yul\":10274:10295   */\n  0x426c61636b6c6973746564206164647265737300000000000000000000000000\n    /* \"#utility.yul\":10270:10271   */\n  0x00\n    /* \"#utility.yul\":10262:10268   */\n  dup3\n    /* \"#utility.yul\":10258:10272   */\n  add\n    /* \"#utility.yul\":10251:10296   */\n  mstore\n    /* \"#utility.yul\":10134:10303   */\n  pop\n  jump\t// out\n    /* \"#utility.yul\":10309:10675   */\ntag_111:\n    /* \"#utility.yul\":10451:10454   */\n  0x00\n    /* \"#utility.yul\":10472:10539   */\n  tag_242\n    /* \"#utility.yul\":10536:10538   */\n  0x13\n    /* \"#utility.yul\":10531:10534   */\n  dup4\n    /* \"#utility.yul\":10472:10539   */\n  tag_109\n  jump\t// in\ntag_242:\n    /* \"#utility.yul\":10465:10539   */\n  swap2\n  pop\n    /* \"#utility.yul\":10548:10641   */\n  tag_243\n    /* \"#utility.yul\":10637:10640   */\n  dup3\n    /* \"#utility.yul\":10548:10641   */\n  tag_110\n  jump\t// in\ntag_243:\n    /* \"#utility.yul\":10666:10668   */\n  0x20\n    /* \"#utility.yul\":10661:10664   */\n  dup3\n    /* \"#utility.yul\":10657:10669   */\n  add\n    /* \"#utility.yul\":10650:10669   */\n  swap1\n  pop\n    /* \"#utility.yul\":10309:10675   */\n  swap2\n  swap1\n  pop\n  jump\t// out\n    /* \"#utility.yul\":10681:11100   */\ntag_38:\n    /* \"#utility.yul\":10847:10851   */\n  0x00\n    /* \"#utility.yul\":10885:10887   */\n  0x20\n    /* \"#utility.yul\":10874:10883   */\n  dup3\n    /* \"#utility.yul\":10870:10888   */\n  add\n    /* \"#utility.yul\":10862:10888   */\n  swap1\n  pop\n    /* \"#utility.yul\":10934:10943   */\n  dup2\n    /* \"#utility.yul\":10928:10932   */\n  dup2\n    /* \"#utility.yul\":10924:10944   */\n  sub\n    /* \"#utility.yul\":10920:10921   */\n  0x00\n    /* \"#utility.yul\":10909:10918   */\n  dup4\n    /* \"#utility.yul\":10905:10922   */\n  add\n    /* \"#utility.yul\":10898:10945   */\n  mstore\n    /* \"#utility.yul\":10962:11093   */\n  tag_245\n    /* \"#utility.yul\":11088:11092   */\n  dup2\n    /* \"#utility.yul\":10962:11093   */\n  tag_111\n  jump\t// in\ntag_245:\n    /* \"#utility.yul\":10954:11093   */\n  swap1\n  pop\n    /* \"#utility.yul\":10681:11100   */\n  swap2\n  swap1\n  pop\n  jump\t// out\n    /* \"#utility.yul\":11106:11327   */\ntag_112:\n    /* \"#utility.yul\":11246:11280   */\n  0x426f746820616464726573736573206d7573742062652077686974656c697374\n    /* \"#utility.yul\":11242:11243   */\n  0x00\n    /* \"#utility.yul\":11234:11240   */\n  dup3\n    /* \"#utility.yul\":11230:11244   */\n  add\n    /* \"#utility.yul\":11223:11281   */\n  mstore\n    /* \"#utility.yul\":11315:11319   */\n  0x6564000000000000000000000000000000000000000000000000000000000000\n    /* \"#utility.yul\":11310:11312   */\n  0x20\n    /* \"#utility.yul\":11302:11308   */\n  dup3\n    /* \"#utility.yul\":11298:11313   */\n  add\n    /* \"#utility.yul\":11291:11320   */\n  mstore\n    /* \"#utility.yul\":11106:11327   */\n  pop\n  jump\t// out\n    /* \"#utility.yul\":11333:11699   */\ntag_113:\n    /* \"#utility.yul\":11475:11478   */\n  0x00\n    /* \"#utility.yul\":11496:11563   */\n  tag_248\n    /* \"#utility.yul\":11560:11562   */\n  0x22\n    /* \"#utility.yul\":11555:11558   */\n  dup4\n    /* \"#utility.yul\":11496:11563   */\n  tag_109\n  jump\t// in\ntag_248:\n    /* \"#utility.yul\":11489:11563   */\n  swap2\n  pop\n    /* \"#utility.yul\":11572:11665   */\n  tag_249\n    /* \"#utility.yul\":11661:11664   */\n  dup3\n    /* \"#utility.yul\":11572:11665   */\n  tag_112\n  jump\t// in\ntag_249:\n    /* \"#utility.yul\":11690:11692   */\n  0x40\n    /* \"#utility.yul\":11685:11688   */\n  dup3\n    /* \"#utility.yul\":11681:11693   */\n  add\n    /* \"#utility.yul\":11674:11693   */\n  swap1\n  pop\n    /* \"#utility.yul\":11333:11699   */\n  swap2\n  swap1\n  pop\n  jump\t// out\n    /* \"#utility.yul\":11705:12124   */\ntag_43:\n    /* \"#utility.yul\":11871:11875   */\n  0x00\n    /* \"#utility.yul\":11909:11911   */\n  0x20\n    /* \"#utility.yul\":11898:11907   */\n  dup3\n    /* \"#utility.yul\":11894:11912   */\n  add\n    /* \"#utility.yul\":11886:11912   */\n  swap1\n  pop\n    /* \"#utility.yul\":11958:11967   */\n  dup2\n    /* \"#utility.yul\":11952:11956   */\n  dup2\n    /* \"#utility.yul\":11948:11968   */\n  sub\n    /* \"#utility.yul\":11944:11945   */\n  0x00\n    /* \"#utility.yul\":11933:11942   */\n  dup4\n    /* \"#utility.yul\":11929:11946   */\n  add\n    /* \"#utility.yul\":11922:11969   */\n  mstore\n    /* \"#utility.yul\":11986:12117   */\n  tag_251\n    /* \"#utility.yul\":12112:12116   */\n  dup2\n    /* \"#utility.yul\":11986:12117   */\n  tag_113\n  jump\t// in\ntag_251:\n    /* \"#utility.yul\":11978:12117   */\n  swap1\n  pop\n    /* \"#utility.yul\":11705:12124   */\n  swap2\n  swap1\n  pop\n  jump\t// out\n    /* \"#utility.yul\":12130:12309   */\ntag_114:\n    /* \"#utility.yul\":12270:12301   */\n  0x546f6b656e207472616e73666572206c696d6974206578636565646564000000\n    /* \"#utility.yul\":12266:12267   */\n  0x00\n    /* \"#utility.yul\":12258:12264   */\n  dup3\n    /* \"#utility.yul\":12254:12268   */\n  add\n    /* \"#utility.yul\":12247:12302   */\n  mstore\n    /* \"#utility.yul\":12130:12309   */\n  pop\n  jump\t// out\n    /* \"#utility.yul\":12315:12681   */\ntag_115:\n    /* \"#utility.yul\":12457:12460   */\n  0x00\n    /* \"#utility.yul\":12478:12545   */\n  tag_254\n    /* \"#utility.yul\":12542:12544   */\n  0x1d\n    /* \"#utility.yul\":12537:12540   */\n  dup4\n    /* \"#utility.yul\":12478:12545   */\n  tag_109\n  jump\t// in\ntag_254:\n    /* \"#utility.yul\":12471:12545   */\n  swap2\n  pop\n    /* \"#utility.yul\":12554:12647   */\n  tag_255\n    /* \"#utility.yul\":12643:12646   */\n  dup3\n    /* \"#utility.yul\":12554:12647   */\n  tag_114\n  jump\t// in\ntag_255:\n    /* \"#utility.yul\":12672:12674   */\n  0x20\n    /* \"#utility.yul\":12667:12670   */\n  dup3\n    /* \"#utility.yul\":12663:12675   */\n  add\n    /* \"#utility.yul\":12656:12675   */\n  swap1\n  pop\n    /* \"#utility.yul\":12315:12681   */\n  swap2\n  swap1\n  pop\n  jump\t// out\n    /* \"#utility.yul\":12687:13106   */\ntag_46:\n    /* \"#utility.yul\":12853:12857   */\n  0x00\n    /* \"#utility.yul\":12891:12893   */\n  0x20\n    /* \"#utility.yul\":12880:12889   */\n  dup3\n    /* \"#utility.yul\":12876:12894   */\n  add\n    /* \"#utility.yul\":12868:12894   */\n  swap1\n  pop\n    /* \"#utility.yul\":12940:12949   */\n  dup2\n    /* \"#utility.yul\":12934:12938   */\n  dup2\n    /* \"#utility.yul\":12930:12950   */\n  sub\n    /* \"#utility.yul\":12926:12927   */\n  0x00\n    /* \"#utility.yul\":12915:12924   */\n  dup4\n    /* \"#utility.yul\":12911:12928   */\n  add\n    /* \"#utility.yul\":12904:12951   */\n  mstore\n    /* \"#utility.yul\":12968:13099   */\n  tag_257\n    /* \"#utility.yul\":13094:13098   */\n  dup2\n    /* \"#utility.yul\":12968:13099   */\n  tag_115\n  jump\t// in\ntag_257:\n    /* \"#utility.yul\":12960:13099   */\n  swap1\n  pop\n    /* \"#utility.yul\":12687:13106   */\n  swap2\n  swap1\n  pop\n  jump\t// out\n    /* \"#utility.yul\":13112:13303   */\ntag_48:\n    /* \"#utility.yul\":13152:13155   */\n  0x00\n    /* \"#utility.yul\":13171:13191   */\n  tag_259\n    /* \"#utility.yul\":13189:13190   */\n  dup3\n    /* \"#utility.yul\":13171:13191   */\n  tag_80\n  jump\t// in\ntag_259:\n    /* \"#utility.yul\":13166:13191   */\n  swap2\n  pop\n    /* \"#utility.yul\":13205:13225   */\n  tag_260\n    /* \"#utility.yul\":13223:13224   */\n  dup4\n    /* \"#utility.yul\":13205:13225   */\n  tag_80\n  jump\t// in\ntag_260:\n    /* \"#utility.yul\":13200:13225   */\n  swap3\n  pop\n    /* \"#utility.yul\":13248:13249   */\n  dup3\n    /* \"#utility.yul\":13245:13246   */\n  dup3\n    /* \"#utility.yul\":13241:13250   */\n  add\n    /* \"#utility.yul\":13234:13250   */\n  swap1\n  pop\n    /* \"#utility.yul\":13269:13272   */\n  dup1\n    /* \"#utility.yul\":13266:13267   */\n  dup3\n    /* \"#utility.yul\":13263:13273   */\n  gt\n    /* \"#utility.yul\":13260:13296   */\n  iszero\n  tag_261\n  jumpi\n    /* \"#utility.yul\":13276:13294   */\n  tag_262\n  tag_76\n  jump\t// in\ntag_262:\n    /* \"#utility.yul\":13260:13296   */\ntag_261:\n    /* \"#utility.yul\":13112:13303   */\n  swap3\n  swap2\n  pop\n  pop\n  jump\t// out\n    /* \"#utility.yul\":13309:13479   */\ntag_116:\n    /* \"#utility.yul\":13449:13471   */\n  0x436f6f6c646f776e2074696d6520706572696f64000000000000000000000000\n    /* \"#utility.yul\":13445:13446   */\n  0x00\n    /* \"#utility.yul\":13437:13443   */\n  dup3\n    /* \"#utility.yul\":13433:13447   */\n  add\n    /* \"#utility.yul\":13426:13472   */\n  mstore\n    /* \"#utility.yul\":13309:13479   */\n  pop\n  jump\t// out\n    /* \"#utility.yul\":13485:13851   */\ntag_117:\n    /* \"#utility.yul\":13627:13630   */\n  0x00\n    /* \"#utility.yul\":13648:13715   */\n  tag_265\n    /* \"#utility.yul\":13712:13714   */\n  0x14\n    /* \"#utility.yul\":13707:13710   */\n  dup4\n    /* \"#utility.yul\":13648:13715   */\n  tag_109\n  jump\t// in\ntag_265:\n    /* \"#utility.yul\":13641:13715   */\n  swap2\n  pop\n    /* \"#utility.yul\":13724:13817   */\n  tag_266\n    /* \"#utility.yul\":13813:13816   */\n  dup3\n    /* \"#utility.yul\":13724:13817   */\n  tag_116\n  jump\t// in\ntag_266:\n    /* \"#utility.yul\":13842:13844   */\n  0x20\n    /* \"#utility.yul\":13837:13840   */\n  dup3\n    /* \"#utility.yul\":13833:13845   */\n  add\n    /* \"#utility.yul\":13826:13845   */\n  swap1\n  pop\n    /* \"#utility.yul\":13485:13851   */\n  swap2\n  swap1\n  pop\n  jump\t// out\n    /* \"#utility.yul\":13857:14276   */\ntag_51:\n    /* \"#utility.yul\":14023:14027   */\n  0x00\n    /* \"#utility.yul\":14061:14063   */\n  0x20\n    /* \"#utility.yul\":14050:14059   */\n  dup3\n    /* \"#utility.yul\":14046:14064   */\n  add\n    /* \"#utility.yul\":14038:14064   */\n  swap1\n  pop\n    /* \"#utility.yul\":14110:14119   */\n  dup2\n    /* \"#utility.yul\":14104:14108   */\n  dup2\n    /* \"#utility.yul\":14100:14120   */\n  sub\n    /* \"#utility.yul\":14096:14097   */\n  0x00\n    /* \"#utility.yul\":14085:14094   */\n  dup4\n    /* \"#utility.yul\":14081:14098   */\n  add\n    /* \"#utility.yul\":14074:14121   */\n  mstore\n    /* \"#utility.yul\":14138:14269   */\n  tag_268\n    /* \"#utility.yul\":14264:14268   */\n  dup2\n    /* \"#utility.yul\":14138:14269   */\n  tag_117\n  jump\t// in\ntag_268:\n    /* \"#utility.yul\":14130:14269   */\n  swap1\n  pop\n    /* \"#utility.yul\":13857:14276   */\n  swap2\n  swap1\n  pop\n  jump\t// out\n    /* \"#utility.yul\":14282:14462   */\ntag_118:\n    /* \"#utility.yul\":14330:14407   */\n  0x4e487b7100000000000000000000000000000000000000000000000000000000\n    /* \"#utility.yul\":14327:14328   */\n  0x00\n    /* \"#utility.yul\":14320:14408   */\n  mstore\n    /* \"#utility.yul\":14427:14431   */\n  0x12\n    /* \"#utility.yul\":14424:14425   */\n  0x04\n    /* \"#utility.yul\":14417:14432   */\n  mstore\n    /* \"#utility.yul\":14451:14455   */\n  0x24\n    /* \"#utility.yul\":14448:14449   */\n  0x00\n    /* \"#utility.yul\":14441:14456   */\n  revert\n    /* \"#utility.yul\":14468:14653   */\ntag_61:\n    /* \"#utility.yul\":14508:14509   */\n  0x00\n    /* \"#utility.yul\":14525:14545   */\n  tag_271\n    /* \"#utility.yul\":14543:14544   */\n  dup3\n    /* \"#utility.yul\":14525:14545   */\n  tag_80\n  jump\t// in\ntag_271:\n    /* \"#utility.yul\":14520:14545   */\n  swap2\n  pop\n    /* \"#utility.yul\":14559:14579   */\n  tag_272\n    /* \"#utility.yul\":14577:14578   */\n  dup4\n    /* \"#utility.yul\":14559:14579   */\n  tag_80\n  jump\t// in\ntag_272:\n    /* \"#utility.yul\":14554:14579   */\n  swap3\n  pop\n    /* \"#utility.yul\":14598:14599   */\n  dup3\n    /* \"#utility.yul\":14588:14623   */\n  tag_273\n  jumpi\n    /* \"#utility.yul\":14603:14621   */\n  tag_274\n  tag_118\n  jump\t// in\ntag_274:\n    /* \"#utility.yul\":14588:14623   */\ntag_273:\n    /* \"#utility.yul\":14645:14646   */\n  dup3\n    /* \"#utility.yul\":14642:14643   */\n  dup3\n    /* \"#utility.yul\":14638:14647   */\n  div\n    /* \"#utility.yul\":14633:14647   */\n  swap1\n  pop\n    /* \"#utility.yul\":14468:14653   */\n  swap3\n  swap2\n  pop\n  pop\n  jump\t// out\n    /* \"#utility.yul\":14659:14853   */\ntag_63:\n    /* \"#utility.yul\":14699:14703   */\n  0x00\n    /* \"#utility.yul\":14719:14739   */\n  tag_276\n    /* \"#utility.yul\":14737:14738   */\n  dup3\n    /* \"#utility.yul\":14719:14739   */\n  tag_80\n  jump\t// in\ntag_276:\n    /* \"#utility.yul\":14714:14739   */\n  swap2\n  pop\n    /* \"#utility.yul\":14753:14773   */\n  tag_277\n    /* \"#utility.yul\":14771:14772   */\n  dup4\n    /* \"#utility.yul\":14753:14773   */\n  tag_80\n  jump\t// in\ntag_277:\n    /* \"#utility.yul\":14748:14773   */\n  swap3\n  pop\n    /* \"#utility.yul\":14797:14798   */\n  dup3\n    /* \"#utility.yul\":14794:14795   */\n  dup3\n    /* \"#utility.yul\":14790:14799   */\n  sub\n    /* \"#utility.yul\":14782:14799   */\n  swap1\n  pop\n    /* \"#utility.yul\":14821:14822   */\n  dup2\n    /* \"#utility.yul\":14815:14819   */\n  dup2\n    /* \"#utility.yul\":14812:14823   */\n  gt\n    /* \"#utility.yul\":14809:14846   */\n  iszero\n  tag_278\n  jumpi\n    /* \"#utility.yul\":14826:14844   */\n  tag_279\n  tag_76\n  jump\t// in\ntag_279:\n    /* \"#utility.yul\":14809:14846   */\ntag_278:\n    /* \"#utility.yul\":14659:14853   */\n  swap3\n  swap2\n  pop\n  pop\n  jump\t// out\n    /* \"#utility.yul\":14859:14977   */\ntag_119:\n    /* \"#utility.yul\":14946:14970   */\n  tag_281\n    /* \"#utility.yul\":14964:14969   */\n  dup2\n    /* \"#utility.yul\":14946:14970   */\n  tag_80\n  jump\t// in\ntag_281:\n    /* \"#utility.yul\":14941:14944   */\n  dup3\n    /* \"#utility.yul\":14934:14971   */\n  mstore\n    /* \"#utility.yul\":14859:14977   */\n  pop\n  pop\n  jump\t// out\n    /* \"#utility.yul\":14983:15425   */\ntag_71:\n    /* \"#utility.yul\":15132:15136   */\n  0x00\n    /* \"#utility.yul\":15170:15172   */\n  0x60\n    /* \"#utility.yul\":15159:15168   */\n  dup3\n    /* \"#utility.yul\":15155:15173   */\n  add\n    /* \"#utility.yul\":15147:15173   */\n  swap1\n  pop\n    /* \"#utility.yul\":15183:15254   */\n  tag_283\n    /* \"#utility.yul\":15251:15252   */\n  0x00\n    /* \"#utility.yul\":15240:15249   */\n  dup4\n    /* \"#utility.yul\":15236:15253   */\n  add\n    /* \"#utility.yul\":15227:15233   */\n  dup7\n    /* \"#utility.yul\":15183:15254   */\n  tag_108\n  jump\t// in\ntag_283:\n    /* \"#utility.yul\":15264:15336   */\n  tag_284\n    /* \"#utility.yul\":15332:15334   */\n  0x20\n    /* \"#utility.yul\":15321:15330   */\n  dup4\n    /* \"#utility.yul\":15317:15335   */\n  add\n    /* \"#utility.yul\":15308:15314   */\n  dup6\n    /* \"#utility.yul\":15264:15336   */\n  tag_119\n  jump\t// in\ntag_284:\n    /* \"#utility.yul\":15346:15418   */\n  tag_285\n    /* \"#utility.yul\":15414:15416   */\n  0x40\n    /* \"#utility.yul\":15403:15412   */\n  dup4\n    /* \"#utility.yul\":15399:15417   */\n  add\n    /* \"#utility.yul\":15390:15396   */\n  dup5\n    /* \"#utility.yul\":15346:15418   */\n  tag_119\n  jump\t// in\ntag_285:\n    /* \"#utility.yul\":14983:15425   */\n  swap5\n  swap4\n  pop\n  pop\n  pop\n  pop\n  jump\t// out\n    /* \"#utility.yul\":15431:15653   */\ntag_75:\n    /* \"#utility.yul\":15524:15528   */\n  0x00\n    /* \"#utility.yul\":15562:15564   */\n  0x20\n    /* \"#utility.yul\":15551:15560   */\n  dup3\n    /* \"#utility.yul\":15547:15565   */\n  add\n    /* \"#utility.yul\":15539:15565   */\n  swap1\n  pop\n    /* \"#utility.yul\":15575:15646   */\n  tag_287\n    /* \"#utility.yul\":15643:15644   */\n  0x00\n    /* \"#utility.yul\":15632:15641   */\n  dup4\n    /* \"#utility.yul\":15628:15645   */\n  add\n    /* \"#utility.yul\":15619:15625   */\n  dup5\n    /* \"#utility.yul\":15575:15646   */\n  tag_119\n  jump\t// in\ntag_287:\n    /* \"#utility.yul\":15431:15653   */\n  swap3\n  swap2\n  pop\n  pop\n  jump\t// out\n    /* \"VaultCoin_flattened.sol\":24928:29791  contract VaultCoin is ERC20, Ownable {... */\ntag_26:\n  dataSize(sub_0)\n  dup1\n  dataOffset(sub_0)\n  0x00\n  codecopy\n  0x00\n  return\nstop\n\nsub_0: assembly {\n        /* \"VaultCoin_flattened.sol\":24928:29791  contract VaultCoin is ERC20, Ownable {... */\n      mstore(0x40, 0x80)\n      callvalue\n      dup1\n      iszero\n      tag_1\n      jumpi\n      revert(0x00, 0x00)\n    tag_1:\n      pop\n      jumpi(tag_2, lt(calldatasize, 0x04))\n      shr(0xe0, calldataload(0x00))\n      dup1\n      0x6f9170f6\n      gt\n      tag_40\n      jumpi\n      dup1\n      0xa9059cbb\n      gt\n      tag_41\n      jumpi\n      dup1\n      0xdd62ed3e\n      gt\n      tag_42\n      jumpi\n      dup1\n      0xdd62ed3e\n      eq\n      tag_35\n      jumpi\n      dup1\n      0xec28438a\n      eq\n      tag_36\n      jumpi\n      dup1\n      0xefc3a4aa\n      eq\n      tag_37\n      jumpi\n      dup1\n      0xf2fde38b\n      eq\n      tag_38\n      jumpi\n      dup1\n      0xfe575a87\n      eq\n      tag_39\n      jumpi\n      jump(tag_2)\n    tag_42:\n      dup1\n      0xa9059cbb\n      eq\n      tag_30\n      jumpi\n      dup1\n      0xb319c6b7\n      eq\n      tag_31\n      jumpi\n      dup1\n      0xb7bda68f\n      eq\n      tag_32\n      jumpi\n      dup1\n      0xced695a4\n      eq\n      tag_33\n      jumpi\n      dup1\n      0xd51d86f4\n      eq\n      tag_34\n      jumpi\n      jump(tag_2)\n    tag_41:\n      dup1\n      0x88210bb1\n      gt\n      tag_43\n      jumpi\n      dup1\n      0x88210bb1\n      eq\n      tag_25\n      jumpi\n      dup1\n      0x8c0b5e22\n      eq\n      tag_26\n      jumpi\n      dup1\n      0x8da5cb5b\n      eq\n      tag_27\n      jumpi\n      dup1\n      0x93af22ff\n      eq\n      tag_28\n      jumpi\n      dup1\n      0x95d89b41\n      eq\n      tag_29\n      jumpi\n      jump(tag_2)\n    tag_43:\n      dup1\n      0x6f9170f6\n      eq\n      tag_21\n      jumpi\n      dup1\n      0x6ff73201\n      eq\n      tag_22\n      jumpi\n      dup1\n      0x70a08231\n      eq\n      tag_23\n      jumpi\n      dup1\n      0x715018a6\n      eq\n      tag_24\n      jumpi\n      jump(tag_2)\n    tag_40:\n      dup1\n      0x313ce567\n      gt\n      tag_44\n      jumpi\n      dup1\n      0x4ebc552d\n      gt\n      tag_45\n      jumpi\n      dup1\n      0x4ebc552d\n      eq\n      tag_16\n      jumpi\n      dup1\n      0x537df3b6\n      eq\n      tag_17\n      jumpi\n      dup1\n      0x53eb3bcf\n      eq\n      tag_18\n      jumpi\n      dup1\n      0x6b3907ca\n      eq\n      tag_19\n      jumpi\n      dup1\n      0x6d8b0527\n      eq\n      tag_20\n      jumpi\n      jump(tag_2)\n    tag_45:\n      dup1\n      0x313ce567\n      eq\n      tag_12\n      jumpi\n      dup1\n      0x44337ea1\n      eq\n      tag_13\n      jumpi\n      dup1\n      0x47ee0394\n      eq\n      tag_14\n      jumpi\n      dup1\n      0x49192418\n      eq\n      tag_15\n      jumpi\n      jump(tag_2)\n    tag_44:\n      dup1\n      0x18160ddd\n      gt\n      tag_46\n      jumpi\n      dup1\n      0x18160ddd\n      eq\n      tag_7\n      jumpi\n      dup1\n      0x1bacad95\n      eq\n      tag_8\n      jumpi\n      dup1\n      0x23b872dd\n      eq\n      tag_9\n      jumpi\n      dup1\n      0x2958ad7f\n      eq\n      tag_10\n      jumpi\n      dup1\n      0x2973ef2d\n      eq\n      tag_11\n      jumpi\n      jump(tag_2)\n    tag_46:\n      dup1\n      0x01bf6648\n      eq\n      tag_3\n      jumpi\n      dup1\n      0x06fdde03\n      eq\n      tag_4\n      jumpi\n      dup1\n      0x095ea7b3\n      eq\n      tag_5\n      jumpi\n      dup1\n      0x0ddc0976\n      eq\n      tag_6\n      jumpi\n    tag_2:\n      revert(0x00, 0x00)\n        /* \"VaultCoin_flattened.sol\":26910:27046  function removeFromWhiteList(address account)     external onlyOwner ... */\n    tag_3:\n      tag_47\n      0x04\n      dup1\n      calldatasize\n      sub\n      dup2\n      add\n      swap1\n      tag_48\n      swap2\n      swap1\n      tag_49\n      jump\t// in\n    tag_48:\n      tag_50\n      jump\t// in\n    tag_47:\n      stop\n        /* \"VaultCoin_flattened.sol\":12679:12768  function name() public view virtual returns (string memory) {... */\n    tag_4:\n      tag_51\n      tag_52\n      jump\t// in\n    tag_51:\n      mload(0x40)\n      tag_53\n      swap2\n      swap1\n      tag_54\n      jump\t// in\n    tag_53:\n      mload(0x40)\n      dup1\n      swap2\n      sub\n      swap1\n      return\n        /* \"VaultCoin_flattened.sol\":14898:15084  function approve(address spender, uint256 value) public virtual returns (bool) {... */\n    tag_5:\n      tag_55\n      0x04\n      dup1\n      calldatasize\n      sub\n      dup2\n      add\n      swap1\n      tag_56\n      swap2\n      swap1\n      tag_57\n      jump\t// in\n    tag_56:\n      tag_58\n      jump\t// in\n    tag_55:\n      mload(0x40)\n      tag_59\n      swap2\n      swap1\n      tag_60\n      jump\t// in\n    tag_59:\n      mload(0x40)\n      dup1\n      swap2\n      sub\n      swap1\n      return\n        /* \"VaultCoin_flattened.sol\":25115:25142  uint256 public  taxFees = 5 */\n    tag_6:\n      tag_61\n      tag_62\n      jump\t// in\n    tag_61:\n      mload(0x40)\n      tag_63\n      swap2\n      swap1\n      tag_64\n      jump\t// in\n    tag_63:\n      mload(0x40)\n      dup1\n      swap2\n      sub\n      swap1\n      return\n        /* \"VaultCoin_flattened.sol\":13749:13846  function totalSupply() public view virtual returns (uint256) {... */\n    tag_7:\n      tag_65\n      tag_66\n      jump\t// in\n    tag_65:\n      mload(0x40)\n      tag_67\n      swap2\n      swap1\n      tag_64\n      jump\t// in\n    tag_67:\n      mload(0x40)\n      dup1\n      swap2\n      sub\n      swap1\n      return\n        /* \"VaultCoin_flattened.sol\":29662:29787  function removeExemptionFromTaxes(address account)     external onlyOwner{ ... */\n    tag_8:\n      tag_68\n      0x04\n      dup1\n      calldatasize\n      sub\n      dup2\n      add\n      swap1\n      tag_69\n      swap2\n      swap1\n      tag_49\n      jump\t// in\n    tag_69:\n      tag_70\n      jump\t// in\n    tag_68:\n      stop\n        /* \"VaultCoin_flattened.sol\":15676:15920  function transferFrom(address from, address to, uint256 value) public virtual returns (bool) {... */\n    tag_9:\n      tag_71\n      0x04\n      dup1\n      calldatasize\n      sub\n      dup2\n      add\n      swap1\n      tag_72\n      swap2\n      swap1\n      tag_73\n      jump\t// in\n    tag_72:\n      tag_74\n      jump\t// in\n    tag_71:\n      mload(0x40)\n      tag_75\n      swap2\n      swap1\n      tag_60\n      jump\t// in\n    tag_75:\n      mload(0x40)\n      dup1\n      swap2\n      sub\n      swap1\n      return\n        /* \"VaultCoin_flattened.sol\":25985:26080  function enableWhiteListing() external onlyOwner... */\n    tag_10:\n      tag_76\n      tag_77\n      jump\t// in\n    tag_76:\n      stop\n        /* \"VaultCoin_flattened.sol\":29253:29335  function getTaxes() external view returns (uint256){... */\n    tag_11:\n      tag_78\n      tag_79\n      jump\t// in\n    tag_78:\n      mload(0x40)\n      tag_80\n      swap2\n      swap1\n      tag_64\n      jump\t// in\n    tag_80:\n      mload(0x40)\n      dup1\n      swap2\n      sub\n      swap1\n      return\n        /* \"VaultCoin_flattened.sol\":13607:13689  function decimals() public view virtual returns (uint8) {... */\n    tag_12:\n      tag_81\n      tag_82\n      jump\t// in\n    tag_81:\n      mload(0x40)\n      tag_83\n      swap2\n      swap1\n      tag_84\n      jump\t// in\n    tag_83:\n      mload(0x40)\n      dup1\n      swap2\n      sub\n      swap1\n      return\n        /* \"VaultCoin_flattened.sol\":26604:26748  function addToBlacklist(address account)     external onlyOwner ... */\n    tag_13:\n      tag_85\n      0x04\n      dup1\n      calldatasize\n      sub\n      dup2\n      add\n      swap1\n      tag_86\n      swap2\n      swap1\n      tag_49\n      jump\t// in\n    tag_86:\n      tag_87\n      jump\t// in\n    tag_85:\n      stop\n        /* \"VaultCoin_flattened.sol\":26357:26590  function addToWhiteList(address account)     external onlyOwner ... */\n    tag_14:\n      tag_88\n      0x04\n      dup1\n      calldatasize\n      sub\n      dup2\n      add\n      swap1\n      tag_89\n      swap2\n      swap1\n      tag_49\n      jump\t// in\n    tag_89:\n      tag_90\n      jump\t// in\n    tag_88:\n      stop\n        /* \"VaultCoin_flattened.sol\":29342:29531  function setSlippageFees(uint256 newSlippageFee) external onlyOwner{... */\n    tag_15:\n      tag_91\n      0x04\n      dup1\n      calldatasize\n      sub\n      dup2\n      add\n      swap1\n      tag_92\n      swap2\n      swap1\n      tag_93\n      jump\t// in\n    tag_92:\n      tag_94\n      jump\t// in\n    tag_91:\n      stop\n        /* \"VaultCoin_flattened.sol\":28990:29148  function setTaxes(uint256 newTaxFee) external onlyOwner{... */\n    tag_16:\n      tag_95\n      0x04\n      dup1\n      calldatasize\n      sub\n      dup2\n      add\n      swap1\n      tag_96\n      swap2\n      swap1\n      tag_93\n      jump\t// in\n    tag_96:\n      tag_97\n      jump\t// in\n    tag_95:\n      stop\n        /* \"VaultCoin_flattened.sol\":26757:26900  function removeFromBlacklist(address account)     external onlyOwner ... */\n    tag_17:\n      tag_98\n      0x04\n      dup1\n      calldatasize\n      sub\n      dup2\n      add\n      swap1\n      tag_99\n      swap2\n      swap1\n      tag_49\n      jump\t// in\n    tag_99:\n      tag_100\n      jump\t// in\n    tag_98:\n      stop\n        /* \"VaultCoin_flattened.sol\":26187:26264  function enableTax() external onlyOwner... */\n    tag_18:\n      tag_101\n      tag_102\n      jump\t// in\n    tag_101:\n      stop\n        /* \"VaultCoin_flattened.sol\":25144:25176  uint256 public  slippageFees = 2 */\n    tag_19:\n      tag_103\n      tag_104\n      jump\t// in\n    tag_103:\n      mload(0x40)\n      tag_105\n      swap2\n      swap1\n      tag_64\n      jump\t// in\n    tag_105:\n      mload(0x40)\n      dup1\n      swap2\n      sub\n      swap1\n      return\n        /* \"VaultCoin_flattened.sol\":27526:27634  function getMaxTxAmount() external view returns(uint256){... */\n    tag_20:\n      tag_106\n      tag_107\n      jump\t// in\n    tag_106:\n      mload(0x40)\n      tag_108\n      swap2\n      swap1\n      tag_64\n      jump\t// in\n    tag_108:\n      mload(0x40)\n      dup1\n      swap2\n      sub\n      swap1\n      return\n        /* \"VaultCoin_flattened.sol\":27188:27317  function isWhiteListed(address account) external view returns (bool) ... */\n    tag_21:\n      tag_109\n      0x04\n      dup1\n      calldatasize\n      sub\n      dup2\n      add\n      swap1\n      tag_110\n      swap2\n      swap1\n      tag_49\n      jump\t// in\n    tag_110:\n      tag_111\n      jump\t// in\n    tag_109:\n      mload(0x40)\n      tag_112\n      swap2\n      swap1\n      tag_60\n      jump\t// in\n    tag_112:\n      mload(0x40)\n      dup1\n      swap2\n      sub\n      swap1\n      return\n        /* \"VaultCoin_flattened.sol\":27832:27959  function setCooldownTime(uint256 newCooldownTime) external onlyOwner{... */\n    tag_22:\n      tag_113\n      0x04\n      dup1\n      calldatasize\n      sub\n      dup2\n      add\n      swap1\n      tag_114\n      swap2\n      swap1\n      tag_93\n      jump\t// in\n    tag_114:\n      tag_115\n      jump\t// in\n    tag_113:\n      stop\n        /* \"VaultCoin_flattened.sol\":13904:14020  function balanceOf(address account) public view virtual returns (uint256) {... */\n    tag_23:\n      tag_116\n      0x04\n      dup1\n      calldatasize\n      sub\n      dup2\n      add\n      swap1\n      tag_117\n      swap2\n      swap1\n      tag_49\n      jump\t// in\n    tag_117:\n      tag_118\n      jump\t// in\n    tag_116:\n      mload(0x40)\n      tag_119\n      swap2\n      swap1\n      tag_64\n      jump\t// in\n    tag_119:\n      mload(0x40)\n      dup1\n      swap2\n      sub\n      swap1\n      return\n        /* \"VaultCoin_flattened.sol\":25796:25979  function renounceOwnership() public override onlyOwner{... */\n    tag_24:\n      tag_120\n      tag_121\n      jump\t// in\n    tag_120:\n      stop\n        /* \"VaultCoin_flattened.sol\":29537:29656  function addExemptionToTaxes(address account)     external onlyOwner {... */\n    tag_25:\n      tag_122\n      0x04\n      dup1\n      calldatasize\n      sub\n      dup2\n      add\n      swap1\n      tag_123\n      swap2\n      swap1\n      tag_49\n      jump\t// in\n    tag_123:\n      tag_124\n      jump\t// in\n    tag_122:\n      stop\n        /* \"VaultCoin_flattened.sol\":25028:25071  uint256 public  maxTxAmount = initialSupply */\n    tag_26:\n      tag_125\n      tag_126\n      jump\t// in\n    tag_125:\n      mload(0x40)\n      tag_127\n      swap2\n      swap1\n      tag_64\n      jump\t// in\n    tag_127:\n      mload(0x40)\n      dup1\n      swap2\n      sub\n      swap1\n      return\n        /* \"VaultCoin_flattened.sol\":23410:23495  function owner() public view virtual returns (address) {... */\n    tag_27:\n      tag_128\n      tag_129\n      jump\t// in\n    tag_128:\n      mload(0x40)\n      tag_130\n      swap2\n      swap1\n      tag_131\n      jump\t// in\n    tag_130:\n      mload(0x40)\n      dup1\n      swap2\n      sub\n      swap1\n      return\n        /* \"VaultCoin_flattened.sol\":29154:29248  function getSlippageFees() external view returns (uint256){... */\n    tag_28:\n      tag_132\n      tag_133\n      jump\t// in\n    tag_132:\n      mload(0x40)\n      tag_134\n      swap2\n      swap1\n      tag_64\n      jump\t// in\n    tag_134:\n      mload(0x40)\n      dup1\n      swap2\n      sub\n      swap1\n      return\n        /* \"VaultCoin_flattened.sol\":12881:12974  function symbol() public view virtual returns (string memory) {... */\n    tag_29:\n      tag_135\n      tag_136\n      jump\t// in\n    tag_135:\n      mload(0x40)\n      tag_137\n      swap2\n      swap1\n      tag_54\n      jump\t// in\n    tag_137:\n      mload(0x40)\n      dup1\n      swap2\n      sub\n      swap1\n      return\n        /* \"VaultCoin_flattened.sol\":14215:14393  function transfer(address to, uint256 value) public virtual returns (bool) {... */\n    tag_30:\n      tag_138\n      0x04\n      dup1\n      calldatasize\n      sub\n      dup2\n      add\n      swap1\n      tag_139\n      swap2\n      swap1\n      tag_57\n      jump\t// in\n    tag_139:\n      tag_140\n      jump\t// in\n    tag_138:\n      mload(0x40)\n      tag_141\n      swap2\n      swap1\n      tag_60\n      jump\t// in\n    tag_141:\n      mload(0x40)\n      dup1\n      swap2\n      sub\n      swap1\n      return\n        /* \"VaultCoin_flattened.sol\":25073:25113  uint256 public  cooldownTime = 1 minutes */\n    tag_31:\n      tag_142\n      tag_143\n      jump\t// in\n    tag_142:\n      mload(0x40)\n      tag_144\n      swap2\n      swap1\n      tag_64\n      jump\t// in\n    tag_144:\n      mload(0x40)\n      dup1\n      swap2\n      sub\n      swap1\n      return\n        /* \"VaultCoin_flattened.sol\":25255:25280  address public taxAddress */\n    tag_32:\n      tag_145\n      tag_146\n      jump\t// in\n    tag_145:\n      mload(0x40)\n      tag_147\n      swap2\n      swap1\n      tag_131\n      jump\t// in\n    tag_147:\n      mload(0x40)\n      dup1\n      swap2\n      sub\n      swap1\n      return\n        /* \"VaultCoin_flattened.sol\":26270:26349  function disableTax() external onlyOwner... */\n    tag_33:\n      tag_148\n      tag_149\n      jump\t// in\n    tag_148:\n      stop\n        /* \"VaultCoin_flattened.sol\":27644:27821  function getContractDetials() external view returns (address, uint256, uint256, uint256)... */\n    tag_34:\n      tag_150\n      tag_151\n      jump\t// in\n    tag_150:\n      mload(0x40)\n      tag_152\n      swap5\n      swap4\n      swap3\n      swap2\n      swap1\n      tag_153\n      jump\t// in\n    tag_152:\n      mload(0x40)\n      dup1\n      swap2\n      sub\n      swap1\n      return\n        /* \"VaultCoin_flattened.sol\":14451:14591  function allowance(address owner, address spender) public view virtual returns (uint256) {... */\n    tag_35:\n      tag_154\n      0x04\n      dup1\n      calldatasize\n      sub\n      dup2\n      add\n      swap1\n      tag_155\n      swap2\n      swap1\n      tag_156\n      jump\t// in\n    tag_155:\n      tag_157\n      jump\t// in\n    tag_154:\n      mload(0x40)\n      tag_158\n      swap2\n      swap1\n      tag_64\n      jump\t// in\n    tag_158:\n      mload(0x40)\n      dup1\n      swap2\n      sub\n      swap1\n      return\n        /* \"VaultCoin_flattened.sol\":27327:27516  function setMaxTxAmount(uint256 newMaxTxAmount) external onlyOwner {... */\n    tag_36:\n      tag_159\n      0x04\n      dup1\n      calldatasize\n      sub\n      dup2\n      add\n      swap1\n      tag_160\n      swap2\n      swap1\n      tag_93\n      jump\t// in\n    tag_160:\n      tag_161\n      jump\t// in\n    tag_159:\n      stop\n        /* \"VaultCoin_flattened.sol\":26086:26181  function enableBlackListing() external onlyOwner... */\n    tag_37:\n      tag_162\n      tag_163\n      jump\t// in\n    tag_162:\n      stop\n        /* \"VaultCoin_flattened.sol\":24315:24530  function transferOwnership(address newOwner) public virtual onlyOwner {... */\n    tag_38:\n      tag_164\n      0x04\n      dup1\n      calldatasize\n      sub\n      dup2\n      add\n      swap1\n      tag_165\n      swap2\n      swap1\n      tag_49\n      jump\t// in\n    tag_165:\n      tag_166\n      jump\t// in\n    tag_164:\n      stop\n        /* \"VaultCoin_flattened.sol\":27053:27182  function isBlacklisted(address account) external view returns (bool) ... */\n    tag_39:\n      tag_167\n      0x04\n      dup1\n      calldatasize\n      sub\n      dup2\n      add\n      swap1\n      tag_168\n      swap2\n      swap1\n      tag_49\n      jump\t// in\n    tag_168:\n      tag_169\n      jump\t// in\n    tag_167:\n      mload(0x40)\n      tag_170\n      swap2\n      swap1\n      tag_60\n      jump\t// in\n    tag_170:\n      mload(0x40)\n      dup1\n      swap2\n      sub\n      swap1\n      return\n        /* \"VaultCoin_flattened.sol\":26910:27046  function removeFromWhiteList(address account)     external onlyOwner ... */\n    tag_50:\n        /* \"VaultCoin_flattened.sol\":23303:23316  _checkOwner() */\n      tag_172\n        /* \"VaultCoin_flattened.sol\":23303:23314  _checkOwner */\n      tag_173\n        /* \"VaultCoin_flattened.sol\":23303:23316  _checkOwner() */\n      jump\t// in\n    tag_172:\n        /* \"VaultCoin_flattened.sol\":27030:27035  false */\n      0x00\n        /* \"VaultCoin_flattened.sol\":27008:27018  _whiteList */\n      0x0e\n        /* \"VaultCoin_flattened.sol\":27008:27027  _whiteList[account] */\n      0x00\n        /* \"VaultCoin_flattened.sol\":27019:27026  account */\n      dup4\n        /* \"VaultCoin_flattened.sol\":27008:27027  _whiteList[account] */\n      0xffffffffffffffffffffffffffffffffffffffff\n      and\n      0xffffffffffffffffffffffffffffffffffffffff\n      and\n      dup2\n      mstore\n      0x20\n      add\n      swap1\n      dup2\n      mstore\n      0x20\n      add\n      0x00\n      keccak256\n      0x00\n        /* \"VaultCoin_flattened.sol\":27008:27035  _whiteList[account] = false */\n      0x0100\n      exp\n      dup2\n      sload\n      dup2\n      0xff\n      mul\n      not\n      and\n      swap1\n      dup4\n      iszero\n      iszero\n      mul\n      or\n      swap1\n      sstore\n      pop\n        /* \"VaultCoin_flattened.sol\":26910:27046  function removeFromWhiteList(address account)     external onlyOwner ... */\n      pop\n      jump\t// out\n        /* \"VaultCoin_flattened.sol\":12679:12768  function name() public view virtual returns (string memory) {... */\n    tag_52:\n        /* \"VaultCoin_flattened.sol\":12724:12737  string memory */\n      0x60\n        /* \"VaultCoin_flattened.sol\":12756:12761  _name */\n      0x03\n        /* \"VaultCoin_flattened.sol\":12749:12761  return _name */\n      dup1\n      sload\n      tag_176\n      swap1\n      tag_177\n      jump\t// in\n    tag_176:\n      dup1\n      0x1f\n      add\n      0x20\n      dup1\n      swap2\n      div\n      mul\n      0x20\n      add\n      mload(0x40)\n      swap1\n      dup2\n      add\n      0x40\n      mstore\n      dup1\n      swap3\n      swap2\n      swap1\n      dup2\n      dup2\n      mstore\n      0x20\n      add\n      dup3\n      dup1\n      sload\n      tag_178\n      swap1\n      tag_177\n      jump\t// in\n    tag_178:\n      dup1\n      iszero\n      tag_179\n      jumpi\n      dup1\n      0x1f\n      lt\n      tag_180\n      jumpi\n      0x0100\n      dup1\n      dup4\n      sload\n      div\n      mul\n      dup4\n      mstore\n      swap2\n      0x20\n      add\n      swap2\n      jump(tag_179)\n    tag_180:\n      dup3\n      add\n      swap2\n      swap1\n      0x00\n      mstore\n      keccak256(0x00, 0x20)\n      swap1\n    tag_181:\n      dup2\n      sload\n      dup2\n      mstore\n      swap1\n      0x01\n      add\n      swap1\n      0x20\n      add\n      dup1\n      dup4\n      gt\n      tag_181\n      jumpi\n      dup3\n      swap1\n      sub\n      0x1f\n      and\n      dup3\n      add\n      swap2\n    tag_179:\n      pop\n      pop\n      pop\n      pop\n      pop\n      swap1\n      pop\n        /* \"VaultCoin_flattened.sol\":12679:12768  function name() public view virtual returns (string memory) {... */\n      swap1\n      jump\t// out\n        /* \"VaultCoin_flattened.sol\":14898:15084  function approve(address spender, uint256 value) public virtual returns (bool) {... */\n    tag_58:\n        /* \"VaultCoin_flattened.sol\":14971:14975  bool */\n      0x00\n        /* \"VaultCoin_flattened.sol\":14987:15000  address owner */\n      0x00\n        /* \"VaultCoin_flattened.sol\":15003:15015  _msgSender() */\n      tag_183\n        /* \"VaultCoin_flattened.sol\":15003:15013  _msgSender */\n      tag_184\n        /* \"VaultCoin_flattened.sol\":15003:15015  _msgSender() */\n      jump\t// in\n    tag_183:\n        /* \"VaultCoin_flattened.sol\":14987:15015  address owner = _msgSender() */\n      swap1\n      pop\n        /* \"VaultCoin_flattened.sol\":15025:15056  _approve(owner, spender, value) */\n      tag_185\n        /* \"VaultCoin_flattened.sol\":15034:15039  owner */\n      dup2\n        /* \"VaultCoin_flattened.sol\":15041:15048  spender */\n      dup6\n        /* \"VaultCoin_flattened.sol\":15050:15055  value */\n      dup6\n        /* \"VaultCoin_flattened.sol\":15025:15033  _approve */\n      tag_186\n        /* \"VaultCoin_flattened.sol\":15025:15056  _approve(owner, spender, value) */\n      jump\t// in\n    tag_185:\n        /* \"VaultCoin_flattened.sol\":15073:15077  true */\n      0x01\n        /* \"VaultCoin_flattened.sol\":15066:15077  return true */\n      swap2\n      pop\n      pop\n        /* \"VaultCoin_flattened.sol\":14898:15084  function approve(address spender, uint256 value) public virtual returns (bool) {... */\n      swap3\n      swap2\n      pop\n      pop\n      jump\t// out\n        /* \"VaultCoin_flattened.sol\":25115:25142  uint256 public  taxFees = 5 */\n    tag_62:\n      sload(0x09)\n      dup2\n      jump\t// out\n        /* \"VaultCoin_flattened.sol\":13749:13846  function totalSupply() public view virtual returns (uint256) {... */\n    tag_66:\n        /* \"VaultCoin_flattened.sol\":13801:13808  uint256 */\n      0x00\n        /* \"VaultCoin_flattened.sol\":13827:13839  _totalSupply */\n      sload(0x02)\n        /* \"VaultCoin_flattened.sol\":13820:13839  return _totalSupply */\n      swap1\n      pop\n        /* \"VaultCoin_flattened.sol\":13749:13846  function totalSupply() public view virtual returns (uint256) {... */\n      swap1\n      jump\t// out\n        /* \"VaultCoin_flattened.sol\":29662:29787  function removeExemptionFromTaxes(address account)     external onlyOwner{ ... */\n    tag_70:\n        /* \"VaultCoin_flattened.sol\":23303:23316  _checkOwner() */\n      tag_189\n        /* \"VaultCoin_flattened.sol\":23303:23314  _checkOwner */\n      tag_173\n        /* \"VaultCoin_flattened.sol\":23303:23316  _checkOwner() */\n      jump\t// in\n    tag_189:\n        /* \"VaultCoin_flattened.sol\":29771:29776  false */\n      0x00\n        /* \"VaultCoin_flattened.sol\":29751:29759  _taxList */\n      0x0d\n        /* \"VaultCoin_flattened.sol\":29751:29768  _taxList[account] */\n      0x00\n        /* \"VaultCoin_flattened.sol\":29760:29767  account */\n      dup4\n        /* \"VaultCoin_flattened.sol\":29751:29768  _taxList[account] */\n      0xffffffffffffffffffffffffffffffffffffffff\n      and\n      0xffffffffffffffffffffffffffffffffffffffff\n      and\n      dup2\n      mstore\n      0x20\n      add\n      swap1\n      dup2\n      mstore\n      0x20\n      add\n      0x00\n      keccak256\n      0x00\n        /* \"VaultCoin_flattened.sol\":29751:29776  _taxList[account] = false */\n      0x0100\n      exp\n      dup2\n      sload\n      dup2\n      0xff\n      mul\n      not\n      and\n      swap1\n      dup4\n      iszero\n      iszero\n      mul\n      or\n      swap1\n      sstore\n      pop\n        /* \"VaultCoin_flattened.sol\":29662:29787  function removeExemptionFromTaxes(address account)     external onlyOwner{ ... */\n      pop\n      jump\t// out\n        /* \"VaultCoin_flattened.sol\":15676:15920  function transferFrom(address from, address to, uint256 value) public virtual returns (bool) {... */\n    tag_74:\n        /* \"VaultCoin_flattened.sol\":15763:15767  bool */\n      0x00\n        /* \"VaultCoin_flattened.sol\":15779:15794  address spender */\n      0x00\n        /* \"VaultCoin_flattened.sol\":15797:15809  _msgSender() */\n      tag_192\n        /* \"VaultCoin_flattened.sol\":15797:15807  _msgSender */\n      tag_184\n        /* \"VaultCoin_flattened.sol\":15797:15809  _msgSender() */\n      jump\t// in\n    tag_192:\n        /* \"VaultCoin_flattened.sol\":15779:15809  address spender = _msgSender() */\n      swap1\n      pop\n        /* \"VaultCoin_flattened.sol\":15819:15856  _spendAllowance(from, spender, value) */\n      tag_193\n        /* \"VaultCoin_flattened.sol\":15835:15839  from */\n      dup6\n        /* \"VaultCoin_flattened.sol\":15841:15848  spender */\n      dup3\n        /* \"VaultCoin_flattened.sol\":15850:15855  value */\n      dup6\n        /* \"VaultCoin_flattened.sol\":15819:15834  _spendAllowance */\n      tag_194\n        /* \"VaultCoin_flattened.sol\":15819:15856  _spendAllowance(from, spender, value) */\n      jump\t// in\n    tag_193:\n        /* \"VaultCoin_flattened.sol\":15866:15892  _transfer(from, to, value) */\n      tag_195\n        /* \"VaultCoin_flattened.sol\":15876:15880  from */\n      dup6\n        /* \"VaultCoin_flattened.sol\":15882:15884  to */\n      dup6\n        /* \"VaultCoin_flattened.sol\":15886:15891  value */\n      dup6\n        /* \"VaultCoin_flattened.sol\":15866:15875  _transfer */\n      tag_196\n        /* \"VaultCoin_flattened.sol\":15866:15892  _transfer(from, to, value) */\n      jump\t// in\n    tag_195:\n        /* \"VaultCoin_flattened.sol\":15909:15913  true */\n      0x01\n        /* \"VaultCoin_flattened.sol\":15902:15913  return true */\n      swap2\n      pop\n      pop\n        /* \"VaultCoin_flattened.sol\":15676:15920  function transferFrom(address from, address to, uint256 value) public virtual returns (bool) {... */\n      swap4\n      swap3\n      pop\n      pop\n      pop\n      jump\t// out\n        /* \"VaultCoin_flattened.sol\":25985:26080  function enableWhiteListing() external onlyOwner... */\n    tag_77:\n        /* \"VaultCoin_flattened.sol\":23303:23316  _checkOwner() */\n      tag_198\n        /* \"VaultCoin_flattened.sol\":23303:23314  _checkOwner */\n      tag_173\n        /* \"VaultCoin_flattened.sol\":23303:23316  _checkOwner() */\n      jump\t// in\n    tag_198:\n        /* \"VaultCoin_flattened.sol\":26069:26073  true */\n      0x01\n        /* \"VaultCoin_flattened.sol\":26048:26068  _whiteListingEnabled */\n      0x0b\n      0x00\n        /* \"VaultCoin_flattened.sol\":26048:26073  _whiteListingEnabled=true */\n      0x0100\n      exp\n      dup2\n      sload\n      dup2\n      0xff\n      mul\n      not\n      and\n      swap1\n      dup4\n      iszero\n      iszero\n      mul\n      or\n      swap1\n      sstore\n      pop\n        /* \"VaultCoin_flattened.sol\":25985:26080  function enableWhiteListing() external onlyOwner... */\n      jump\t// out\n        /* \"VaultCoin_flattened.sol\":29253:29335  function getTaxes() external view returns (uint256){... */\n    tag_79:\n        /* \"VaultCoin_flattened.sol\":29296:29303  uint256 */\n      0x00\n        /* \"VaultCoin_flattened.sol\":29321:29328  taxFees */\n      sload(0x09)\n        /* \"VaultCoin_flattened.sol\":29314:29328  return taxFees */\n      swap1\n      pop\n        /* \"VaultCoin_flattened.sol\":29253:29335  function getTaxes() external view returns (uint256){... */\n      swap1\n      jump\t// out\n        /* \"VaultCoin_flattened.sol\":13607:13689  function decimals() public view virtual returns (uint8) {... */\n    tag_82:\n        /* \"VaultCoin_flattened.sol\":13656:13661  uint8 */\n      0x00\n        /* \"VaultCoin_flattened.sol\":13680:13682  18 */\n      0x12\n        /* \"VaultCoin_flattened.sol\":13673:13682  return 18 */\n      swap1\n      pop\n        /* \"VaultCoin_flattened.sol\":13607:13689  function decimals() public view virtual returns (uint8) {... */\n      swap1\n      jump\t// out\n        /* \"VaultCoin_flattened.sol\":26604:26748  function addToBlacklist(address account)     external onlyOwner ... */\n    tag_87:\n        /* \"VaultCoin_flattened.sol\":23303:23316  _checkOwner() */\n      tag_203\n        /* \"VaultCoin_flattened.sol\":23303:23314  _checkOwner */\n      tag_173\n        /* \"VaultCoin_flattened.sol\":23303:23316  _checkOwner() */\n      jump\t// in\n    tag_203:\n        /* \"VaultCoin_flattened.sol\":26720:26724  true */\n      0x01\n        /* \"VaultCoin_flattened.sol\":26698:26708  _blackList */\n      0x0c\n        /* \"VaultCoin_flattened.sol\":26698:26717  _blackList[account] */\n      0x00\n        /* \"VaultCoin_flattened.sol\":26709:26716  account */\n      dup4\n        /* \"VaultCoin_flattened.sol\":26698:26717  _blackList[account] */\n      0xffffffffffffffffffffffffffffffffffffffff\n      and\n      0xffffffffffffffffffffffffffffffffffffffff\n      and\n      dup2\n      mstore\n      0x20\n      add\n      swap1\n      dup2\n      mstore\n      0x20\n      add\n      0x00\n      keccak256\n      0x00\n        /* \"VaultCoin_flattened.sol\":26698:26724  _blackList[account] = true */\n      0x0100\n      exp\n      dup2\n      sload\n      dup2\n      0xff\n      mul\n      not\n      and\n      swap1\n      dup4\n      iszero\n      iszero\n      mul\n      or\n      swap1\n      sstore\n      pop\n        /* \"VaultCoin_flattened.sol\":26604:26748  function addToBlacklist(address account)     external onlyOwner ... */\n      pop\n      jump\t// out\n        /* \"VaultCoin_flattened.sol\":26357:26590  function addToWhiteList(address account)     external onlyOwner ... */\n    tag_90:\n        /* \"VaultCoin_flattened.sol\":23303:23316  _checkOwner() */\n      tag_206\n        /* \"VaultCoin_flattened.sol\":23303:23314  _checkOwner */\n      tag_173\n        /* \"VaultCoin_flattened.sol\":23303:23316  _checkOwner() */\n      jump\t// in\n    tag_206:\n        /* \"VaultCoin_flattened.sol\":26462:26472  _blackList */\n      0x0c\n        /* \"VaultCoin_flattened.sol\":26462:26481  _blackList[account] */\n      0x00\n        /* \"VaultCoin_flattened.sol\":26473:26480  account */\n      dup3\n        /* \"VaultCoin_flattened.sol\":26462:26481  _blackList[account] */\n      0xffffffffffffffffffffffffffffffffffffffff\n      and\n      0xffffffffffffffffffffffffffffffffffffffff\n      and\n      dup2\n      mstore\n      0x20\n      add\n      swap1\n      dup2\n      mstore\n      0x20\n      add\n      0x00\n      keccak256\n      0x00\n      swap1\n      sload\n      swap1\n      0x0100\n      exp\n      swap1\n      div\n      0xff\n      and\n        /* \"VaultCoin_flattened.sol\":26461:26481  !_blackList[account] */\n      iszero\n        /* \"VaultCoin_flattened.sol\":26453:26527  require(!_blackList[account],\"Blacklisted accounts cannot be whitelisted\") */\n      tag_208\n      jumpi\n      mload(0x40)\n      0x08c379a000000000000000000000000000000000000000000000000000000000\n      dup2\n      mstore\n      0x04\n      add\n      tag_209\n      swap1\n      tag_210\n      jump\t// in\n    tag_209:\n      mload(0x40)\n      dup1\n      swap2\n      sub\n      swap1\n      revert\n    tag_208:\n        /* \"VaultCoin_flattened.sol\":26564:26568  true */\n      0x01\n        /* \"VaultCoin_flattened.sol\":26542:26552  _whiteList */\n      0x0e\n        /* \"VaultCoin_flattened.sol\":26542:26561  _whiteList[account] */\n      0x00\n        /* \"VaultCoin_flattened.sol\":26553:26560  account */\n      dup4\n        /* \"VaultCoin_flattened.sol\":26542:26561  _whiteList[account] */\n      0xffffffffffffffffffffffffffffffffffffffff\n      and\n      0xffffffffffffffffffffffffffffffffffffffff\n      and\n      dup2\n      mstore\n      0x20\n      add\n      swap1\n      dup2\n      mstore\n      0x20\n      add\n      0x00\n      keccak256\n      0x00\n        /* \"VaultCoin_flattened.sol\":26542:26568  _whiteList[account] = true */\n      0x0100\n      exp\n      dup2\n      sload\n      dup2\n      0xff\n      mul\n      not\n      and\n      swap1\n      dup4\n      iszero\n      iszero\n      mul\n      or\n      swap1\n      sstore\n      pop\n        /* \"VaultCoin_flattened.sol\":26357:26590  function addToWhiteList(address account)     external onlyOwner ... */\n      pop\n      jump\t// out\n        /* \"VaultCoin_flattened.sol\":29342:29531  function setSlippageFees(uint256 newSlippageFee) external onlyOwner{... */\n    tag_94:\n        /* \"VaultCoin_flattened.sol\":23303:23316  _checkOwner() */\n      tag_212\n        /* \"VaultCoin_flattened.sol\":23303:23314  _checkOwner */\n      tag_173\n        /* \"VaultCoin_flattened.sol\":23303:23316  _checkOwner() */\n      jump\t// in\n    tag_212:\n        /* \"VaultCoin_flattened.sol\":29443:29444  5 */\n      0x05\n        /* \"VaultCoin_flattened.sol\":29427:29441  newSlippageFee */\n      dup2\n        /* \"VaultCoin_flattened.sol\":29427:29444  newSlippageFee<=5 */\n      gt\n      iszero\n        /* \"VaultCoin_flattened.sol\":29419:29487  require(newSlippageFee<=5, \"Slippage fees cannot be higher than 5%\") */\n      tag_214\n      jumpi\n      mload(0x40)\n      0x08c379a000000000000000000000000000000000000000000000000000000000\n      dup2\n      mstore\n      0x04\n      add\n      tag_215\n      swap1\n      tag_216\n      jump\t// in\n    tag_215:\n      mload(0x40)\n      dup1\n      swap2\n      sub\n      swap1\n      revert\n    tag_214:\n        /* \"VaultCoin_flattened.sol\":29510:29524  newSlippageFee */\n      dup1\n        /* \"VaultCoin_flattened.sol\":29497:29509  slippageFees */\n      0x0a\n        /* \"VaultCoin_flattened.sol\":29497:29524  slippageFees=newSlippageFee */\n      dup2\n      swap1\n      sstore\n      pop\n        /* \"VaultCoin_flattened.sol\":29342:29531  function setSlippageFees(uint256 newSlippageFee) external onlyOwner{... */\n      pop\n      jump\t// out\n        /* \"VaultCoin_flattened.sol\":28990:29148  function setTaxes(uint256 newTaxFee) external onlyOwner{... */\n    tag_97:\n        /* \"VaultCoin_flattened.sol\":23303:23316  _checkOwner() */\n      tag_218\n        /* \"VaultCoin_flattened.sol\":23303:23314  _checkOwner */\n      tag_173\n        /* \"VaultCoin_flattened.sol\":23303:23316  _checkOwner() */\n      jump\t// in\n    tag_218:\n        /* \"VaultCoin_flattened.sol\":29074:29076  10 */\n      0x0a\n        /* \"VaultCoin_flattened.sol\":29063:29072  newTaxFee */\n      dup2\n        /* \"VaultCoin_flattened.sol\":29063:29076  newTaxFee<=10 */\n      gt\n      iszero\n        /* \"VaultCoin_flattened.sol\":29055:29114  require(newTaxFee<=10, \"Tax fee cannot be higher than 10%\") */\n      tag_220\n      jumpi\n      mload(0x40)\n      0x08c379a000000000000000000000000000000000000000000000000000000000\n      dup2\n      mstore\n      0x04\n      add\n      tag_221\n      swap1\n      tag_222\n      jump\t// in\n    tag_221:\n      mload(0x40)\n      dup1\n      swap2\n      sub\n      swap1\n      revert\n    tag_220:\n        /* \"VaultCoin_flattened.sol\":29132:29141  newTaxFee */\n      dup1\n        /* \"VaultCoin_flattened.sol\":29124:29131  taxFees */\n      0x09\n        /* \"VaultCoin_flattened.sol\":29124:29141  taxFees=newTaxFee */\n      dup2\n      swap1\n      sstore\n      pop\n        /* \"VaultCoin_flattened.sol\":28990:29148  function setTaxes(uint256 newTaxFee) external onlyOwner{... */\n      pop\n      jump\t// out\n        /* \"VaultCoin_flattened.sol\":26757:26900  function removeFromBlacklist(address account)     external onlyOwner ... */\n    tag_100:\n        /* \"VaultCoin_flattened.sol\":23303:23316  _checkOwner() */\n      tag_224\n        /* \"VaultCoin_flattened.sol\":23303:23314  _checkOwner */\n      tag_173\n        /* \"VaultCoin_flattened.sol\":23303:23316  _checkOwner() */\n      jump\t// in\n    tag_224:\n        /* \"VaultCoin_flattened.sol\":26884:26889  false */\n      0x00\n        /* \"VaultCoin_flattened.sol\":26862:26872  _blackList */\n      0x0c\n        /* \"VaultCoin_flattened.sol\":26862:26881  _blackList[account] */\n      0x00\n        /* \"VaultCoin_flattened.sol\":26873:26880  account */\n      dup4\n        /* \"VaultCoin_flattened.sol\":26862:26881  _blackList[account] */\n      0xffffffffffffffffffffffffffffffffffffffff\n      and\n      0xffffffffffffffffffffffffffffffffffffffff\n      and\n      dup2\n      mstore\n      0x20\n      add\n      swap1\n      dup2\n      mstore\n      0x20\n      add\n      0x00\n      keccak256\n      0x00\n        /* \"VaultCoin_flattened.sol\":26862:26889  _blackList[account] = false */\n      0x0100\n      exp\n      dup2\n      sload\n      dup2\n      0xff\n      mul\n      not\n      and\n      swap1\n      dup4\n      iszero\n      iszero\n      mul\n      or\n      swap1\n      sstore\n      pop\n        /* \"VaultCoin_flattened.sol\":26757:26900  function removeFromBlacklist(address account)     external onlyOwner ... */\n      pop\n      jump\t// out\n        /* \"VaultCoin_flattened.sol\":26187:26264  function enableTax() external onlyOwner... */\n    tag_102:\n        /* \"VaultCoin_flattened.sol\":23303:23316  _checkOwner() */\n      tag_227\n        /* \"VaultCoin_flattened.sol\":23303:23314  _checkOwner */\n      tag_173\n        /* \"VaultCoin_flattened.sol\":23303:23316  _checkOwner() */\n      jump\t// in\n    tag_227:\n        /* \"VaultCoin_flattened.sol\":26253:26257  true */\n      0x01\n        /* \"VaultCoin_flattened.sol\":26241:26252  _taxEnabled */\n      0x0b\n      0x01\n        /* \"VaultCoin_flattened.sol\":26241:26257  _taxEnabled=true */\n      0x0100\n      exp\n      dup2\n      sload\n      dup2\n      0xff\n      mul\n      not\n      and\n      swap1\n      dup4\n      iszero\n      iszero\n      mul\n      or\n      swap1\n      sstore\n      pop\n        /* \"VaultCoin_flattened.sol\":26187:26264  function enableTax() external onlyOwner... */\n      jump\t// out\n        /* \"VaultCoin_flattened.sol\":25144:25176  uint256 public  slippageFees = 2 */\n    tag_104:\n      sload(0x0a)\n      dup2\n      jump\t// out\n        /* \"VaultCoin_flattened.sol\":27526:27634  function getMaxTxAmount() external view returns(uint256){... */\n    tag_107:\n        /* \"VaultCoin_flattened.sol\":27574:27581  uint256 */\n      0x00\n        /* \"VaultCoin_flattened.sol\":27603:27614  maxTxAmount */\n      sload(0x07)\n        /* \"VaultCoin_flattened.sol\":27596:27614  return maxTxAmount */\n      swap1\n      pop\n        /* \"VaultCoin_flattened.sol\":27526:27634  function getMaxTxAmount() external view returns(uint256){... */\n      swap1\n      jump\t// out\n        /* \"VaultCoin_flattened.sol\":27188:27317  function isWhiteListed(address account) external view returns (bool) ... */\n    tag_111:\n        /* \"VaultCoin_flattened.sol\":27251:27255  bool */\n      0x00\n        /* \"VaultCoin_flattened.sol\":27287:27297  _whiteList */\n      0x0e\n        /* \"VaultCoin_flattened.sol\":27287:27306  _whiteList[account] */\n      0x00\n        /* \"VaultCoin_flattened.sol\":27298:27305  account */\n      dup4\n        /* \"VaultCoin_flattened.sol\":27287:27306  _whiteList[account] */\n      0xffffffffffffffffffffffffffffffffffffffff\n      and\n      0xffffffffffffffffffffffffffffffffffffffff\n      and\n      dup2\n      mstore\n      0x20\n      add\n      swap1\n      dup2\n      mstore\n      0x20\n      add\n      0x00\n      keccak256\n      0x00\n      swap1\n      sload\n      swap1\n      0x0100\n      exp\n      swap1\n      div\n      0xff\n      and\n        /* \"VaultCoin_flattened.sol\":27280:27306  return _whiteList[account] */\n      swap1\n      pop\n        /* \"VaultCoin_flattened.sol\":27188:27317  function isWhiteListed(address account) external view returns (bool) ... */\n      swap2\n      swap1\n      pop\n      jump\t// out\n        /* \"VaultCoin_flattened.sol\":27832:27959  function setCooldownTime(uint256 newCooldownTime) external onlyOwner{... */\n    tag_115:\n        /* \"VaultCoin_flattened.sol\":23303:23316  _checkOwner() */\n      tag_232\n        /* \"VaultCoin_flattened.sol\":23303:23314  _checkOwner */\n      tag_173\n        /* \"VaultCoin_flattened.sol\":23303:23316  _checkOwner() */\n      jump\t// in\n    tag_232:\n        /* \"VaultCoin_flattened.sol\":27927:27942  newCooldownTime */\n      dup1\n        /* \"VaultCoin_flattened.sol\":27914:27926  cooldownTime */\n      0x08\n        /* \"VaultCoin_flattened.sol\":27914:27942  cooldownTime=newCooldownTime */\n      dup2\n      swap1\n      sstore\n      pop\n        /* \"VaultCoin_flattened.sol\":27832:27959  function setCooldownTime(uint256 newCooldownTime) external onlyOwner{... */\n      pop\n      jump\t// out\n        /* \"VaultCoin_flattened.sol\":13904:14020  function balanceOf(address account) public view virtual returns (uint256) {... */\n    tag_118:\n        /* \"VaultCoin_flattened.sol\":13969:13976  uint256 */\n      0x00\n        /* \"VaultCoin_flattened.sol\":13995:14004  _balances */\n      0x00\n        /* \"VaultCoin_flattened.sol\":13995:14013  _balances[account] */\n      0x00\n        /* \"VaultCoin_flattened.sol\":14005:14012  account */\n      dup4\n        /* \"VaultCoin_flattened.sol\":13995:14013  _balances[account] */\n      0xffffffffffffffffffffffffffffffffffffffff\n      and\n      0xffffffffffffffffffffffffffffffffffffffff\n      and\n      dup2\n      mstore\n      0x20\n      add\n      swap1\n      dup2\n      mstore\n      0x20\n      add\n      0x00\n      keccak256\n      sload\n        /* \"VaultCoin_flattened.sol\":13988:14013  return _balances[account] */\n      swap1\n      pop\n        /* \"VaultCoin_flattened.sol\":13904:14020  function balanceOf(address account) public view virtual returns (uint256) {... */\n      swap2\n      swap1\n      pop\n      jump\t// out\n        /* \"VaultCoin_flattened.sol\":25796:25979  function renounceOwnership() public override onlyOwner{... */\n    tag_121:\n        /* \"VaultCoin_flattened.sol\":23303:23316  _checkOwner() */\n      tag_236\n        /* \"VaultCoin_flattened.sol\":23303:23314  _checkOwner */\n      tag_173\n        /* \"VaultCoin_flattened.sol\":23303:23316  _checkOwner() */\n      jump\t// in\n    tag_236:\n        /* \"VaultCoin_flattened.sol\":25947:25972  super.renounceOwnership() */\n      tag_238\n        /* \"VaultCoin_flattened.sol\":25947:25970  super.renounceOwnership */\n      tag_239\n        /* \"VaultCoin_flattened.sol\":25947:25972  super.renounceOwnership() */\n      jump\t// in\n    tag_238:\n        /* \"VaultCoin_flattened.sol\":25796:25979  function renounceOwnership() public override onlyOwner{... */\n      jump\t// out\n        /* \"VaultCoin_flattened.sol\":29537:29656  function addExemptionToTaxes(address account)     external onlyOwner {... */\n    tag_124:\n        /* \"VaultCoin_flattened.sol\":23303:23316  _checkOwner() */\n      tag_241\n        /* \"VaultCoin_flattened.sol\":23303:23314  _checkOwner */\n      tag_173\n        /* \"VaultCoin_flattened.sol\":23303:23316  _checkOwner() */\n      jump\t// in\n    tag_241:\n        /* \"VaultCoin_flattened.sol\":29641:29645  true */\n      0x01\n        /* \"VaultCoin_flattened.sol\":29621:29629  _taxList */\n      0x0d\n        /* \"VaultCoin_flattened.sol\":29621:29638  _taxList[account] */\n      0x00\n        /* \"VaultCoin_flattened.sol\":29630:29637  account */\n      dup4\n        /* \"VaultCoin_flattened.sol\":29621:29638  _taxList[account] */\n      0xffffffffffffffffffffffffffffffffffffffff\n      and\n      0xffffffffffffffffffffffffffffffffffffffff\n      and\n      dup2\n      mstore\n      0x20\n      add\n      swap1\n      dup2\n      mstore\n      0x20\n      add\n      0x00\n      keccak256\n      0x00\n        /* \"VaultCoin_flattened.sol\":29621:29645  _taxList[account] = true */\n      0x0100\n      exp\n      dup2\n      sload\n      dup2\n      0xff\n      mul\n      not\n      and\n      swap1\n      dup4\n      iszero\n      iszero\n      mul\n      or\n      swap1\n      sstore\n      pop\n        /* \"VaultCoin_flattened.sol\":29537:29656  function addExemptionToTaxes(address account)     external onlyOwner {... */\n      pop\n      jump\t// out\n        /* \"VaultCoin_flattened.sol\":25028:25071  uint256 public  maxTxAmount = initialSupply */\n    tag_126:\n      sload(0x07)\n      dup2\n      jump\t// out\n        /* \"VaultCoin_flattened.sol\":23410:23495  function owner() public view virtual returns (address) {... */\n    tag_129:\n        /* \"VaultCoin_flattened.sol\":23456:23463  address */\n      0x00\n        /* \"VaultCoin_flattened.sol\":23482:23488  _owner */\n      0x05\n      0x00\n      swap1\n      sload\n      swap1\n      0x0100\n      exp\n      swap1\n      div\n      0xffffffffffffffffffffffffffffffffffffffff\n      and\n        /* \"VaultCoin_flattened.sol\":23475:23488  return _owner */\n      swap1\n      pop\n        /* \"VaultCoin_flattened.sol\":23410:23495  function owner() public view virtual returns (address) {... */\n      swap1\n      jump\t// out\n        /* \"VaultCoin_flattened.sol\":29154:29248  function getSlippageFees() external view returns (uint256){... */\n    tag_133:\n        /* \"VaultCoin_flattened.sol\":29204:29211  uint256 */\n      0x00\n        /* \"VaultCoin_flattened.sol\":29229:29241  slippageFees */\n      sload(0x0a)\n        /* \"VaultCoin_flattened.sol\":29222:29241  return slippageFees */\n      swap1\n      pop\n        /* \"VaultCoin_flattened.sol\":29154:29248  function getSlippageFees() external view returns (uint256){... */\n      swap1\n      jump\t// out\n        /* \"VaultCoin_flattened.sol\":12881:12974  function symbol() public view virtual returns (string memory) {... */\n    tag_136:\n        /* \"VaultCoin_flattened.sol\":12928:12941  string memory */\n      0x60\n        /* \"VaultCoin_flattened.sol\":12960:12967  _symbol */\n      0x04\n        /* \"VaultCoin_flattened.sol\":12953:12967  return _symbol */\n      dup1\n      sload\n      tag_246\n      swap1\n      tag_177\n      jump\t// in\n    tag_246:\n      dup1\n      0x1f\n      add\n      0x20\n      dup1\n      swap2\n      div\n      mul\n      0x20\n      add\n      mload(0x40)\n      swap1\n      dup2\n      add\n      0x40\n      mstore\n      dup1\n      swap3\n      swap2\n      swap1\n      dup2\n      dup2\n      mstore\n      0x20\n      add\n      dup3\n      dup1\n      sload\n      tag_247\n      swap1\n      tag_177\n      jump\t// in\n    tag_247:\n      dup1\n      iszero\n      tag_248\n      jumpi\n      dup1\n      0x1f\n      lt\n      tag_249\n      jumpi\n      0x0100\n      dup1\n      dup4\n      sload\n      div\n      mul\n      dup4\n      mstore\n      swap2\n      0x20\n      add\n      swap2\n      jump(tag_248)\n    tag_249:\n      dup3\n      add\n      swap2\n      swap1\n      0x00\n      mstore\n      keccak256(0x00, 0x20)\n      swap1\n    tag_250:\n      dup2\n      sload\n      dup2\n      mstore\n      swap1\n      0x01\n      add\n      swap1\n      0x20\n      add\n      dup1\n      dup4\n      gt\n      tag_250\n      jumpi\n      dup3\n      swap1\n      sub\n      0x1f\n      and\n      dup3\n      add\n      swap2\n    tag_248:\n      pop\n      pop\n      pop\n      pop\n      pop\n      swap1\n      pop\n        /* \"VaultCoin_flattened.sol\":12881:12974  function symbol() public view virtual returns (string memory) {... */\n      swap1\n      jump\t// out\n        /* \"VaultCoin_flattened.sol\":14215:14393  function transfer(address to, uint256 value) public virtual returns (bool) {... */\n    tag_140:\n        /* \"VaultCoin_flattened.sol\":14284:14288  bool */\n      0x00\n        /* \"VaultCoin_flattened.sol\":14300:14313  address owner */\n      0x00\n        /* \"VaultCoin_flattened.sol\":14316:14328  _msgSender() */\n      tag_252\n        /* \"VaultCoin_flattened.sol\":14316:14326  _msgSender */\n      tag_184\n        /* \"VaultCoin_flattened.sol\":14316:14328  _msgSender() */\n      jump\t// in\n    tag_252:\n        /* \"VaultCoin_flattened.sol\":14300:14328  address owner = _msgSender() */\n      swap1\n      pop\n        /* \"VaultCoin_flattened.sol\":14338:14365  _transfer(owner, to, value) */\n      tag_253\n        /* \"VaultCoin_flattened.sol\":14348:14353  owner */\n      dup2\n        /* \"VaultCoin_flattened.sol\":14355:14357  to */\n      dup6\n        /* \"VaultCoin_flattened.sol\":14359:14364  value */\n      dup6\n        /* \"VaultCoin_flattened.sol\":14338:14347  _transfer */\n      tag_196\n        /* \"VaultCoin_flattened.sol\":14338:14365  _transfer(owner, to, value) */\n      jump\t// in\n    tag_253:\n        /* \"VaultCoin_flattened.sol\":14382:14386  true */\n      0x01\n        /* \"VaultCoin_flattened.sol\":14375:14386  return true */\n      swap2\n      pop\n      pop\n        /* \"VaultCoin_flattened.sol\":14215:14393  function transfer(address to, uint256 value) public virtual returns (bool) {... */\n      swap3\n      swap2\n      pop\n      pop\n      jump\t// out\n        /* \"VaultCoin_flattened.sol\":25073:25113  uint256 public  cooldownTime = 1 minutes */\n    tag_143:\n      sload(0x08)\n      dup2\n      jump\t// out\n        /* \"VaultCoin_flattened.sol\":25255:25280  address public taxAddress */\n    tag_146:\n      0x0b\n      0x02\n      swap1\n      sload\n      swap1\n      0x0100\n      exp\n      swap1\n      div\n      0xffffffffffffffffffffffffffffffffffffffff\n      and\n      dup2\n      jump\t// out\n        /* \"VaultCoin_flattened.sol\":26270:26349  function disableTax() external onlyOwner... */\n    tag_149:\n        /* \"VaultCoin_flattened.sol\":23303:23316  _checkOwner() */\n      tag_255\n        /* \"VaultCoin_flattened.sol\":23303:23314  _checkOwner */\n      tag_173\n        /* \"VaultCoin_flattened.sol\":23303:23316  _checkOwner() */\n      jump\t// in\n    tag_255:\n        /* \"VaultCoin_flattened.sol\":26337:26342  false */\n      0x00\n        /* \"VaultCoin_flattened.sol\":26325:26336  _taxEnabled */\n      0x0b\n      0x01\n        /* \"VaultCoin_flattened.sol\":26325:26342  _taxEnabled=false */\n      0x0100\n      exp\n      dup2\n      sload\n      dup2\n      0xff\n      mul\n      not\n      and\n      swap1\n      dup4\n      iszero\n      iszero\n      mul\n      or\n      swap1\n      sstore\n      pop\n        /* \"VaultCoin_flattened.sol\":26270:26349  function disableTax() external onlyOwner... */\n      jump\t// out\n        /* \"VaultCoin_flattened.sol\":27644:27821  function getContractDetials() external view returns (address, uint256, uint256, uint256)... */\n    tag_151:\n        /* \"VaultCoin_flattened.sol\":27697:27704  address */\n      0x00\n        /* \"VaultCoin_flattened.sol\":27706:27713  uint256 */\n      0x00\n        /* \"VaultCoin_flattened.sol\":27715:27722  uint256 */\n      0x00\n        /* \"VaultCoin_flattened.sol\":27724:27731  uint256 */\n      0x00\n        /* \"VaultCoin_flattened.sol\":27763:27770  owner() */\n      tag_258\n        /* \"VaultCoin_flattened.sol\":27763:27768  owner */\n      tag_129\n        /* \"VaultCoin_flattened.sol\":27763:27770  owner() */\n      jump\t// in\n    tag_258:\n        /* \"VaultCoin_flattened.sol\":27771:27782  maxTxAmount */\n      sload(0x07)\n        /* \"VaultCoin_flattened.sol\":27783:27795  cooldownTime */\n      sload(0x08)\n        /* \"VaultCoin_flattened.sol\":27796:27809  initialSupply */\n      sload(0x06)\n        /* \"VaultCoin_flattened.sol\":27755:27810  return (owner(),maxTxAmount,cooldownTime,initialSupply) */\n      swap4\n      pop\n      swap4\n      pop\n      swap4\n      pop\n      swap4\n      pop\n        /* \"VaultCoin_flattened.sol\":27644:27821  function getContractDetials() external view returns (address, uint256, uint256, uint256)... */\n      swap1\n      swap2\n      swap3\n      swap4\n      jump\t// out\n        /* \"VaultCoin_flattened.sol\":14451:14591  function allowance(address owner, address spender) public view virtual returns (uint256) {... */\n    tag_157:\n        /* \"VaultCoin_flattened.sol\":14531:14538  uint256 */\n      0x00\n        /* \"VaultCoin_flattened.sol\":14557:14568  _allowances */\n      0x01\n        /* \"VaultCoin_flattened.sol\":14557:14575  _allowances[owner] */\n      0x00\n        /* \"VaultCoin_flattened.sol\":14569:14574  owner */\n      dup5\n        /* \"VaultCoin_flattened.sol\":14557:14575  _allowances[owner] */\n      0xffffffffffffffffffffffffffffffffffffffff\n      and\n      0xffffffffffffffffffffffffffffffffffffffff\n      and\n      dup2\n      mstore\n      0x20\n      add\n      swap1\n      dup2\n      mstore\n      0x20\n      add\n      0x00\n      keccak256\n        /* \"VaultCoin_flattened.sol\":14557:14584  _allowances[owner][spender] */\n      0x00\n        /* \"VaultCoin_flattened.sol\":14576:14583  spender */\n      dup4\n        /* \"VaultCoin_flattened.sol\":14557:14584  _allowances[owner][spender] */\n      0xffffffffffffffffffffffffffffffffffffffff\n      and\n      0xffffffffffffffffffffffffffffffffffffffff\n      and\n      dup2\n      mstore\n      0x20\n      add\n      swap1\n      dup2\n      mstore\n      0x20\n      add\n      0x00\n      keccak256\n      sload\n        /* \"VaultCoin_flattened.sol\":14550:14584  return _allowances[owner][spender] */\n      swap1\n      pop\n        /* \"VaultCoin_flattened.sol\":14451:14591  function allowance(address owner, address spender) public view virtual returns (uint256) {... */\n      swap3\n      swap2\n      pop\n      pop\n      jump\t// out\n        /* \"VaultCoin_flattened.sol\":27327:27516  function setMaxTxAmount(uint256 newMaxTxAmount) external onlyOwner {... */\n    tag_161:\n        /* \"VaultCoin_flattened.sol\":23303:23316  _checkOwner() */\n      tag_261\n        /* \"VaultCoin_flattened.sol\":23303:23314  _checkOwner */\n      tag_173\n        /* \"VaultCoin_flattened.sol\":23303:23316  _checkOwner() */\n      jump\t// in\n    tag_261:\n        /* \"VaultCoin_flattened.sol\":27422:27436  newMaxTxAmount */\n      dup1\n        /* \"VaultCoin_flattened.sol\":27408:27419  maxTxAmount */\n      0x07\n        /* \"VaultCoin_flattened.sol\":27408:27436  maxTxAmount = newMaxTxAmount */\n      dup2\n      swap1\n      sstore\n      pop\n        /* \"VaultCoin_flattened.sol\":27327:27516  function setMaxTxAmount(uint256 newMaxTxAmount) external onlyOwner {... */\n      pop\n      jump\t// out\n        /* \"VaultCoin_flattened.sol\":26086:26181  function enableBlackListing() external onlyOwner... */\n    tag_163:\n        /* \"VaultCoin_flattened.sol\":23303:23316  _checkOwner() */\n      tag_264\n        /* \"VaultCoin_flattened.sol\":23303:23314  _checkOwner */\n      tag_173\n        /* \"VaultCoin_flattened.sol\":23303:23316  _checkOwner() */\n      jump\t// in\n    tag_264:\n        /* \"VaultCoin_flattened.sol\":26170:26174  true */\n      0x01\n        /* \"VaultCoin_flattened.sol\":26149:26169  _blackListingEnabled */\n      0x0b\n      0x16\n        /* \"VaultCoin_flattened.sol\":26149:26174  _blackListingEnabled=true */\n      0x0100\n      exp\n      dup2\n      sload\n      dup2\n      0xff\n      mul\n      not\n      and\n      swap1\n      dup4\n      iszero\n      iszero\n      mul\n      or\n      swap1\n      sstore\n      pop\n        /* \"VaultCoin_flattened.sol\":26086:26181  function enableBlackListing() external onlyOwner... */\n      jump\t// out\n        /* \"VaultCoin_flattened.sol\":24315:24530  function transferOwnership(address newOwner) public virtual onlyOwner {... */\n    tag_166:\n        /* \"VaultCoin_flattened.sol\":23303:23316  _checkOwner() */\n      tag_267\n        /* \"VaultCoin_flattened.sol\":23303:23314  _checkOwner */\n      tag_173\n        /* \"VaultCoin_flattened.sol\":23303:23316  _checkOwner() */\n      jump\t// in\n    tag_267:\n        /* \"VaultCoin_flattened.sol\":24419:24420  0 */\n      0x00\n        /* \"VaultCoin_flattened.sol\":24399:24421  newOwner == address(0) */\n      0xffffffffffffffffffffffffffffffffffffffff\n      and\n        /* \"VaultCoin_flattened.sol\":24399:24407  newOwner */\n      dup2\n        /* \"VaultCoin_flattened.sol\":24399:24421  newOwner == address(0) */\n      0xffffffffffffffffffffffffffffffffffffffff\n      and\n      sub\n        /* \"VaultCoin_flattened.sol\":24395:24486  if (newOwner == address(0)) {... */\n      tag_269\n      jumpi\n        /* \"VaultCoin_flattened.sol\":24472:24473  0 */\n      0x00\n        /* \"VaultCoin_flattened.sol\":24444:24475  OwnableInvalidOwner(address(0)) */\n      mload(0x40)\n      0x1e4fbdf700000000000000000000000000000000000000000000000000000000\n      dup2\n      mstore\n      0x04\n      add\n      tag_270\n      swap2\n      swap1\n      tag_131\n      jump\t// in\n    tag_270:\n      mload(0x40)\n      dup1\n      swap2\n      sub\n      swap1\n      revert\n        /* \"VaultCoin_flattened.sol\":24395:24486  if (newOwner == address(0)) {... */\n    tag_269:\n        /* \"VaultCoin_flattened.sol\":24495:24523  _transferOwnership(newOwner) */\n      tag_271\n        /* \"VaultCoin_flattened.sol\":24514:24522  newOwner */\n      dup2\n        /* \"VaultCoin_flattened.sol\":24495:24513  _transferOwnership */\n      tag_272\n        /* \"VaultCoin_flattened.sol\":24495:24523  _transferOwnership(newOwner) */\n      jump\t// in\n    tag_271:\n        /* \"VaultCoin_flattened.sol\":24315:24530  function transferOwnership(address newOwner) public virtual onlyOwner {... */\n      pop\n      jump\t// out\n        /* \"VaultCoin_flattened.sol\":27053:27182  function isBlacklisted(address account) external view returns (bool) ... */\n    tag_169:\n        /* \"VaultCoin_flattened.sol\":27116:27120  bool */\n      0x00\n        /* \"VaultCoin_flattened.sol\":27152:27162  _blackList */\n      0x0c\n        /* \"VaultCoin_flattened.sol\":27152:27171  _blackList[account] */\n      0x00\n        /* \"VaultCoin_flattened.sol\":27163:27170  account */\n      dup4\n        /* \"VaultCoin_flattened.sol\":27152:27171  _blackList[account] */\n      0xffffffffffffffffffffffffffffffffffffffff\n      and\n      0xffffffffffffffffffffffffffffffffffffffff\n      and\n      dup2\n      mstore\n      0x20\n      add\n      swap1\n      dup2\n      mstore\n      0x20\n      add\n      0x00\n      keccak256\n      0x00\n      swap1\n      sload\n      swap1\n      0x0100\n      exp\n      swap1\n      div\n      0xff\n      and\n        /* \"VaultCoin_flattened.sol\":27145:27171  return _blackList[account] */\n      swap1\n      pop\n        /* \"VaultCoin_flattened.sol\":27053:27182  function isBlacklisted(address account) external view returns (bool) ... */\n      swap2\n      swap1\n      pop\n      jump\t// out\n        /* \"VaultCoin_flattened.sol\":23568:23730  function _checkOwner() internal view virtual {... */\n    tag_173:\n        /* \"VaultCoin_flattened.sol\":23638:23650  _msgSender() */\n      tag_275\n        /* \"VaultCoin_flattened.sol\":23638:23648  _msgSender */\n      tag_184\n        /* \"VaultCoin_flattened.sol\":23638:23650  _msgSender() */\n      jump\t// in\n    tag_275:\n        /* \"VaultCoin_flattened.sol\":23627:23650  owner() != _msgSender() */\n      0xffffffffffffffffffffffffffffffffffffffff\n      and\n        /* \"VaultCoin_flattened.sol\":23627:23634  owner() */\n      tag_276\n        /* \"VaultCoin_flattened.sol\":23627:23632  owner */\n      tag_129\n        /* \"VaultCoin_flattened.sol\":23627:23634  owner() */\n      jump\t// in\n    tag_276:\n        /* \"VaultCoin_flattened.sol\":23627:23650  owner() != _msgSender() */\n      0xffffffffffffffffffffffffffffffffffffffff\n      and\n      eq\n        /* \"VaultCoin_flattened.sol\":23623:23724  if (owner() != _msgSender()) {... */\n      tag_277\n      jumpi\n        /* \"VaultCoin_flattened.sol\":23700:23712  _msgSender() */\n      tag_278\n        /* \"VaultCoin_flattened.sol\":23700:23710  _msgSender */\n      tag_184\n        /* \"VaultCoin_flattened.sol\":23700:23712  _msgSender() */\n      jump\t// in\n    tag_278:\n        /* \"VaultCoin_flattened.sol\":23673:23713  OwnableUnauthorizedAccount(_msgSender()) */\n      mload(0x40)\n      0x118cdaa700000000000000000000000000000000000000000000000000000000\n      dup2\n      mstore\n      0x04\n      add\n      tag_279\n      swap2\n      swap1\n      tag_131\n      jump\t// in\n    tag_279:\n      mload(0x40)\n      dup1\n      swap2\n      sub\n      swap1\n      revert\n        /* \"VaultCoin_flattened.sol\":23623:23724  if (owner() != _msgSender()) {... */\n    tag_277:\n        /* \"VaultCoin_flattened.sol\":23568:23730  function _checkOwner() internal view virtual {... */\n      jump\t// out\n        /* \"VaultCoin_flattened.sol\":4208:4304  function _msgSender() internal view virtual returns (address) {... */\n    tag_184:\n        /* \"VaultCoin_flattened.sol\":4261:4268  address */\n      0x00\n        /* \"VaultCoin_flattened.sol\":4287:4297  msg.sender */\n      caller\n        /* \"VaultCoin_flattened.sol\":4280:4297  return msg.sender */\n      swap1\n      pop\n        /* \"VaultCoin_flattened.sol\":4208:4304  function _msgSender() internal view virtual returns (address) {... */\n      swap1\n      jump\t// out\n        /* \"VaultCoin_flattened.sol\":19626:19754  function _approve(address owner, address spender, uint256 value) internal {... */\n    tag_186:\n        /* \"VaultCoin_flattened.sol\":19710:19747  _approve(owner, spender, value, true) */\n      tag_282\n        /* \"VaultCoin_flattened.sol\":19719:19724  owner */\n      dup4\n        /* \"VaultCoin_flattened.sol\":19726:19733  spender */\n      dup4\n        /* \"VaultCoin_flattened.sol\":19735:19740  value */\n      dup4\n        /* \"VaultCoin_flattened.sol\":19742:19746  true */\n      0x01\n        /* \"VaultCoin_flattened.sol\":19710:19718  _approve */\n      tag_283\n        /* \"VaultCoin_flattened.sol\":19710:19747  _approve(owner, spender, value, true) */\n      jump\t// in\n    tag_282:\n        /* \"VaultCoin_flattened.sol\":19626:19754  function _approve(address owner, address spender, uint256 value) internal {... */\n      pop\n      pop\n      pop\n      jump\t// out\n        /* \"VaultCoin_flattened.sol\":21315:21792  function _spendAllowance(address owner, address spender, uint256 value) internal virtual {... */\n    tag_194:\n        /* \"VaultCoin_flattened.sol\":21414:21438  uint256 currentAllowance */\n      0x00\n        /* \"VaultCoin_flattened.sol\":21441:21466  allowance(owner, spender) */\n      tag_285\n        /* \"VaultCoin_flattened.sol\":21451:21456  owner */\n      dup5\n        /* \"VaultCoin_flattened.sol\":21458:21465  spender */\n      dup5\n        /* \"VaultCoin_flattened.sol\":21441:21450  allowance */\n      tag_157\n        /* \"VaultCoin_flattened.sol\":21441:21466  allowance(owner, spender) */\n      jump\t// in\n    tag_285:\n        /* \"VaultCoin_flattened.sol\":21414:21466  uint256 currentAllowance = allowance(owner, spender) */\n      swap1\n      pop\n        /* \"VaultCoin_flattened.sol\":21500:21517  type(uint256).max */\n      0xffffffffffffffffffffffffffffffffffffffffffffffffffffffffffffffff\n        /* \"VaultCoin_flattened.sol\":21480:21496  currentAllowance */\n      dup2\n        /* \"VaultCoin_flattened.sol\":21480:21517  currentAllowance != type(uint256).max */\n      eq\n        /* \"VaultCoin_flattened.sol\":21476:21786  if (currentAllowance != type(uint256).max) {... */\n      tag_286\n      jumpi\n        /* \"VaultCoin_flattened.sol\":21556:21561  value */\n      dup2\n        /* \"VaultCoin_flattened.sol\":21537:21553  currentAllowance */\n      dup2\n        /* \"VaultCoin_flattened.sol\":21537:21561  currentAllowance < value */\n      lt\n        /* \"VaultCoin_flattened.sol\":21533:21663  if (currentAllowance < value) {... */\n      iszero\n      tag_287\n      jumpi\n        /* \"VaultCoin_flattened.sol\":21615:21622  spender */\n      dup3\n        /* \"VaultCoin_flattened.sol\":21624:21640  currentAllowance */\n      dup2\n        /* \"VaultCoin_flattened.sol\":21642:21647  value */\n      dup4\n        /* \"VaultCoin_flattened.sol\":21588:21648  ERC20InsufficientAllowance(spender, currentAllowance, value) */\n      mload(0x40)\n      0xfb8f41b200000000000000000000000000000000000000000000000000000000\n      dup2\n      mstore\n      0x04\n      add\n      tag_288\n      swap4\n      swap3\n      swap2\n      swap1\n      tag_289\n      jump\t// in\n    tag_288:\n      mload(0x40)\n      dup1\n      swap2\n      sub\n      swap1\n      revert\n        /* \"VaultCoin_flattened.sol\":21533:21663  if (currentAllowance < value) {... */\n    tag_287:\n        /* \"VaultCoin_flattened.sol\":21704:21761  _approve(owner, spender, currentAllowance - value, false) */\n      tag_290\n        /* \"VaultCoin_flattened.sol\":21713:21718  owner */\n      dup5\n        /* \"VaultCoin_flattened.sol\":21720:21727  spender */\n      dup5\n        /* \"VaultCoin_flattened.sol\":21748:21753  value */\n      dup5\n        /* \"VaultCoin_flattened.sol\":21729:21745  currentAllowance */\n      dup5\n        /* \"VaultCoin_flattened.sol\":21729:21753  currentAllowance - value */\n      sub\n        /* \"VaultCoin_flattened.sol\":21755:21760  false */\n      0x00\n        /* \"VaultCoin_flattened.sol\":21704:21712  _approve */\n      tag_283\n        /* \"VaultCoin_flattened.sol\":21704:21761  _approve(owner, spender, currentAllowance - value, false) */\n      jump\t// in\n    tag_290:\n        /* \"VaultCoin_flattened.sol\":21476:21786  if (currentAllowance != type(uint256).max) {... */\n    tag_286:\n        /* \"VaultCoin_flattened.sol\":21404:21792  {... */\n      pop\n        /* \"VaultCoin_flattened.sol\":21315:21792  function _spendAllowance(address owner, address spender, uint256 value) internal virtual {... */\n      pop\n      pop\n      pop\n      jump\t// out\n        /* \"VaultCoin_flattened.sol\":16293:16593  function _transfer(address from, address to, uint256 value) internal {... */\n    tag_196:\n        /* \"VaultCoin_flattened.sol\":16392:16393  0 */\n      0x00\n        /* \"VaultCoin_flattened.sol\":16376:16394  from == address(0) */\n      0xffffffffffffffffffffffffffffffffffffffff\n      and\n        /* \"VaultCoin_flattened.sol\":16376:16380  from */\n      dup4\n        /* \"VaultCoin_flattened.sol\":16376:16394  from == address(0) */\n      0xffffffffffffffffffffffffffffffffffffffff\n      and\n      sub\n        /* \"VaultCoin_flattened.sol\":16372:16458  if (from == address(0)) {... */\n      tag_292\n      jumpi\n        /* \"VaultCoin_flattened.sol\":16444:16445  0 */\n      0x00\n        /* \"VaultCoin_flattened.sol\":16417:16447  ERC20InvalidSender(address(0)) */\n      mload(0x40)\n      0x96c6fd1e00000000000000000000000000000000000000000000000000000000\n      dup2\n      mstore\n      0x04\n      add\n      tag_293\n      swap2\n      swap1\n      tag_131\n      jump\t// in\n    tag_293:\n      mload(0x40)\n      dup1\n      swap2\n      sub\n      swap1\n      revert\n        /* \"VaultCoin_flattened.sol\":16372:16458  if (from == address(0)) {... */\n    tag_292:\n        /* \"VaultCoin_flattened.sol\":16485:16486  0 */\n      0x00\n        /* \"VaultCoin_flattened.sol\":16471:16487  to == address(0) */\n      0xffffffffffffffffffffffffffffffffffffffff\n      and\n        /* \"VaultCoin_flattened.sol\":16471:16473  to */\n      dup3\n        /* \"VaultCoin_flattened.sol\":16471:16487  to == address(0) */\n      0xffffffffffffffffffffffffffffffffffffffff\n      and\n      sub\n        /* \"VaultCoin_flattened.sol\":16467:16553  if (to == address(0)) {... */\n      tag_294\n      jumpi\n        /* \"VaultCoin_flattened.sol\":16539:16540  0 */\n      0x00\n        /* \"VaultCoin_flattened.sol\":16510:16542  ERC20InvalidReceiver(address(0)) */\n      mload(0x40)\n      0xec442f0500000000000000000000000000000000000000000000000000000000\n      dup2\n      mstore\n      0x04\n      add\n      tag_295\n      swap2\n      swap1\n      tag_131\n      jump\t// in\n    tag_295:\n      mload(0x40)\n      dup1\n      swap2\n      sub\n      swap1\n      revert\n        /* \"VaultCoin_flattened.sol\":16467:16553  if (to == address(0)) {... */\n    tag_294:\n        /* \"VaultCoin_flattened.sol\":16562:16586  _update(from, to, value) */\n      tag_296\n        /* \"VaultCoin_flattened.sol\":16570:16574  from */\n      dup4\n        /* \"VaultCoin_flattened.sol\":16576:16578  to */\n      dup4\n        /* \"VaultCoin_flattened.sol\":16580:16585  value */\n      dup4\n        /* \"VaultCoin_flattened.sol\":16562:16569  _update */\n      tag_297\n        /* \"VaultCoin_flattened.sol\":16562:16586  _update(from, to, value) */\n      jump\t// in\n    tag_296:\n        /* \"VaultCoin_flattened.sol\":16293:16593  function _transfer(address from, address to, uint256 value) internal {... */\n      pop\n      pop\n      pop\n      jump\t// out\n        /* \"VaultCoin_flattened.sol\":24065:24166  function renounceOwnership() public virtual onlyOwner {... */\n    tag_239:\n        /* \"VaultCoin_flattened.sol\":23303:23316  _checkOwner() */\n      tag_299\n        /* \"VaultCoin_flattened.sol\":23303:23314  _checkOwner */\n      tag_173\n        /* \"VaultCoin_flattened.sol\":23303:23316  _checkOwner() */\n      jump\t// in\n    tag_299:\n        /* \"VaultCoin_flattened.sol\":24129:24159  _transferOwnership(address(0)) */\n      tag_301\n        /* \"VaultCoin_flattened.sol\":24156:24157  0 */\n      0x00\n        /* \"VaultCoin_flattened.sol\":24129:24147  _transferOwnership */\n      tag_272\n        /* \"VaultCoin_flattened.sol\":24129:24159  _transferOwnership(address(0)) */\n      jump\t// in\n    tag_301:\n        /* \"VaultCoin_flattened.sol\":24065:24166  function renounceOwnership() public virtual onlyOwner {... */\n      jump\t// out\n        /* \"VaultCoin_flattened.sol\":24684:24871  function _transferOwnership(address newOwner) internal virtual {... */\n    tag_272:\n        /* \"VaultCoin_flattened.sol\":24757:24773  address oldOwner */\n      0x00\n        /* \"VaultCoin_flattened.sol\":24776:24782  _owner */\n      0x05\n      0x00\n      swap1\n      sload\n      swap1\n      0x0100\n      exp\n      swap1\n      div\n      0xffffffffffffffffffffffffffffffffffffffff\n      and\n        /* \"VaultCoin_flattened.sol\":24757:24782  address oldOwner = _owner */\n      swap1\n      pop\n        /* \"VaultCoin_flattened.sol\":24801:24809  newOwner */\n      dup2\n        /* \"VaultCoin_flattened.sol\":24792:24798  _owner */\n      0x05\n      0x00\n        /* \"VaultCoin_flattened.sol\":24792:24809  _owner = newOwner */\n      0x0100\n      exp\n      dup2\n      sload\n      dup2\n      0xffffffffffffffffffffffffffffffffffffffff\n      mul\n      not\n      and\n      swap1\n      dup4\n      0xffffffffffffffffffffffffffffffffffffffff\n      and\n      mul\n      or\n      swap1\n      sstore\n      pop\n        /* \"VaultCoin_flattened.sol\":24855:24863  newOwner */\n      dup2\n        /* \"VaultCoin_flattened.sol\":24824:24864  OwnershipTransferred(oldOwner, newOwner) */\n      0xffffffffffffffffffffffffffffffffffffffff\n      and\n        /* \"VaultCoin_flattened.sol\":24845:24853  oldOwner */\n      dup2\n        /* \"VaultCoin_flattened.sol\":24824:24864  OwnershipTransferred(oldOwner, newOwner) */\n      0xffffffffffffffffffffffffffffffffffffffff\n      and\n      0x8be0079c531659141344cd1fd0a4f28419497f9722a3daafe3b4186f6b6457e0\n      mload(0x40)\n      mload(0x40)\n      dup1\n      swap2\n      sub\n      swap1\n      log3\n        /* \"VaultCoin_flattened.sol\":24747:24871  {... */\n      pop\n        /* \"VaultCoin_flattened.sol\":24684:24871  function _transferOwnership(address newOwner) internal virtual {... */\n      pop\n      jump\t// out\n        /* \"VaultCoin_flattened.sol\":20601:21033  function _approve(address owner, address spender, uint256 value, bool emitEvent) internal virtual {... */\n    tag_283:\n        /* \"VaultCoin_flattened.sol\":20730:20731  0 */\n      0x00\n        /* \"VaultCoin_flattened.sol\":20713:20732  owner == address(0) */\n      0xffffffffffffffffffffffffffffffffffffffff\n      and\n        /* \"VaultCoin_flattened.sol\":20713:20718  owner */\n      dup5\n        /* \"VaultCoin_flattened.sol\":20713:20732  owner == address(0) */\n      0xffffffffffffffffffffffffffffffffffffffff\n      and\n      sub\n        /* \"VaultCoin_flattened.sol\":20709:20798  if (owner == address(0)) {... */\n      tag_304\n      jumpi\n        /* \"VaultCoin_flattened.sol\":20784:20785  0 */\n      0x00\n        /* \"VaultCoin_flattened.sol\":20755:20787  ERC20InvalidApprover(address(0)) */\n      mload(0x40)\n      0xe602df0500000000000000000000000000000000000000000000000000000000\n      dup2\n      mstore\n      0x04\n      add\n      tag_305\n      swap2\n      swap1\n      tag_131\n      jump\t// in\n    tag_305:\n      mload(0x40)\n      dup1\n      swap2\n      sub\n      swap1\n      revert\n        /* \"VaultCoin_flattened.sol\":20709:20798  if (owner == address(0)) {... */\n    tag_304:\n        /* \"VaultCoin_flattened.sol\":20830:20831  0 */\n      0x00\n        /* \"VaultCoin_flattened.sol\":20811:20832  spender == address(0) */\n      0xffffffffffffffffffffffffffffffffffffffff\n      and\n        /* \"VaultCoin_flattened.sol\":20811:20818  spender */\n      dup4\n        /* \"VaultCoin_flattened.sol\":20811:20832  spender == address(0) */\n      0xffffffffffffffffffffffffffffffffffffffff\n      and\n      sub\n        /* \"VaultCoin_flattened.sol\":20807:20897  if (spender == address(0)) {... */\n      tag_306\n      jumpi\n        /* \"VaultCoin_flattened.sol\":20883:20884  0 */\n      0x00\n        /* \"VaultCoin_flattened.sol\":20855:20886  ERC20InvalidSpender(address(0)) */\n      mload(0x40)\n      0x94280d6200000000000000000000000000000000000000000000000000000000\n      dup2\n      mstore\n      0x04\n      add\n      tag_307\n      swap2\n      swap1\n      tag_131\n      jump\t// in\n    tag_307:\n      mload(0x40)\n      dup1\n      swap2\n      sub\n      swap1\n      revert\n        /* \"VaultCoin_flattened.sol\":20807:20897  if (spender == address(0)) {... */\n    tag_306:\n        /* \"VaultCoin_flattened.sol\":20936:20941  value */\n      dup2\n        /* \"VaultCoin_flattened.sol\":20906:20917  _allowances */\n      0x01\n        /* \"VaultCoin_flattened.sol\":20906:20924  _allowances[owner] */\n      0x00\n        /* \"VaultCoin_flattened.sol\":20918:20923  owner */\n      dup7\n        /* \"VaultCoin_flattened.sol\":20906:20924  _allowances[owner] */\n      0xffffffffffffffffffffffffffffffffffffffff\n      and\n      0xffffffffffffffffffffffffffffffffffffffff\n      and\n      dup2\n      mstore\n      0x20\n      add\n      swap1\n      dup2\n      mstore\n      0x20\n      add\n      0x00\n      keccak256\n        /* \"VaultCoin_flattened.sol\":20906:20933  _allowances[owner][spender] */\n      0x00\n        /* \"VaultCoin_flattened.sol\":20925:20932  spender */\n      dup6\n        /* \"VaultCoin_flattened.sol\":20906:20933  _allowances[owner][spender] */\n      0xffffffffffffffffffffffffffffffffffffffff\n      and\n      0xffffffffffffffffffffffffffffffffffffffff\n      and\n      dup2\n      mstore\n      0x20\n      add\n      swap1\n      dup2\n      mstore\n      0x20\n      add\n      0x00\n      keccak256\n        /* \"VaultCoin_flattened.sol\":20906:20941  _allowances[owner][spender] = value */\n      dup2\n      swap1\n      sstore\n      pop\n        /* \"VaultCoin_flattened.sol\":20955:20964  emitEvent */\n      dup1\n        /* \"VaultCoin_flattened.sol\":20951:21027  if (emitEvent) {... */\n      iszero\n      tag_308\n      jumpi\n        /* \"VaultCoin_flattened.sol\":21001:21008  spender */\n      dup3\n        /* \"VaultCoin_flattened.sol\":20985:21016  Approval(owner, spender, value) */\n      0xffffffffffffffffffffffffffffffffffffffff\n      and\n        /* \"VaultCoin_flattened.sol\":20994:20999  owner */\n      dup5\n        /* \"VaultCoin_flattened.sol\":20985:21016  Approval(owner, spender, value) */\n      0xffffffffffffffffffffffffffffffffffffffff\n      and\n      0x8c5be1e5ebec7d5bd14f71427d1e84f3dd0314c0f7b2291e5b200ac8c7c3b925\n        /* \"VaultCoin_flattened.sol\":21010:21015  value */\n      dup5\n        /* \"VaultCoin_flattened.sol\":20985:21016  Approval(owner, spender, value) */\n      mload(0x40)\n      tag_309\n      swap2\n      swap1\n      tag_64\n      jump\t// in\n    tag_309:\n      mload(0x40)\n      dup1\n      swap2\n      sub\n      swap1\n      log3\n        /* \"VaultCoin_flattened.sol\":20951:21027  if (emitEvent) {... */\n    tag_308:\n        /* \"VaultCoin_flattened.sol\":20601:21033  function _approve(address owner, address spender, uint256 value, bool emitEvent) internal virtual {... */\n      pop\n      pop\n      pop\n      pop\n      jump\t// out\n        /* \"VaultCoin_flattened.sol\":27966:28898  function _update(address from, address to, uint256 value) internal override {... */\n    tag_297:\n        /* \"VaultCoin_flattened.sol\":28061:28071  _blackList */\n      0x0c\n        /* \"VaultCoin_flattened.sol\":28061:28075  _blackList[to] */\n      0x00\n        /* \"VaultCoin_flattened.sol\":28072:28074  to */\n      dup4\n        /* \"VaultCoin_flattened.sol\":28061:28075  _blackList[to] */\n      0xffffffffffffffffffffffffffffffffffffffff\n      and\n      0xffffffffffffffffffffffffffffffffffffffff\n      and\n      dup2\n      mstore\n      0x20\n      add\n      swap1\n      dup2\n      mstore\n      0x20\n      add\n      0x00\n      keccak256\n      0x00\n      swap1\n      sload\n      swap1\n      0x0100\n      exp\n      swap1\n      div\n      0xff\n      and\n        /* \"VaultCoin_flattened.sol\":28060:28075  !_blackList[to] */\n      iszero\n        /* \"VaultCoin_flattened.sol\":28060:28096  !_blackList[to] && !_blackList[from] */\n      dup1\n      iszero\n      tag_311\n      jumpi\n      pop\n        /* \"VaultCoin_flattened.sol\":28080:28090  _blackList */\n      0x0c\n        /* \"VaultCoin_flattened.sol\":28080:28096  _blackList[from] */\n      0x00\n        /* \"VaultCoin_flattened.sol\":28091:28095  from */\n      dup5\n        /* \"VaultCoin_flattened.sol\":28080:28096  _blackList[from] */\n      0xffffffffffffffffffffffffffffffffffffffff\n      and\n      0xffffffffffffffffffffffffffffffffffffffff\n      and\n      dup2\n      mstore\n      0x20\n      add\n      swap1\n      dup2\n      mstore\n      0x20\n      add\n      0x00\n      keccak256\n      0x00\n      swap1\n      sload\n      swap1\n      0x0100\n      exp\n      swap1\n      div\n      0xff\n      and\n        /* \"VaultCoin_flattened.sol\":28079:28096  !_blackList[from] */\n      iszero\n        /* \"VaultCoin_flattened.sol\":28060:28096  !_blackList[to] && !_blackList[from] */\n    tag_311:\n        /* \"VaultCoin_flattened.sol\":28052:28119  require(!_blackList[to] && !_blackList[from],\"Blacklisted address\") */\n      tag_312\n      jumpi\n      mload(0x40)\n      0x08c379a000000000000000000000000000000000000000000000000000000000\n      dup2\n      mstore\n      0x04\n      add\n      tag_313\n      swap1\n      tag_314\n      jump\t// in\n    tag_313:\n      mload(0x40)\n      dup1\n      swap2\n      sub\n      swap1\n      revert\n    tag_312:\n        /* \"VaultCoin_flattened.sol\":28132:28152  _whiteListingEnabled */\n      0x0b\n      0x00\n      swap1\n      sload\n      swap1\n      0x0100\n      exp\n      swap1\n      div\n      0xff\n      and\n        /* \"VaultCoin_flattened.sol\":28129:28259  if(_whiteListingEnabled){... */\n      iszero\n      tag_315\n      jumpi\n        /* \"VaultCoin_flattened.sol\":28175:28185  _whiteList */\n      0x0e\n        /* \"VaultCoin_flattened.sol\":28175:28191  _whiteList[from] */\n      0x00\n        /* \"VaultCoin_flattened.sol\":28186:28190  from */\n      dup5\n        /* \"VaultCoin_flattened.sol\":28175:28191  _whiteList[from] */\n      0xffffffffffffffffffffffffffffffffffffffff\n      and\n      0xffffffffffffffffffffffffffffffffffffffff\n      and\n      dup2\n      mstore\n      0x20\n      add\n      swap1\n      dup2\n      mstore\n      0x20\n      add\n      0x00\n      keccak256\n      0x00\n      swap1\n      sload\n      swap1\n      0x0100\n      exp\n      swap1\n      div\n      0xff\n      and\n        /* \"VaultCoin_flattened.sol\":28175:28209  _whiteList[from] && _whiteList[to] */\n      dup1\n      iszero\n      tag_316\n      jumpi\n      pop\n        /* \"VaultCoin_flattened.sol\":28195:28205  _whiteList */\n      0x0e\n        /* \"VaultCoin_flattened.sol\":28195:28209  _whiteList[to] */\n      0x00\n        /* \"VaultCoin_flattened.sol\":28206:28208  to */\n      dup4\n        /* \"VaultCoin_flattened.sol\":28195:28209  _whiteList[to] */\n      0xffffffffffffffffffffffffffffffffffffffff\n      and\n      0xffffffffffffffffffffffffffffffffffffffff\n      and\n      dup2\n      mstore\n      0x20\n      add\n      swap1\n      dup2\n      mstore\n      0x20\n      add\n      0x00\n      keccak256\n      0x00\n      swap1\n      sload\n      swap1\n      0x0100\n      exp\n      swap1\n      div\n      0xff\n      and\n        /* \"VaultCoin_flattened.sol\":28175:28209  _whiteList[from] && _whiteList[to] */\n    tag_316:\n        /* \"VaultCoin_flattened.sol\":28167:28248  require(_whiteList[from] && _whiteList[to], \"Both addresses must be whitelisted\") */\n      tag_317\n      jumpi\n      mload(0x40)\n      0x08c379a000000000000000000000000000000000000000000000000000000000\n      dup2\n      mstore\n      0x04\n      add\n      tag_318\n      swap1\n      tag_319\n      jump\t// in\n    tag_318:\n      mload(0x40)\n      dup1\n      swap2\n      sub\n      swap1\n      revert\n    tag_317:\n        /* \"VaultCoin_flattened.sol\":28129:28259  if(_whiteListingEnabled){... */\n    tag_315:\n        /* \"VaultCoin_flattened.sol\":28285:28296  maxTxAmount */\n      sload(0x07)\n        /* \"VaultCoin_flattened.sol\":28276:28281  value */\n      dup2\n        /* \"VaultCoin_flattened.sol\":28276:28296  value <= maxTxAmount */\n      gt\n      iszero\n        /* \"VaultCoin_flattened.sol\":28268:28329  require(value <= maxTxAmount,\"Token transfer limit exceeded\") */\n      tag_320\n      jumpi\n      mload(0x40)\n      0x08c379a000000000000000000000000000000000000000000000000000000000\n      dup2\n      mstore\n      0x04\n      add\n      tag_321\n      swap1\n      tag_322\n      jump\t// in\n    tag_321:\n      mload(0x40)\n      dup1\n      swap2\n      sub\n      swap1\n      revert\n    tag_320:\n        /* \"VaultCoin_flattened.sol\":28385:28397  cooldownTime */\n      sload(0x08)\n        /* \"VaultCoin_flattened.sol\":28366:28377  _lastTxTime */\n      0x0f\n        /* \"VaultCoin_flattened.sol\":28366:28383  _lastTxTime[from] */\n      0x00\n        /* \"VaultCoin_flattened.sol\":28378:28382  from */\n      dup6\n        /* \"VaultCoin_flattened.sol\":28366:28383  _lastTxTime[from] */\n      0xffffffffffffffffffffffffffffffffffffffff\n      and\n      0xffffffffffffffffffffffffffffffffffffffff\n      and\n      dup2\n      mstore\n      0x20\n      add\n      swap1\n      dup2\n      mstore\n      0x20\n      add\n      0x00\n      keccak256\n      sload\n        /* \"VaultCoin_flattened.sol\":28366:28397  _lastTxTime[from] +cooldownTime */\n      tag_323\n      swap2\n      swap1\n      tag_324\n      jump\t// in\n    tag_323:\n        /* \"VaultCoin_flattened.sol\":28347:28362  block.timestamp */\n      timestamp\n        /* \"VaultCoin_flattened.sol\":28347:28397  block.timestamp >= _lastTxTime[from] +cooldownTime */\n      lt\n      iszero\n        /* \"VaultCoin_flattened.sol\":28339:28421  require(block.timestamp >= _lastTxTime[from] +cooldownTime,\"Cooldown time period\") */\n      tag_325\n      jumpi\n      mload(0x40)\n      0x08c379a000000000000000000000000000000000000000000000000000000000\n      dup2\n      mstore\n      0x04\n      add\n      tag_326\n      swap1\n      tag_327\n      jump\t// in\n    tag_326:\n      mload(0x40)\n      dup1\n      swap2\n      sub\n      swap1\n      revert\n    tag_325:\n        /* \"VaultCoin_flattened.sol\":28451:28466  block.timestamp */\n      timestamp\n        /* \"VaultCoin_flattened.sol\":28431:28442  _lastTxTime */\n      0x0f\n        /* \"VaultCoin_flattened.sol\":28431:28448  _lastTxTime[from] */\n      0x00\n        /* \"VaultCoin_flattened.sol\":28443:28447  from */\n      dup6\n        /* \"VaultCoin_flattened.sol\":28431:28448  _lastTxTime[from] */\n      0xffffffffffffffffffffffffffffffffffffffff\n      and\n      0xffffffffffffffffffffffffffffffffffffffff\n      and\n      dup2\n      mstore\n      0x20\n      add\n      swap1\n      dup2\n      mstore\n      0x20\n      add\n      0x00\n      keccak256\n        /* \"VaultCoin_flattened.sol\":28431:28466  _lastTxTime[from] = block.timestamp */\n      dup2\n      swap1\n      sstore\n      pop\n        /* \"VaultCoin_flattened.sol\":28493:28501  _taxList */\n      0x0d\n        /* \"VaultCoin_flattened.sol\":28493:28507  _taxList[from] */\n      0x00\n        /* \"VaultCoin_flattened.sol\":28502:28506  from */\n      dup5\n        /* \"VaultCoin_flattened.sol\":28493:28507  _taxList[from] */\n      0xffffffffffffffffffffffffffffffffffffffff\n      and\n      0xffffffffffffffffffffffffffffffffffffffff\n      and\n      dup2\n      mstore\n      0x20\n      add\n      swap1\n      dup2\n      mstore\n      0x20\n      add\n      0x00\n      keccak256\n      0x00\n      swap1\n      sload\n      swap1\n      0x0100\n      exp\n      swap1\n      div\n      0xff\n      and\n        /* \"VaultCoin_flattened.sol\":28493:28523  _taxList[from] || !_taxEnabled */\n      dup1\n      tag_328\n      jumpi\n      pop\n        /* \"VaultCoin_flattened.sol\":28512:28523  _taxEnabled */\n      0x0b\n      0x01\n      swap1\n      sload\n      swap1\n      0x0100\n      exp\n      swap1\n      div\n      0xff\n      and\n        /* \"VaultCoin_flattened.sol\":28511:28523  !_taxEnabled */\n      iszero\n        /* \"VaultCoin_flattened.sol\":28493:28523  _taxList[from] || !_taxEnabled */\n    tag_328:\n        /* \"VaultCoin_flattened.sol\":28490:28879  if(_taxList[from] || !_taxEnabled){... */\n      iszero\n      tag_329\n      jumpi\n        /* \"VaultCoin_flattened.sol\":28599:28629  super._update(from, to, value) */\n      tag_330\n        /* \"VaultCoin_flattened.sol\":28613:28617  from */\n      dup4\n        /* \"VaultCoin_flattened.sol\":28619:28621  to */\n      dup4\n        /* \"VaultCoin_flattened.sol\":28623:28628  value */\n      dup4\n        /* \"VaultCoin_flattened.sol\":28599:28612  super._update */\n      tag_331\n        /* \"VaultCoin_flattened.sol\":28599:28629  super._update(from, to, value) */\n      jump\t// in\n    tag_330:\n        /* \"VaultCoin_flattened.sol\":28490:28879  if(_taxList[from] || !_taxEnabled){... */\n      jump(tag_332)\n    tag_329:\n        /* \"VaultCoin_flattened.sol\":28648:28659  _taxEnabled */\n      0x0b\n      0x01\n      swap1\n      sload\n      swap1\n      0x0100\n      exp\n      swap1\n      div\n      0xff\n      and\n        /* \"VaultCoin_flattened.sol\":28645:28879  if(_taxEnabled){ ... */\n      iszero\n      tag_333\n      jumpi\n        /* \"VaultCoin_flattened.sol\":28675:28692  uint256 totalFees */\n      0x00\n        /* \"VaultCoin_flattened.sol\":28728:28731  100 */\n      0x64\n        /* \"VaultCoin_flattened.sol\":28713:28725  slippageFees */\n      sload(0x0a)\n        /* \"VaultCoin_flattened.sol\":28705:28712  taxFees */\n      sload(0x09)\n        /* \"VaultCoin_flattened.sol\":28705:28725  taxFees+slippageFees */\n      tag_334\n      swap2\n      swap1\n      tag_324\n      jump\t// in\n    tag_334:\n        /* \"VaultCoin_flattened.sol\":28696:28701  value */\n      dup4\n        /* \"VaultCoin_flattened.sol\":28696:28726  value * (taxFees+slippageFees) */\n      tag_335\n      swap2\n      swap1\n      tag_336\n      jump\t// in\n    tag_335:\n        /* \"VaultCoin_flattened.sol\":28695:28731  (value * (taxFees+slippageFees))/100 */\n      tag_337\n      swap2\n      swap1\n      tag_338\n      jump\t// in\n    tag_337:\n        /* \"VaultCoin_flattened.sol\":28675:28731  uint256 totalFees = (value * (taxFees+slippageFees))/100 */\n      swap1\n      pop\n        /* \"VaultCoin_flattened.sol\":28807:28816  totalFees */\n      dup1\n        /* \"VaultCoin_flattened.sol\":28799:28804  value */\n      dup3\n        /* \"VaultCoin_flattened.sol\":28799:28816  value - totalFees */\n      tag_339\n      swap2\n      swap1\n      tag_340\n      jump\t// in\n    tag_339:\n        /* \"VaultCoin_flattened.sol\":28790:28816  value =  value - totalFees */\n      swap2\n      pop\n        /* \"VaultCoin_flattened.sol\":28830:28868  super._update(from, taxAddress, value) */\n      tag_341\n        /* \"VaultCoin_flattened.sol\":28844:28848  from */\n      dup5\n        /* \"VaultCoin_flattened.sol\":28850:28860  taxAddress */\n      0x0b\n      0x02\n      swap1\n      sload\n      swap1\n      0x0100\n      exp\n      swap1\n      div\n      0xffffffffffffffffffffffffffffffffffffffff\n      and\n        /* \"VaultCoin_flattened.sol\":28862:28867  value */\n      dup5\n        /* \"VaultCoin_flattened.sol\":28830:28843  super._update */\n      tag_331\n        /* \"VaultCoin_flattened.sol\":28830:28868  super._update(from, taxAddress, value) */\n      jump\t// in\n    tag_341:\n        /* \"VaultCoin_flattened.sol\":28660:28879  { ... */\n      pop\n        /* \"VaultCoin_flattened.sol\":28645:28879  if(_taxEnabled){ ... */\n    tag_333:\n        /* \"VaultCoin_flattened.sol\":28490:28879  if(_taxList[from] || !_taxEnabled){... */\n    tag_332:\n        /* \"VaultCoin_flattened.sol\":27966:28898  function _update(address from, address to, uint256 value) internal override {... */\n      pop\n      pop\n      pop\n      jump\t// out\n        /* \"VaultCoin_flattened.sol\":16908:18015  function _update(address from, address to, uint256 value) internal virtual {... */\n    tag_331:\n        /* \"VaultCoin_flattened.sol\":17013:17014  0 */\n      0x00\n        /* \"VaultCoin_flattened.sol\":16997:17015  from == address(0) */\n      0xffffffffffffffffffffffffffffffffffffffff\n      and\n        /* \"VaultCoin_flattened.sol\":16997:17001  from */\n      dup4\n        /* \"VaultCoin_flattened.sol\":16997:17015  from == address(0) */\n      0xffffffffffffffffffffffffffffffffffffffff\n      and\n      sub\n        /* \"VaultCoin_flattened.sol\":16993:17533  if (from == address(0)) {... */\n      tag_343\n      jumpi\n        /* \"VaultCoin_flattened.sol\":17149:17154  value */\n      dup1\n        /* \"VaultCoin_flattened.sol\":17133:17145  _totalSupply */\n      0x02\n      0x00\n        /* \"VaultCoin_flattened.sol\":17133:17154  _totalSupply += value */\n      dup3\n      dup3\n      sload\n      tag_344\n      swap2\n      swap1\n      tag_324\n      jump\t// in\n    tag_344:\n      swap3\n      pop\n      pop\n      dup2\n      swap1\n      sstore\n      pop\n        /* \"VaultCoin_flattened.sol\":16993:17533  if (from == address(0)) {... */\n      jump(tag_345)\n    tag_343:\n        /* \"VaultCoin_flattened.sol\":17185:17204  uint256 fromBalance */\n      0x00\n        /* \"VaultCoin_flattened.sol\":17207:17216  _balances */\n      0x00\n        /* \"VaultCoin_flattened.sol\":17207:17222  _balances[from] */\n      0x00\n        /* \"VaultCoin_flattened.sol\":17217:17221  from */\n      dup6\n        /* \"VaultCoin_flattened.sol\":17207:17222  _balances[from] */\n      0xffffffffffffffffffffffffffffffffffffffff\n      and\n      0xffffffffffffffffffffffffffffffffffffffff\n      and\n      dup2\n      mstore\n      0x20\n      add\n      swap1\n      dup2\n      mstore\n      0x20\n      add\n      0x00\n      keccak256\n      sload\n        /* \"VaultCoin_flattened.sol\":17185:17222  uint256 fromBalance = _balances[from] */\n      swap1\n      pop\n        /* \"VaultCoin_flattened.sol\":17254:17259  value */\n      dup2\n        /* \"VaultCoin_flattened.sol\":17240:17251  fromBalance */\n      dup2\n        /* \"VaultCoin_flattened.sol\":17240:17259  fromBalance < value */\n      lt\n        /* \"VaultCoin_flattened.sol\":17236:17351  if (fromBalance < value) {... */\n      iszero\n      tag_346\n      jumpi\n        /* \"VaultCoin_flattened.sol\":17311:17315  from */\n      dup4\n        /* \"VaultCoin_flattened.sol\":17317:17328  fromBalance */\n      dup2\n        /* \"VaultCoin_flattened.sol\":17330:17335  value */\n      dup4\n        /* \"VaultCoin_flattened.sol\":17286:17336  ERC20InsufficientBalance(from, fromBalance, value) */\n      mload(0x40)\n      0xe450d38c00000000000000000000000000000000000000000000000000000000\n      dup2\n      mstore\n      0x04\n      add\n      tag_347\n      swap4\n      swap3\n      swap2\n      swap1\n      tag_289\n      jump\t// in\n    tag_347:\n      mload(0x40)\n      dup1\n      swap2\n      sub\n      swap1\n      revert\n        /* \"VaultCoin_flattened.sol\":17236:17351  if (fromBalance < value) {... */\n    tag_346:\n        /* \"VaultCoin_flattened.sol\":17503:17508  value */\n      dup2\n        /* \"VaultCoin_flattened.sol\":17489:17500  fromBalance */\n      dup2\n        /* \"VaultCoin_flattened.sol\":17489:17508  fromBalance - value */\n      sub\n        /* \"VaultCoin_flattened.sol\":17471:17480  _balances */\n      0x00\n        /* \"VaultCoin_flattened.sol\":17471:17486  _balances[from] */\n      0x00\n        /* \"VaultCoin_flattened.sol\":17481:17485  from */\n      dup7\n        /* \"VaultCoin_flattened.sol\":17471:17486  _balances[from] */\n      0xffffffffffffffffffffffffffffffffffffffff\n      and\n      0xffffffffffffffffffffffffffffffffffffffff\n      and\n      dup2\n      mstore\n      0x20\n      add\n      swap1\n      dup2\n      mstore\n      0x20\n      add\n      0x00\n      keccak256\n        /* \"VaultCoin_flattened.sol\":17471:17508  _balances[from] = fromBalance - value */\n      dup2\n      swap1\n      sstore\n      pop\n        /* \"VaultCoin_flattened.sol\":17171:17533  {... */\n      pop\n        /* \"VaultCoin_flattened.sol\":16993:17533  if (from == address(0)) {... */\n    tag_345:\n        /* \"VaultCoin_flattened.sol\":17561:17562  0 */\n      0x00\n        /* \"VaultCoin_flattened.sol\":17547:17563  to == address(0) */\n      0xffffffffffffffffffffffffffffffffffffffff\n      and\n        /* \"VaultCoin_flattened.sol\":17547:17549  to */\n      dup3\n        /* \"VaultCoin_flattened.sol\":17547:17563  to == address(0) */\n      0xffffffffffffffffffffffffffffffffffffffff\n      and\n      sub\n        /* \"VaultCoin_flattened.sol\":17543:17968  if (to == address(0)) {... */\n      tag_348\n      jumpi\n        /* \"VaultCoin_flattened.sol\":17726:17731  value */\n      dup1\n        /* \"VaultCoin_flattened.sol\":17710:17722  _totalSupply */\n      0x02\n      0x00\n        /* \"VaultCoin_flattened.sol\":17710:17731  _totalSupply -= value */\n      dup3\n      dup3\n      sload\n      sub\n      swap3\n      pop\n      pop\n      dup2\n      swap1\n      sstore\n      pop\n        /* \"VaultCoin_flattened.sol\":17543:17968  if (to == address(0)) {... */\n      jump(tag_349)\n    tag_348:\n        /* \"VaultCoin_flattened.sol\":17938:17943  value */\n      dup1\n        /* \"VaultCoin_flattened.sol\":17921:17930  _balances */\n      0x00\n        /* \"VaultCoin_flattened.sol\":17921:17934  _balances[to] */\n      0x00\n        /* \"VaultCoin_flattened.sol\":17931:17933  to */\n      dup5\n        /* \"VaultCoin_flattened.sol\":17921:17934  _balances[to] */\n      0xffffffffffffffffffffffffffffffffffffffff\n      and\n      0xffffffffffffffffffffffffffffffffffffffff\n      and\n      dup2\n      mstore\n      0x20\n      add\n      swap1\n      dup2\n      mstore\n      0x20\n      add\n      0x00\n      keccak256\n      0x00\n        /* \"VaultCoin_flattened.sol\":17921:17943  _balances[to] += value */\n      dup3\n      dup3\n      sload\n      add\n      swap3\n      pop\n      pop\n      dup2\n      swap1\n      sstore\n      pop\n        /* \"VaultCoin_flattened.sol\":17543:17968  if (to == address(0)) {... */\n    tag_349:\n        /* \"VaultCoin_flattened.sol\":17998:18000  to */\n      dup2\n        /* \"VaultCoin_flattened.sol\":17983:18008  Transfer(from, to, value) */\n      0xffffffffffffffffffffffffffffffffffffffff\n      and\n        /* \"VaultCoin_flattened.sol\":17992:17996  from */\n      dup4\n        /* \"VaultCoin_flattened.sol\":17983:18008  Transfer(from, to, value) */\n      0xffffffffffffffffffffffffffffffffffffffff\n      and\n      0xddf252ad1be2c89b69c2b068fc378daa952ba7f163c4a11628f55a4df523b3ef\n        /* \"VaultCoin_flattened.sol\":18002:18007  value */\n      dup4\n        /* \"VaultCoin_flattened.sol\":17983:18008  Transfer(from, to, value) */\n      mload(0x40)\n      tag_350\n      swap2\n      swap1\n      tag_64\n      jump\t// in\n    tag_350:\n      mload(0x40)\n      dup1\n      swap2\n      sub\n      swap1\n      log3\n        /* \"VaultCoin_flattened.sol\":16908:18015  function _update(address from, address to, uint256 value) internal virtual {... */\n      pop\n      pop\n      pop\n      jump\t// out\n        /* \"#utility.yul\":88:205   */\n    tag_352:\n        /* \"#utility.yul\":197:198   */\n      0x00\n        /* \"#utility.yul\":194:195   */\n      0x00\n        /* \"#utility.yul\":187:199   */\n      revert\n        /* \"#utility.yul\":334:460   */\n    tag_354:\n        /* \"#utility.yul\":371:378   */\n      0x00\n        /* \"#utility.yul\":411:453   */\n      0xffffffffffffffffffffffffffffffffffffffff\n        /* \"#utility.yul\":404:409   */\n      dup3\n        /* \"#utility.yul\":400:454   */\n      and\n        /* \"#utility.yul\":389:454   */\n      swap1\n      pop\n        /* \"#utility.yul\":334:460   */\n      swap2\n      swap1\n      pop\n      jump\t// out\n        /* \"#utility.yul\":466:562   */\n    tag_355:\n        /* \"#utility.yul\":503:510   */\n      0x00\n        /* \"#utility.yul\":532:556   */\n      tag_395\n        /* \"#utility.yul\":550:555   */\n      dup3\n        /* \"#utility.yul\":532:556   */\n      tag_354\n      jump\t// in\n    tag_395:\n        /* \"#utility.yul\":521:556   */\n      swap1\n      pop\n        /* \"#utility.yul\":466:562   */\n      swap2\n      swap1\n      pop\n      jump\t// out\n        /* \"#utility.yul\":568:690   */\n    tag_356:\n        /* \"#utility.yul\":641:665   */\n      tag_397\n        /* \"#utility.yul\":659:664   */\n      dup2\n        /* \"#utility.yul\":641:665   */\n      tag_355\n      jump\t// in\n    tag_397:\n        /* \"#utility.yul\":634:639   */\n      dup2\n        /* \"#utility.yul\":631:666   */\n      eq\n        /* \"#utility.yul\":621:684   */\n      tag_398\n      jumpi\n        /* \"#utility.yul\":680:681   */\n      0x00\n        /* \"#utility.yul\":677:678   */\n      0x00\n        /* \"#utility.yul\":670:682   */\n      revert\n        /* \"#utility.yul\":621:684   */\n    tag_398:\n        /* \"#utility.yul\":568:690   */\n      pop\n      jump\t// out\n        /* \"#utility.yul\":696:835   */\n    tag_357:\n        /* \"#utility.yul\":742:747   */\n      0x00\n        /* \"#utility.yul\":780:786   */\n      dup2\n        /* \"#utility.yul\":767:787   */\n      calldataload\n        /* \"#utility.yul\":758:787   */\n      swap1\n      pop\n        /* \"#utility.yul\":796:829   */\n      tag_400\n        /* \"#utility.yul\":823:828   */\n      dup2\n        /* \"#utility.yul\":796:829   */\n      tag_356\n      jump\t// in\n    tag_400:\n        /* \"#utility.yul\":696:835   */\n      swap3\n      swap2\n      pop\n      pop\n      jump\t// out\n        /* \"#utility.yul\":841:1170   */\n    tag_49:\n        /* \"#utility.yul\":900:906   */\n      0x00\n        /* \"#utility.yul\":949:951   */\n      0x20\n        /* \"#utility.yul\":937:946   */\n      dup3\n        /* \"#utility.yul\":928:935   */\n      dup5\n        /* \"#utility.yul\":924:947   */\n      sub\n        /* \"#utility.yul\":920:952   */\n      slt\n        /* \"#utility.yul\":917:1036   */\n      iszero\n      tag_402\n      jumpi\n        /* \"#utility.yul\":955:1034   */\n      tag_403\n      tag_352\n      jump\t// in\n    tag_403:\n        /* \"#utility.yul\":917:1036   */\n    tag_402:\n        /* \"#utility.yul\":1075:1076   */\n      0x00\n        /* \"#utility.yul\":1100:1153   */\n      tag_404\n        /* \"#utility.yul\":1145:1152   */\n      dup5\n        /* \"#utility.yul\":1136:1142   */\n      dup3\n        /* \"#utility.yul\":1125:1134   */\n      dup6\n        /* \"#utility.yul\":1121:1143   */\n      add\n        /* \"#utility.yul\":1100:1153   */\n      tag_357\n      jump\t// in\n    tag_404:\n        /* \"#utility.yul\":1090:1153   */\n      swap2\n      pop\n        /* \"#utility.yul\":1046:1163   */\n      pop\n        /* \"#utility.yul\":841:1170   */\n      swap3\n      swap2\n      pop\n      pop\n      jump\t// out\n        /* \"#utility.yul\":1176:1275   */\n    tag_358:\n        /* \"#utility.yul\":1228:1234   */\n      0x00\n        /* \"#utility.yul\":1262:1267   */\n      dup2\n        /* \"#utility.yul\":1256:1268   */\n      mload\n        /* \"#utility.yul\":1246:1268   */\n      swap1\n      pop\n        /* \"#utility.yul\":1176:1275   */\n      swap2\n      swap1\n      pop\n      jump\t// out\n        /* \"#utility.yul\":1281:1450   */\n    tag_359:\n        /* \"#utility.yul\":1365:1376   */\n      0x00\n        /* \"#utility.yul\":1399:1405   */\n      dup3\n        /* \"#utility.yul\":1394:1397   */\n      dup3\n        /* \"#utility.yul\":1387:1406   */\n      mstore\n        /* \"#utility.yul\":1439:1443   */\n      0x20\n        /* \"#utility.yul\":1434:1437   */\n      dup3\n        /* \"#utility.yul\":1430:1444   */\n      add\n        /* \"#utility.yul\":1415:1444   */\n      swap1\n      pop\n        /* \"#utility.yul\":1281:1450   */\n      swap3\n      swap2\n      pop\n      pop\n      jump\t// out\n        /* \"#utility.yul\":1456:1595   */\n    tag_360:\n        /* \"#utility.yul\":1545:1551   */\n      dup3\n        /* \"#utility.yul\":1540:1543   */\n      dup2\n        /* \"#utility.yul\":1535:1538   */\n      dup4\n        /* \"#utility.yul\":1529:1552   */\n      mcopy\n        /* \"#utility.yul\":1586:1587   */\n      0x00\n        /* \"#utility.yul\":1577:1583   */\n      dup4\n        /* \"#utility.yul\":1572:1575   */\n      dup4\n        /* \"#utility.yul\":1568:1584   */\n      add\n        /* \"#utility.yul\":1561:1588   */\n      mstore\n        /* \"#utility.yul\":1456:1595   */\n      pop\n      pop\n      pop\n      jump\t// out\n        /* \"#utility.yul\":1601:1703   */\n    tag_361:\n        /* \"#utility.yul\":1642:1648   */\n      0x00\n        /* \"#utility.yul\":1693:1695   */\n      0x1f\n        /* \"#utility.yul\":1689:1696   */\n      not\n        /* \"#utility.yul\":1684:1686   */\n      0x1f\n        /* \"#utility.yul\":1677:1682   */\n      dup4\n        /* \"#utility.yul\":1673:1687   */\n      add\n        /* \"#utility.yul\":1669:1697   */\n      and\n        /* \"#utility.yul\":1659:1697   */\n      swap1\n      pop\n        /* \"#utility.yul\":1601:1703   */\n      swap2\n      swap1\n      pop\n      jump\t// out\n        /* \"#utility.yul\":1709:2086   */\n    tag_362:\n        /* \"#utility.yul\":1797:1800   */\n      0x00\n        /* \"#utility.yul\":1825:1864   */\n      tag_410\n        /* \"#utility.yul\":1858:1863   */\n      dup3\n        /* \"#utility.yul\":1825:1864   */\n      tag_358\n      jump\t// in\n    tag_410:\n        /* \"#utility.yul\":1880:1951   */\n      tag_411\n        /* \"#utility.yul\":1944:1950   */\n      dup2\n        /* \"#utility.yul\":1939:1942   */\n      dup6\n        /* \"#utility.yul\":1880:1951   */\n      tag_359\n      jump\t// in\n    tag_411:\n        /* \"#utility.yul\":1873:1951   */\n      swap4\n      pop\n        /* \"#utility.yul\":1960:2025   */\n      tag_412\n        /* \"#utility.yul\":2018:2024   */\n      dup2\n        /* \"#utility.yul\":2013:2016   */\n      dup6\n        /* \"#utility.yul\":2006:2010   */\n      0x20\n        /* \"#utility.yul\":1999:2004   */\n      dup7\n        /* \"#utility.yul\":1995:2011   */\n      add\n        /* \"#utility.yul\":1960:2025   */\n      tag_360\n      jump\t// in\n    tag_412:\n        /* \"#utility.yul\":2050:2079   */\n      tag_413\n        /* \"#utility.yul\":2072:2078   */\n      dup2\n        /* \"#utility.yul\":2050:2079   */\n      tag_361\n      jump\t// in\n    tag_413:\n        /* \"#utility.yul\":2045:2048   */\n      dup5\n        /* \"#utility.yul\":2041:2080   */\n      add\n        /* \"#utility.yul\":2034:2080   */\n      swap2\n      pop\n        /* \"#utility.yul\":1801:2086   */\n      pop\n        /* \"#utility.yul\":1709:2086   */\n      swap3\n      swap2\n      pop\n      pop\n      jump\t// out\n        /* \"#utility.yul\":2092:2405   */\n    tag_54:\n        /* \"#utility.yul\":2205:2209   */\n      0x00\n        /* \"#utility.yul\":2243:2245   */\n      0x20\n        /* \"#utility.yul\":2232:2241   */\n      dup3\n        /* \"#utility.yul\":2228:2246   */\n      add\n        /* \"#utility.yul\":2220:2246   */\n      swap1\n      pop\n        /* \"#utility.yul\":2292:2301   */\n      dup2\n        /* \"#utility.yul\":2286:2290   */\n      dup2\n        /* \"#utility.yul\":2282:2302   */\n      sub\n        /* \"#utility.yul\":2278:2279   */\n      0x00\n        /* \"#utility.yul\":2267:2276   */\n      dup4\n        /* \"#utility.yul\":2263:2280   */\n      add\n        /* \"#utility.yul\":2256:2303   */\n      mstore\n        /* \"#utility.yul\":2320:2398   */\n      tag_415\n        /* \"#utility.yul\":2393:2397   */\n      dup2\n        /* \"#utility.yul\":2384:2390   */\n      dup5\n        /* \"#utility.yul\":2320:2398   */\n      tag_362\n      jump\t// in\n    tag_415:\n        /* \"#utility.yul\":2312:2398   */\n      swap1\n      pop\n        /* \"#utility.yul\":2092:2405   */\n      swap3\n      swap2\n      pop\n      pop\n      jump\t// out\n        /* \"#utility.yul\":2411:2488   */\n    tag_363:\n        /* \"#utility.yul\":2448:2455   */\n      0x00\n        /* \"#utility.yul\":2477:2482   */\n      dup2\n        /* \"#utility.yul\":2466:2482   */\n      swap1\n      pop\n        /* \"#utility.yul\":2411:2488   */\n      swap2\n      swap1\n      pop\n      jump\t// out\n        /* \"#utility.yul\":2494:2616   */\n    tag_364:\n        /* \"#utility.yul\":2567:2591   */\n      tag_418\n        /* \"#utility.yul\":2585:2590   */\n      dup2\n        /* \"#utility.yul\":2567:2591   */\n      tag_363\n      jump\t// in\n    tag_418:\n        /* \"#utility.yul\":2560:2565   */\n      dup2\n        /* \"#utility.yul\":2557:2592   */\n      eq\n        /* \"#utility.yul\":2547:2610   */\n      tag_419\n      jumpi\n        /* \"#utility.yul\":2606:2607   */\n      0x00\n        /* \"#utility.yul\":2603:2604   */\n      0x00\n        /* \"#utility.yul\":2596:2608   */\n      revert\n        /* \"#utility.yul\":2547:2610   */\n    tag_419:\n        /* \"#utility.yul\":2494:2616   */\n      pop\n      jump\t// out\n        /* \"#utility.yul\":2622:2761   */\n    tag_365:\n        /* \"#utility.yul\":2668:2673   */\n      0x00\n        /* \"#utility.yul\":2706:2712   */\n      dup2\n        /* \"#utility.yul\":2693:2713   */\n      calldataload\n        /* \"#utility.yul\":2684:2713   */\n      swap1\n      pop\n        /* \"#utility.yul\":2722:2755   */\n      tag_421\n        /* \"#utility.yul\":2749:2754   */\n      dup2\n        /* \"#utility.yul\":2722:2755   */\n      tag_364\n      jump\t// in\n    tag_421:\n        /* \"#utility.yul\":2622:2761   */\n      swap3\n      swap2\n      pop\n      pop\n      jump\t// out\n        /* \"#utility.yul\":2767:3241   */\n    tag_57:\n        /* \"#utility.yul\":2835:2841   */\n      0x00\n        /* \"#utility.yul\":2843:2849   */\n      0x00\n        /* \"#utility.yul\":2892:2894   */\n      0x40\n        /* \"#utility.yul\":2880:2889   */\n      dup4\n        /* \"#utility.yul\":2871:2878   */\n      dup6\n        /* \"#utility.yul\":2867:2890   */\n      sub\n        /* \"#utility.yul\":2863:2895   */\n      slt\n        /* \"#utility.yul\":2860:2979   */\n      iszero\n      tag_423\n      jumpi\n        /* \"#utility.yul\":2898:2977   */\n      tag_424\n      tag_352\n      jump\t// in\n    tag_424:\n        /* \"#utility.yul\":2860:2979   */\n    tag_423:\n        /* \"#utility.yul\":3018:3019   */\n      0x00\n        /* \"#utility.yul\":3043:3096   */\n      tag_425\n        /* \"#utility.yul\":3088:3095   */\n      dup6\n        /* \"#utility.yul\":3079:3085   */\n      dup3\n        /* \"#utility.yul\":3068:3077   */\n      dup7\n        /* \"#utility.yul\":3064:3086   */\n      add\n        /* \"#utility.yul\":3043:3096   */\n      tag_357\n      jump\t// in\n    tag_425:\n        /* \"#utility.yul\":3033:3096   */\n      swap3\n      pop\n        /* \"#utility.yul\":2989:3106   */\n      pop\n        /* \"#utility.yul\":3145:3147   */\n      0x20\n        /* \"#utility.yul\":3171:3224   */\n      tag_426\n        /* \"#utility.yul\":3216:3223   */\n      dup6\n        /* \"#utility.yul\":3207:3213   */\n      dup3\n        /* \"#utility.yul\":3196:3205   */\n      dup7\n        /* \"#utility.yul\":3192:3214   */\n      add\n        /* \"#utility.yul\":3171:3224   */\n      tag_365\n      jump\t// in\n    tag_426:\n        /* \"#utility.yul\":3161:3224   */\n      swap2\n      pop\n        /* \"#utility.yul\":3116:3234   */\n      pop\n        /* \"#utility.yul\":2767:3241   */\n      swap3\n      pop\n      swap3\n      swap1\n      pop\n      jump\t// out\n        /* \"#utility.yul\":3247:3337   */\n    tag_366:\n        /* \"#utility.yul\":3281:3288   */\n      0x00\n        /* \"#utility.yul\":3324:3329   */\n      dup2\n        /* \"#utility.yul\":3317:3330   */\n      iszero\n        /* \"#utility.yul\":3310:3331   */\n      iszero\n        /* \"#utility.yul\":3299:3331   */\n      swap1\n      pop\n        /* \"#utility.yul\":3247:3337   */\n      swap2\n      swap1\n      pop\n      jump\t// out\n        /* \"#utility.yul\":3343:3452   */\n    tag_367:\n        /* \"#utility.yul\":3424:3445   */\n      tag_429\n        /* \"#utility.yul\":3439:3444   */\n      dup2\n        /* \"#utility.yul\":3424:3445   */\n      tag_366\n      jump\t// in\n    tag_429:\n        /* \"#utility.yul\":3419:3422   */\n      dup3\n        /* \"#utility.yul\":3412:3446   */\n      mstore\n        /* \"#utility.yul\":3343:3452   */\n      pop\n      pop\n      jump\t// out\n        /* \"#utility.yul\":3458:3668   */\n    tag_60:\n        /* \"#utility.yul\":3545:3549   */\n      0x00\n        /* \"#utility.yul\":3583:3585   */\n      0x20\n        /* \"#utility.yul\":3572:3581   */\n      dup3\n        /* \"#utility.yul\":3568:3586   */\n      add\n        /* \"#utility.yul\":3560:3586   */\n      swap1\n      pop\n        /* \"#utility.yul\":3596:3661   */\n      tag_431\n        /* \"#utility.yul\":3658:3659   */\n      0x00\n        /* \"#utility.yul\":3647:3656   */\n      dup4\n        /* \"#utility.yul\":3643:3660   */\n      add\n        /* \"#utility.yul\":3634:3640   */\n      dup5\n        /* \"#utility.yul\":3596:3661   */\n      tag_367\n      jump\t// in\n    tag_431:\n        /* \"#utility.yul\":3458:3668   */\n      swap3\n      swap2\n      pop\n      pop\n      jump\t// out\n        /* \"#utility.yul\":3674:3792   */\n    tag_368:\n        /* \"#utility.yul\":3761:3785   */\n      tag_433\n        /* \"#utility.yul\":3779:3784   */\n      dup2\n        /* \"#utility.yul\":3761:3785   */\n      tag_363\n      jump\t// in\n    tag_433:\n        /* \"#utility.yul\":3756:3759   */\n      dup3\n        /* \"#utility.yul\":3749:3786   */\n      mstore\n        /* \"#utility.yul\":3674:3792   */\n      pop\n      pop\n      jump\t// out\n        /* \"#utility.yul\":3798:4020   */\n    tag_64:\n        /* \"#utility.yul\":3891:3895   */\n      0x00\n        /* \"#utility.yul\":3929:3931   */\n      0x20\n        /* \"#utility.yul\":3918:3927   */\n      dup3\n        /* \"#utility.yul\":3914:3932   */\n      add\n        /* \"#utility.yul\":3906:3932   */\n      swap1\n      pop\n        /* \"#utility.yul\":3942:4013   */\n      tag_435\n        /* \"#utility.yul\":4010:4011   */\n      0x00\n        /* \"#utility.yul\":3999:4008   */\n      dup4\n        /* \"#utility.yul\":3995:4012   */\n      add\n        /* \"#utility.yul\":3986:3992   */\n      dup5\n        /* \"#utility.yul\":3942:4013   */\n      tag_368\n      jump\t// in\n    tag_435:\n        /* \"#utility.yul\":3798:4020   */\n      swap3\n      swap2\n      pop\n      pop\n      jump\t// out\n        /* \"#utility.yul\":4026:4645   */\n    tag_73:\n        /* \"#utility.yul\":4103:4109   */\n      0x00\n        /* \"#utility.yul\":4111:4117   */\n      0x00\n        /* \"#utility.yul\":4119:4125   */\n      0x00\n        /* \"#utility.yul\":4168:4170   */\n      0x60\n        /* \"#utility.yul\":4156:4165   */\n      dup5\n        /* \"#utility.yul\":4147:4154   */\n      dup7\n        /* \"#utility.yul\":4143:4166   */\n      sub\n        /* \"#utility.yul\":4139:4171   */\n      slt\n        /* \"#utility.yul\":4136:4255   */\n      iszero\n      tag_437\n      jumpi\n        /* \"#utility.yul\":4174:4253   */\n      tag_438\n      tag_352\n      jump\t// in\n    tag_438:\n        /* \"#utility.yul\":4136:4255   */\n    tag_437:\n        /* \"#utility.yul\":4294:4295   */\n      0x00\n        /* \"#utility.yul\":4319:4372   */\n      tag_439\n        /* \"#utility.yul\":4364:4371   */\n      dup7\n        /* \"#utility.yul\":4355:4361   */\n      dup3\n        /* \"#utility.yul\":4344:4353   */\n      dup8\n        /* \"#utility.yul\":4340:4362   */\n      add\n        /* \"#utility.yul\":4319:4372   */\n      tag_357\n      jump\t// in\n    tag_439:\n        /* \"#utility.yul\":4309:4372   */\n      swap4\n      pop\n        /* \"#utility.yul\":4265:4382   */\n      pop\n        /* \"#utility.yul\":4421:4423   */\n      0x20\n        /* \"#utility.yul\":4447:4500   */\n      tag_440\n        /* \"#utility.yul\":4492:4499   */\n      dup7\n        /* \"#utility.yul\":4483:4489   */\n      dup3\n        /* \"#utility.yul\":4472:4481   */\n      dup8\n        /* \"#utility.yul\":4468:4490   */\n      add\n        /* \"#utility.yul\":4447:4500   */\n      tag_357\n      jump\t// in\n    tag_440:\n        /* \"#utility.yul\":4437:4500   */\n      swap3\n      pop\n        /* \"#utility.yul\":4392:4510   */\n      pop\n        /* \"#utility.yul\":4549:4551   */\n      0x40\n        /* \"#utility.yul\":4575:4628   */\n      tag_441\n        /* \"#utility.yul\":4620:4627   */\n      dup7\n        /* \"#utility.yul\":4611:4617   */\n      dup3\n        /* \"#utility.yul\":4600:4609   */\n      dup8\n        /* \"#utility.yul\":4596:4618   */\n      add\n        /* \"#utility.yul\":4575:4628   */\n      tag_365\n      jump\t// in\n    tag_441:\n        /* \"#utility.yul\":4565:4628   */\n      swap2\n      pop\n        /* \"#utility.yul\":4520:4638   */\n      pop\n        /* \"#utility.yul\":4026:4645   */\n      swap3\n      pop\n      swap3\n      pop\n      swap3\n      jump\t// out\n        /* \"#utility.yul\":4651:4737   */\n    tag_369:\n        /* \"#utility.yul\":4686:4693   */\n      0x00\n        /* \"#utility.yul\":4726:4730   */\n      0xff\n        /* \"#utility.yul\":4719:4724   */\n      dup3\n        /* \"#utility.yul\":4715:4731   */\n      and\n        /* \"#utility.yul\":4704:4731   */\n      swap1\n      pop\n        /* \"#utility.yul\":4651:4737   */\n      swap2\n      swap1\n      pop\n      jump\t// out\n        /* \"#utility.yul\":4743:4855   */\n    tag_370:\n        /* \"#utility.yul\":4826:4848   */\n      tag_444\n        /* \"#utility.yul\":4842:4847   */\n      dup2\n        /* \"#utility.yul\":4826:4848   */\n      tag_369\n      jump\t// in\n    tag_444:\n        /* \"#utility.yul\":4821:4824   */\n      dup3\n        /* \"#utility.yul\":4814:4849   */\n      mstore\n        /* \"#utility.yul\":4743:4855   */\n      pop\n      pop\n      jump\t// out\n        /* \"#utility.yul\":4861:5075   */\n    tag_84:\n        /* \"#utility.yul\":4950:4954   */\n      0x00\n        /* \"#utility.yul\":4988:4990   */\n      0x20\n        /* \"#utility.yul\":4977:4986   */\n      dup3\n        /* \"#utility.yul\":4973:4991   */\n      add\n        /* \"#utility.yul\":4965:4991   */\n      swap1\n      pop\n        /* \"#utility.yul\":5001:5068   */\n      tag_446\n        /* \"#utility.yul\":5065:5066   */\n      0x00\n        /* \"#utility.yul\":5054:5063   */\n      dup4\n        /* \"#utility.yul\":5050:5067   */\n      add\n        /* \"#utility.yul\":5041:5047   */\n      dup5\n        /* \"#utility.yul\":5001:5068   */\n      tag_370\n      jump\t// in\n    tag_446:\n        /* \"#utility.yul\":4861:5075   */\n      swap3\n      swap2\n      pop\n      pop\n      jump\t// out\n        /* \"#utility.yul\":5081:5410   */\n    tag_93:\n        /* \"#utility.yul\":5140:5146   */\n      0x00\n        /* \"#utility.yul\":5189:5191   */\n      0x20\n        /* \"#utility.yul\":5177:5186   */\n      dup3\n        /* \"#utility.yul\":5168:5175   */\n      dup5\n        /* \"#utility.yul\":5164:5187   */\n      sub\n        /* \"#utility.yul\":5160:5192   */\n      slt\n        /* \"#utility.yul\":5157:5276   */\n      iszero\n      tag_448\n      jumpi\n        /* \"#utility.yul\":5195:5274   */\n      tag_449\n      tag_352\n      jump\t// in\n    tag_449:\n        /* \"#utility.yul\":5157:5276   */\n    tag_448:\n        /* \"#utility.yul\":5315:5316   */\n      0x00\n        /* \"#utility.yul\":5340:5393   */\n      tag_450\n        /* \"#utility.yul\":5385:5392   */\n      dup5\n        /* \"#utility.yul\":5376:5382   */\n      dup3\n        /* \"#utility.yul\":5365:5374   */\n      dup6\n        /* \"#utility.yul\":5361:5383   */\n      add\n        /* \"#utility.yul\":5340:5393   */\n      tag_365\n      jump\t// in\n    tag_450:\n        /* \"#utility.yul\":5330:5393   */\n      swap2\n      pop\n        /* \"#utility.yul\":5286:5403   */\n      pop\n        /* \"#utility.yul\":5081:5410   */\n      swap3\n      swap2\n      pop\n      pop\n      jump\t// out\n        /* \"#utility.yul\":5416:5534   */\n    tag_371:\n        /* \"#utility.yul\":5503:5527   */\n      tag_452\n        /* \"#utility.yul\":5521:5526   */\n      dup2\n        /* \"#utility.yul\":5503:5527   */\n      tag_355\n      jump\t// in\n    tag_452:\n        /* \"#utility.yul\":5498:5501   */\n      dup3\n        /* \"#utility.yul\":5491:5528   */\n      mstore\n        /* \"#utility.yul\":5416:5534   */\n      pop\n      pop\n      jump\t// out\n        /* \"#utility.yul\":5540:5762   */\n    tag_131:\n        /* \"#utility.yul\":5633:5637   */\n      0x00\n        /* \"#utility.yul\":5671:5673   */\n      0x20\n        /* \"#utility.yul\":5660:5669   */\n      dup3\n        /* \"#utility.yul\":5656:5674   */\n      add\n        /* \"#utility.yul\":5648:5674   */\n      swap1\n      pop\n        /* \"#utility.yul\":5684:5755   */\n      tag_454\n        /* \"#utility.yul\":5752:5753   */\n      0x00\n        /* \"#utility.yul\":5741:5750   */\n      dup4\n        /* \"#utility.yul\":5737:5754   */\n      add\n        /* \"#utility.yul\":5728:5734   */\n      dup5\n        /* \"#utility.yul\":5684:5755   */\n      tag_371\n      jump\t// in\n    tag_454:\n        /* \"#utility.yul\":5540:5762   */\n      swap3\n      swap2\n      pop\n      pop\n      jump\t// out\n        /* \"#utility.yul\":5768:6321   */\n    tag_153:\n        /* \"#utility.yul\":5945:5949   */\n      0x00\n        /* \"#utility.yul\":5983:5986   */\n      0x80\n        /* \"#utility.yul\":5972:5981   */\n      dup3\n        /* \"#utility.yul\":5968:5987   */\n      add\n        /* \"#utility.yul\":5960:5987   */\n      swap1\n      pop\n        /* \"#utility.yul\":5997:6068   */\n      tag_456\n        /* \"#utility.yul\":6065:6066   */\n      0x00\n        /* \"#utility.yul\":6054:6063   */\n      dup4\n        /* \"#utility.yul\":6050:6067   */\n      add\n        /* \"#utility.yul\":6041:6047   */\n      dup8\n        /* \"#utility.yul\":5997:6068   */\n      tag_371\n      jump\t// in\n    tag_456:\n        /* \"#utility.yul\":6078:6150   */\n      tag_457\n        /* \"#utility.yul\":6146:6148   */\n      0x20\n        /* \"#utility.yul\":6135:6144   */\n      dup4\n        /* \"#utility.yul\":6131:6149   */\n      add\n        /* \"#utility.yul\":6122:6128   */\n      dup7\n        /* \"#utility.yul\":6078:6150   */\n      tag_368\n      jump\t// in\n    tag_457:\n        /* \"#utility.yul\":6160:6232   */\n      tag_458\n        /* \"#utility.yul\":6228:6230   */\n      0x40\n        /* \"#utility.yul\":6217:6226   */\n      dup4\n        /* \"#utility.yul\":6213:6231   */\n      add\n        /* \"#utility.yul\":6204:6210   */\n      dup6\n        /* \"#utility.yul\":6160:6232   */\n      tag_368\n      jump\t// in\n    tag_458:\n        /* \"#utility.yul\":6242:6314   */\n      tag_459\n        /* \"#utility.yul\":6310:6312   */\n      0x60\n        /* \"#utility.yul\":6299:6308   */\n      dup4\n        /* \"#utility.yul\":6295:6313   */\n      add\n        /* \"#utility.yul\":6286:6292   */\n      dup5\n        /* \"#utility.yul\":6242:6314   */\n      tag_368\n      jump\t// in\n    tag_459:\n        /* \"#utility.yul\":5768:6321   */\n      swap6\n      swap5\n      pop\n      pop\n      pop\n      pop\n      pop\n      jump\t// out\n        /* \"#utility.yul\":6327:6801   */\n    tag_156:\n        /* \"#utility.yul\":6395:6401   */\n      0x00\n        /* \"#utility.yul\":6403:6409   */\n      0x00\n        /* \"#utility.yul\":6452:6454   */\n      0x40\n        /* \"#utility.yul\":6440:6449   */\n      dup4\n        /* \"#utility.yul\":6431:6438   */\n      dup6\n        /* \"#utility.yul\":6427:6450   */\n      sub\n        /* \"#utility.yul\":6423:6455   */\n      slt\n        /* \"#utility.yul\":6420:6539   */\n      iszero\n      tag_461\n      jumpi\n        /* \"#utility.yul\":6458:6537   */\n      tag_462\n      tag_352\n      jump\t// in\n    tag_462:\n        /* \"#utility.yul\":6420:6539   */\n    tag_461:\n        /* \"#utility.yul\":6578:6579   */\n      0x00\n        /* \"#utility.yul\":6603:6656   */\n      tag_463\n        /* \"#utility.yul\":6648:6655   */\n      dup6\n        /* \"#utility.yul\":6639:6645   */\n      dup3\n        /* \"#utility.yul\":6628:6637   */\n      dup7\n        /* \"#utility.yul\":6624:6646   */\n      add\n        /* \"#utility.yul\":6603:6656   */\n      tag_357\n      jump\t// in\n    tag_463:\n        /* \"#utility.yul\":6593:6656   */\n      swap3\n      pop\n        /* \"#utility.yul\":6549:6666   */\n      pop\n        /* \"#utility.yul\":6705:6707   */\n      0x20\n        /* \"#utility.yul\":6731:6784   */\n      tag_464\n        /* \"#utility.yul\":6776:6783   */\n      dup6\n        /* \"#utility.yul\":6767:6773   */\n      dup3\n        /* \"#utility.yul\":6756:6765   */\n      dup7\n        /* \"#utility.yul\":6752:6774   */\n      add\n        /* \"#utility.yul\":6731:6784   */\n      tag_357\n      jump\t// in\n    tag_464:\n        /* \"#utility.yul\":6721:6784   */\n      swap2\n      pop\n        /* \"#utility.yul\":6676:6794   */\n      pop\n        /* \"#utility.yul\":6327:6801   */\n      swap3\n      pop\n      swap3\n      swap1\n      pop\n      jump\t// out\n        /* \"#utility.yul\":6807:6987   */\n    tag_372:\n        /* \"#utility.yul\":6855:6932   */\n      0x4e487b7100000000000000000000000000000000000000000000000000000000\n        /* \"#utility.yul\":6852:6853   */\n      0x00\n        /* \"#utility.yul\":6845:6933   */\n      mstore\n        /* \"#utility.yul\":6952:6956   */\n      0x22\n        /* \"#utility.yul\":6949:6950   */\n      0x04\n        /* \"#utility.yul\":6942:6957   */\n      mstore\n        /* \"#utility.yul\":6976:6980   */\n      0x24\n        /* \"#utility.yul\":6973:6974   */\n      0x00\n        /* \"#utility.yul\":6966:6981   */\n      revert\n        /* \"#utility.yul\":6993:7313   */\n    tag_177:\n        /* \"#utility.yul\":7037:7043   */\n      0x00\n        /* \"#utility.yul\":7074:7075   */\n      0x02\n        /* \"#utility.yul\":7068:7072   */\n      dup3\n        /* \"#utility.yul\":7064:7076   */\n      div\n        /* \"#utility.yul\":7054:7076   */\n      swap1\n      pop\n        /* \"#utility.yul\":7121:7122   */\n      0x01\n        /* \"#utility.yul\":7115:7119   */\n      dup3\n        /* \"#utility.yul\":7111:7123   */\n      and\n        /* \"#utility.yul\":7142:7160   */\n      dup1\n        /* \"#utility.yul\":7132:7213   */\n      tag_467\n      jumpi\n        /* \"#utility.yul\":7198:7202   */\n      0x7f\n        /* \"#utility.yul\":7190:7196   */\n      dup3\n        /* \"#utility.yul\":7186:7203   */\n      and\n        /* \"#utility.yul\":7176:7203   */\n      swap2\n      pop\n        /* \"#utility.yul\":7132:7213   */\n    tag_467:\n        /* \"#utility.yul\":7260:7262   */\n      0x20\n        /* \"#utility.yul\":7252:7258   */\n      dup3\n        /* \"#utility.yul\":7249:7263   */\n      lt\n        /* \"#utility.yul\":7229:7247   */\n      dup2\n        /* \"#utility.yul\":7226:7264   */\n      sub\n        /* \"#utility.yul\":7223:7307   */\n      tag_468\n      jumpi\n        /* \"#utility.yul\":7279:7297   */\n      tag_469\n      tag_372\n      jump\t// in\n    tag_469:\n        /* \"#utility.yul\":7223:7307   */\n    tag_468:\n        /* \"#utility.yul\":7044:7313   */\n      pop\n        /* \"#utility.yul\":6993:7313   */\n      swap2\n      swap1\n      pop\n      jump\t// out\n        /* \"#utility.yul\":7319:7548   */\n    tag_373:\n        /* \"#utility.yul\":7459:7493   */\n      0x426c61636b6c6973746564206163636f756e74732063616e6e6f742062652077\n        /* \"#utility.yul\":7455:7456   */\n      0x00\n        /* \"#utility.yul\":7447:7453   */\n      dup3\n        /* \"#utility.yul\":7443:7457   */\n      add\n        /* \"#utility.yul\":7436:7494   */\n      mstore\n        /* \"#utility.yul\":7528:7540   */\n      0x686974656c697374656400000000000000000000000000000000000000000000\n        /* \"#utility.yul\":7523:7525   */\n      0x20\n        /* \"#utility.yul\":7515:7521   */\n      dup3\n        /* \"#utility.yul\":7511:7526   */\n      add\n        /* \"#utility.yul\":7504:7541   */\n      mstore\n        /* \"#utility.yul\":7319:7548   */\n      pop\n      jump\t// out\n        /* \"#utility.yul\":7554:7920   */\n    tag_374:\n        /* \"#utility.yul\":7696:7699   */\n      0x00\n        /* \"#utility.yul\":7717:7784   */\n      tag_472\n        /* \"#utility.yul\":7781:7783   */\n      0x2a\n        /* \"#utility.yul\":7776:7779   */\n      dup4\n        /* \"#utility.yul\":7717:7784   */\n      tag_359\n      jump\t// in\n    tag_472:\n        /* \"#utility.yul\":7710:7784   */\n      swap2\n      pop\n        /* \"#utility.yul\":7793:7886   */\n      tag_473\n        /* \"#utility.yul\":7882:7885   */\n      dup3\n        /* \"#utility.yul\":7793:7886   */\n      tag_373\n      jump\t// in\n    tag_473:\n        /* \"#utility.yul\":7911:7913   */\n      0x40\n        /* \"#utility.yul\":7906:7909   */\n      dup3\n        /* \"#utility.yul\":7902:7914   */\n      add\n        /* \"#utility.yul\":7895:7914   */\n      swap1\n      pop\n        /* \"#utility.yul\":7554:7920   */\n      swap2\n      swap1\n      pop\n      jump\t// out\n        /* \"#utility.yul\":7926:8345   */\n    tag_210:\n        /* \"#utility.yul\":8092:8096   */\n      0x00\n        /* \"#utility.yul\":8130:8132   */\n      0x20\n        /* \"#utility.yul\":8119:8128   */\n      dup3\n        /* \"#utility.yul\":8115:8133   */\n      add\n        /* \"#utility.yul\":8107:8133   */\n      swap1\n      pop\n        /* \"#utility.yul\":8179:8188   */\n      dup2\n        /* \"#utility.yul\":8173:8177   */\n      dup2\n        /* \"#utility.yul\":8169:8189   */\n      sub\n        /* \"#utility.yul\":8165:8166   */\n      0x00\n        /* \"#utility.yul\":8154:8163   */\n      dup4\n        /* \"#utility.yul\":8150:8167   */\n      add\n        /* \"#utility.yul\":8143:8190   */\n      mstore\n        /* \"#utility.yul\":8207:8338   */\n      tag_475\n        /* \"#utility.yul\":8333:8337   */\n      dup2\n        /* \"#utility.yul\":8207:8338   */\n      tag_374\n      jump\t// in\n    tag_475:\n        /* \"#utility.yul\":8199:8338   */\n      swap1\n      pop\n        /* \"#utility.yul\":7926:8345   */\n      swap2\n      swap1\n      pop\n      jump\t// out\n        /* \"#utility.yul\":8351:8576   */\n    tag_375:\n        /* \"#utility.yul\":8491:8525   */\n      0x536c69707061676520666565732063616e6e6f74206265206869676865722074\n        /* \"#utility.yul\":8487:8488   */\n      0x00\n        /* \"#utility.yul\":8479:8485   */\n      dup3\n        /* \"#utility.yul\":8475:8489   */\n      add\n        /* \"#utility.yul\":8468:8526   */\n      mstore\n        /* \"#utility.yul\":8560:8568   */\n      0x68616e2035250000000000000000000000000000000000000000000000000000\n        /* \"#utility.yul\":8555:8557   */\n      0x20\n        /* \"#utility.yul\":8547:8553   */\n      dup3\n        /* \"#utility.yul\":8543:8558   */\n      add\n        /* \"#utility.yul\":8536:8569   */\n      mstore\n        /* \"#utility.yul\":8351:8576   */\n      pop\n      jump\t// out\n        /* \"#utility.yul\":8582:8948   */\n    tag_376:\n        /* \"#utility.yul\":8724:8727   */\n      0x00\n        /* \"#utility.yul\":8745:8812   */\n      tag_478\n        /* \"#utility.yul\":8809:8811   */\n      0x26\n        /* \"#utility.yul\":8804:8807   */\n      dup4\n        /* \"#utility.yul\":8745:8812   */\n      tag_359\n      jump\t// in\n    tag_478:\n        /* \"#utility.yul\":8738:8812   */\n      swap2\n      pop\n        /* \"#utility.yul\":8821:8914   */\n      tag_479\n        /* \"#utility.yul\":8910:8913   */\n      dup3\n        /* \"#utility.yul\":8821:8914   */\n      tag_375\n      jump\t// in\n    tag_479:\n        /* \"#utility.yul\":8939:8941   */\n      0x40\n        /* \"#utility.yul\":8934:8937   */\n      dup3\n        /* \"#utility.yul\":8930:8942   */\n      add\n        /* \"#utility.yul\":8923:8942   */\n      swap1\n      pop\n        /* \"#utility.yul\":8582:8948   */\n      swap2\n      swap1\n      pop\n      jump\t// out\n        /* \"#utility.yul\":8954:9373   */\n    tag_216:\n        /* \"#utility.yul\":9120:9124   */\n      0x00\n        /* \"#utility.yul\":9158:9160   */\n      0x20\n        /* \"#utility.yul\":9147:9156   */\n      dup3\n        /* \"#utility.yul\":9143:9161   */\n      add\n        /* \"#utility.yul\":9135:9161   */\n      swap1\n      pop\n        /* \"#utility.yul\":9207:9216   */\n      dup2\n        /* \"#utility.yul\":9201:9205   */\n      dup2\n        /* \"#utility.yul\":9197:9217   */\n      sub\n        /* \"#utility.yul\":9193:9194   */\n      0x00\n        /* \"#utility.yul\":9182:9191   */\n      dup4\n        /* \"#utility.yul\":9178:9195   */\n      add\n        /* \"#utility.yul\":9171:9218   */\n      mstore\n        /* \"#utility.yul\":9235:9366   */\n      tag_481\n        /* \"#utility.yul\":9361:9365   */\n      dup2\n        /* \"#utility.yul\":9235:9366   */\n      tag_376\n      jump\t// in\n    tag_481:\n        /* \"#utility.yul\":9227:9366   */\n      swap1\n      pop\n        /* \"#utility.yul\":8954:9373   */\n      swap2\n      swap1\n      pop\n      jump\t// out\n        /* \"#utility.yul\":9379:9599   */\n    tag_377:\n        /* \"#utility.yul\":9519:9553   */\n      0x546178206665652063616e6e6f7420626520686967686572207468616e203130\n        /* \"#utility.yul\":9515:9516   */\n      0x00\n        /* \"#utility.yul\":9507:9513   */\n      dup3\n        /* \"#utility.yul\":9503:9517   */\n      add\n        /* \"#utility.yul\":9496:9554   */\n      mstore\n        /* \"#utility.yul\":9588:9591   */\n      0x2500000000000000000000000000000000000000000000000000000000000000\n        /* \"#utility.yul\":9583:9585   */\n      0x20\n        /* \"#utility.yul\":9575:9581   */\n      dup3\n        /* \"#utility.yul\":9571:9586   */\n      add\n        /* \"#utility.yul\":9564:9592   */\n      mstore\n        /* \"#utility.yul\":9379:9599   */\n      pop\n      jump\t// out\n        /* \"#utility.yul\":9605:9971   */\n    tag_378:\n        /* \"#utility.yul\":9747:9750   */\n      0x00\n        /* \"#utility.yul\":9768:9835   */\n      tag_484\n        /* \"#utility.yul\":9832:9834   */\n      0x21\n        /* \"#utility.yul\":9827:9830   */\n      dup4\n        /* \"#utility.yul\":9768:9835   */\n      tag_359\n      jump\t// in\n    tag_484:\n        /* \"#utility.yul\":9761:9835   */\n      swap2\n      pop\n        /* \"#utility.yul\":9844:9937   */\n      tag_485\n        /* \"#utility.yul\":9933:9936   */\n      dup3\n        /* \"#utility.yul\":9844:9937   */\n      tag_377\n      jump\t// in\n    tag_485:\n        /* \"#utility.yul\":9962:9964   */\n      0x40\n        /* \"#utility.yul\":9957:9960   */\n      dup3\n        /* \"#utility.yul\":9953:9965   */\n      add\n        /* \"#utility.yul\":9946:9965   */\n      swap1\n      pop\n        /* \"#utility.yul\":9605:9971   */\n      swap2\n      swap1\n      pop\n      jump\t// out\n        /* \"#utility.yul\":9977:10396   */\n    tag_222:\n        /* \"#utility.yul\":10143:10147   */\n      0x00\n        /* \"#utility.yul\":10181:10183   */\n      0x20\n        /* \"#utility.yul\":10170:10179   */\n      dup3\n        /* \"#utility.yul\":10166:10184   */\n      add\n        /* \"#utility.yul\":10158:10184   */\n      swap1\n      pop\n        /* \"#utility.yul\":10230:10239   */\n      dup2\n        /* \"#utility.yul\":10224:10228   */\n      dup2\n        /* \"#utility.yul\":10220:10240   */\n      sub\n        /* \"#utility.yul\":10216:10217   */\n      0x00\n        /* \"#utility.yul\":10205:10214   */\n      dup4\n        /* \"#utility.yul\":10201:10218   */\n      add\n        /* \"#utility.yul\":10194:10241   */\n      mstore\n        /* \"#utility.yul\":10258:10389   */\n      tag_487\n        /* \"#utility.yul\":10384:10388   */\n      dup2\n        /* \"#utility.yul\":10258:10389   */\n      tag_378\n      jump\t// in\n    tag_487:\n        /* \"#utility.yul\":10250:10389   */\n      swap1\n      pop\n        /* \"#utility.yul\":9977:10396   */\n      swap2\n      swap1\n      pop\n      jump\t// out\n        /* \"#utility.yul\":10402:10844   */\n    tag_289:\n        /* \"#utility.yul\":10551:10555   */\n      0x00\n        /* \"#utility.yul\":10589:10591   */\n      0x60\n        /* \"#utility.yul\":10578:10587   */\n      dup3\n        /* \"#utility.yul\":10574:10592   */\n      add\n        /* \"#utility.yul\":10566:10592   */\n      swap1\n      pop\n        /* \"#utility.yul\":10602:10673   */\n      tag_489\n        /* \"#utility.yul\":10670:10671   */\n      0x00\n        /* \"#utility.yul\":10659:10668   */\n      dup4\n        /* \"#utility.yul\":10655:10672   */\n      add\n        /* \"#utility.yul\":10646:10652   */\n      dup7\n        /* \"#utility.yul\":10602:10673   */\n      tag_371\n      jump\t// in\n    tag_489:\n        /* \"#utility.yul\":10683:10755   */\n      tag_490\n        /* \"#utility.yul\":10751:10753   */\n      0x20\n        /* \"#utility.yul\":10740:10749   */\n      dup4\n        /* \"#utility.yul\":10736:10754   */\n      add\n        /* \"#utility.yul\":10727:10733   */\n      dup6\n        /* \"#utility.yul\":10683:10755   */\n      tag_368\n      jump\t// in\n    tag_490:\n        /* \"#utility.yul\":10765:10837   */\n      tag_491\n        /* \"#utility.yul\":10833:10835   */\n      0x40\n        /* \"#utility.yul\":10822:10831   */\n      dup4\n        /* \"#utility.yul\":10818:10836   */\n      add\n        /* \"#utility.yul\":10809:10815   */\n      dup5\n        /* \"#utility.yul\":10765:10837   */\n      tag_368\n      jump\t// in\n    tag_491:\n        /* \"#utility.yul\":10402:10844   */\n      swap5\n      swap4\n      pop\n      pop\n      pop\n      pop\n      jump\t// out\n        /* \"#utility.yul\":10850:11019   */\n    tag_379:\n        /* \"#utility.yul\":10990:11011   */\n      0x426c61636b6c6973746564206164647265737300000000000000000000000000\n        /* \"#utility.yul\":10986:10987   */\n      0x00\n        /* \"#utility.yul\":10978:10984   */\n      dup3\n        /* \"#utility.yul\":10974:10988   */\n      add\n        /* \"#utility.yul\":10967:11012   */\n      mstore\n        /* \"#utility.yul\":10850:11019   */\n      pop\n      jump\t// out\n        /* \"#utility.yul\":11025:11391   */\n    tag_380:\n        /* \"#utility.yul\":11167:11170   */\n      0x00\n        /* \"#utility.yul\":11188:11255   */\n      tag_494\n        /* \"#utility.yul\":11252:11254   */\n      0x13\n        /* \"#utility.yul\":11247:11250   */\n      dup4\n        /* \"#utility.yul\":11188:11255   */\n      tag_359\n      jump\t// in\n    tag_494:\n        /* \"#utility.yul\":11181:11255   */\n      swap2\n      pop\n        /* \"#utility.yul\":11264:11357   */\n      tag_495\n        /* \"#utility.yul\":11353:11356   */\n      dup3\n        /* \"#utility.yul\":11264:11357   */\n      tag_379\n      jump\t// in\n    tag_495:\n        /* \"#utility.yul\":11382:11384   */\n      0x20\n        /* \"#utility.yul\":11377:11380   */\n      dup3\n        /* \"#utility.yul\":11373:11385   */\n      add\n        /* \"#utility.yul\":11366:11385   */\n      swap1\n      pop\n        /* \"#utility.yul\":11025:11391   */\n      swap2\n      swap1\n      pop\n      jump\t// out\n        /* \"#utility.yul\":11397:11816   */\n    tag_314:\n        /* \"#utility.yul\":11563:11567   */\n      0x00\n        /* \"#utility.yul\":11601:11603   */\n      0x20\n        /* \"#utility.yul\":11590:11599   */\n      dup3\n        /* \"#utility.yul\":11586:11604   */\n      add\n        /* \"#utility.yul\":11578:11604   */\n      swap1\n      pop\n        /* \"#utility.yul\":11650:11659   */\n      dup2\n        /* \"#utility.yul\":11644:11648   */\n      dup2\n        /* \"#utility.yul\":11640:11660   */\n      sub\n        /* \"#utility.yul\":11636:11637   */\n      0x00\n        /* \"#utility.yul\":11625:11634   */\n      dup4\n        /* \"#utility.yul\":11621:11638   */\n      add\n        /* \"#utility.yul\":11614:11661   */\n      mstore\n        /* \"#utility.yul\":11678:11809   */\n      tag_497\n        /* \"#utility.yul\":11804:11808   */\n      dup2\n        /* \"#utility.yul\":11678:11809   */\n      tag_380\n      jump\t// in\n    tag_497:\n        /* \"#utility.yul\":11670:11809   */\n      swap1\n      pop\n        /* \"#utility.yul\":11397:11816   */\n      swap2\n      swap1\n      pop\n      jump\t// out\n        /* \"#utility.yul\":11822:12043   */\n    tag_381:\n        /* \"#utility.yul\":11962:11996   */\n      0x426f746820616464726573736573206d7573742062652077686974656c697374\n        /* \"#utility.yul\":11958:11959   */\n      0x00\n        /* \"#utility.yul\":11950:11956   */\n      dup3\n        /* \"#utility.yul\":11946:11960   */\n      add\n        /* \"#utility.yul\":11939:11997   */\n      mstore\n        /* \"#utility.yul\":12031:12035   */\n      0x6564000000000000000000000000000000000000000000000000000000000000\n        /* \"#utility.yul\":12026:12028   */\n      0x20\n        /* \"#utility.yul\":12018:12024   */\n      dup3\n        /* \"#utility.yul\":12014:12029   */\n      add\n        /* \"#utility.yul\":12007:12036   */\n      mstore\n        /* \"#utility.yul\":11822:12043   */\n      pop\n      jump\t// out\n        /* \"#utility.yul\":12049:12415   */\n    tag_382:\n        /* \"#utility.yul\":12191:12194   */\n      0x00\n        /* \"#utility.yul\":12212:12279   */\n      tag_500\n        /* \"#utility.yul\":12276:12278   */\n      0x22\n        /* \"#utility.yul\":12271:12274   */\n      dup4\n        /* \"#utility.yul\":12212:12279   */\n      tag_359\n      jump\t// in\n    tag_500:\n        /* \"#utility.yul\":12205:12279   */\n      swap2\n      pop\n        /* \"#utility.yul\":12288:12381   */\n      tag_501\n        /* \"#utility.yul\":12377:12380   */\n      dup3\n        /* \"#utility.yul\":12288:12381   */\n      tag_381\n      jump\t// in\n    tag_501:\n        /* \"#utility.yul\":12406:12408   */\n      0x40\n        /* \"#utility.yul\":12401:12404   */\n      dup3\n        /* \"#utility.yul\":12397:12409   */\n      add\n        /* \"#utility.yul\":12390:12409   */\n      swap1\n      pop\n        /* \"#utility.yul\":12049:12415   */\n      swap2\n      swap1\n      pop\n      jump\t// out\n        /* \"#utility.yul\":12421:12840   */\n    tag_319:\n        /* \"#utility.yul\":12587:12591   */\n      0x00\n        /* \"#utility.yul\":12625:12627   */\n      0x20\n        /* \"#utility.yul\":12614:12623   */\n      dup3\n        /* \"#utility.yul\":12610:12628   */\n      add\n        /* \"#utility.yul\":12602:12628   */\n      swap1\n      pop\n        /* \"#utility.yul\":12674:12683   */\n      dup2\n        /* \"#utility.yul\":12668:12672   */\n      dup2\n        /* \"#utility.yul\":12664:12684   */\n      sub\n        /* \"#utility.yul\":12660:12661   */\n      0x00\n        /* \"#utility.yul\":12649:12658   */\n      dup4\n        /* \"#utility.yul\":12645:12662   */\n      add\n        /* \"#utility.yul\":12638:12685   */\n      mstore\n        /* \"#utility.yul\":12702:12833   */\n      tag_503\n        /* \"#utility.yul\":12828:12832   */\n      dup2\n        /* \"#utility.yul\":12702:12833   */\n      tag_382\n      jump\t// in\n    tag_503:\n        /* \"#utility.yul\":12694:12833   */\n      swap1\n      pop\n        /* \"#utility.yul\":12421:12840   */\n      swap2\n      swap1\n      pop\n      jump\t// out\n        /* \"#utility.yul\":12846:13025   */\n    tag_383:\n        /* \"#utility.yul\":12986:13017   */\n      0x546f6b656e207472616e73666572206c696d6974206578636565646564000000\n        /* \"#utility.yul\":12982:12983   */\n      0x00\n        /* \"#utility.yul\":12974:12980   */\n      dup3\n        /* \"#utility.yul\":12970:12984   */\n      add\n        /* \"#utility.yul\":12963:13018   */\n      mstore\n        /* \"#utility.yul\":12846:13025   */\n      pop\n      jump\t// out\n        /* \"#utility.yul\":13031:13397   */\n    tag_384:\n        /* \"#utility.yul\":13173:13176   */\n      0x00\n        /* \"#utility.yul\":13194:13261   */\n      tag_506\n        /* \"#utility.yul\":13258:13260   */\n      0x1d\n        /* \"#utility.yul\":13253:13256   */\n      dup4\n        /* \"#utility.yul\":13194:13261   */\n      tag_359\n      jump\t// in\n    tag_506:\n        /* \"#utility.yul\":13187:13261   */\n      swap2\n      pop\n        /* \"#utility.yul\":13270:13363   */\n      tag_507\n        /* \"#utility.yul\":13359:13362   */\n      dup3\n        /* \"#utility.yul\":13270:13363   */\n      tag_383\n      jump\t// in\n    tag_507:\n        /* \"#utility.yul\":13388:13390   */\n      0x20\n        /* \"#utility.yul\":13383:13386   */\n      dup3\n        /* \"#utility.yul\":13379:13391   */\n      add\n        /* \"#utility.yul\":13372:13391   */\n      swap1\n      pop\n        /* \"#utility.yul\":13031:13397   */\n      swap2\n      swap1\n      pop\n      jump\t// out\n        /* \"#utility.yul\":13403:13822   */\n    tag_322:\n        /* \"#utility.yul\":13569:13573   */\n      0x00\n        /* \"#utility.yul\":13607:13609   */\n      0x20\n        /* \"#utility.yul\":13596:13605   */\n      dup3\n        /* \"#utility.yul\":13592:13610   */\n      add\n        /* \"#utility.yul\":13584:13610   */\n      swap1\n      pop\n        /* \"#utility.yul\":13656:13665   */\n      dup2\n        /* \"#utility.yul\":13650:13654   */\n      dup2\n        /* \"#utility.yul\":13646:13666   */\n      sub\n        /* \"#utility.yul\":13642:13643   */\n      0x00\n        /* \"#utility.yul\":13631:13640   */\n      dup4\n        /* \"#utility.yul\":13627:13644   */\n      add\n        /* \"#utility.yul\":13620:13667   */\n      mstore\n        /* \"#utility.yul\":13684:13815   */\n      tag_509\n        /* \"#utility.yul\":13810:13814   */\n      dup2\n        /* \"#utility.yul\":13684:13815   */\n      tag_384\n      jump\t// in\n    tag_509:\n        /* \"#utility.yul\":13676:13815   */\n      swap1\n      pop\n        /* \"#utility.yul\":13403:13822   */\n      swap2\n      swap1\n      pop\n      jump\t// out\n        /* \"#utility.yul\":13828:14008   */\n    tag_385:\n        /* \"#utility.yul\":13876:13953   */\n      0x4e487b7100000000000000000000000000000000000000000000000000000000\n        /* \"#utility.yul\":13873:13874   */\n      0x00\n        /* \"#utility.yul\":13866:13954   */\n      mstore\n        /* \"#utility.yul\":13973:13977   */\n      0x11\n        /* \"#utility.yul\":13970:13971   */\n      0x04\n        /* \"#utility.yul\":13963:13978   */\n      mstore\n        /* \"#utility.yul\":13997:14001   */\n      0x24\n        /* \"#utility.yul\":13994:13995   */\n      0x00\n        /* \"#utility.yul\":13987:14002   */\n      revert\n        /* \"#utility.yul\":14014:14205   */\n    tag_324:\n        /* \"#utility.yul\":14054:14057   */\n      0x00\n        /* \"#utility.yul\":14073:14093   */\n      tag_512\n        /* \"#utility.yul\":14091:14092   */\n      dup3\n        /* \"#utility.yul\":14073:14093   */\n      tag_363\n      jump\t// in\n    tag_512:\n        /* \"#utility.yul\":14068:14093   */\n      swap2\n      pop\n        /* \"#utility.yul\":14107:14127   */\n      tag_513\n        /* \"#utility.yul\":14125:14126   */\n      dup4\n        /* \"#utility.yul\":14107:14127   */\n      tag_363\n      jump\t// in\n    tag_513:\n        /* \"#utility.yul\":14102:14127   */\n      swap3\n      pop\n        /* \"#utility.yul\":14150:14151   */\n      dup3\n        /* \"#utility.yul\":14147:14148   */\n      dup3\n        /* \"#utility.yul\":14143:14152   */\n      add\n        /* \"#utility.yul\":14136:14152   */\n      swap1\n      pop\n        /* \"#utility.yul\":14171:14174   */\n      dup1\n        /* \"#utility.yul\":14168:14169   */\n      dup3\n        /* \"#utility.yul\":14165:14175   */\n      gt\n        /* \"#utility.yul\":14162:14198   */\n      iszero\n      tag_514\n      jumpi\n        /* \"#utility.yul\":14178:14196   */\n      tag_515\n      tag_385\n      jump\t// in\n    tag_515:\n        /* \"#utility.yul\":14162:14198   */\n    tag_514:\n        /* \"#utility.yul\":14014:14205   */\n      swap3\n      swap2\n      pop\n      pop\n      jump\t// out\n        /* \"#utility.yul\":14211:14381   */\n    tag_386:\n        /* \"#utility.yul\":14351:14373   */\n      0x436f6f6c646f776e2074696d6520706572696f64000000000000000000000000\n        /* \"#utility.yul\":14347:14348   */\n      0x00\n        /* \"#utility.yul\":14339:14345   */\n      dup3\n        /* \"#utility.yul\":14335:14349   */\n      add\n        /* \"#utility.yul\":14328:14374   */\n      mstore\n        /* \"#utility.yul\":14211:14381   */\n      pop\n      jump\t// out\n        /* \"#utility.yul\":14387:14753   */\n    tag_387:\n        /* \"#utility.yul\":14529:14532   */\n      0x00\n        /* \"#utility.yul\":14550:14617   */\n      tag_518\n        /* \"#utility.yul\":14614:14616   */\n      0x14\n        /* \"#utility.yul\":14609:14612   */\n      dup4\n        /* \"#utility.yul\":14550:14617   */\n      tag_359\n      jump\t// in\n    tag_518:\n        /* \"#utility.yul\":14543:14617   */\n      swap2\n      pop\n        /* \"#utility.yul\":14626:14719   */\n      tag_519\n        /* \"#utility.yul\":14715:14718   */\n      dup3\n        /* \"#utility.yul\":14626:14719   */\n      tag_386\n      jump\t// in\n    tag_519:\n        /* \"#utility.yul\":14744:14746   */\n      0x20\n        /* \"#utility.yul\":14739:14742   */\n      dup3\n        /* \"#utility.yul\":14735:14747   */\n      add\n        /* \"#utility.yul\":14728:14747   */\n      swap1\n      pop\n        /* \"#utility.yul\":14387:14753   */\n      swap2\n      swap1\n      pop\n      jump\t// out\n        /* \"#utility.yul\":14759:15178   */\n    tag_327:\n        /* \"#utility.yul\":14925:14929   */\n      0x00\n        /* \"#utility.yul\":14963:14965   */\n      0x20\n        /* \"#utility.yul\":14952:14961   */\n      dup3\n        /* \"#utility.yul\":14948:14966   */\n      add\n        /* \"#utility.yul\":14940:14966   */\n      swap1\n      pop\n        /* \"#utility.yul\":15012:15021   */\n      dup2\n        /* \"#utility.yul\":15006:15010   */\n      dup2\n        /* \"#utility.yul\":15002:15022   */\n      sub\n        /* \"#utility.yul\":14998:14999   */\n      0x00\n        /* \"#utility.yul\":14987:14996   */\n      dup4\n        /* \"#utility.yul\":14983:15000   */\n      add\n        /* \"#utility.yul\":14976:15023   */\n      mstore\n        /* \"#utility.yul\":15040:15171   */\n      tag_521\n        /* \"#utility.yul\":15166:15170   */\n      dup2\n        /* \"#utility.yul\":15040:15171   */\n      tag_387\n      jump\t// in\n    tag_521:\n        /* \"#utility.yul\":15032:15171   */\n      swap1\n      pop\n        /* \"#utility.yul\":14759:15178   */\n      swap2\n      swap1\n      pop\n      jump\t// out\n        /* \"#utility.yul\":15184:15594   */\n    tag_336:\n        /* \"#utility.yul\":15224:15231   */\n      0x00\n        /* \"#utility.yul\":15247:15267   */\n      tag_523\n        /* \"#utility.yul\":15265:15266   */\n      dup3\n        /* \"#utility.yul\":15247:15267   */\n      tag_363\n      jump\t// in\n    tag_523:\n        /* \"#utility.yul\":15242:15267   */\n      swap2\n      pop\n        /* \"#utility.yul\":15281:15301   */\n      tag_524\n        /* \"#utility.yul\":15299:15300   */\n      dup4\n        /* \"#utility.yul\":15281:15301   */\n      tag_363\n      jump\t// in\n    tag_524:\n        /* \"#utility.yul\":15276:15301   */\n      swap3\n      pop\n        /* \"#utility.yul\":15336:15337   */\n      dup3\n        /* \"#utility.yul\":15333:15334   */\n      dup3\n        /* \"#utility.yul\":15329:15338   */\n      mul\n        /* \"#utility.yul\":15358:15388   */\n      tag_525\n        /* \"#utility.yul\":15376:15387   */\n      dup2\n        /* \"#utility.yul\":15358:15388   */\n      tag_363\n      jump\t// in\n    tag_525:\n        /* \"#utility.yul\":15347:15388   */\n      swap2\n      pop\n        /* \"#utility.yul\":15537:15538   */\n      dup3\n        /* \"#utility.yul\":15528:15535   */\n      dup3\n        /* \"#utility.yul\":15524:15539   */\n      div\n        /* \"#utility.yul\":15521:15522   */\n      dup5\n        /* \"#utility.yul\":15518:15540   */\n      eq\n        /* \"#utility.yul\":15498:15499   */\n      dup4\n        /* \"#utility.yul\":15491:15500   */\n      iszero\n        /* \"#utility.yul\":15471:15554   */\n      or\n        /* \"#utility.yul\":15448:15587   */\n      tag_526\n      jumpi\n        /* \"#utility.yul\":15567:15585   */\n      tag_527\n      tag_385\n      jump\t// in\n    tag_527:\n        /* \"#utility.yul\":15448:15587   */\n    tag_526:\n        /* \"#utility.yul\":15232:15594   */\n      pop\n        /* \"#utility.yul\":15184:15594   */\n      swap3\n      swap2\n      pop\n      pop\n      jump\t// out\n        /* \"#utility.yul\":15600:15780   */\n    tag_388:\n        /* \"#utility.yul\":15648:15725   */\n      0x4e487b7100000000000000000000000000000000000000000000000000000000\n        /* \"#utility.yul\":15645:15646   */\n      0x00\n        /* \"#utility.yul\":15638:15726   */\n      mstore\n        /* \"#utility.yul\":15745:15749   */\n      0x12\n        /* \"#utility.yul\":15742:15743   */\n      0x04\n        /* \"#utility.yul\":15735:15750   */\n      mstore\n        /* \"#utility.yul\":15769:15773   */\n      0x24\n        /* \"#utility.yul\":15766:15767   */\n      0x00\n        /* \"#utility.yul\":15759:15774   */\n      revert\n        /* \"#utility.yul\":15786:15971   */\n    tag_338:\n        /* \"#utility.yul\":15826:15827   */\n      0x00\n        /* \"#utility.yul\":15843:15863   */\n      tag_530\n        /* \"#utility.yul\":15861:15862   */\n      dup3\n        /* \"#utility.yul\":15843:15863   */\n      tag_363\n      jump\t// in\n    tag_530:\n        /* \"#utility.yul\":15838:15863   */\n      swap2\n      pop\n        /* \"#utility.yul\":15877:15897   */\n      tag_531\n        /* \"#utility.yul\":15895:15896   */\n      dup4\n        /* \"#utility.yul\":15877:15897   */\n      tag_363\n      jump\t// in\n    tag_531:\n        /* \"#utility.yul\":15872:15897   */\n      swap3\n      pop\n        /* \"#utility.yul\":15916:15917   */\n      dup3\n        /* \"#utility.yul\":15906:15941   */\n      tag_532\n      jumpi\n        /* \"#utility.yul\":15921:15939   */\n      tag_533\n      tag_388\n      jump\t// in\n    tag_533:\n        /* \"#utility.yul\":15906:15941   */\n    tag_532:\n        /* \"#utility.yul\":15963:15964   */\n      dup3\n        /* \"#utility.yul\":15960:15961   */\n      dup3\n        /* \"#utility.yul\":15956:15965   */\n      div\n        /* \"#utility.yul\":15951:15965   */\n      swap1\n      pop\n        /* \"#utility.yul\":15786:15971   */\n      swap3\n      swap2\n      pop\n      pop\n      jump\t// out\n        /* \"#utility.yul\":15977:16171   */\n    tag_340:\n        /* \"#utility.yul\":16017:16021   */\n      0x00\n        /* \"#utility.yul\":16037:16057   */\n      tag_535\n        /* \"#utility.yul\":16055:16056   */\n      dup3\n        /* \"#utility.yul\":16037:16057   */\n      tag_363\n      jump\t// in\n    tag_535:\n        /* \"#utility.yul\":16032:16057   */\n      swap2\n      pop\n        /* \"#utility.yul\":16071:16091   */\n      tag_536\n        /* \"#utility.yul\":16089:16090   */\n      dup4\n        /* \"#utility.yul\":16071:16091   */\n      tag_363\n      jump\t// in\n    tag_536:\n        /* \"#utility.yul\":16066:16091   */\n      swap3\n      pop\n        /* \"#utility.yul\":16115:16116   */\n      dup3\n        /* \"#utility.yul\":16112:16113   */\n      dup3\n        /* \"#utility.yul\":16108:16117   */\n      sub\n        /* \"#utility.yul\":16100:16117   */\n      swap1\n      pop\n        /* \"#utility.yul\":16139:16140   */\n      dup2\n        /* \"#utility.yul\":16133:16137   */\n      dup2\n        /* \"#utility.yul\":16130:16141   */\n      gt\n        /* \"#utility.yul\":16127:16164   */\n      iszero\n      tag_537\n      jumpi\n        /* \"#utility.yul\":16144:16162   */\n      tag_538\n      tag_385\n      jump\t// in\n    tag_538:\n        /* \"#utility.yul\":16127:16164   */\n    tag_537:\n        /* \"#utility.yul\":15977:16171   */\n      swap3\n      swap2\n      pop\n      pop\n      jump\t// out\n\n    auxdata: 0xa2646970667358221220c789c39f87231e90f466c1d57091e6d4b2b8d620b654bd4158a1072ca89bd71264736f6c634300081c0033\n}\n",
				"bytecode": {
					"linkReferences": {},
					"object": "608060405261001261027d60201b60201c565b600a61001e9190610b3d565b6305f5e10061002d9190610b87565b600655600654600755603c60085560056009556002600a555f600b5f6101000a81548160ff0219169083151502179055505f600b60016101000a81548160ff0219169083151502179055505f600b60166101000a81548160ff02191690831515021790555034801561009d575f5ffd5b506040516134e93803806134e983398181016040528101906100bf9190610c26565b816040518060400160405280600981526020017f5661756c74436f696e00000000000000000000000000000000000000000000008152506040518060400160405280600581526020017f5661756c74000000000000000000000000000000000000000000000000000000815250816003908161013b9190610e98565b50806004908161014b9190610e98565b5050505f73ffffffffffffffffffffffffffffffffffffffff168173ffffffffffffffffffffffffffffffffffffffff16036101be575f6040517f1e4fbdf70000000000000000000000000000000000000000000000000000000081526004016101b59190610f76565b60405180910390fd5b6101cd8161028560201b60201c565b506101e08260065461034860201b60201c565b6001600e5f8473ffffffffffffffffffffffffffffffffffffffff1673ffffffffffffffffffffffffffffffffffffffff1681526020019081526020015f205f6101000a81548160ff02191690831515021790555080600b60026101000a81548173ffffffffffffffffffffffffffffffffffffffff021916908373ffffffffffffffffffffffffffffffffffffffff1602179055505050611285565b5f6012905090565b5f60055f9054906101000a900473ffffffffffffffffffffffffffffffffffffffff1690508160055f6101000a81548173ffffffffffffffffffffffffffffffffffffffff021916908373ffffffffffffffffffffffffffffffffffffffff1602179055508173ffffffffffffffffffffffffffffffffffffffff168173ffffffffffffffffffffffffffffffffffffffff167f8be0079c531659141344cd1fd0a4f28419497f9722a3daafe3b4186f6b6457e060405160405180910390a35050565b5f73ffffffffffffffffffffffffffffffffffffffff168273ffffffffffffffffffffffffffffffffffffffff16036103b8575f6040517fec442f050000000000000000000000000000000000000000000000000000000081526004016103af9190610f76565b60405180910390fd5b6103c95f83836103cd60201b60201c565b5050565b600c5f8373ffffffffffffffffffffffffffffffffffffffff1673ffffffffffffffffffffffffffffffffffffffff1681526020019081526020015f205f9054906101000a900460ff1615801561046b5750600c5f8473ffffffffffffffffffffffffffffffffffffffff1673ffffffffffffffffffffffffffffffffffffffff1681526020019081526020015f205f9054906101000a900460ff16155b6104aa576040517f08c379a00000000000000000000000000000000000000000000000000000000081526004016104a190610fe9565b60405180910390fd5b600b5f9054906101000a900460ff161561059a57600e5f8473ffffffffffffffffffffffffffffffffffffffff1673ffffffffffffffffffffffffffffffffffffffff1681526020019081526020015f205f9054906101000a900460ff16801561055a5750600e5f8373ffffffffffffffffffffffffffffffffffffffff1673ffffffffffffffffffffffffffffffffffffffff1681526020019081526020015f205f9054906101000a900460ff165b610599576040517f08c379a000000000000000000000000000000000000000000000000000000000815260040161059090611077565b60405180910390fd5b5b6007548111156105df576040517f08c379a00000000000000000000000000000000000000000000000000000000081526004016105d6906110df565b60405180910390fd5b600854600f5f8573ffffffffffffffffffffffffffffffffffffffff1673ffffffffffffffffffffffffffffffffffffffff1681526020019081526020015f205461062a91906110fd565b42101561066c576040517f08c379a00000000000000000000000000000000000000000000000000000000081526004016106639061117a565b60405180910390fd5b42600f5f8573ffffffffffffffffffffffffffffffffffffffff1673ffffffffffffffffffffffffffffffffffffffff1681526020019081526020015f2081905550600d5f8473ffffffffffffffffffffffffffffffffffffffff1673ffffffffffffffffffffffffffffffffffffffff1681526020019081526020015f205f9054906101000a900460ff16806107105750600b60019054906101000a900460ff16155b1561072b576107268383836107b360201b60201c565b6107ae565b600b60019054906101000a900460ff16156107ad575f6064600a5460095461075391906110fd565b8361075e9190610b87565b61076891906111c5565b9050808261077691906111f5565b91506107ab84600b60029054906101000a900473ffffffffffffffffffffffffffffffffffffffff16846107b360201b60201c565b505b5b505050565b5f73ffffffffffffffffffffffffffffffffffffffff168373ffffffffffffffffffffffffffffffffffffffff1603610803578060025f8282546107f791906110fd565b925050819055506108d1565b5f5f5f8573ffffffffffffffffffffffffffffffffffffffff1673ffffffffffffffffffffffffffffffffffffffff1681526020019081526020015f205490508181101561088c578381836040517fe450d38c00000000000000000000000000000000000000000000000000000000815260040161088393929190611237565b60405180910390fd5b8181035f5f8673ffffffffffffffffffffffffffffffffffffffff1673ffffffffffffffffffffffffffffffffffffffff1681526020019081526020015f2081905550505b5f73ffffffffffffffffffffffffffffffffffffffff168273ffffffffffffffffffffffffffffffffffffffff1603610918578060025f8282540392505081905550610962565b805f5f8473ffffffffffffffffffffffffffffffffffffffff1673ffffffffffffffffffffffffffffffffffffffff1681526020019081526020015f205f82825401925050819055505b8173ffffffffffffffffffffffffffffffffffffffff168373ffffffffffffffffffffffffffffffffffffffff167fddf252ad1be2c89b69c2b068fc378daa952ba7f163c4a11628f55a4df523b3ef836040516109bf919061126c565b60405180910390a3505050565b7f4e487b71000000000000000000000000000000000000000000000000000000005f52601160045260245ffd5b5f8160011c9050919050565b5f5f8291508390505b6001851115610a4e57808604811115610a2a57610a296109cc565b5b6001851615610a395780820291505b8081029050610a47856109f9565b9450610a0e565b94509492505050565b5f82610a665760019050610b21565b81610a73575f9050610b21565b8160018114610a895760028114610a9357610ac2565b6001915050610b21565b60ff841115610aa557610aa46109cc565b5b8360020a915084821115610abc57610abb6109cc565b5b50610b21565b5060208310610133831016604e8410600b8410161715610af75782820a905083811115610af257610af16109cc565b5b610b21565b610b048484846001610a05565b92509050818404811115610b1b57610b1a6109cc565b5b81810290505b9392505050565b5f819050919050565b5f60ff82169050919050565b5f610b4782610b28565b9150610b5283610b31565b9250610b7f7fffffffffffffffffffffffffffffffffffffffffffffffffffffffffffffffff8484610a57565b905092915050565b5f610b9182610b28565b9150610b9c83610b28565b9250828202610baa81610b28565b91508282048414831517610bc157610bc06109cc565b5b5092915050565b5f5ffd5b5f73ffffffffffffffffffffffffffffffffffffffff82169050919050565b5f610bf582610bcc565b9050919050565b610c0581610beb565b8114610c0f575f5ffd5b50565b5f81519050610c2081610bfc565b92915050565b5f5f60408385031215610c3c57610c3b610bc8565b5b5f610c4985828601610c12565b9250506020610c5a85828601610c12565b9150509250929050565b5f81519050919050565b7f4e487b71000000000000000000000000000000000000000000000000000000005f52604160045260245ffd5b7f4e487b71000000000000000000000000000000000000000000000000000000005f52602260045260245ffd5b5f6002820490506001821680610cdf57607f821691505b602082108103610cf257610cf1610c9b565b5b50919050565b5f819050815f5260205f209050919050565b5f6020601f8301049050919050565b5f82821b905092915050565b5f60088302610d547fffffffffffffffffffffffffffffffffffffffffffffffffffffffffffffffff82610d19565b610d5e8683610d19565b95508019841693508086168417925050509392505050565b5f819050919050565b5f610d99610d94610d8f84610b28565b610d76565b610b28565b9050919050565b5f819050919050565b610db283610d7f565b610dc6610dbe82610da0565b848454610d25565b825550505050565b5f5f905090565b610ddd610dce565b610de8818484610da9565b505050565b5b81811015610e0b57610e005f82610dd5565b600181019050610dee565b5050565b601f821115610e5057610e2181610cf8565b610e2a84610d0a565b81016020851015610e39578190505b610e4d610e4585610d0a565b830182610ded565b50505b505050565b5f82821c905092915050565b5f610e705f1984600802610e55565b1980831691505092915050565b5f610e888383610e61565b9150826002028217905092915050565b610ea182610c64565b67ffffffffffffffff811115610eba57610eb9610c6e565b5b610ec48254610cc8565b610ecf828285610e0f565b5f60209050601f831160018114610f00575f8415610eee578287015190505b610ef88582610e7d565b865550610f5f565b601f198416610f0e86610cf8565b5f5b82811015610f3557848901518255600182019150602085019450602081019050610f10565b86831015610f525784890151610f4e601f891682610e61565b8355505b6001600288020188555050505b505050505050565b610f7081610beb565b82525050565b5f602082019050610f895f830184610f67565b92915050565b5f82825260208201905092915050565b7f426c61636b6c69737465642061646472657373000000000000000000000000005f82015250565b5f610fd3601383610f8f565b9150610fde82610f9f565b602082019050919050565b5f6020820190508181035f83015261100081610fc7565b9050919050565b7f426f746820616464726573736573206d7573742062652077686974656c6973745f8201527f6564000000000000000000000000000000000000000000000000000000000000602082015250565b5f611061602283610f8f565b915061106c82611007565b604082019050919050565b5f6020820190508181035f83015261108e81611055565b9050919050565b7f546f6b656e207472616e73666572206c696d69742065786365656465640000005f82015250565b5f6110c9601d83610f8f565b91506110d482611095565b602082019050919050565b5f6020820190508181035f8301526110f6816110bd565b9050919050565b5f61110782610b28565b915061111283610b28565b925082820190508082111561112a576111296109cc565b5b92915050565b7f436f6f6c646f776e2074696d6520706572696f640000000000000000000000005f82015250565b5f611164601483610f8f565b915061116f82611130565b602082019050919050565b5f6020820190508181035f83015261119181611158565b9050919050565b7f4e487b71000000000000000000000000000000000000000000000000000000005f52601260045260245ffd5b5f6111cf82610b28565b91506111da83610b28565b9250826111ea576111e9611198565b5b828204905092915050565b5f6111ff82610b28565b915061120a83610b28565b9250828203905081811115611222576112216109cc565b5b92915050565b61123181610b28565b82525050565b5f60608201905061124a5f830186610f67565b6112576020830185611228565b6112646040830184611228565b949350505050565b5f60208201905061127f5f830184611228565b92915050565b612257806112925f395ff3fe608060405234801561000f575f5ffd5b5060043610610225575f3560e01c80636f9170f61161012e578063a9059cbb116100b6578063dd62ed3e1161007a578063dd62ed3e146105e4578063ec28438a14610614578063efc3a4aa14610630578063f2fde38b1461063a578063fe575a871461065657610225565b8063a9059cbb1461054d578063b319c6b71461057d578063b7bda68f1461059b578063ced695a4146105b9578063d51d86f4146105c357610225565b806388210bb1116100fd57806388210bb1146104b95780638c0b5e22146104d55780638da5cb5b146104f357806393af22ff1461051157806395d89b411461052f57610225565b80636f9170f6146104335780636ff732011461046357806370a082311461047f578063715018a6146104af57610225565b8063313ce567116101b15780634ebc552d116101805780634ebc552d146103b5578063537df3b6146103d157806353eb3bcf146103ed5780636b3907ca146103f75780636d8b05271461041557610225565b8063313ce5671461034357806344337ea11461036157806347ee03941461037d578063491924181461039957610225565b806318160ddd116101f857806318160ddd146102b15780631bacad95146102cf57806323b872dd146102eb5780632958ad7f1461031b5780632973ef2d1461032557610225565b806301bf66481461022957806306fdde0314610245578063095ea7b3146102635780630ddc097614610293575b5f5ffd5b610243600480360381019061023e9190611a0f565b610686565b005b61024d6106e5565b60405161025a9190611aaa565b60405180910390f35b61027d60048036038101906102789190611afd565b610775565b60405161028a9190611b55565b60405180910390f35b61029b610797565b6040516102a89190611b7d565b60405180910390f35b6102b961079d565b6040516102c69190611b7d565b60405180910390f35b6102e960048036038101906102e49190611a0f565b6107a6565b005b61030560048036038101906103009190611b96565b610805565b6040516103129190611b55565b60405180910390f35b610323610833565b005b61032d610857565b60405161033a9190611b7d565b60405180910390f35b61034b610860565b6040516103589190611c01565b60405180910390f35b61037b60048036038101906103769190611a0f565b610868565b005b61039760048036038101906103929190611a0f565b6108c8565b005b6103b360048036038101906103ae9190611c1a565b6109b2565b005b6103cf60048036038101906103ca9190611c1a565b610a08565b005b6103eb60048036038101906103e69190611a0f565b610a5e565b005b6103f5610abd565b005b6103ff610ae2565b60405161040c9190611b7d565b60405180910390f35b61041d610ae8565b60405161042a9190611b7d565b60405180910390f35b61044d60048036038101906104489190611a0f565b610af1565b60405161045a9190611b55565b60405180910390f35b61047d60048036038101906104789190611c1a565b610b43565b005b61049960048036038101906104949190611a0f565b610b55565b6040516104a69190611b7d565b60405180910390f35b6104b7610b9a565b005b6104d360048036038101906104ce9190611a0f565b610bac565b005b6104dd610c0c565b6040516104ea9190611b7d565b60405180910390f35b6104fb610c12565b6040516105089190611c54565b60405180910390f35b610519610c3a565b6040516105269190611b7d565b60405180910390f35b610537610c43565b6040516105449190611aaa565b60405180910390f35b61056760048036038101906105629190611afd565b610cd3565b6040516105749190611b55565b60405180910390f35b610585610cf5565b6040516105929190611b7d565b60405180910390f35b6105a3610cfb565b6040516105b09190611c54565b60405180910390f35b6105c1610d21565b005b6105cb610d45565b6040516105db9493929190611c6d565b60405180910390f35b6105fe60048036038101906105f99190611cb0565b610d68565b60405161060b9190611b7d565b60405180910390f35b61062e60048036038101906106299190611c1a565b610dea565b005b610638610dfc565b005b610654600480360381019061064f9190611a0f565b610e21565b005b610670600480360381019061066b9190611a0f565b610ea5565b60405161067d9190611b55565b60405180910390f35b61068e610ef7565b5f600e5f8373ffffffffffffffffffffffffffffffffffffffff1673ffffffffffffffffffffffffffffffffffffffff1681526020019081526020015f205f6101000a81548160ff02191690831515021790555050565b6060600380546106f490611d1b565b80601f016020809104026020016040519081016040528092919081815260200182805461072090611d1b565b801561076b5780601f106107425761010080835404028352916020019161076b565b820191905f5260205f20905b81548152906001019060200180831161074e57829003601f168201915b5050505050905090565b5f5f61077f610f7e565b905061078c818585610f85565b600191505092915050565b60095481565b5f600254905090565b6107ae610ef7565b5f600d5f8373ffffffffffffffffffffffffffffffffffffffff1673ffffffffffffffffffffffffffffffffffffffff1681526020019081526020015f205f6101000a81548160ff02191690831515021790555050565b5f5f61080f610f7e565b905061081c858285610f97565b610827858585611029565b60019150509392505050565b61083b610ef7565b6001600b5f6101000a81548160ff021916908315150217905550565b5f600954905090565b5f6012905090565b610870610ef7565b6001600c5f8373ffffffffffffffffffffffffffffffffffffffff1673ffffffffffffffffffffffffffffffffffffffff1681526020019081526020015f205f6101000a81548160ff02191690831515021790555050565b6108d0610ef7565b600c5f8273ffffffffffffffffffffffffffffffffffffffff1673ffffffffffffffffffffffffffffffffffffffff1681526020019081526020015f205f9054906101000a900460ff161561095a576040517f08c379a000000000000000000000000000000000000000000000000000000000815260040161095190611dbb565b60405180910390fd5b6001600e5f8373ffffffffffffffffffffffffffffffffffffffff1673ffffffffffffffffffffffffffffffffffffffff1681526020019081526020015f205f6101000a81548160ff02191690831515021790555050565b6109ba610ef7565b60058111156109fe576040517f08c379a00000000000000000000000000000000000000000000000000000000081526004016109f590611e49565b60405180910390fd5b80600a8190555050565b610a10610ef7565b600a811115610a54576040517f08c379a0000000000000000000000000000000000000000000000000000000008152600401610a4b90611ed7565b60405180910390fd5b8060098190555050565b610a66610ef7565b5f600c5f8373ffffffffffffffffffffffffffffffffffffffff1673ffffffffffffffffffffffffffffffffffffffff1681526020019081526020015f205f6101000a81548160ff02191690831515021790555050565b610ac5610ef7565b6001600b60016101000a81548160ff021916908315150217905550565b600a5481565b5f600754905090565b5f600e5f8373ffffffffffffffffffffffffffffffffffffffff1673ffffffffffffffffffffffffffffffffffffffff1681526020019081526020015f205f9054906101000a900460ff169050919050565b610b4b610ef7565b8060088190555050565b5f5f5f8373ffffffffffffffffffffffffffffffffffffffff1673ffffffffffffffffffffffffffffffffffffffff1681526020019081526020015f20549050919050565b610ba2610ef7565b610baa611119565b565b610bb4610ef7565b6001600d5f8373ffffffffffffffffffffffffffffffffffffffff1673ffffffffffffffffffffffffffffffffffffffff1681526020019081526020015f205f6101000a81548160ff02191690831515021790555050565b60075481565b5f60055f9054906101000a900473ffffffffffffffffffffffffffffffffffffffff16905090565b5f600a54905090565b606060048054610c5290611d1b565b80601f0160208091040260200160405190810160405280929190818152602001828054610c7e90611d1b565b8015610cc95780601f10610ca057610100808354040283529160200191610cc9565b820191905f5260205f20905b815481529060010190602001808311610cac57829003601f168201915b5050505050905090565b5f5f610cdd610f7e565b9050610cea818585611029565b600191505092915050565b60085481565b600b60029054906101000a900473ffffffffffffffffffffffffffffffffffffffff1681565b610d29610ef7565b5f600b60016101000a81548160ff021916908315150217905550565b5f5f5f5f610d51610c12565b600754600854600654935093509350935090919293565b5f60015f8473ffffffffffffffffffffffffffffffffffffffff1673ffffffffffffffffffffffffffffffffffffffff1681526020019081526020015f205f8373ffffffffffffffffffffffffffffffffffffffff1673ffffffffffffffffffffffffffffffffffffffff1681526020019081526020015f2054905092915050565b610df2610ef7565b8060078190555050565b610e04610ef7565b6001600b60166101000a81548160ff021916908315150217905550565b610e29610ef7565b5f73ffffffffffffffffffffffffffffffffffffffff168173ffffffffffffffffffffffffffffffffffffffff1603610e99575f6040517f1e4fbdf7000000000000000000000000000000000000000000000000000000008152600401610e909190611c54565b60405180910390fd5b610ea28161112c565b50565b5f600c5f8373ffffffffffffffffffffffffffffffffffffffff1673ffffffffffffffffffffffffffffffffffffffff1681526020019081526020015f205f9054906101000a900460ff169050919050565b610eff610f7e565b73ffffffffffffffffffffffffffffffffffffffff16610f1d610c12565b73ffffffffffffffffffffffffffffffffffffffff1614610f7c57610f40610f7e565b6040517f118cdaa7000000000000000000000000000000000000000000000000000000008152600401610f739190611c54565b60405180910390fd5b565b5f33905090565b610f9283838360016111ef565b505050565b5f610fa28484610d68565b90507fffffffffffffffffffffffffffffffffffffffffffffffffffffffffffffffff81146110235781811015611014578281836040517ffb8f41b200000000000000000000000000000000000000000000000000000000815260040161100b93929190611ef5565b60405180910390fd5b61102284848484035f6111ef565b5b50505050565b5f73ffffffffffffffffffffffffffffffffffffffff168373ffffffffffffffffffffffffffffffffffffffff1603611099575f6040517f96c6fd1e0000000000000000000000000000000000000000000000000000000081526004016110909190611c54565b60405180910390fd5b5f73ffffffffffffffffffffffffffffffffffffffff168273ffffffffffffffffffffffffffffffffffffffff1603611109575f6040517fec442f050000000000000000000000000000000000000000000000000000000081526004016111009190611c54565b60405180910390fd5b6111148383836113be565b505050565b611121610ef7565b61112a5f61112c565b565b5f60055f9054906101000a900473ffffffffffffffffffffffffffffffffffffffff1690508160055f6101000a81548173ffffffffffffffffffffffffffffffffffffffff021916908373ffffffffffffffffffffffffffffffffffffffff1602179055508173ffffffffffffffffffffffffffffffffffffffff168173ffffffffffffffffffffffffffffffffffffffff167f8be0079c531659141344cd1fd0a4f28419497f9722a3daafe3b4186f6b6457e060405160405180910390a35050565b5f73ffffffffffffffffffffffffffffffffffffffff168473ffffffffffffffffffffffffffffffffffffffff160361125f575f6040517fe602df050000000000000000000000000000000000000000000000000000000081526004016112569190611c54565b60405180910390fd5b5f73ffffffffffffffffffffffffffffffffffffffff168373ffffffffffffffffffffffffffffffffffffffff16036112cf575f6040517f94280d620000000000000000000000000000000000000000000000000000000081526004016112c69190611c54565b60405180910390fd5b8160015f8673ffffffffffffffffffffffffffffffffffffffff1673ffffffffffffffffffffffffffffffffffffffff1681526020019081526020015f205f8573ffffffffffffffffffffffffffffffffffffffff1673ffffffffffffffffffffffffffffffffffffffff1681526020019081526020015f208190555080156113b8578273ffffffffffffffffffffffffffffffffffffffff168473ffffffffffffffffffffffffffffffffffffffff167f8c5be1e5ebec7d5bd14f71427d1e84f3dd0314c0f7b2291e5b200ac8c7c3b925846040516113af9190611b7d565b60405180910390a35b50505050565b600c5f8373ffffffffffffffffffffffffffffffffffffffff1673ffffffffffffffffffffffffffffffffffffffff1681526020019081526020015f205f9054906101000a900460ff1615801561145c5750600c5f8473ffffffffffffffffffffffffffffffffffffffff1673ffffffffffffffffffffffffffffffffffffffff1681526020019081526020015f205f9054906101000a900460ff16155b61149b576040517f08c379a000000000000000000000000000000000000000000000000000000000815260040161149290611f74565b60405180910390fd5b600b5f9054906101000a900460ff161561158b57600e5f8473ffffffffffffffffffffffffffffffffffffffff1673ffffffffffffffffffffffffffffffffffffffff1681526020019081526020015f205f9054906101000a900460ff16801561154b5750600e5f8373ffffffffffffffffffffffffffffffffffffffff1673ffffffffffffffffffffffffffffffffffffffff1681526020019081526020015f205f9054906101000a900460ff165b61158a576040517f08c379a000000000000000000000000000000000000000000000000000000000815260040161158190612002565b60405180910390fd5b5b6007548111156115d0576040517f08c379a00000000000000000000000000000000000000000000000000000000081526004016115c79061206a565b60405180910390fd5b600854600f5f8573ffffffffffffffffffffffffffffffffffffffff1673ffffffffffffffffffffffffffffffffffffffff1681526020019081526020015f205461161b91906120b5565b42101561165d576040517f08c379a000000000000000000000000000000000000000000000000000000000815260040161165490612132565b60405180910390fd5b42600f5f8573ffffffffffffffffffffffffffffffffffffffff1673ffffffffffffffffffffffffffffffffffffffff1681526020019081526020015f2081905550600d5f8473ffffffffffffffffffffffffffffffffffffffff1673ffffffffffffffffffffffffffffffffffffffff1681526020019081526020015f205f9054906101000a900460ff16806117015750600b60019054906101000a900460ff16155b1561171657611711838383611798565b611793565b600b60019054906101000a900460ff1615611792575f6064600a5460095461173e91906120b5565b836117499190612150565b61175391906121be565b9050808261176191906121ee565b915061179084600b60029054906101000a900473ffffffffffffffffffffffffffffffffffffffff1684611798565b505b5b505050565b5f73ffffffffffffffffffffffffffffffffffffffff168373ffffffffffffffffffffffffffffffffffffffff16036117e8578060025f8282546117dc91906120b5565b925050819055506118b6565b5f5f5f8573ffffffffffffffffffffffffffffffffffffffff1673ffffffffffffffffffffffffffffffffffffffff1681526020019081526020015f2054905081811015611871578381836040517fe450d38c00000000000000000000000000000000000000000000000000000000815260040161186893929190611ef5565b60405180910390fd5b8181035f5f8673ffffffffffffffffffffffffffffffffffffffff1673ffffffffffffffffffffffffffffffffffffffff1681526020019081526020015f2081905550505b5f73ffffffffffffffffffffffffffffffffffffffff168273ffffffffffffffffffffffffffffffffffffffff16036118fd578060025f8282540392505081905550611947565b805f5f8473ffffffffffffffffffffffffffffffffffffffff1673ffffffffffffffffffffffffffffffffffffffff1681526020019081526020015f205f82825401925050819055505b8173ffffffffffffffffffffffffffffffffffffffff168373ffffffffffffffffffffffffffffffffffffffff167fddf252ad1be2c89b69c2b068fc378daa952ba7f163c4a11628f55a4df523b3ef836040516119a49190611b7d565b60405180910390a3505050565b5f5ffd5b5f73ffffffffffffffffffffffffffffffffffffffff82169050919050565b5f6119de826119b5565b9050919050565b6119ee816119d4565b81146119f8575f5ffd5b50565b5f81359050611a09816119e5565b92915050565b5f60208284031215611a2457611a236119b1565b5b5f611a31848285016119fb565b91505092915050565b5f81519050919050565b5f82825260208201905092915050565b8281835e5f83830152505050565b5f601f19601f8301169050919050565b5f611a7c82611a3a565b611a868185611a44565b9350611a96818560208601611a54565b611a9f81611a62565b840191505092915050565b5f6020820190508181035f830152611ac28184611a72565b905092915050565b5f819050919050565b611adc81611aca565b8114611ae6575f5ffd5b50565b5f81359050611af781611ad3565b92915050565b5f5f60408385031215611b1357611b126119b1565b5b5f611b20858286016119fb565b9250506020611b3185828601611ae9565b9150509250929050565b5f8115159050919050565b611b4f81611b3b565b82525050565b5f602082019050611b685f830184611b46565b92915050565b611b7781611aca565b82525050565b5f602082019050611b905f830184611b6e565b92915050565b5f5f5f60608486031215611bad57611bac6119b1565b5b5f611bba868287016119fb565b9350506020611bcb868287016119fb565b9250506040611bdc86828701611ae9565b9150509250925092565b5f60ff82169050919050565b611bfb81611be6565b82525050565b5f602082019050611c145f830184611bf2565b92915050565b5f60208284031215611c2f57611c2e6119b1565b5b5f611c3c84828501611ae9565b91505092915050565b611c4e816119d4565b82525050565b5f602082019050611c675f830184611c45565b92915050565b5f608082019050611c805f830187611c45565b611c8d6020830186611b6e565b611c9a6040830185611b6e565b611ca76060830184611b6e565b95945050505050565b5f5f60408385031215611cc657611cc56119b1565b5b5f611cd3858286016119fb565b9250506020611ce4858286016119fb565b9150509250929050565b7f4e487b71000000000000000000000000000000000000000000000000000000005f52602260045260245ffd5b5f6002820490506001821680611d3257607f821691505b602082108103611d4557611d44611cee565b5b50919050565b7f426c61636b6c6973746564206163636f756e74732063616e6e6f7420626520775f8201527f686974656c697374656400000000000000000000000000000000000000000000602082015250565b5f611da5602a83611a44565b9150611db082611d4b565b604082019050919050565b5f6020820190508181035f830152611dd281611d99565b9050919050565b7f536c69707061676520666565732063616e6e6f742062652068696768657220745f8201527f68616e2035250000000000000000000000000000000000000000000000000000602082015250565b5f611e33602683611a44565b9150611e3e82611dd9565b604082019050919050565b5f6020820190508181035f830152611e6081611e27565b9050919050565b7f546178206665652063616e6e6f7420626520686967686572207468616e2031305f8201527f2500000000000000000000000000000000000000000000000000000000000000602082015250565b5f611ec1602183611a44565b9150611ecc82611e67565b604082019050919050565b5f6020820190508181035f830152611eee81611eb5565b9050919050565b5f606082019050611f085f830186611c45565b611f156020830185611b6e565b611f226040830184611b6e565b949350505050565b7f426c61636b6c69737465642061646472657373000000000000000000000000005f82015250565b5f611f5e601383611a44565b9150611f6982611f2a565b602082019050919050565b5f6020820190508181035f830152611f8b81611f52565b9050919050565b7f426f746820616464726573736573206d7573742062652077686974656c6973745f8201527f6564000000000000000000000000000000000000000000000000000000000000602082015250565b5f611fec602283611a44565b9150611ff782611f92565b604082019050919050565b5f6020820190508181035f83015261201981611fe0565b9050919050565b7f546f6b656e207472616e73666572206c696d69742065786365656465640000005f82015250565b5f612054601d83611a44565b915061205f82612020565b602082019050919050565b5f6020820190508181035f83015261208181612048565b9050919050565b7f4e487b71000000000000000000000000000000000000000000000000000000005f52601160045260245ffd5b5f6120bf82611aca565b91506120ca83611aca565b92508282019050808211156120e2576120e1612088565b5b92915050565b7f436f6f6c646f776e2074696d6520706572696f640000000000000000000000005f82015250565b5f61211c601483611a44565b9150612127826120e8565b602082019050919050565b5f6020820190508181035f83015261214981612110565b9050919050565b5f61215a82611aca565b915061216583611aca565b925082820261217381611aca565b9150828204841483151761218a57612189612088565b5b5092915050565b7f4e487b71000000000000000000000000000000000000000000000000000000005f52601260045260245ffd5b5f6121c882611aca565b91506121d383611aca565b9250826121e3576121e2612191565b5b828204905092915050565b5f6121f882611aca565b915061220383611aca565b925082820390508181111561221b5761221a612088565b5b9291505056fea2646970667358221220c789c39f87231e90f466c1d57091e6d4b2b8d620b654bd4158a1072ca89bd71264736f6c634300081c0033",
					"opcodes": "PUSH1 0x80 PUSH1 0x40 MSTORE PUSH2 0x12 PUSH2 0x27D PUSH1 0x20 SHL PUSH1 0x20 SHR JUMP JUMPDEST PUSH1 0xA PUSH2 0x1E SWAP2 SWAP1 PUSH2 0xB3D JUMP JUMPDEST PUSH4 0x5F5E100 PUSH2 0x2D SWAP2 SWAP1 PUSH2 0xB87 JUMP JUMPDEST PUSH1 0x6 SSTORE PUSH1 0x6 SLOAD PUSH1 0x7 SSTORE PUSH1 0x3C PUSH1 0x8 SSTORE PUSH1 0x5 PUSH1 0x9 SSTORE PUSH1 0x2 PUSH1 0xA SSTORE PUSH0 PUSH1 0xB PUSH0 PUSH2 0x100 EXP DUP2 SLOAD DUP2 PUSH1 0xFF MUL NOT AND SWAP1 DUP4 ISZERO ISZERO MUL OR SWAP1 SSTORE POP PUSH0 PUSH1 0xB PUSH1 0x1 PUSH2 0x100 EXP DUP2 SLOAD DUP2 PUSH1 0xFF MUL NOT AND SWAP1 DUP4 ISZERO ISZERO MUL OR SWAP1 SSTORE POP PUSH0 PUSH1 0xB PUSH1 0x16 PUSH2 0x100 EXP DUP2 SLOAD DUP2 PUSH1 0xFF MUL NOT AND SWAP1 DUP4 ISZERO ISZERO MUL OR SWAP1 SSTORE POP CALLVALUE DUP1 ISZERO PUSH2 0x9D JUMPI PUSH0 PUSH0 REVERT JUMPDEST POP PUSH1 0x40 MLOAD PUSH2 0x34E9 CODESIZE SUB DUP1 PUSH2 0x34E9 DUP4 CODECOPY DUP2 DUP2 ADD PUSH1 0x40 MSTORE DUP2 ADD SWAP1 PUSH2 0xBF SWAP2 SWAP1 PUSH2 0xC26 JUMP JUMPDEST DUP2 PUSH1 0x40 MLOAD DUP1 PUSH1 0x40 ADD PUSH1 0x40 MSTORE DUP1 PUSH1 0x9 DUP2 MSTORE PUSH1 0x20 ADD PUSH32 0x5661756C74436F696E0000000000000000000000000000000000000000000000 DUP2 MSTORE POP PUSH1 0x40 MLOAD DUP1 PUSH1 0x40 ADD PUSH1 0x40 MSTORE DUP1 PUSH1 0x5 DUP2 MSTORE PUSH1 0x20 ADD PUSH32 0x5661756C74000000000000000000000000000000000000000000000000000000 DUP2 MSTORE POP DUP2 PUSH1 0x3 SWAP1 DUP2 PUSH2 0x13B SWAP2 SWAP1 PUSH2 0xE98 JUMP JUMPDEST POP DUP1 PUSH1 0x4 SWAP1 DUP2 PUSH2 0x14B SWAP2 SWAP1 PUSH2 0xE98 JUMP JUMPDEST POP POP POP PUSH0 PUSH20 0xFFFFFFFFFFFFFFFFFFFFFFFFFFFFFFFFFFFFFFFF AND DUP2 PUSH20 0xFFFFFFFFFFFFFFFFFFFFFFFFFFFFFFFFFFFFFFFF AND SUB PUSH2 0x1BE JUMPI PUSH0 PUSH1 0x40 MLOAD PUSH32 0x1E4FBDF700000000000000000000000000000000000000000000000000000000 DUP2 MSTORE PUSH1 0x4 ADD PUSH2 0x1B5 SWAP2 SWAP1 PUSH2 0xF76 JUMP JUMPDEST PUSH1 0x40 MLOAD DUP1 SWAP2 SUB SWAP1 REVERT JUMPDEST PUSH2 0x1CD DUP2 PUSH2 0x285 PUSH1 0x20 SHL PUSH1 0x20 SHR JUMP JUMPDEST POP PUSH2 0x1E0 DUP3 PUSH1 0x6 SLOAD PUSH2 0x348 PUSH1 0x20 SHL PUSH1 0x20 SHR JUMP JUMPDEST PUSH1 0x1 PUSH1 0xE PUSH0 DUP5 PUSH20 0xFFFFFFFFFFFFFFFFFFFFFFFFFFFFFFFFFFFFFFFF AND PUSH20 0xFFFFFFFFFFFFFFFFFFFFFFFFFFFFFFFFFFFFFFFF AND DUP2 MSTORE PUSH1 0x20 ADD SWAP1 DUP2 MSTORE PUSH1 0x20 ADD PUSH0 KECCAK256 PUSH0 PUSH2 0x100 EXP DUP2 SLOAD DUP2 PUSH1 0xFF MUL NOT AND SWAP1 DUP4 ISZERO ISZERO MUL OR SWAP1 SSTORE POP DUP1 PUSH1 0xB PUSH1 0x2 PUSH2 0x100 EXP DUP2 SLOAD DUP2 PUSH20 0xFFFFFFFFFFFFFFFFFFFFFFFFFFFFFFFFFFFFFFFF MUL NOT AND SWAP1 DUP4 PUSH20 0xFFFFFFFFFFFFFFFFFFFFFFFFFFFFFFFFFFFFFFFF AND MUL OR SWAP1 SSTORE POP POP POP PUSH2 0x1285 JUMP JUMPDEST PUSH0 PUSH1 0x12 SWAP1 POP SWAP1 JUMP JUMPDEST PUSH0 PUSH1 0x5 PUSH0 SWAP1 SLOAD SWAP1 PUSH2 0x100 EXP SWAP1 DIV PUSH20 0xFFFFFFFFFFFFFFFFFFFFFFFFFFFFFFFFFFFFFFFF AND SWAP1 POP DUP2 PUSH1 0x5 PUSH0 PUSH2 0x100 EXP DUP2 SLOAD DUP2 PUSH20 0xFFFFFFFFFFFFFFFFFFFFFFFFFFFFFFFFFFFFFFFF MUL NOT AND SWAP1 DUP4 PUSH20 0xFFFFFFFFFFFFFFFFFFFFFFFFFFFFFFFFFFFFFFFF AND MUL OR SWAP1 SSTORE POP DUP2 PUSH20 0xFFFFFFFFFFFFFFFFFFFFFFFFFFFFFFFFFFFFFFFF AND DUP2 PUSH20 0xFFFFFFFFFFFFFFFFFFFFFFFFFFFFFFFFFFFFFFFF AND PUSH32 0x8BE0079C531659141344CD1FD0A4F28419497F9722A3DAAFE3B4186F6B6457E0 PUSH1 0x40 MLOAD PUSH1 0x40 MLOAD DUP1 SWAP2 SUB SWAP1 LOG3 POP POP JUMP JUMPDEST PUSH0 PUSH20 0xFFFFFFFFFFFFFFFFFFFFFFFFFFFFFFFFFFFFFFFF AND DUP3 PUSH20 0xFFFFFFFFFFFFFFFFFFFFFFFFFFFFFFFFFFFFFFFF AND SUB PUSH2 0x3B8 JUMPI PUSH0 PUSH1 0x40 MLOAD PUSH32 0xEC442F0500000000000000000000000000000000000000000000000000000000 DUP2 MSTORE PUSH1 0x4 ADD PUSH2 0x3AF SWAP2 SWAP1 PUSH2 0xF76 JUMP JUMPDEST PUSH1 0x40 MLOAD DUP1 SWAP2 SUB SWAP1 REVERT JUMPDEST PUSH2 0x3C9 PUSH0 DUP4 DUP4 PUSH2 0x3CD PUSH1 0x20 SHL PUSH1 0x20 SHR JUMP JUMPDEST POP POP JUMP JUMPDEST PUSH1 0xC PUSH0 DUP4 PUSH20 0xFFFFFFFFFFFFFFFFFFFFFFFFFFFFFFFFFFFFFFFF AND PUSH20 0xFFFFFFFFFFFFFFFFFFFFFFFFFFFFFFFFFFFFFFFF AND DUP2 MSTORE PUSH1 0x20 ADD SWAP1 DUP2 MSTORE PUSH1 0x20 ADD PUSH0 KECCAK256 PUSH0 SWAP1 SLOAD SWAP1 PUSH2 0x100 EXP SWAP1 DIV PUSH1 0xFF AND ISZERO DUP1 ISZERO PUSH2 0x46B JUMPI POP PUSH1 0xC PUSH0 DUP5 PUSH20 0xFFFFFFFFFFFFFFFFFFFFFFFFFFFFFFFFFFFFFFFF AND PUSH20 0xFFFFFFFFFFFFFFFFFFFFFFFFFFFFFFFFFFFFFFFF AND DUP2 MSTORE PUSH1 0x20 ADD SWAP1 DUP2 MSTORE PUSH1 0x20 ADD PUSH0 KECCAK256 PUSH0 SWAP1 SLOAD SWAP1 PUSH2 0x100 EXP SWAP1 DIV PUSH1 0xFF AND ISZERO JUMPDEST PUSH2 0x4AA JUMPI PUSH1 0x40 MLOAD PUSH32 0x8C379A000000000000000000000000000000000000000000000000000000000 DUP2 MSTORE PUSH1 0x4 ADD PUSH2 0x4A1 SWAP1 PUSH2 0xFE9 JUMP JUMPDEST PUSH1 0x40 MLOAD DUP1 SWAP2 SUB SWAP1 REVERT JUMPDEST PUSH1 0xB PUSH0 SWAP1 SLOAD SWAP1 PUSH2 0x100 EXP SWAP1 DIV PUSH1 0xFF AND ISZERO PUSH2 0x59A JUMPI PUSH1 0xE PUSH0 DUP5 PUSH20 0xFFFFFFFFFFFFFFFFFFFFFFFFFFFFFFFFFFFFFFFF AND PUSH20 0xFFFFFFFFFFFFFFFFFFFFFFFFFFFFFFFFFFFFFFFF AND DUP2 MSTORE PUSH1 0x20 ADD SWAP1 DUP2 MSTORE PUSH1 0x20 ADD PUSH0 KECCAK256 PUSH0 SWAP1 SLOAD SWAP1 PUSH2 0x100 EXP SWAP1 DIV PUSH1 0xFF AND DUP1 ISZERO PUSH2 0x55A JUMPI POP PUSH1 0xE PUSH0 DUP4 PUSH20 0xFFFFFFFFFFFFFFFFFFFFFFFFFFFFFFFFFFFFFFFF AND PUSH20 0xFFFFFFFFFFFFFFFFFFFFFFFFFFFFFFFFFFFFFFFF AND DUP2 MSTORE PUSH1 0x20 ADD SWAP1 DUP2 MSTORE PUSH1 0x20 ADD PUSH0 KECCAK256 PUSH0 SWAP1 SLOAD SWAP1 PUSH2 0x100 EXP SWAP1 DIV PUSH1 0xFF AND JUMPDEST PUSH2 0x599 JUMPI PUSH1 0x40 MLOAD PUSH32 0x8C379A000000000000000000000000000000000000000000000000000000000 DUP2 MSTORE PUSH1 0x4 ADD PUSH2 0x590 SWAP1 PUSH2 0x1077 JUMP JUMPDEST PUSH1 0x40 MLOAD DUP1 SWAP2 SUB SWAP1 REVERT JUMPDEST JUMPDEST PUSH1 0x7 SLOAD DUP2 GT ISZERO PUSH2 0x5DF JUMPI PUSH1 0x40 MLOAD PUSH32 0x8C379A000000000000000000000000000000000000000000000000000000000 DUP2 MSTORE PUSH1 0x4 ADD PUSH2 0x5D6 SWAP1 PUSH2 0x10DF JUMP JUMPDEST PUSH1 0x40 MLOAD DUP1 SWAP2 SUB SWAP1 REVERT JUMPDEST PUSH1 0x8 SLOAD PUSH1 0xF PUSH0 DUP6 PUSH20 0xFFFFFFFFFFFFFFFFFFFFFFFFFFFFFFFFFFFFFFFF AND PUSH20 0xFFFFFFFFFFFFFFFFFFFFFFFFFFFFFFFFFFFFFFFF AND DUP2 MSTORE PUSH1 0x20 ADD SWAP1 DUP2 MSTORE PUSH1 0x20 ADD PUSH0 KECCAK256 SLOAD PUSH2 0x62A SWAP2 SWAP1 PUSH2 0x10FD JUMP JUMPDEST TIMESTAMP LT ISZERO PUSH2 0x66C JUMPI PUSH1 0x40 MLOAD PUSH32 0x8C379A000000000000000000000000000000000000000000000000000000000 DUP2 MSTORE PUSH1 0x4 ADD PUSH2 0x663 SWAP1 PUSH2 0x117A JUMP JUMPDEST PUSH1 0x40 MLOAD DUP1 SWAP2 SUB SWAP1 REVERT JUMPDEST TIMESTAMP PUSH1 0xF PUSH0 DUP6 PUSH20 0xFFFFFFFFFFFFFFFFFFFFFFFFFFFFFFFFFFFFFFFF AND PUSH20 0xFFFFFFFFFFFFFFFFFFFFFFFFFFFFFFFFFFFFFFFF AND DUP2 MSTORE PUSH1 0x20 ADD SWAP1 DUP2 MSTORE PUSH1 0x20 ADD PUSH0 KECCAK256 DUP2 SWAP1 SSTORE POP PUSH1 0xD PUSH0 DUP5 PUSH20 0xFFFFFFFFFFFFFFFFFFFFFFFFFFFFFFFFFFFFFFFF AND PUSH20 0xFFFFFFFFFFFFFFFFFFFFFFFFFFFFFFFFFFFFFFFF AND DUP2 MSTORE PUSH1 0x20 ADD SWAP1 DUP2 MSTORE PUSH1 0x20 ADD PUSH0 KECCAK256 PUSH0 SWAP1 SLOAD SWAP1 PUSH2 0x100 EXP SWAP1 DIV PUSH1 0xFF AND DUP1 PUSH2 0x710 JUMPI POP PUSH1 0xB PUSH1 0x1 SWAP1 SLOAD SWAP1 PUSH2 0x100 EXP SWAP1 DIV PUSH1 0xFF AND ISZERO JUMPDEST ISZERO PUSH2 0x72B JUMPI PUSH2 0x726 DUP4 DUP4 DUP4 PUSH2 0x7B3 PUSH1 0x20 SHL PUSH1 0x20 SHR JUMP JUMPDEST PUSH2 0x7AE JUMP JUMPDEST PUSH1 0xB PUSH1 0x1 SWAP1 SLOAD SWAP1 PUSH2 0x100 EXP SWAP1 DIV PUSH1 0xFF AND ISZERO PUSH2 0x7AD JUMPI PUSH0 PUSH1 0x64 PUSH1 0xA SLOAD PUSH1 0x9 SLOAD PUSH2 0x753 SWAP2 SWAP1 PUSH2 0x10FD JUMP JUMPDEST DUP4 PUSH2 0x75E SWAP2 SWAP1 PUSH2 0xB87 JUMP JUMPDEST PUSH2 0x768 SWAP2 SWAP1 PUSH2 0x11C5 JUMP JUMPDEST SWAP1 POP DUP1 DUP3 PUSH2 0x776 SWAP2 SWAP1 PUSH2 0x11F5 JUMP JUMPDEST SWAP2 POP PUSH2 0x7AB DUP5 PUSH1 0xB PUSH1 0x2 SWAP1 SLOAD SWAP1 PUSH2 0x100 EXP SWAP1 DIV PUSH20 0xFFFFFFFFFFFFFFFFFFFFFFFFFFFFFFFFFFFFFFFF AND DUP5 PUSH2 0x7B3 PUSH1 0x20 SHL PUSH1 0x20 SHR JUMP JUMPDEST POP JUMPDEST JUMPDEST POP POP POP JUMP JUMPDEST PUSH0 PUSH20 0xFFFFFFFFFFFFFFFFFFFFFFFFFFFFFFFFFFFFFFFF AND DUP4 PUSH20 0xFFFFFFFFFFFFFFFFFFFFFFFFFFFFFFFFFFFFFFFF AND SUB PUSH2 0x803 JUMPI DUP1 PUSH1 0x2 PUSH0 DUP3 DUP3 SLOAD PUSH2 0x7F7 SWAP2 SWAP1 PUSH2 0x10FD JUMP JUMPDEST SWAP3 POP POP DUP2 SWAP1 SSTORE POP PUSH2 0x8D1 JUMP JUMPDEST PUSH0 PUSH0 PUSH0 DUP6 PUSH20 0xFFFFFFFFFFFFFFFFFFFFFFFFFFFFFFFFFFFFFFFF AND PUSH20 0xFFFFFFFFFFFFFFFFFFFFFFFFFFFFFFFFFFFFFFFF AND DUP2 MSTORE PUSH1 0x20 ADD SWAP1 DUP2 MSTORE PUSH1 0x20 ADD PUSH0 KECCAK256 SLOAD SWAP1 POP DUP2 DUP2 LT ISZERO PUSH2 0x88C JUMPI DUP4 DUP2 DUP4 PUSH1 0x40 MLOAD PUSH32 0xE450D38C00000000000000000000000000000000000000000000000000000000 DUP2 MSTORE PUSH1 0x4 ADD PUSH2 0x883 SWAP4 SWAP3 SWAP2 SWAP1 PUSH2 0x1237 JUMP JUMPDEST PUSH1 0x40 MLOAD DUP1 SWAP2 SUB SWAP1 REVERT JUMPDEST DUP2 DUP2 SUB PUSH0 PUSH0 DUP7 PUSH20 0xFFFFFFFFFFFFFFFFFFFFFFFFFFFFFFFFFFFFFFFF AND PUSH20 0xFFFFFFFFFFFFFFFFFFFFFFFFFFFFFFFFFFFFFFFF AND DUP2 MSTORE PUSH1 0x20 ADD SWAP1 DUP2 MSTORE PUSH1 0x20 ADD PUSH0 KECCAK256 DUP2 SWAP1 SSTORE POP POP JUMPDEST PUSH0 PUSH20 0xFFFFFFFFFFFFFFFFFFFFFFFFFFFFFFFFFFFFFFFF AND DUP3 PUSH20 0xFFFFFFFFFFFFFFFFFFFFFFFFFFFFFFFFFFFFFFFF AND SUB PUSH2 0x918 JUMPI DUP1 PUSH1 0x2 PUSH0 DUP3 DUP3 SLOAD SUB SWAP3 POP POP DUP2 SWAP1 SSTORE POP PUSH2 0x962 JUMP JUMPDEST DUP1 PUSH0 PUSH0 DUP5 PUSH20 0xFFFFFFFFFFFFFFFFFFFFFFFFFFFFFFFFFFFFFFFF AND PUSH20 0xFFFFFFFFFFFFFFFFFFFFFFFFFFFFFFFFFFFFFFFF AND DUP2 MSTORE PUSH1 0x20 ADD SWAP1 DUP2 MSTORE PUSH1 0x20 ADD PUSH0 KECCAK256 PUSH0 DUP3 DUP3 SLOAD ADD SWAP3 POP POP DUP2 SWAP1 SSTORE POP JUMPDEST DUP2 PUSH20 0xFFFFFFFFFFFFFFFFFFFFFFFFFFFFFFFFFFFFFFFF AND DUP4 PUSH20 0xFFFFFFFFFFFFFFFFFFFFFFFFFFFFFFFFFFFFFFFF AND PUSH32 0xDDF252AD1BE2C89B69C2B068FC378DAA952BA7F163C4A11628F55A4DF523B3EF DUP4 PUSH1 0x40 MLOAD PUSH2 0x9BF SWAP2 SWAP1 PUSH2 0x126C JUMP JUMPDEST PUSH1 0x40 MLOAD DUP1 SWAP2 SUB SWAP1 LOG3 POP POP POP JUMP JUMPDEST PUSH32 0x4E487B7100000000000000000000000000000000000000000000000000000000 PUSH0 MSTORE PUSH1 0x11 PUSH1 0x4 MSTORE PUSH1 0x24 PUSH0 REVERT JUMPDEST PUSH0 DUP2 PUSH1 0x1 SHR SWAP1 POP SWAP2 SWAP1 POP JUMP JUMPDEST PUSH0 PUSH0 DUP3 SWAP2 POP DUP4 SWAP1 POP JUMPDEST PUSH1 0x1 DUP6 GT ISZERO PUSH2 0xA4E JUMPI DUP1 DUP7 DIV DUP2 GT ISZERO PUSH2 0xA2A JUMPI PUSH2 0xA29 PUSH2 0x9CC JUMP JUMPDEST JUMPDEST PUSH1 0x1 DUP6 AND ISZERO PUSH2 0xA39 JUMPI DUP1 DUP3 MUL SWAP2 POP JUMPDEST DUP1 DUP2 MUL SWAP1 POP PUSH2 0xA47 DUP6 PUSH2 0x9F9 JUMP JUMPDEST SWAP5 POP PUSH2 0xA0E JUMP JUMPDEST SWAP5 POP SWAP5 SWAP3 POP POP POP JUMP JUMPDEST PUSH0 DUP3 PUSH2 0xA66 JUMPI PUSH1 0x1 SWAP1 POP PUSH2 0xB21 JUMP JUMPDEST DUP2 PUSH2 0xA73 JUMPI PUSH0 SWAP1 POP PUSH2 0xB21 JUMP JUMPDEST DUP2 PUSH1 0x1 DUP2 EQ PUSH2 0xA89 JUMPI PUSH1 0x2 DUP2 EQ PUSH2 0xA93 JUMPI PUSH2 0xAC2 JUMP JUMPDEST PUSH1 0x1 SWAP2 POP POP PUSH2 0xB21 JUMP JUMPDEST PUSH1 0xFF DUP5 GT ISZERO PUSH2 0xAA5 JUMPI PUSH2 0xAA4 PUSH2 0x9CC JUMP JUMPDEST JUMPDEST DUP4 PUSH1 0x2 EXP SWAP2 POP DUP5 DUP3 GT ISZERO PUSH2 0xABC JUMPI PUSH2 0xABB PUSH2 0x9CC JUMP JUMPDEST JUMPDEST POP PUSH2 0xB21 JUMP JUMPDEST POP PUSH1 0x20 DUP4 LT PUSH2 0x133 DUP4 LT AND PUSH1 0x4E DUP5 LT PUSH1 0xB DUP5 LT AND OR ISZERO PUSH2 0xAF7 JUMPI DUP3 DUP3 EXP SWAP1 POP DUP4 DUP2 GT ISZERO PUSH2 0xAF2 JUMPI PUSH2 0xAF1 PUSH2 0x9CC JUMP JUMPDEST JUMPDEST PUSH2 0xB21 JUMP JUMPDEST PUSH2 0xB04 DUP5 DUP5 DUP5 PUSH1 0x1 PUSH2 0xA05 JUMP JUMPDEST SWAP3 POP SWAP1 POP DUP2 DUP5 DIV DUP2 GT ISZERO PUSH2 0xB1B JUMPI PUSH2 0xB1A PUSH2 0x9CC JUMP JUMPDEST JUMPDEST DUP2 DUP2 MUL SWAP1 POP JUMPDEST SWAP4 SWAP3 POP POP POP JUMP JUMPDEST PUSH0 DUP2 SWAP1 POP SWAP2 SWAP1 POP JUMP JUMPDEST PUSH0 PUSH1 0xFF DUP3 AND SWAP1 POP SWAP2 SWAP1 POP JUMP JUMPDEST PUSH0 PUSH2 0xB47 DUP3 PUSH2 0xB28 JUMP JUMPDEST SWAP2 POP PUSH2 0xB52 DUP4 PUSH2 0xB31 JUMP JUMPDEST SWAP3 POP PUSH2 0xB7F PUSH32 0xFFFFFFFFFFFFFFFFFFFFFFFFFFFFFFFFFFFFFFFFFFFFFFFFFFFFFFFFFFFFFFFF DUP5 DUP5 PUSH2 0xA57 JUMP JUMPDEST SWAP1 POP SWAP3 SWAP2 POP POP JUMP JUMPDEST PUSH0 PUSH2 0xB91 DUP3 PUSH2 0xB28 JUMP JUMPDEST SWAP2 POP PUSH2 0xB9C DUP4 PUSH2 0xB28 JUMP JUMPDEST SWAP3 POP DUP3 DUP3 MUL PUSH2 0xBAA DUP2 PUSH2 0xB28 JUMP JUMPDEST SWAP2 POP DUP3 DUP3 DIV DUP5 EQ DUP4 ISZERO OR PUSH2 0xBC1 JUMPI PUSH2 0xBC0 PUSH2 0x9CC JUMP JUMPDEST JUMPDEST POP SWAP3 SWAP2 POP POP JUMP JUMPDEST PUSH0 PUSH0 REVERT JUMPDEST PUSH0 PUSH20 0xFFFFFFFFFFFFFFFFFFFFFFFFFFFFFFFFFFFFFFFF DUP3 AND SWAP1 POP SWAP2 SWAP1 POP JUMP JUMPDEST PUSH0 PUSH2 0xBF5 DUP3 PUSH2 0xBCC JUMP JUMPDEST SWAP1 POP SWAP2 SWAP1 POP JUMP JUMPDEST PUSH2 0xC05 DUP2 PUSH2 0xBEB JUMP JUMPDEST DUP2 EQ PUSH2 0xC0F JUMPI PUSH0 PUSH0 REVERT JUMPDEST POP JUMP JUMPDEST PUSH0 DUP2 MLOAD SWAP1 POP PUSH2 0xC20 DUP2 PUSH2 0xBFC JUMP JUMPDEST SWAP3 SWAP2 POP POP JUMP JUMPDEST PUSH0 PUSH0 PUSH1 0x40 DUP4 DUP6 SUB SLT ISZERO PUSH2 0xC3C JUMPI PUSH2 0xC3B PUSH2 0xBC8 JUMP JUMPDEST JUMPDEST PUSH0 PUSH2 0xC49 DUP6 DUP3 DUP7 ADD PUSH2 0xC12 JUMP JUMPDEST SWAP3 POP POP PUSH1 0x20 PUSH2 0xC5A DUP6 DUP3 DUP7 ADD PUSH2 0xC12 JUMP JUMPDEST SWAP2 POP POP SWAP3 POP SWAP3 SWAP1 POP JUMP JUMPDEST PUSH0 DUP2 MLOAD SWAP1 POP SWAP2 SWAP1 POP JUMP JUMPDEST PUSH32 0x4E487B7100000000000000000000000000000000000000000000000000000000 PUSH0 MSTORE PUSH1 0x41 PUSH1 0x4 MSTORE PUSH1 0x24 PUSH0 REVERT JUMPDEST PUSH32 0x4E487B7100000000000000000000000000000000000000000000000000000000 PUSH0 MSTORE PUSH1 0x22 PUSH1 0x4 MSTORE PUSH1 0x24 PUSH0 REVERT JUMPDEST PUSH0 PUSH1 0x2 DUP3 DIV SWAP1 POP PUSH1 0x1 DUP3 AND DUP1 PUSH2 0xCDF JUMPI PUSH1 0x7F DUP3 AND SWAP2 POP JUMPDEST PUSH1 0x20 DUP3 LT DUP2 SUB PUSH2 0xCF2 JUMPI PUSH2 0xCF1 PUSH2 0xC9B JUMP JUMPDEST JUMPDEST POP SWAP2 SWAP1 POP JUMP JUMPDEST PUSH0 DUP2 SWAP1 POP DUP2 PUSH0 MSTORE PUSH1 0x20 PUSH0 KECCAK256 SWAP1 POP SWAP2 SWAP1 POP JUMP JUMPDEST PUSH0 PUSH1 0x20 PUSH1 0x1F DUP4 ADD DIV SWAP1 POP SWAP2 SWAP1 POP JUMP JUMPDEST PUSH0 DUP3 DUP3 SHL SWAP1 POP SWAP3 SWAP2 POP POP JUMP JUMPDEST PUSH0 PUSH1 0x8 DUP4 MUL PUSH2 0xD54 PUSH32 0xFFFFFFFFFFFFFFFFFFFFFFFFFFFFFFFFFFFFFFFFFFFFFFFFFFFFFFFFFFFFFFFF DUP3 PUSH2 0xD19 JUMP JUMPDEST PUSH2 0xD5E DUP7 DUP4 PUSH2 0xD19 JUMP JUMPDEST SWAP6 POP DUP1 NOT DUP5 AND SWAP4 POP DUP1 DUP7 AND DUP5 OR SWAP3 POP POP POP SWAP4 SWAP3 POP POP POP JUMP JUMPDEST PUSH0 DUP2 SWAP1 POP SWAP2 SWAP1 POP JUMP JUMPDEST PUSH0 PUSH2 0xD99 PUSH2 0xD94 PUSH2 0xD8F DUP5 PUSH2 0xB28 JUMP JUMPDEST PUSH2 0xD76 JUMP JUMPDEST PUSH2 0xB28 JUMP JUMPDEST SWAP1 POP SWAP2 SWAP1 POP JUMP JUMPDEST PUSH0 DUP2 SWAP1 POP SWAP2 SWAP1 POP JUMP JUMPDEST PUSH2 0xDB2 DUP4 PUSH2 0xD7F JUMP JUMPDEST PUSH2 0xDC6 PUSH2 0xDBE DUP3 PUSH2 0xDA0 JUMP JUMPDEST DUP5 DUP5 SLOAD PUSH2 0xD25 JUMP JUMPDEST DUP3 SSTORE POP POP POP POP JUMP JUMPDEST PUSH0 PUSH0 SWAP1 POP SWAP1 JUMP JUMPDEST PUSH2 0xDDD PUSH2 0xDCE JUMP JUMPDEST PUSH2 0xDE8 DUP2 DUP5 DUP5 PUSH2 0xDA9 JUMP JUMPDEST POP POP POP JUMP JUMPDEST JUMPDEST DUP2 DUP2 LT ISZERO PUSH2 0xE0B JUMPI PUSH2 0xE00 PUSH0 DUP3 PUSH2 0xDD5 JUMP JUMPDEST PUSH1 0x1 DUP2 ADD SWAP1 POP PUSH2 0xDEE JUMP JUMPDEST POP POP JUMP JUMPDEST PUSH1 0x1F DUP3 GT ISZERO PUSH2 0xE50 JUMPI PUSH2 0xE21 DUP2 PUSH2 0xCF8 JUMP JUMPDEST PUSH2 0xE2A DUP5 PUSH2 0xD0A JUMP JUMPDEST DUP2 ADD PUSH1 0x20 DUP6 LT ISZERO PUSH2 0xE39 JUMPI DUP2 SWAP1 POP JUMPDEST PUSH2 0xE4D PUSH2 0xE45 DUP6 PUSH2 0xD0A JUMP JUMPDEST DUP4 ADD DUP3 PUSH2 0xDED JUMP JUMPDEST POP POP JUMPDEST POP POP POP JUMP JUMPDEST PUSH0 DUP3 DUP3 SHR SWAP1 POP SWAP3 SWAP2 POP POP JUMP JUMPDEST PUSH0 PUSH2 0xE70 PUSH0 NOT DUP5 PUSH1 0x8 MUL PUSH2 0xE55 JUMP JUMPDEST NOT DUP1 DUP4 AND SWAP2 POP POP SWAP3 SWAP2 POP POP JUMP JUMPDEST PUSH0 PUSH2 0xE88 DUP4 DUP4 PUSH2 0xE61 JUMP JUMPDEST SWAP2 POP DUP3 PUSH1 0x2 MUL DUP3 OR SWAP1 POP SWAP3 SWAP2 POP POP JUMP JUMPDEST PUSH2 0xEA1 DUP3 PUSH2 0xC64 JUMP JUMPDEST PUSH8 0xFFFFFFFFFFFFFFFF DUP2 GT ISZERO PUSH2 0xEBA JUMPI PUSH2 0xEB9 PUSH2 0xC6E JUMP JUMPDEST JUMPDEST PUSH2 0xEC4 DUP3 SLOAD PUSH2 0xCC8 JUMP JUMPDEST PUSH2 0xECF DUP3 DUP3 DUP6 PUSH2 0xE0F JUMP JUMPDEST PUSH0 PUSH1 0x20 SWAP1 POP PUSH1 0x1F DUP4 GT PUSH1 0x1 DUP2 EQ PUSH2 0xF00 JUMPI PUSH0 DUP5 ISZERO PUSH2 0xEEE JUMPI DUP3 DUP8 ADD MLOAD SWAP1 POP JUMPDEST PUSH2 0xEF8 DUP6 DUP3 PUSH2 0xE7D JUMP JUMPDEST DUP7 SSTORE POP PUSH2 0xF5F JUMP JUMPDEST PUSH1 0x1F NOT DUP5 AND PUSH2 0xF0E DUP7 PUSH2 0xCF8 JUMP JUMPDEST PUSH0 JUMPDEST DUP3 DUP2 LT ISZERO PUSH2 0xF35 JUMPI DUP5 DUP10 ADD MLOAD DUP3 SSTORE PUSH1 0x1 DUP3 ADD SWAP2 POP PUSH1 0x20 DUP6 ADD SWAP5 POP PUSH1 0x20 DUP2 ADD SWAP1 POP PUSH2 0xF10 JUMP JUMPDEST DUP7 DUP4 LT ISZERO PUSH2 0xF52 JUMPI DUP5 DUP10 ADD MLOAD PUSH2 0xF4E PUSH1 0x1F DUP10 AND DUP3 PUSH2 0xE61 JUMP JUMPDEST DUP4 SSTORE POP JUMPDEST PUSH1 0x1 PUSH1 0x2 DUP9 MUL ADD DUP9 SSTORE POP POP POP JUMPDEST POP POP POP POP POP POP JUMP JUMPDEST PUSH2 0xF70 DUP2 PUSH2 0xBEB JUMP JUMPDEST DUP3 MSTORE POP POP JUMP JUMPDEST PUSH0 PUSH1 0x20 DUP3 ADD SWAP1 POP PUSH2 0xF89 PUSH0 DUP4 ADD DUP5 PUSH2 0xF67 JUMP JUMPDEST SWAP3 SWAP2 POP POP JUMP JUMPDEST PUSH0 DUP3 DUP3 MSTORE PUSH1 0x20 DUP3 ADD SWAP1 POP SWAP3 SWAP2 POP POP JUMP JUMPDEST PUSH32 0x426C61636B6C6973746564206164647265737300000000000000000000000000 PUSH0 DUP3 ADD MSTORE POP JUMP JUMPDEST PUSH0 PUSH2 0xFD3 PUSH1 0x13 DUP4 PUSH2 0xF8F JUMP JUMPDEST SWAP2 POP PUSH2 0xFDE DUP3 PUSH2 0xF9F JUMP JUMPDEST PUSH1 0x20 DUP3 ADD SWAP1 POP SWAP2 SWAP1 POP JUMP JUMPDEST PUSH0 PUSH1 0x20 DUP3 ADD SWAP1 POP DUP2 DUP2 SUB PUSH0 DUP4 ADD MSTORE PUSH2 0x1000 DUP2 PUSH2 0xFC7 JUMP JUMPDEST SWAP1 POP SWAP2 SWAP1 POP JUMP JUMPDEST PUSH32 0x426F746820616464726573736573206D7573742062652077686974656C697374 PUSH0 DUP3 ADD MSTORE PUSH32 0x6564000000000000000000000000000000000000000000000000000000000000 PUSH1 0x20 DUP3 ADD MSTORE POP JUMP JUMPDEST PUSH0 PUSH2 0x1061 PUSH1 0x22 DUP4 PUSH2 0xF8F JUMP JUMPDEST SWAP2 POP PUSH2 0x106C DUP3 PUSH2 0x1007 JUMP JUMPDEST PUSH1 0x40 DUP3 ADD SWAP1 POP SWAP2 SWAP1 POP JUMP JUMPDEST PUSH0 PUSH1 0x20 DUP3 ADD SWAP1 POP DUP2 DUP2 SUB PUSH0 DUP4 ADD MSTORE PUSH2 0x108E DUP2 PUSH2 0x1055 JUMP JUMPDEST SWAP1 POP SWAP2 SWAP1 POP JUMP JUMPDEST PUSH32 0x546F6B656E207472616E73666572206C696D6974206578636565646564000000 PUSH0 DUP3 ADD MSTORE POP JUMP JUMPDEST PUSH0 PUSH2 0x10C9 PUSH1 0x1D DUP4 PUSH2 0xF8F JUMP JUMPDEST SWAP2 POP PUSH2 0x10D4 DUP3 PUSH2 0x1095 JUMP JUMPDEST PUSH1 0x20 DUP3 ADD SWAP1 POP SWAP2 SWAP1 POP JUMP JUMPDEST PUSH0 PUSH1 0x20 DUP3 ADD SWAP1 POP DUP2 DUP2 SUB PUSH0 DUP4 ADD MSTORE PUSH2 0x10F6 DUP2 PUSH2 0x10BD JUMP JUMPDEST SWAP1 POP SWAP2 SWAP1 POP JUMP JUMPDEST PUSH0 PUSH2 0x1107 DUP3 PUSH2 0xB28 JUMP JUMPDEST SWAP2 POP PUSH2 0x1112 DUP4 PUSH2 0xB28 JUMP JUMPDEST SWAP3 POP DUP3 DUP3 ADD SWAP1 POP DUP1 DUP3 GT ISZERO PUSH2 0x112A JUMPI PUSH2 0x1129 PUSH2 0x9CC JUMP JUMPDEST JUMPDEST SWAP3 SWAP2 POP POP JUMP JUMPDEST PUSH32 0x436F6F6C646F776E2074696D6520706572696F64000000000000000000000000 PUSH0 DUP3 ADD MSTORE POP JUMP JUMPDEST PUSH0 PUSH2 0x1164 PUSH1 0x14 DUP4 PUSH2 0xF8F JUMP JUMPDEST SWAP2 POP PUSH2 0x116F DUP3 PUSH2 0x1130 JUMP JUMPDEST PUSH1 0x20 DUP3 ADD SWAP1 POP SWAP2 SWAP1 POP JUMP JUMPDEST PUSH0 PUSH1 0x20 DUP3 ADD SWAP1 POP DUP2 DUP2 SUB PUSH0 DUP4 ADD MSTORE PUSH2 0x1191 DUP2 PUSH2 0x1158 JUMP JUMPDEST SWAP1 POP SWAP2 SWAP1 POP JUMP JUMPDEST PUSH32 0x4E487B7100000000000000000000000000000000000000000000000000000000 PUSH0 MSTORE PUSH1 0x12 PUSH1 0x4 MSTORE PUSH1 0x24 PUSH0 REVERT JUMPDEST PUSH0 PUSH2 0x11CF DUP3 PUSH2 0xB28 JUMP JUMPDEST SWAP2 POP PUSH2 0x11DA DUP4 PUSH2 0xB28 JUMP JUMPDEST SWAP3 POP DUP3 PUSH2 0x11EA JUMPI PUSH2 0x11E9 PUSH2 0x1198 JUMP JUMPDEST JUMPDEST DUP3 DUP3 DIV SWAP1 POP SWAP3 SWAP2 POP POP JUMP JUMPDEST PUSH0 PUSH2 0x11FF DUP3 PUSH2 0xB28 JUMP JUMPDEST SWAP2 POP PUSH2 0x120A DUP4 PUSH2 0xB28 JUMP JUMPDEST SWAP3 POP DUP3 DUP3 SUB SWAP1 POP DUP2 DUP2 GT ISZERO PUSH2 0x1222 JUMPI PUSH2 0x1221 PUSH2 0x9CC JUMP JUMPDEST JUMPDEST SWAP3 SWAP2 POP POP JUMP JUMPDEST PUSH2 0x1231 DUP2 PUSH2 0xB28 JUMP JUMPDEST DUP3 MSTORE POP POP JUMP JUMPDEST PUSH0 PUSH1 0x60 DUP3 ADD SWAP1 POP PUSH2 0x124A PUSH0 DUP4 ADD DUP7 PUSH2 0xF67 JUMP JUMPDEST PUSH2 0x1257 PUSH1 0x20 DUP4 ADD DUP6 PUSH2 0x1228 JUMP JUMPDEST PUSH2 0x1264 PUSH1 0x40 DUP4 ADD DUP5 PUSH2 0x1228 JUMP JUMPDEST SWAP5 SWAP4 POP POP POP POP JUMP JUMPDEST PUSH0 PUSH1 0x20 DUP3 ADD SWAP1 POP PUSH2 0x127F PUSH0 DUP4 ADD DUP5 PUSH2 0x1228 JUMP JUMPDEST SWAP3 SWAP2 POP POP JUMP JUMPDEST PUSH2 0x2257 DUP1 PUSH2 0x1292 PUSH0 CODECOPY PUSH0 RETURN INVALID PUSH1 0x80 PUSH1 0x40 MSTORE CALLVALUE DUP1 ISZERO PUSH2 0xF JUMPI PUSH0 PUSH0 REVERT JUMPDEST POP PUSH1 0x4 CALLDATASIZE LT PUSH2 0x225 JUMPI PUSH0 CALLDATALOAD PUSH1 0xE0 SHR DUP1 PUSH4 0x6F9170F6 GT PUSH2 0x12E JUMPI DUP1 PUSH4 0xA9059CBB GT PUSH2 0xB6 JUMPI DUP1 PUSH4 0xDD62ED3E GT PUSH2 0x7A JUMPI DUP1 PUSH4 0xDD62ED3E EQ PUSH2 0x5E4 JUMPI DUP1 PUSH4 0xEC28438A EQ PUSH2 0x614 JUMPI DUP1 PUSH4 0xEFC3A4AA EQ PUSH2 0x630 JUMPI DUP1 PUSH4 0xF2FDE38B EQ PUSH2 0x63A JUMPI DUP1 PUSH4 0xFE575A87 EQ PUSH2 0x656 JUMPI PUSH2 0x225 JUMP JUMPDEST DUP1 PUSH4 0xA9059CBB EQ PUSH2 0x54D JUMPI DUP1 PUSH4 0xB319C6B7 EQ PUSH2 0x57D JUMPI DUP1 PUSH4 0xB7BDA68F EQ PUSH2 0x59B JUMPI DUP1 PUSH4 0xCED695A4 EQ PUSH2 0x5B9 JUMPI DUP1 PUSH4 0xD51D86F4 EQ PUSH2 0x5C3 JUMPI PUSH2 0x225 JUMP JUMPDEST DUP1 PUSH4 0x88210BB1 GT PUSH2 0xFD JUMPI DUP1 PUSH4 0x88210BB1 EQ PUSH2 0x4B9 JUMPI DUP1 PUSH4 0x8C0B5E22 EQ PUSH2 0x4D5 JUMPI DUP1 PUSH4 0x8DA5CB5B EQ PUSH2 0x4F3 JUMPI DUP1 PUSH4 0x93AF22FF EQ PUSH2 0x511 JUMPI DUP1 PUSH4 0x95D89B41 EQ PUSH2 0x52F JUMPI PUSH2 0x225 JUMP JUMPDEST DUP1 PUSH4 0x6F9170F6 EQ PUSH2 0x433 JUMPI DUP1 PUSH4 0x6FF73201 EQ PUSH2 0x463 JUMPI DUP1 PUSH4 0x70A08231 EQ PUSH2 0x47F JUMPI DUP1 PUSH4 0x715018A6 EQ PUSH2 0x4AF JUMPI PUSH2 0x225 JUMP JUMPDEST DUP1 PUSH4 0x313CE567 GT PUSH2 0x1B1 JUMPI DUP1 PUSH4 0x4EBC552D GT PUSH2 0x180 JUMPI DUP1 PUSH4 0x4EBC552D EQ PUSH2 0x3B5 JUMPI DUP1 PUSH4 0x537DF3B6 EQ PUSH2 0x3D1 JUMPI DUP1 PUSH4 0x53EB3BCF EQ PUSH2 0x3ED JUMPI DUP1 PUSH4 0x6B3907CA EQ PUSH2 0x3F7 JUMPI DUP1 PUSH4 0x6D8B0527 EQ PUSH2 0x415 JUMPI PUSH2 0x225 JUMP JUMPDEST DUP1 PUSH4 0x313CE567 EQ PUSH2 0x343 JUMPI DUP1 PUSH4 0x44337EA1 EQ PUSH2 0x361 JUMPI DUP1 PUSH4 0x47EE0394 EQ PUSH2 0x37D JUMPI DUP1 PUSH4 0x49192418 EQ PUSH2 0x399 JUMPI PUSH2 0x225 JUMP JUMPDEST DUP1 PUSH4 0x18160DDD GT PUSH2 0x1F8 JUMPI DUP1 PUSH4 0x18160DDD EQ PUSH2 0x2B1 JUMPI DUP1 PUSH4 0x1BACAD95 EQ PUSH2 0x2CF JUMPI DUP1 PUSH4 0x23B872DD EQ PUSH2 0x2EB JUMPI DUP1 PUSH4 0x2958AD7F EQ PUSH2 0x31B JUMPI DUP1 PUSH4 0x2973EF2D EQ PUSH2 0x325 JUMPI PUSH2 0x225 JUMP JUMPDEST DUP1 PUSH4 0x1BF6648 EQ PUSH2 0x229 JUMPI DUP1 PUSH4 0x6FDDE03 EQ PUSH2 0x245 JUMPI DUP1 PUSH4 0x95EA7B3 EQ PUSH2 0x263 JUMPI DUP1 PUSH4 0xDDC0976 EQ PUSH2 0x293 JUMPI JUMPDEST PUSH0 PUSH0 REVERT JUMPDEST PUSH2 0x243 PUSH1 0x4 DUP1 CALLDATASIZE SUB DUP2 ADD SWAP1 PUSH2 0x23E SWAP2 SWAP1 PUSH2 0x1A0F JUMP JUMPDEST PUSH2 0x686 JUMP JUMPDEST STOP JUMPDEST PUSH2 0x24D PUSH2 0x6E5 JUMP JUMPDEST PUSH1 0x40 MLOAD PUSH2 0x25A SWAP2 SWAP1 PUSH2 0x1AAA JUMP JUMPDEST PUSH1 0x40 MLOAD DUP1 SWAP2 SUB SWAP1 RETURN JUMPDEST PUSH2 0x27D PUSH1 0x4 DUP1 CALLDATASIZE SUB DUP2 ADD SWAP1 PUSH2 0x278 SWAP2 SWAP1 PUSH2 0x1AFD JUMP JUMPDEST PUSH2 0x775 JUMP JUMPDEST PUSH1 0x40 MLOAD PUSH2 0x28A SWAP2 SWAP1 PUSH2 0x1B55 JUMP JUMPDEST PUSH1 0x40 MLOAD DUP1 SWAP2 SUB SWAP1 RETURN JUMPDEST PUSH2 0x29B PUSH2 0x797 JUMP JUMPDEST PUSH1 0x40 MLOAD PUSH2 0x2A8 SWAP2 SWAP1 PUSH2 0x1B7D JUMP JUMPDEST PUSH1 0x40 MLOAD DUP1 SWAP2 SUB SWAP1 RETURN JUMPDEST PUSH2 0x2B9 PUSH2 0x79D JUMP JUMPDEST PUSH1 0x40 MLOAD PUSH2 0x2C6 SWAP2 SWAP1 PUSH2 0x1B7D JUMP JUMPDEST PUSH1 0x40 MLOAD DUP1 SWAP2 SUB SWAP1 RETURN JUMPDEST PUSH2 0x2E9 PUSH1 0x4 DUP1 CALLDATASIZE SUB DUP2 ADD SWAP1 PUSH2 0x2E4 SWAP2 SWAP1 PUSH2 0x1A0F JUMP JUMPDEST PUSH2 0x7A6 JUMP JUMPDEST STOP JUMPDEST PUSH2 0x305 PUSH1 0x4 DUP1 CALLDATASIZE SUB DUP2 ADD SWAP1 PUSH2 0x300 SWAP2 SWAP1 PUSH2 0x1B96 JUMP JUMPDEST PUSH2 0x805 JUMP JUMPDEST PUSH1 0x40 MLOAD PUSH2 0x312 SWAP2 SWAP1 PUSH2 0x1B55 JUMP JUMPDEST PUSH1 0x40 MLOAD DUP1 SWAP2 SUB SWAP1 RETURN JUMPDEST PUSH2 0x323 PUSH2 0x833 JUMP JUMPDEST STOP JUMPDEST PUSH2 0x32D PUSH2 0x857 JUMP JUMPDEST PUSH1 0x40 MLOAD PUSH2 0x33A SWAP2 SWAP1 PUSH2 0x1B7D JUMP JUMPDEST PUSH1 0x40 MLOAD DUP1 SWAP2 SUB SWAP1 RETURN JUMPDEST PUSH2 0x34B PUSH2 0x860 JUMP JUMPDEST PUSH1 0x40 MLOAD PUSH2 0x358 SWAP2 SWAP1 PUSH2 0x1C01 JUMP JUMPDEST PUSH1 0x40 MLOAD DUP1 SWAP2 SUB SWAP1 RETURN JUMPDEST PUSH2 0x37B PUSH1 0x4 DUP1 CALLDATASIZE SUB DUP2 ADD SWAP1 PUSH2 0x376 SWAP2 SWAP1 PUSH2 0x1A0F JUMP JUMPDEST PUSH2 0x868 JUMP JUMPDEST STOP JUMPDEST PUSH2 0x397 PUSH1 0x4 DUP1 CALLDATASIZE SUB DUP2 ADD SWAP1 PUSH2 0x392 SWAP2 SWAP1 PUSH2 0x1A0F JUMP JUMPDEST PUSH2 0x8C8 JUMP JUMPDEST STOP JUMPDEST PUSH2 0x3B3 PUSH1 0x4 DUP1 CALLDATASIZE SUB DUP2 ADD SWAP1 PUSH2 0x3AE SWAP2 SWAP1 PUSH2 0x1C1A JUMP JUMPDEST PUSH2 0x9B2 JUMP JUMPDEST STOP JUMPDEST PUSH2 0x3CF PUSH1 0x4 DUP1 CALLDATASIZE SUB DUP2 ADD SWAP1 PUSH2 0x3CA SWAP2 SWAP1 PUSH2 0x1C1A JUMP JUMPDEST PUSH2 0xA08 JUMP JUMPDEST STOP JUMPDEST PUSH2 0x3EB PUSH1 0x4 DUP1 CALLDATASIZE SUB DUP2 ADD SWAP1 PUSH2 0x3E6 SWAP2 SWAP1 PUSH2 0x1A0F JUMP JUMPDEST PUSH2 0xA5E JUMP JUMPDEST STOP JUMPDEST PUSH2 0x3F5 PUSH2 0xABD JUMP JUMPDEST STOP JUMPDEST PUSH2 0x3FF PUSH2 0xAE2 JUMP JUMPDEST PUSH1 0x40 MLOAD PUSH2 0x40C SWAP2 SWAP1 PUSH2 0x1B7D JUMP JUMPDEST PUSH1 0x40 MLOAD DUP1 SWAP2 SUB SWAP1 RETURN JUMPDEST PUSH2 0x41D PUSH2 0xAE8 JUMP JUMPDEST PUSH1 0x40 MLOAD PUSH2 0x42A SWAP2 SWAP1 PUSH2 0x1B7D JUMP JUMPDEST PUSH1 0x40 MLOAD DUP1 SWAP2 SUB SWAP1 RETURN JUMPDEST PUSH2 0x44D PUSH1 0x4 DUP1 CALLDATASIZE SUB DUP2 ADD SWAP1 PUSH2 0x448 SWAP2 SWAP1 PUSH2 0x1A0F JUMP JUMPDEST PUSH2 0xAF1 JUMP JUMPDEST PUSH1 0x40 MLOAD PUSH2 0x45A SWAP2 SWAP1 PUSH2 0x1B55 JUMP JUMPDEST PUSH1 0x40 MLOAD DUP1 SWAP2 SUB SWAP1 RETURN JUMPDEST PUSH2 0x47D PUSH1 0x4 DUP1 CALLDATASIZE SUB DUP2 ADD SWAP1 PUSH2 0x478 SWAP2 SWAP1 PUSH2 0x1C1A JUMP JUMPDEST PUSH2 0xB43 JUMP JUMPDEST STOP JUMPDEST PUSH2 0x499 PUSH1 0x4 DUP1 CALLDATASIZE SUB DUP2 ADD SWAP1 PUSH2 0x494 SWAP2 SWAP1 PUSH2 0x1A0F JUMP JUMPDEST PUSH2 0xB55 JUMP JUMPDEST PUSH1 0x40 MLOAD PUSH2 0x4A6 SWAP2 SWAP1 PUSH2 0x1B7D JUMP JUMPDEST PUSH1 0x40 MLOAD DUP1 SWAP2 SUB SWAP1 RETURN JUMPDEST PUSH2 0x4B7 PUSH2 0xB9A JUMP JUMPDEST STOP JUMPDEST PUSH2 0x4D3 PUSH1 0x4 DUP1 CALLDATASIZE SUB DUP2 ADD SWAP1 PUSH2 0x4CE SWAP2 SWAP1 PUSH2 0x1A0F JUMP JUMPDEST PUSH2 0xBAC JUMP JUMPDEST STOP JUMPDEST PUSH2 0x4DD PUSH2 0xC0C JUMP JUMPDEST PUSH1 0x40 MLOAD PUSH2 0x4EA SWAP2 SWAP1 PUSH2 0x1B7D JUMP JUMPDEST PUSH1 0x40 MLOAD DUP1 SWAP2 SUB SWAP1 RETURN JUMPDEST PUSH2 0x4FB PUSH2 0xC12 JUMP JUMPDEST PUSH1 0x40 MLOAD PUSH2 0x508 SWAP2 SWAP1 PUSH2 0x1C54 JUMP JUMPDEST PUSH1 0x40 MLOAD DUP1 SWAP2 SUB SWAP1 RETURN JUMPDEST PUSH2 0x519 PUSH2 0xC3A JUMP JUMPDEST PUSH1 0x40 MLOAD PUSH2 0x526 SWAP2 SWAP1 PUSH2 0x1B7D JUMP JUMPDEST PUSH1 0x40 MLOAD DUP1 SWAP2 SUB SWAP1 RETURN JUMPDEST PUSH2 0x537 PUSH2 0xC43 JUMP JUMPDEST PUSH1 0x40 MLOAD PUSH2 0x544 SWAP2 SWAP1 PUSH2 0x1AAA JUMP JUMPDEST PUSH1 0x40 MLOAD DUP1 SWAP2 SUB SWAP1 RETURN JUMPDEST PUSH2 0x567 PUSH1 0x4 DUP1 CALLDATASIZE SUB DUP2 ADD SWAP1 PUSH2 0x562 SWAP2 SWAP1 PUSH2 0x1AFD JUMP JUMPDEST PUSH2 0xCD3 JUMP JUMPDEST PUSH1 0x40 MLOAD PUSH2 0x574 SWAP2 SWAP1 PUSH2 0x1B55 JUMP JUMPDEST PUSH1 0x40 MLOAD DUP1 SWAP2 SUB SWAP1 RETURN JUMPDEST PUSH2 0x585 PUSH2 0xCF5 JUMP JUMPDEST PUSH1 0x40 MLOAD PUSH2 0x592 SWAP2 SWAP1 PUSH2 0x1B7D JUMP JUMPDEST PUSH1 0x40 MLOAD DUP1 SWAP2 SUB SWAP1 RETURN JUMPDEST PUSH2 0x5A3 PUSH2 0xCFB JUMP JUMPDEST PUSH1 0x40 MLOAD PUSH2 0x5B0 SWAP2 SWAP1 PUSH2 0x1C54 JUMP JUMPDEST PUSH1 0x40 MLOAD DUP1 SWAP2 SUB SWAP1 RETURN JUMPDEST PUSH2 0x5C1 PUSH2 0xD21 JUMP JUMPDEST STOP JUMPDEST PUSH2 0x5CB PUSH2 0xD45 JUMP JUMPDEST PUSH1 0x40 MLOAD PUSH2 0x5DB SWAP5 SWAP4 SWAP3 SWAP2 SWAP1 PUSH2 0x1C6D JUMP JUMPDEST PUSH1 0x40 MLOAD DUP1 SWAP2 SUB SWAP1 RETURN JUMPDEST PUSH2 0x5FE PUSH1 0x4 DUP1 CALLDATASIZE SUB DUP2 ADD SWAP1 PUSH2 0x5F9 SWAP2 SWAP1 PUSH2 0x1CB0 JUMP JUMPDEST PUSH2 0xD68 JUMP JUMPDEST PUSH1 0x40 MLOAD PUSH2 0x60B SWAP2 SWAP1 PUSH2 0x1B7D JUMP JUMPDEST PUSH1 0x40 MLOAD DUP1 SWAP2 SUB SWAP1 RETURN JUMPDEST PUSH2 0x62E PUSH1 0x4 DUP1 CALLDATASIZE SUB DUP2 ADD SWAP1 PUSH2 0x629 SWAP2 SWAP1 PUSH2 0x1C1A JUMP JUMPDEST PUSH2 0xDEA JUMP JUMPDEST STOP JUMPDEST PUSH2 0x638 PUSH2 0xDFC JUMP JUMPDEST STOP JUMPDEST PUSH2 0x654 PUSH1 0x4 DUP1 CALLDATASIZE SUB DUP2 ADD SWAP1 PUSH2 0x64F SWAP2 SWAP1 PUSH2 0x1A0F JUMP JUMPDEST PUSH2 0xE21 JUMP JUMPDEST STOP JUMPDEST PUSH2 0x670 PUSH1 0x4 DUP1 CALLDATASIZE SUB DUP2 ADD SWAP1 PUSH2 0x66B SWAP2 SWAP1 PUSH2 0x1A0F JUMP JUMPDEST PUSH2 0xEA5 JUMP JUMPDEST PUSH1 0x40 MLOAD PUSH2 0x67D SWAP2 SWAP1 PUSH2 0x1B55 JUMP JUMPDEST PUSH1 0x40 MLOAD DUP1 SWAP2 SUB SWAP1 RETURN JUMPDEST PUSH2 0x68E PUSH2 0xEF7 JUMP JUMPDEST PUSH0 PUSH1 0xE PUSH0 DUP4 PUSH20 0xFFFFFFFFFFFFFFFFFFFFFFFFFFFFFFFFFFFFFFFF AND PUSH20 0xFFFFFFFFFFFFFFFFFFFFFFFFFFFFFFFFFFFFFFFF AND DUP2 MSTORE PUSH1 0x20 ADD SWAP1 DUP2 MSTORE PUSH1 0x20 ADD PUSH0 KECCAK256 PUSH0 PUSH2 0x100 EXP DUP2 SLOAD DUP2 PUSH1 0xFF MUL NOT AND SWAP1 DUP4 ISZERO ISZERO MUL OR SWAP1 SSTORE POP POP JUMP JUMPDEST PUSH1 0x60 PUSH1 0x3 DUP1 SLOAD PUSH2 0x6F4 SWAP1 PUSH2 0x1D1B JUMP JUMPDEST DUP1 PUSH1 0x1F ADD PUSH1 0x20 DUP1 SWAP2 DIV MUL PUSH1 0x20 ADD PUSH1 0x40 MLOAD SWAP1 DUP2 ADD PUSH1 0x40 MSTORE DUP1 SWAP3 SWAP2 SWAP1 DUP2 DUP2 MSTORE PUSH1 0x20 ADD DUP3 DUP1 SLOAD PUSH2 0x720 SWAP1 PUSH2 0x1D1B JUMP JUMPDEST DUP1 ISZERO PUSH2 0x76B JUMPI DUP1 PUSH1 0x1F LT PUSH2 0x742 JUMPI PUSH2 0x100 DUP1 DUP4 SLOAD DIV MUL DUP4 MSTORE SWAP2 PUSH1 0x20 ADD SWAP2 PUSH2 0x76B JUMP JUMPDEST DUP3 ADD SWAP2 SWAP1 PUSH0 MSTORE PUSH1 0x20 PUSH0 KECCAK256 SWAP1 JUMPDEST DUP2 SLOAD DUP2 MSTORE SWAP1 PUSH1 0x1 ADD SWAP1 PUSH1 0x20 ADD DUP1 DUP4 GT PUSH2 0x74E JUMPI DUP3 SWAP1 SUB PUSH1 0x1F AND DUP3 ADD SWAP2 JUMPDEST POP POP POP POP POP SWAP1 POP SWAP1 JUMP JUMPDEST PUSH0 PUSH0 PUSH2 0x77F PUSH2 0xF7E JUMP JUMPDEST SWAP1 POP PUSH2 0x78C DUP2 DUP6 DUP6 PUSH2 0xF85 JUMP JUMPDEST PUSH1 0x1 SWAP2 POP POP SWAP3 SWAP2 POP POP JUMP JUMPDEST PUSH1 0x9 SLOAD DUP2 JUMP JUMPDEST PUSH0 PUSH1 0x2 SLOAD SWAP1 POP SWAP1 JUMP JUMPDEST PUSH2 0x7AE PUSH2 0xEF7 JUMP JUMPDEST PUSH0 PUSH1 0xD PUSH0 DUP4 PUSH20 0xFFFFFFFFFFFFFFFFFFFFFFFFFFFFFFFFFFFFFFFF AND PUSH20 0xFFFFFFFFFFFFFFFFFFFFFFFFFFFFFFFFFFFFFFFF AND DUP2 MSTORE PUSH1 0x20 ADD SWAP1 DUP2 MSTORE PUSH1 0x20 ADD PUSH0 KECCAK256 PUSH0 PUSH2 0x100 EXP DUP2 SLOAD DUP2 PUSH1 0xFF MUL NOT AND SWAP1 DUP4 ISZERO ISZERO MUL OR SWAP1 SSTORE POP POP JUMP JUMPDEST PUSH0 PUSH0 PUSH2 0x80F PUSH2 0xF7E JUMP JUMPDEST SWAP1 POP PUSH2 0x81C DUP6 DUP3 DUP6 PUSH2 0xF97 JUMP JUMPDEST PUSH2 0x827 DUP6 DUP6 DUP6 PUSH2 0x1029 JUMP JUMPDEST PUSH1 0x1 SWAP2 POP POP SWAP4 SWAP3 POP POP POP JUMP JUMPDEST PUSH2 0x83B PUSH2 0xEF7 JUMP JUMPDEST PUSH1 0x1 PUSH1 0xB PUSH0 PUSH2 0x100 EXP DUP2 SLOAD DUP2 PUSH1 0xFF MUL NOT AND SWAP1 DUP4 ISZERO ISZERO MUL OR SWAP1 SSTORE POP JUMP JUMPDEST PUSH0 PUSH1 0x9 SLOAD SWAP1 POP SWAP1 JUMP JUMPDEST PUSH0 PUSH1 0x12 SWAP1 POP SWAP1 JUMP JUMPDEST PUSH2 0x870 PUSH2 0xEF7 JUMP JUMPDEST PUSH1 0x1 PUSH1 0xC PUSH0 DUP4 PUSH20 0xFFFFFFFFFFFFFFFFFFFFFFFFFFFFFFFFFFFFFFFF AND PUSH20 0xFFFFFFFFFFFFFFFFFFFFFFFFFFFFFFFFFFFFFFFF AND DUP2 MSTORE PUSH1 0x20 ADD SWAP1 DUP2 MSTORE PUSH1 0x20 ADD PUSH0 KECCAK256 PUSH0 PUSH2 0x100 EXP DUP2 SLOAD DUP2 PUSH1 0xFF MUL NOT AND SWAP1 DUP4 ISZERO ISZERO MUL OR SWAP1 SSTORE POP POP JUMP JUMPDEST PUSH2 0x8D0 PUSH2 0xEF7 JUMP JUMPDEST PUSH1 0xC PUSH0 DUP3 PUSH20 0xFFFFFFFFFFFFFFFFFFFFFFFFFFFFFFFFFFFFFFFF AND PUSH20 0xFFFFFFFFFFFFFFFFFFFFFFFFFFFFFFFFFFFFFFFF AND DUP2 MSTORE PUSH1 0x20 ADD SWAP1 DUP2 MSTORE PUSH1 0x20 ADD PUSH0 KECCAK256 PUSH0 SWAP1 SLOAD SWAP1 PUSH2 0x100 EXP SWAP1 DIV PUSH1 0xFF AND ISZERO PUSH2 0x95A JUMPI PUSH1 0x40 MLOAD PUSH32 0x8C379A000000000000000000000000000000000000000000000000000000000 DUP2 MSTORE PUSH1 0x4 ADD PUSH2 0x951 SWAP1 PUSH2 0x1DBB JUMP JUMPDEST PUSH1 0x40 MLOAD DUP1 SWAP2 SUB SWAP1 REVERT JUMPDEST PUSH1 0x1 PUSH1 0xE PUSH0 DUP4 PUSH20 0xFFFFFFFFFFFFFFFFFFFFFFFFFFFFFFFFFFFFFFFF AND PUSH20 0xFFFFFFFFFFFFFFFFFFFFFFFFFFFFFFFFFFFFFFFF AND DUP2 MSTORE PUSH1 0x20 ADD SWAP1 DUP2 MSTORE PUSH1 0x20 ADD PUSH0 KECCAK256 PUSH0 PUSH2 0x100 EXP DUP2 SLOAD DUP2 PUSH1 0xFF MUL NOT AND SWAP1 DUP4 ISZERO ISZERO MUL OR SWAP1 SSTORE POP POP JUMP JUMPDEST PUSH2 0x9BA PUSH2 0xEF7 JUMP JUMPDEST PUSH1 0x5 DUP2 GT ISZERO PUSH2 0x9FE JUMPI PUSH1 0x40 MLOAD PUSH32 0x8C379A000000000000000000000000000000000000000000000000000000000 DUP2 MSTORE PUSH1 0x4 ADD PUSH2 0x9F5 SWAP1 PUSH2 0x1E49 JUMP JUMPDEST PUSH1 0x40 MLOAD DUP1 SWAP2 SUB SWAP1 REVERT JUMPDEST DUP1 PUSH1 0xA DUP2 SWAP1 SSTORE POP POP JUMP JUMPDEST PUSH2 0xA10 PUSH2 0xEF7 JUMP JUMPDEST PUSH1 0xA DUP2 GT ISZERO PUSH2 0xA54 JUMPI PUSH1 0x40 MLOAD PUSH32 0x8C379A000000000000000000000000000000000000000000000000000000000 DUP2 MSTORE PUSH1 0x4 ADD PUSH2 0xA4B SWAP1 PUSH2 0x1ED7 JUMP JUMPDEST PUSH1 0x40 MLOAD DUP1 SWAP2 SUB SWAP1 REVERT JUMPDEST DUP1 PUSH1 0x9 DUP2 SWAP1 SSTORE POP POP JUMP JUMPDEST PUSH2 0xA66 PUSH2 0xEF7 JUMP JUMPDEST PUSH0 PUSH1 0xC PUSH0 DUP4 PUSH20 0xFFFFFFFFFFFFFFFFFFFFFFFFFFFFFFFFFFFFFFFF AND PUSH20 0xFFFFFFFFFFFFFFFFFFFFFFFFFFFFFFFFFFFFFFFF AND DUP2 MSTORE PUSH1 0x20 ADD SWAP1 DUP2 MSTORE PUSH1 0x20 ADD PUSH0 KECCAK256 PUSH0 PUSH2 0x100 EXP DUP2 SLOAD DUP2 PUSH1 0xFF MUL NOT AND SWAP1 DUP4 ISZERO ISZERO MUL OR SWAP1 SSTORE POP POP JUMP JUMPDEST PUSH2 0xAC5 PUSH2 0xEF7 JUMP JUMPDEST PUSH1 0x1 PUSH1 0xB PUSH1 0x1 PUSH2 0x100 EXP DUP2 SLOAD DUP2 PUSH1 0xFF MUL NOT AND SWAP1 DUP4 ISZERO ISZERO MUL OR SWAP1 SSTORE POP JUMP JUMPDEST PUSH1 0xA SLOAD DUP2 JUMP JUMPDEST PUSH0 PUSH1 0x7 SLOAD SWAP1 POP SWAP1 JUMP JUMPDEST PUSH0 PUSH1 0xE PUSH0 DUP4 PUSH20 0xFFFFFFFFFFFFFFFFFFFFFFFFFFFFFFFFFFFFFFFF AND PUSH20 0xFFFFFFFFFFFFFFFFFFFFFFFFFFFFFFFFFFFFFFFF AND DUP2 MSTORE PUSH1 0x20 ADD SWAP1 DUP2 MSTORE PUSH1 0x20 ADD PUSH0 KECCAK256 PUSH0 SWAP1 SLOAD SWAP1 PUSH2 0x100 EXP SWAP1 DIV PUSH1 0xFF AND SWAP1 POP SWAP2 SWAP1 POP JUMP JUMPDEST PUSH2 0xB4B PUSH2 0xEF7 JUMP JUMPDEST DUP1 PUSH1 0x8 DUP2 SWAP1 SSTORE POP POP JUMP JUMPDEST PUSH0 PUSH0 PUSH0 DUP4 PUSH20 0xFFFFFFFFFFFFFFFFFFFFFFFFFFFFFFFFFFFFFFFF AND PUSH20 0xFFFFFFFFFFFFFFFFFFFFFFFFFFFFFFFFFFFFFFFF AND DUP2 MSTORE PUSH1 0x20 ADD SWAP1 DUP2 MSTORE PUSH1 0x20 ADD PUSH0 KECCAK256 SLOAD SWAP1 POP SWAP2 SWAP1 POP JUMP JUMPDEST PUSH2 0xBA2 PUSH2 0xEF7 JUMP JUMPDEST PUSH2 0xBAA PUSH2 0x1119 JUMP JUMPDEST JUMP JUMPDEST PUSH2 0xBB4 PUSH2 0xEF7 JUMP JUMPDEST PUSH1 0x1 PUSH1 0xD PUSH0 DUP4 PUSH20 0xFFFFFFFFFFFFFFFFFFFFFFFFFFFFFFFFFFFFFFFF AND PUSH20 0xFFFFFFFFFFFFFFFFFFFFFFFFFFFFFFFFFFFFFFFF AND DUP2 MSTORE PUSH1 0x20 ADD SWAP1 DUP2 MSTORE PUSH1 0x20 ADD PUSH0 KECCAK256 PUSH0 PUSH2 0x100 EXP DUP2 SLOAD DUP2 PUSH1 0xFF MUL NOT AND SWAP1 DUP4 ISZERO ISZERO MUL OR SWAP1 SSTORE POP POP JUMP JUMPDEST PUSH1 0x7 SLOAD DUP2 JUMP JUMPDEST PUSH0 PUSH1 0x5 PUSH0 SWAP1 SLOAD SWAP1 PUSH2 0x100 EXP SWAP1 DIV PUSH20 0xFFFFFFFFFFFFFFFFFFFFFFFFFFFFFFFFFFFFFFFF AND SWAP1 POP SWAP1 JUMP JUMPDEST PUSH0 PUSH1 0xA SLOAD SWAP1 POP SWAP1 JUMP JUMPDEST PUSH1 0x60 PUSH1 0x4 DUP1 SLOAD PUSH2 0xC52 SWAP1 PUSH2 0x1D1B JUMP JUMPDEST DUP1 PUSH1 0x1F ADD PUSH1 0x20 DUP1 SWAP2 DIV MUL PUSH1 0x20 ADD PUSH1 0x40 MLOAD SWAP1 DUP2 ADD PUSH1 0x40 MSTORE DUP1 SWAP3 SWAP2 SWAP1 DUP2 DUP2 MSTORE PUSH1 0x20 ADD DUP3 DUP1 SLOAD PUSH2 0xC7E SWAP1 PUSH2 0x1D1B JUMP JUMPDEST DUP1 ISZERO PUSH2 0xCC9 JUMPI DUP1 PUSH1 0x1F LT PUSH2 0xCA0 JUMPI PUSH2 0x100 DUP1 DUP4 SLOAD DIV MUL DUP4 MSTORE SWAP2 PUSH1 0x20 ADD SWAP2 PUSH2 0xCC9 JUMP JUMPDEST DUP3 ADD SWAP2 SWAP1 PUSH0 MSTORE PUSH1 0x20 PUSH0 KECCAK256 SWAP1 JUMPDEST DUP2 SLOAD DUP2 MSTORE SWAP1 PUSH1 0x1 ADD SWAP1 PUSH1 0x20 ADD DUP1 DUP4 GT PUSH2 0xCAC JUMPI DUP3 SWAP1 SUB PUSH1 0x1F AND DUP3 ADD SWAP2 JUMPDEST POP POP POP POP POP SWAP1 POP SWAP1 JUMP JUMPDEST PUSH0 PUSH0 PUSH2 0xCDD PUSH2 0xF7E JUMP JUMPDEST SWAP1 POP PUSH2 0xCEA DUP2 DUP6 DUP6 PUSH2 0x1029 JUMP JUMPDEST PUSH1 0x1 SWAP2 POP POP SWAP3 SWAP2 POP POP JUMP JUMPDEST PUSH1 0x8 SLOAD DUP2 JUMP JUMPDEST PUSH1 0xB PUSH1 0x2 SWAP1 SLOAD SWAP1 PUSH2 0x100 EXP SWAP1 DIV PUSH20 0xFFFFFFFFFFFFFFFFFFFFFFFFFFFFFFFFFFFFFFFF AND DUP2 JUMP JUMPDEST PUSH2 0xD29 PUSH2 0xEF7 JUMP JUMPDEST PUSH0 PUSH1 0xB PUSH1 0x1 PUSH2 0x100 EXP DUP2 SLOAD DUP2 PUSH1 0xFF MUL NOT AND SWAP1 DUP4 ISZERO ISZERO MUL OR SWAP1 SSTORE POP JUMP JUMPDEST PUSH0 PUSH0 PUSH0 PUSH0 PUSH2 0xD51 PUSH2 0xC12 JUMP JUMPDEST PUSH1 0x7 SLOAD PUSH1 0x8 SLOAD PUSH1 0x6 SLOAD SWAP4 POP SWAP4 POP SWAP4 POP SWAP4 POP SWAP1 SWAP2 SWAP3 SWAP4 JUMP JUMPDEST PUSH0 PUSH1 0x1 PUSH0 DUP5 PUSH20 0xFFFFFFFFFFFFFFFFFFFFFFFFFFFFFFFFFFFFFFFF AND PUSH20 0xFFFFFFFFFFFFFFFFFFFFFFFFFFFFFFFFFFFFFFFF AND DUP2 MSTORE PUSH1 0x20 ADD SWAP1 DUP2 MSTORE PUSH1 0x20 ADD PUSH0 KECCAK256 PUSH0 DUP4 PUSH20 0xFFFFFFFFFFFFFFFFFFFFFFFFFFFFFFFFFFFFFFFF AND PUSH20 0xFFFFFFFFFFFFFFFFFFFFFFFFFFFFFFFFFFFFFFFF AND DUP2 MSTORE PUSH1 0x20 ADD SWAP1 DUP2 MSTORE PUSH1 0x20 ADD PUSH0 KECCAK256 SLOAD SWAP1 POP SWAP3 SWAP2 POP POP JUMP JUMPDEST PUSH2 0xDF2 PUSH2 0xEF7 JUMP JUMPDEST DUP1 PUSH1 0x7 DUP2 SWAP1 SSTORE POP POP JUMP JUMPDEST PUSH2 0xE04 PUSH2 0xEF7 JUMP JUMPDEST PUSH1 0x1 PUSH1 0xB PUSH1 0x16 PUSH2 0x100 EXP DUP2 SLOAD DUP2 PUSH1 0xFF MUL NOT AND SWAP1 DUP4 ISZERO ISZERO MUL OR SWAP1 SSTORE POP JUMP JUMPDEST PUSH2 0xE29 PUSH2 0xEF7 JUMP JUMPDEST PUSH0 PUSH20 0xFFFFFFFFFFFFFFFFFFFFFFFFFFFFFFFFFFFFFFFF AND DUP2 PUSH20 0xFFFFFFFFFFFFFFFFFFFFFFFFFFFFFFFFFFFFFFFF AND SUB PUSH2 0xE99 JUMPI PUSH0 PUSH1 0x40 MLOAD PUSH32 0x1E4FBDF700000000000000000000000000000000000000000000000000000000 DUP2 MSTORE PUSH1 0x4 ADD PUSH2 0xE90 SWAP2 SWAP1 PUSH2 0x1C54 JUMP JUMPDEST PUSH1 0x40 MLOAD DUP1 SWAP2 SUB SWAP1 REVERT JUMPDEST PUSH2 0xEA2 DUP2 PUSH2 0x112C JUMP JUMPDEST POP JUMP JUMPDEST PUSH0 PUSH1 0xC PUSH0 DUP4 PUSH20 0xFFFFFFFFFFFFFFFFFFFFFFFFFFFFFFFFFFFFFFFF AND PUSH20 0xFFFFFFFFFFFFFFFFFFFFFFFFFFFFFFFFFFFFFFFF AND DUP2 MSTORE PUSH1 0x20 ADD SWAP1 DUP2 MSTORE PUSH1 0x20 ADD PUSH0 KECCAK256 PUSH0 SWAP1 SLOAD SWAP1 PUSH2 0x100 EXP SWAP1 DIV PUSH1 0xFF AND SWAP1 POP SWAP2 SWAP1 POP JUMP JUMPDEST PUSH2 0xEFF PUSH2 0xF7E JUMP JUMPDEST PUSH20 0xFFFFFFFFFFFFFFFFFFFFFFFFFFFFFFFFFFFFFFFF AND PUSH2 0xF1D PUSH2 0xC12 JUMP JUMPDEST PUSH20 0xFFFFFFFFFFFFFFFFFFFFFFFFFFFFFFFFFFFFFFFF AND EQ PUSH2 0xF7C JUMPI PUSH2 0xF40 PUSH2 0xF7E JUMP JUMPDEST PUSH1 0x40 MLOAD PUSH32 0x118CDAA700000000000000000000000000000000000000000000000000000000 DUP2 MSTORE PUSH1 0x4 ADD PUSH2 0xF73 SWAP2 SWAP1 PUSH2 0x1C54 JUMP JUMPDEST PUSH1 0x40 MLOAD DUP1 SWAP2 SUB SWAP1 REVERT JUMPDEST JUMP JUMPDEST PUSH0 CALLER SWAP1 POP SWAP1 JUMP JUMPDEST PUSH2 0xF92 DUP4 DUP4 DUP4 PUSH1 0x1 PUSH2 0x11EF JUMP JUMPDEST POP POP POP JUMP JUMPDEST PUSH0 PUSH2 0xFA2 DUP5 DUP5 PUSH2 0xD68 JUMP JUMPDEST SWAP1 POP PUSH32 0xFFFFFFFFFFFFFFFFFFFFFFFFFFFFFFFFFFFFFFFFFFFFFFFFFFFFFFFFFFFFFFFF DUP2 EQ PUSH2 0x1023 JUMPI DUP2 DUP2 LT ISZERO PUSH2 0x1014 JUMPI DUP3 DUP2 DUP4 PUSH1 0x40 MLOAD PUSH32 0xFB8F41B200000000000000000000000000000000000000000000000000000000 DUP2 MSTORE PUSH1 0x4 ADD PUSH2 0x100B SWAP4 SWAP3 SWAP2 SWAP1 PUSH2 0x1EF5 JUMP JUMPDEST PUSH1 0x40 MLOAD DUP1 SWAP2 SUB SWAP1 REVERT JUMPDEST PUSH2 0x1022 DUP5 DUP5 DUP5 DUP5 SUB PUSH0 PUSH2 0x11EF JUMP JUMPDEST JUMPDEST POP POP POP POP JUMP JUMPDEST PUSH0 PUSH20 0xFFFFFFFFFFFFFFFFFFFFFFFFFFFFFFFFFFFFFFFF AND DUP4 PUSH20 0xFFFFFFFFFFFFFFFFFFFFFFFFFFFFFFFFFFFFFFFF AND SUB PUSH2 0x1099 JUMPI PUSH0 PUSH1 0x40 MLOAD PUSH32 0x96C6FD1E00000000000000000000000000000000000000000000000000000000 DUP2 MSTORE PUSH1 0x4 ADD PUSH2 0x1090 SWAP2 SWAP1 PUSH2 0x1C54 JUMP JUMPDEST PUSH1 0x40 MLOAD DUP1 SWAP2 SUB SWAP1 REVERT JUMPDEST PUSH0 PUSH20 0xFFFFFFFFFFFFFFFFFFFFFFFFFFFFFFFFFFFFFFFF AND DUP3 PUSH20 0xFFFFFFFFFFFFFFFFFFFFFFFFFFFFFFFFFFFFFFFF AND SUB PUSH2 0x1109 JUMPI PUSH0 PUSH1 0x40 MLOAD PUSH32 0xEC442F0500000000000000000000000000000000000000000000000000000000 DUP2 MSTORE PUSH1 0x4 ADD PUSH2 0x1100 SWAP2 SWAP1 PUSH2 0x1C54 JUMP JUMPDEST PUSH1 0x40 MLOAD DUP1 SWAP2 SUB SWAP1 REVERT JUMPDEST PUSH2 0x1114 DUP4 DUP4 DUP4 PUSH2 0x13BE JUMP JUMPDEST POP POP POP JUMP JUMPDEST PUSH2 0x1121 PUSH2 0xEF7 JUMP JUMPDEST PUSH2 0x112A PUSH0 PUSH2 0x112C JUMP JUMPDEST JUMP JUMPDEST PUSH0 PUSH1 0x5 PUSH0 SWAP1 SLOAD SWAP1 PUSH2 0x100 EXP SWAP1 DIV PUSH20 0xFFFFFFFFFFFFFFFFFFFFFFFFFFFFFFFFFFFFFFFF AND SWAP1 POP DUP2 PUSH1 0x5 PUSH0 PUSH2 0x100 EXP DUP2 SLOAD DUP2 PUSH20 0xFFFFFFFFFFFFFFFFFFFFFFFFFFFFFFFFFFFFFFFF MUL NOT AND SWAP1 DUP4 PUSH20 0xFFFFFFFFFFFFFFFFFFFFFFFFFFFFFFFFFFFFFFFF AND MUL OR SWAP1 SSTORE POP DUP2 PUSH20 0xFFFFFFFFFFFFFFFFFFFFFFFFFFFFFFFFFFFFFFFF AND DUP2 PUSH20 0xFFFFFFFFFFFFFFFFFFFFFFFFFFFFFFFFFFFFFFFF AND PUSH32 0x8BE0079C531659141344CD1FD0A4F28419497F9722A3DAAFE3B4186F6B6457E0 PUSH1 0x40 MLOAD PUSH1 0x40 MLOAD DUP1 SWAP2 SUB SWAP1 LOG3 POP POP JUMP JUMPDEST PUSH0 PUSH20 0xFFFFFFFFFFFFFFFFFFFFFFFFFFFFFFFFFFFFFFFF AND DUP5 PUSH20 0xFFFFFFFFFFFFFFFFFFFFFFFFFFFFFFFFFFFFFFFF AND SUB PUSH2 0x125F JUMPI PUSH0 PUSH1 0x40 MLOAD PUSH32 0xE602DF0500000000000000000000000000000000000000000000000000000000 DUP2 MSTORE PUSH1 0x4 ADD PUSH2 0x1256 SWAP2 SWAP1 PUSH2 0x1C54 JUMP JUMPDEST PUSH1 0x40 MLOAD DUP1 SWAP2 SUB SWAP1 REVERT JUMPDEST PUSH0 PUSH20 0xFFFFFFFFFFFFFFFFFFFFFFFFFFFFFFFFFFFFFFFF AND DUP4 PUSH20 0xFFFFFFFFFFFFFFFFFFFFFFFFFFFFFFFFFFFFFFFF AND SUB PUSH2 0x12CF JUMPI PUSH0 PUSH1 0x40 MLOAD PUSH32 0x94280D6200000000000000000000000000000000000000000000000000000000 DUP2 MSTORE PUSH1 0x4 ADD PUSH2 0x12C6 SWAP2 SWAP1 PUSH2 0x1C54 JUMP JUMPDEST PUSH1 0x40 MLOAD DUP1 SWAP2 SUB SWAP1 REVERT JUMPDEST DUP2 PUSH1 0x1 PUSH0 DUP7 PUSH20 0xFFFFFFFFFFFFFFFFFFFFFFFFFFFFFFFFFFFFFFFF AND PUSH20 0xFFFFFFFFFFFFFFFFFFFFFFFFFFFFFFFFFFFFFFFF AND DUP2 MSTORE PUSH1 0x20 ADD SWAP1 DUP2 MSTORE PUSH1 0x20 ADD PUSH0 KECCAK256 PUSH0 DUP6 PUSH20 0xFFFFFFFFFFFFFFFFFFFFFFFFFFFFFFFFFFFFFFFF AND PUSH20 0xFFFFFFFFFFFFFFFFFFFFFFFFFFFFFFFFFFFFFFFF AND DUP2 MSTORE PUSH1 0x20 ADD SWAP1 DUP2 MSTORE PUSH1 0x20 ADD PUSH0 KECCAK256 DUP2 SWAP1 SSTORE POP DUP1 ISZERO PUSH2 0x13B8 JUMPI DUP3 PUSH20 0xFFFFFFFFFFFFFFFFFFFFFFFFFFFFFFFFFFFFFFFF AND DUP5 PUSH20 0xFFFFFFFFFFFFFFFFFFFFFFFFFFFFFFFFFFFFFFFF AND PUSH32 0x8C5BE1E5EBEC7D5BD14F71427D1E84F3DD0314C0F7B2291E5B200AC8C7C3B925 DUP5 PUSH1 0x40 MLOAD PUSH2 0x13AF SWAP2 SWAP1 PUSH2 0x1B7D JUMP JUMPDEST PUSH1 0x40 MLOAD DUP1 SWAP2 SUB SWAP1 LOG3 JUMPDEST POP POP POP POP JUMP JUMPDEST PUSH1 0xC PUSH0 DUP4 PUSH20 0xFFFFFFFFFFFFFFFFFFFFFFFFFFFFFFFFFFFFFFFF AND PUSH20 0xFFFFFFFFFFFFFFFFFFFFFFFFFFFFFFFFFFFFFFFF AND DUP2 MSTORE PUSH1 0x20 ADD SWAP1 DUP2 MSTORE PUSH1 0x20 ADD PUSH0 KECCAK256 PUSH0 SWAP1 SLOAD SWAP1 PUSH2 0x100 EXP SWAP1 DIV PUSH1 0xFF AND ISZERO DUP1 ISZERO PUSH2 0x145C JUMPI POP PUSH1 0xC PUSH0 DUP5 PUSH20 0xFFFFFFFFFFFFFFFFFFFFFFFFFFFFFFFFFFFFFFFF AND PUSH20 0xFFFFFFFFFFFFFFFFFFFFFFFFFFFFFFFFFFFFFFFF AND DUP2 MSTORE PUSH1 0x20 ADD SWAP1 DUP2 MSTORE PUSH1 0x20 ADD PUSH0 KECCAK256 PUSH0 SWAP1 SLOAD SWAP1 PUSH2 0x100 EXP SWAP1 DIV PUSH1 0xFF AND ISZERO JUMPDEST PUSH2 0x149B JUMPI PUSH1 0x40 MLOAD PUSH32 0x8C379A000000000000000000000000000000000000000000000000000000000 DUP2 MSTORE PUSH1 0x4 ADD PUSH2 0x1492 SWAP1 PUSH2 0x1F74 JUMP JUMPDEST PUSH1 0x40 MLOAD DUP1 SWAP2 SUB SWAP1 REVERT JUMPDEST PUSH1 0xB PUSH0 SWAP1 SLOAD SWAP1 PUSH2 0x100 EXP SWAP1 DIV PUSH1 0xFF AND ISZERO PUSH2 0x158B JUMPI PUSH1 0xE PUSH0 DUP5 PUSH20 0xFFFFFFFFFFFFFFFFFFFFFFFFFFFFFFFFFFFFFFFF AND PUSH20 0xFFFFFFFFFFFFFFFFFFFFFFFFFFFFFFFFFFFFFFFF AND DUP2 MSTORE PUSH1 0x20 ADD SWAP1 DUP2 MSTORE PUSH1 0x20 ADD PUSH0 KECCAK256 PUSH0 SWAP1 SLOAD SWAP1 PUSH2 0x100 EXP SWAP1 DIV PUSH1 0xFF AND DUP1 ISZERO PUSH2 0x154B JUMPI POP PUSH1 0xE PUSH0 DUP4 PUSH20 0xFFFFFFFFFFFFFFFFFFFFFFFFFFFFFFFFFFFFFFFF AND PUSH20 0xFFFFFFFFFFFFFFFFFFFFFFFFFFFFFFFFFFFFFFFF AND DUP2 MSTORE PUSH1 0x20 ADD SWAP1 DUP2 MSTORE PUSH1 0x20 ADD PUSH0 KECCAK256 PUSH0 SWAP1 SLOAD SWAP1 PUSH2 0x100 EXP SWAP1 DIV PUSH1 0xFF AND JUMPDEST PUSH2 0x158A JUMPI PUSH1 0x40 MLOAD PUSH32 0x8C379A000000000000000000000000000000000000000000000000000000000 DUP2 MSTORE PUSH1 0x4 ADD PUSH2 0x1581 SWAP1 PUSH2 0x2002 JUMP JUMPDEST PUSH1 0x40 MLOAD DUP1 SWAP2 SUB SWAP1 REVERT JUMPDEST JUMPDEST PUSH1 0x7 SLOAD DUP2 GT ISZERO PUSH2 0x15D0 JUMPI PUSH1 0x40 MLOAD PUSH32 0x8C379A000000000000000000000000000000000000000000000000000000000 DUP2 MSTORE PUSH1 0x4 ADD PUSH2 0x15C7 SWAP1 PUSH2 0x206A JUMP JUMPDEST PUSH1 0x40 MLOAD DUP1 SWAP2 SUB SWAP1 REVERT JUMPDEST PUSH1 0x8 SLOAD PUSH1 0xF PUSH0 DUP6 PUSH20 0xFFFFFFFFFFFFFFFFFFFFFFFFFFFFFFFFFFFFFFFF AND PUSH20 0xFFFFFFFFFFFFFFFFFFFFFFFFFFFFFFFFFFFFFFFF AND DUP2 MSTORE PUSH1 0x20 ADD SWAP1 DUP2 MSTORE PUSH1 0x20 ADD PUSH0 KECCAK256 SLOAD PUSH2 0x161B SWAP2 SWAP1 PUSH2 0x20B5 JUMP JUMPDEST TIMESTAMP LT ISZERO PUSH2 0x165D JUMPI PUSH1 0x40 MLOAD PUSH32 0x8C379A000000000000000000000000000000000000000000000000000000000 DUP2 MSTORE PUSH1 0x4 ADD PUSH2 0x1654 SWAP1 PUSH2 0x2132 JUMP JUMPDEST PUSH1 0x40 MLOAD DUP1 SWAP2 SUB SWAP1 REVERT JUMPDEST TIMESTAMP PUSH1 0xF PUSH0 DUP6 PUSH20 0xFFFFFFFFFFFFFFFFFFFFFFFFFFFFFFFFFFFFFFFF AND PUSH20 0xFFFFFFFFFFFFFFFFFFFFFFFFFFFFFFFFFFFFFFFF AND DUP2 MSTORE PUSH1 0x20 ADD SWAP1 DUP2 MSTORE PUSH1 0x20 ADD PUSH0 KECCAK256 DUP2 SWAP1 SSTORE POP PUSH1 0xD PUSH0 DUP5 PUSH20 0xFFFFFFFFFFFFFFFFFFFFFFFFFFFFFFFFFFFFFFFF AND PUSH20 0xFFFFFFFFFFFFFFFFFFFFFFFFFFFFFFFFFFFFFFFF AND DUP2 MSTORE PUSH1 0x20 ADD SWAP1 DUP2 MSTORE PUSH1 0x20 ADD PUSH0 KECCAK256 PUSH0 SWAP1 SLOAD SWAP1 PUSH2 0x100 EXP SWAP1 DIV PUSH1 0xFF AND DUP1 PUSH2 0x1701 JUMPI POP PUSH1 0xB PUSH1 0x1 SWAP1 SLOAD SWAP1 PUSH2 0x100 EXP SWAP1 DIV PUSH1 0xFF AND ISZERO JUMPDEST ISZERO PUSH2 0x1716 JUMPI PUSH2 0x1711 DUP4 DUP4 DUP4 PUSH2 0x1798 JUMP JUMPDEST PUSH2 0x1793 JUMP JUMPDEST PUSH1 0xB PUSH1 0x1 SWAP1 SLOAD SWAP1 PUSH2 0x100 EXP SWAP1 DIV PUSH1 0xFF AND ISZERO PUSH2 0x1792 JUMPI PUSH0 PUSH1 0x64 PUSH1 0xA SLOAD PUSH1 0x9 SLOAD PUSH2 0x173E SWAP2 SWAP1 PUSH2 0x20B5 JUMP JUMPDEST DUP4 PUSH2 0x1749 SWAP2 SWAP1 PUSH2 0x2150 JUMP JUMPDEST PUSH2 0x1753 SWAP2 SWAP1 PUSH2 0x21BE JUMP JUMPDEST SWAP1 POP DUP1 DUP3 PUSH2 0x1761 SWAP2 SWAP1 PUSH2 0x21EE JUMP JUMPDEST SWAP2 POP PUSH2 0x1790 DUP5 PUSH1 0xB PUSH1 0x2 SWAP1 SLOAD SWAP1 PUSH2 0x100 EXP SWAP1 DIV PUSH20 0xFFFFFFFFFFFFFFFFFFFFFFFFFFFFFFFFFFFFFFFF AND DUP5 PUSH2 0x1798 JUMP JUMPDEST POP JUMPDEST JUMPDEST POP POP POP JUMP JUMPDEST PUSH0 PUSH20 0xFFFFFFFFFFFFFFFFFFFFFFFFFFFFFFFFFFFFFFFF AND DUP4 PUSH20 0xFFFFFFFFFFFFFFFFFFFFFFFFFFFFFFFFFFFFFFFF AND SUB PUSH2 0x17E8 JUMPI DUP1 PUSH1 0x2 PUSH0 DUP3 DUP3 SLOAD PUSH2 0x17DC SWAP2 SWAP1 PUSH2 0x20B5 JUMP JUMPDEST SWAP3 POP POP DUP2 SWAP1 SSTORE POP PUSH2 0x18B6 JUMP JUMPDEST PUSH0 PUSH0 PUSH0 DUP6 PUSH20 0xFFFFFFFFFFFFFFFFFFFFFFFFFFFFFFFFFFFFFFFF AND PUSH20 0xFFFFFFFFFFFFFFFFFFFFFFFFFFFFFFFFFFFFFFFF AND DUP2 MSTORE PUSH1 0x20 ADD SWAP1 DUP2 MSTORE PUSH1 0x20 ADD PUSH0 KECCAK256 SLOAD SWAP1 POP DUP2 DUP2 LT ISZERO PUSH2 0x1871 JUMPI DUP4 DUP2 DUP4 PUSH1 0x40 MLOAD PUSH32 0xE450D38C00000000000000000000000000000000000000000000000000000000 DUP2 MSTORE PUSH1 0x4 ADD PUSH2 0x1868 SWAP4 SWAP3 SWAP2 SWAP1 PUSH2 0x1EF5 JUMP JUMPDEST PUSH1 0x40 MLOAD DUP1 SWAP2 SUB SWAP1 REVERT JUMPDEST DUP2 DUP2 SUB PUSH0 PUSH0 DUP7 PUSH20 0xFFFFFFFFFFFFFFFFFFFFFFFFFFFFFFFFFFFFFFFF AND PUSH20 0xFFFFFFFFFFFFFFFFFFFFFFFFFFFFFFFFFFFFFFFF AND DUP2 MSTORE PUSH1 0x20 ADD SWAP1 DUP2 MSTORE PUSH1 0x20 ADD PUSH0 KECCAK256 DUP2 SWAP1 SSTORE POP POP JUMPDEST PUSH0 PUSH20 0xFFFFFFFFFFFFFFFFFFFFFFFFFFFFFFFFFFFFFFFF AND DUP3 PUSH20 0xFFFFFFFFFFFFFFFFFFFFFFFFFFFFFFFFFFFFFFFF AND SUB PUSH2 0x18FD JUMPI DUP1 PUSH1 0x2 PUSH0 DUP3 DUP3 SLOAD SUB SWAP3 POP POP DUP2 SWAP1 SSTORE POP PUSH2 0x1947 JUMP JUMPDEST DUP1 PUSH0 PUSH0 DUP5 PUSH20 0xFFFFFFFFFFFFFFFFFFFFFFFFFFFFFFFFFFFFFFFF AND PUSH20 0xFFFFFFFFFFFFFFFFFFFFFFFFFFFFFFFFFFFFFFFF AND DUP2 MSTORE PUSH1 0x20 ADD SWAP1 DUP2 MSTORE PUSH1 0x20 ADD PUSH0 KECCAK256 PUSH0 DUP3 DUP3 SLOAD ADD SWAP3 POP POP DUP2 SWAP1 SSTORE POP JUMPDEST DUP2 PUSH20 0xFFFFFFFFFFFFFFFFFFFFFFFFFFFFFFFFFFFFFFFF AND DUP4 PUSH20 0xFFFFFFFFFFFFFFFFFFFFFFFFFFFFFFFFFFFFFFFF AND PUSH32 0xDDF252AD1BE2C89B69C2B068FC378DAA952BA7F163C4A11628F55A4DF523B3EF DUP4 PUSH1 0x40 MLOAD PUSH2 0x19A4 SWAP2 SWAP1 PUSH2 0x1B7D JUMP JUMPDEST PUSH1 0x40 MLOAD DUP1 SWAP2 SUB SWAP1 LOG3 POP POP POP JUMP JUMPDEST PUSH0 PUSH0 REVERT JUMPDEST PUSH0 PUSH20 0xFFFFFFFFFFFFFFFFFFFFFFFFFFFFFFFFFFFFFFFF DUP3 AND SWAP1 POP SWAP2 SWAP1 POP JUMP JUMPDEST PUSH0 PUSH2 0x19DE DUP3 PUSH2 0x19B5 JUMP JUMPDEST SWAP1 POP SWAP2 SWAP1 POP JUMP JUMPDEST PUSH2 0x19EE DUP2 PUSH2 0x19D4 JUMP JUMPDEST DUP2 EQ PUSH2 0x19F8 JUMPI PUSH0 PUSH0 REVERT JUMPDEST POP JUMP JUMPDEST PUSH0 DUP2 CALLDATALOAD SWAP1 POP PUSH2 0x1A09 DUP2 PUSH2 0x19E5 JUMP JUMPDEST SWAP3 SWAP2 POP POP JUMP JUMPDEST PUSH0 PUSH1 0x20 DUP3 DUP5 SUB SLT ISZERO PUSH2 0x1A24 JUMPI PUSH2 0x1A23 PUSH2 0x19B1 JUMP JUMPDEST JUMPDEST PUSH0 PUSH2 0x1A31 DUP5 DUP3 DUP6 ADD PUSH2 0x19FB JUMP JUMPDEST SWAP2 POP POP SWAP3 SWAP2 POP POP JUMP JUMPDEST PUSH0 DUP2 MLOAD SWAP1 POP SWAP2 SWAP1 POP JUMP JUMPDEST PUSH0 DUP3 DUP3 MSTORE PUSH1 0x20 DUP3 ADD SWAP1 POP SWAP3 SWAP2 POP POP JUMP JUMPDEST DUP3 DUP2 DUP4 MCOPY PUSH0 DUP4 DUP4 ADD MSTORE POP POP POP JUMP JUMPDEST PUSH0 PUSH1 0x1F NOT PUSH1 0x1F DUP4 ADD AND SWAP1 POP SWAP2 SWAP1 POP JUMP JUMPDEST PUSH0 PUSH2 0x1A7C DUP3 PUSH2 0x1A3A JUMP JUMPDEST PUSH2 0x1A86 DUP2 DUP6 PUSH2 0x1A44 JUMP JUMPDEST SWAP4 POP PUSH2 0x1A96 DUP2 DUP6 PUSH1 0x20 DUP7 ADD PUSH2 0x1A54 JUMP JUMPDEST PUSH2 0x1A9F DUP2 PUSH2 0x1A62 JUMP JUMPDEST DUP5 ADD SWAP2 POP POP SWAP3 SWAP2 POP POP JUMP JUMPDEST PUSH0 PUSH1 0x20 DUP3 ADD SWAP1 POP DUP2 DUP2 SUB PUSH0 DUP4 ADD MSTORE PUSH2 0x1AC2 DUP2 DUP5 PUSH2 0x1A72 JUMP JUMPDEST SWAP1 POP SWAP3 SWAP2 POP POP JUMP JUMPDEST PUSH0 DUP2 SWAP1 POP SWAP2 SWAP1 POP JUMP JUMPDEST PUSH2 0x1ADC DUP2 PUSH2 0x1ACA JUMP JUMPDEST DUP2 EQ PUSH2 0x1AE6 JUMPI PUSH0 PUSH0 REVERT JUMPDEST POP JUMP JUMPDEST PUSH0 DUP2 CALLDATALOAD SWAP1 POP PUSH2 0x1AF7 DUP2 PUSH2 0x1AD3 JUMP JUMPDEST SWAP3 SWAP2 POP POP JUMP JUMPDEST PUSH0 PUSH0 PUSH1 0x40 DUP4 DUP6 SUB SLT ISZERO PUSH2 0x1B13 JUMPI PUSH2 0x1B12 PUSH2 0x19B1 JUMP JUMPDEST JUMPDEST PUSH0 PUSH2 0x1B20 DUP6 DUP3 DUP7 ADD PUSH2 0x19FB JUMP JUMPDEST SWAP3 POP POP PUSH1 0x20 PUSH2 0x1B31 DUP6 DUP3 DUP7 ADD PUSH2 0x1AE9 JUMP JUMPDEST SWAP2 POP POP SWAP3 POP SWAP3 SWAP1 POP JUMP JUMPDEST PUSH0 DUP2 ISZERO ISZERO SWAP1 POP SWAP2 SWAP1 POP JUMP JUMPDEST PUSH2 0x1B4F DUP2 PUSH2 0x1B3B JUMP JUMPDEST DUP3 MSTORE POP POP JUMP JUMPDEST PUSH0 PUSH1 0x20 DUP3 ADD SWAP1 POP PUSH2 0x1B68 PUSH0 DUP4 ADD DUP5 PUSH2 0x1B46 JUMP JUMPDEST SWAP3 SWAP2 POP POP JUMP JUMPDEST PUSH2 0x1B77 DUP2 PUSH2 0x1ACA JUMP JUMPDEST DUP3 MSTORE POP POP JUMP JUMPDEST PUSH0 PUSH1 0x20 DUP3 ADD SWAP1 POP PUSH2 0x1B90 PUSH0 DUP4 ADD DUP5 PUSH2 0x1B6E JUMP JUMPDEST SWAP3 SWAP2 POP POP JUMP JUMPDEST PUSH0 PUSH0 PUSH0 PUSH1 0x60 DUP5 DUP7 SUB SLT ISZERO PUSH2 0x1BAD JUMPI PUSH2 0x1BAC PUSH2 0x19B1 JUMP JUMPDEST JUMPDEST PUSH0 PUSH2 0x1BBA DUP7 DUP3 DUP8 ADD PUSH2 0x19FB JUMP JUMPDEST SWAP4 POP POP PUSH1 0x20 PUSH2 0x1BCB DUP7 DUP3 DUP8 ADD PUSH2 0x19FB JUMP JUMPDEST SWAP3 POP POP PUSH1 0x40 PUSH2 0x1BDC DUP7 DUP3 DUP8 ADD PUSH2 0x1AE9 JUMP JUMPDEST SWAP2 POP POP SWAP3 POP SWAP3 POP SWAP3 JUMP JUMPDEST PUSH0 PUSH1 0xFF DUP3 AND SWAP1 POP SWAP2 SWAP1 POP JUMP JUMPDEST PUSH2 0x1BFB DUP2 PUSH2 0x1BE6 JUMP JUMPDEST DUP3 MSTORE POP POP JUMP JUMPDEST PUSH0 PUSH1 0x20 DUP3 ADD SWAP1 POP PUSH2 0x1C14 PUSH0 DUP4 ADD DUP5 PUSH2 0x1BF2 JUMP JUMPDEST SWAP3 SWAP2 POP POP JUMP JUMPDEST PUSH0 PUSH1 0x20 DUP3 DUP5 SUB SLT ISZERO PUSH2 0x1C2F JUMPI PUSH2 0x1C2E PUSH2 0x19B1 JUMP JUMPDEST JUMPDEST PUSH0 PUSH2 0x1C3C DUP5 DUP3 DUP6 ADD PUSH2 0x1AE9 JUMP JUMPDEST SWAP2 POP POP SWAP3 SWAP2 POP POP JUMP JUMPDEST PUSH2 0x1C4E DUP2 PUSH2 0x19D4 JUMP JUMPDEST DUP3 MSTORE POP POP JUMP JUMPDEST PUSH0 PUSH1 0x20 DUP3 ADD SWAP1 POP PUSH2 0x1C67 PUSH0 DUP4 ADD DUP5 PUSH2 0x1C45 JUMP JUMPDEST SWAP3 SWAP2 POP POP JUMP JUMPDEST PUSH0 PUSH1 0x80 DUP3 ADD SWAP1 POP PUSH2 0x1C80 PUSH0 DUP4 ADD DUP8 PUSH2 0x1C45 JUMP JUMPDEST PUSH2 0x1C8D PUSH1 0x20 DUP4 ADD DUP7 PUSH2 0x1B6E JUMP JUMPDEST PUSH2 0x1C9A PUSH1 0x40 DUP4 ADD DUP6 PUSH2 0x1B6E JUMP JUMPDEST PUSH2 0x1CA7 PUSH1 0x60 DUP4 ADD DUP5 PUSH2 0x1B6E JUMP JUMPDEST SWAP6 SWAP5 POP POP POP POP POP JUMP JUMPDEST PUSH0 PUSH0 PUSH1 0x40 DUP4 DUP6 SUB SLT ISZERO PUSH2 0x1CC6 JUMPI PUSH2 0x1CC5 PUSH2 0x19B1 JUMP JUMPDEST JUMPDEST PUSH0 PUSH2 0x1CD3 DUP6 DUP3 DUP7 ADD PUSH2 0x19FB JUMP JUMPDEST SWAP3 POP POP PUSH1 0x20 PUSH2 0x1CE4 DUP6 DUP3 DUP7 ADD PUSH2 0x19FB JUMP JUMPDEST SWAP2 POP POP SWAP3 POP SWAP3 SWAP1 POP JUMP JUMPDEST PUSH32 0x4E487B7100000000000000000000000000000000000000000000000000000000 PUSH0 MSTORE PUSH1 0x22 PUSH1 0x4 MSTORE PUSH1 0x24 PUSH0 REVERT JUMPDEST PUSH0 PUSH1 0x2 DUP3 DIV SWAP1 POP PUSH1 0x1 DUP3 AND DUP1 PUSH2 0x1D32 JUMPI PUSH1 0x7F DUP3 AND SWAP2 POP JUMPDEST PUSH1 0x20 DUP3 LT DUP2 SUB PUSH2 0x1D45 JUMPI PUSH2 0x1D44 PUSH2 0x1CEE JUMP JUMPDEST JUMPDEST POP SWAP2 SWAP1 POP JUMP JUMPDEST PUSH32 0x426C61636B6C6973746564206163636F756E74732063616E6E6F742062652077 PUSH0 DUP3 ADD MSTORE PUSH32 0x686974656C697374656400000000000000000000000000000000000000000000 PUSH1 0x20 DUP3 ADD MSTORE POP JUMP JUMPDEST PUSH0 PUSH2 0x1DA5 PUSH1 0x2A DUP4 PUSH2 0x1A44 JUMP JUMPDEST SWAP2 POP PUSH2 0x1DB0 DUP3 PUSH2 0x1D4B JUMP JUMPDEST PUSH1 0x40 DUP3 ADD SWAP1 POP SWAP2 SWAP1 POP JUMP JUMPDEST PUSH0 PUSH1 0x20 DUP3 ADD SWAP1 POP DUP2 DUP2 SUB PUSH0 DUP4 ADD MSTORE PUSH2 0x1DD2 DUP2 PUSH2 0x1D99 JUMP JUMPDEST SWAP1 POP SWAP2 SWAP1 POP JUMP JUMPDEST PUSH32 0x536C69707061676520666565732063616E6E6F74206265206869676865722074 PUSH0 DUP3 ADD MSTORE PUSH32 0x68616E2035250000000000000000000000000000000000000000000000000000 PUSH1 0x20 DUP3 ADD MSTORE POP JUMP JUMPDEST PUSH0 PUSH2 0x1E33 PUSH1 0x26 DUP4 PUSH2 0x1A44 JUMP JUMPDEST SWAP2 POP PUSH2 0x1E3E DUP3 PUSH2 0x1DD9 JUMP JUMPDEST PUSH1 0x40 DUP3 ADD SWAP1 POP SWAP2 SWAP1 POP JUMP JUMPDEST PUSH0 PUSH1 0x20 DUP3 ADD SWAP1 POP DUP2 DUP2 SUB PUSH0 DUP4 ADD MSTORE PUSH2 0x1E60 DUP2 PUSH2 0x1E27 JUMP JUMPDEST SWAP1 POP SWAP2 SWAP1 POP JUMP JUMPDEST PUSH32 0x546178206665652063616E6E6F7420626520686967686572207468616E203130 PUSH0 DUP3 ADD MSTORE PUSH32 0x2500000000000000000000000000000000000000000000000000000000000000 PUSH1 0x20 DUP3 ADD MSTORE POP JUMP JUMPDEST PUSH0 PUSH2 0x1EC1 PUSH1 0x21 DUP4 PUSH2 0x1A44 JUMP JUMPDEST SWAP2 POP PUSH2 0x1ECC DUP3 PUSH2 0x1E67 JUMP JUMPDEST PUSH1 0x40 DUP3 ADD SWAP1 POP SWAP2 SWAP1 POP JUMP JUMPDEST PUSH0 PUSH1 0x20 DUP3 ADD SWAP1 POP DUP2 DUP2 SUB PUSH0 DUP4 ADD MSTORE PUSH2 0x1EEE DUP2 PUSH2 0x1EB5 JUMP JUMPDEST SWAP1 POP SWAP2 SWAP1 POP JUMP JUMPDEST PUSH0 PUSH1 0x60 DUP3 ADD SWAP1 POP PUSH2 0x1F08 PUSH0 DUP4 ADD DUP7 PUSH2 0x1C45 JUMP JUMPDEST PUSH2 0x1F15 PUSH1 0x20 DUP4 ADD DUP6 PUSH2 0x1B6E JUMP JUMPDEST PUSH2 0x1F22 PUSH1 0x40 DUP4 ADD DUP5 PUSH2 0x1B6E JUMP JUMPDEST SWAP5 SWAP4 POP POP POP POP JUMP JUMPDEST PUSH32 0x426C61636B6C6973746564206164647265737300000000000000000000000000 PUSH0 DUP3 ADD MSTORE POP JUMP JUMPDEST PUSH0 PUSH2 0x1F5E PUSH1 0x13 DUP4 PUSH2 0x1A44 JUMP JUMPDEST SWAP2 POP PUSH2 0x1F69 DUP3 PUSH2 0x1F2A JUMP JUMPDEST PUSH1 0x20 DUP3 ADD SWAP1 POP SWAP2 SWAP1 POP JUMP JUMPDEST PUSH0 PUSH1 0x20 DUP3 ADD SWAP1 POP DUP2 DUP2 SUB PUSH0 DUP4 ADD MSTORE PUSH2 0x1F8B DUP2 PUSH2 0x1F52 JUMP JUMPDEST SWAP1 POP SWAP2 SWAP1 POP JUMP JUMPDEST PUSH32 0x426F746820616464726573736573206D7573742062652077686974656C697374 PUSH0 DUP3 ADD MSTORE PUSH32 0x6564000000000000000000000000000000000000000000000000000000000000 PUSH1 0x20 DUP3 ADD MSTORE POP JUMP JUMPDEST PUSH0 PUSH2 0x1FEC PUSH1 0x22 DUP4 PUSH2 0x1A44 JUMP JUMPDEST SWAP2 POP PUSH2 0x1FF7 DUP3 PUSH2 0x1F92 JUMP JUMPDEST PUSH1 0x40 DUP3 ADD SWAP1 POP SWAP2 SWAP1 POP JUMP JUMPDEST PUSH0 PUSH1 0x20 DUP3 ADD SWAP1 POP DUP2 DUP2 SUB PUSH0 DUP4 ADD MSTORE PUSH2 0x2019 DUP2 PUSH2 0x1FE0 JUMP JUMPDEST SWAP1 POP SWAP2 SWAP1 POP JUMP JUMPDEST PUSH32 0x546F6B656E207472616E73666572206C696D6974206578636565646564000000 PUSH0 DUP3 ADD MSTORE POP JUMP JUMPDEST PUSH0 PUSH2 0x2054 PUSH1 0x1D DUP4 PUSH2 0x1A44 JUMP JUMPDEST SWAP2 POP PUSH2 0x205F DUP3 PUSH2 0x2020 JUMP JUMPDEST PUSH1 0x20 DUP3 ADD SWAP1 POP SWAP2 SWAP1 POP JUMP JUMPDEST PUSH0 PUSH1 0x20 DUP3 ADD SWAP1 POP DUP2 DUP2 SUB PUSH0 DUP4 ADD MSTORE PUSH2 0x2081 DUP2 PUSH2 0x2048 JUMP JUMPDEST SWAP1 POP SWAP2 SWAP1 POP JUMP JUMPDEST PUSH32 0x4E487B7100000000000000000000000000000000000000000000000000000000 PUSH0 MSTORE PUSH1 0x11 PUSH1 0x4 MSTORE PUSH1 0x24 PUSH0 REVERT JUMPDEST PUSH0 PUSH2 0x20BF DUP3 PUSH2 0x1ACA JUMP JUMPDEST SWAP2 POP PUSH2 0x20CA DUP4 PUSH2 0x1ACA JUMP JUMPDEST SWAP3 POP DUP3 DUP3 ADD SWAP1 POP DUP1 DUP3 GT ISZERO PUSH2 0x20E2 JUMPI PUSH2 0x20E1 PUSH2 0x2088 JUMP JUMPDEST JUMPDEST SWAP3 SWAP2 POP POP JUMP JUMPDEST PUSH32 0x436F6F6C646F776E2074696D6520706572696F64000000000000000000000000 PUSH0 DUP3 ADD MSTORE POP JUMP JUMPDEST PUSH0 PUSH2 0x211C PUSH1 0x14 DUP4 PUSH2 0x1A44 JUMP JUMPDEST SWAP2 POP PUSH2 0x2127 DUP3 PUSH2 0x20E8 JUMP JUMPDEST PUSH1 0x20 DUP3 ADD SWAP1 POP SWAP2 SWAP1 POP JUMP JUMPDEST PUSH0 PUSH1 0x20 DUP3 ADD SWAP1 POP DUP2 DUP2 SUB PUSH0 DUP4 ADD MSTORE PUSH2 0x2149 DUP2 PUSH2 0x2110 JUMP JUMPDEST SWAP1 POP SWAP2 SWAP1 POP JUMP JUMPDEST PUSH0 PUSH2 0x215A DUP3 PUSH2 0x1ACA JUMP JUMPDEST SWAP2 POP PUSH2 0x2165 DUP4 PUSH2 0x1ACA JUMP JUMPDEST SWAP3 POP DUP3 DUP3 MUL PUSH2 0x2173 DUP2 PUSH2 0x1ACA JUMP JUMPDEST SWAP2 POP DUP3 DUP3 DIV DUP5 EQ DUP4 ISZERO OR PUSH2 0x218A JUMPI PUSH2 0x2189 PUSH2 0x2088 JUMP JUMPDEST JUMPDEST POP SWAP3 SWAP2 POP POP JUMP JUMPDEST PUSH32 0x4E487B7100000000000000000000000000000000000000000000000000000000 PUSH0 MSTORE PUSH1 0x12 PUSH1 0x4 MSTORE PUSH1 0x24 PUSH0 REVERT JUMPDEST PUSH0 PUSH2 0x21C8 DUP3 PUSH2 0x1ACA JUMP JUMPDEST SWAP2 POP PUSH2 0x21D3 DUP4 PUSH2 0x1ACA JUMP JUMPDEST SWAP3 POP DUP3 PUSH2 0x21E3 JUMPI PUSH2 0x21E2 PUSH2 0x2191 JUMP JUMPDEST JUMPDEST DUP3 DUP3 DIV SWAP1 POP SWAP3 SWAP2 POP POP JUMP JUMPDEST PUSH0 PUSH2 0x21F8 DUP3 PUSH2 0x1ACA JUMP JUMPDEST SWAP2 POP PUSH2 0x2203 DUP4 PUSH2 0x1ACA JUMP JUMPDEST SWAP3 POP DUP3 DUP3 SUB SWAP1 POP DUP2 DUP2 GT ISZERO PUSH2 0x221B JUMPI PUSH2 0x221A PUSH2 0x2088 JUMP JUMPDEST JUMPDEST SWAP3 SWAP2 POP POP JUMP INVALID LOG2 PUSH5 0x6970667358 0x22 SLT KECCAK256 0xC7 DUP10 0xC3 SWAP16 DUP8 0x23 0x1E SWAP1 DELEGATECALL PUSH7 0xC1D57091E6D4B2 0xB8 0xD6 KECCAK256 0xB6 SLOAD 0xBD COINBASE PC LOG1 SMOD 0x2C 0xA8 SWAP12 0xD7 SLT PUSH5 0x736F6C6343 STOP ADDMOD SHR STOP CALLER "
				},
				"gasEstimates": {
					"creation": {
						"codeDepositCost": "1758200",
						"executionCost": "infinite",
						"totalCost": "infinite"
					},
					"external": {
						"addExemptionToTaxes(address)": "infinite",
						"addToBlacklist(address)": "infinite",
						"addToWhiteList(address)": "infinite",
						"allowance(address,address)": "infinite",
						"approve(address,uint256)": "infinite",
						"balanceOf(address)": "2918",
						"cooldownTime()": "2492",
						"decimals()": "384",
						"disableTax()": "infinite",
						"enableBlackListing()": "infinite",
						"enableTax()": "infinite",
						"enableWhiteListing()": "infinite",
						"getContractDetials()": "infinite",
						"getMaxTxAmount()": "2565",
						"getSlippageFees()": "2543",
						"getTaxes()": "2566",
						"isBlacklisted(address)": "3002",
						"isWhiteListed(address)": "2916",
						"maxTxAmount()": "2492",
						"name()": "infinite",
						"owner()": "2604",
						"removeExemptionFromTaxes(address)": "infinite",
						"removeFromBlacklist(address)": "infinite",
						"removeFromWhiteList(address)": "infinite",
						"renounceOwnership()": "infinite",
						"setCooldownTime(uint256)": "infinite",
						"setMaxTxAmount(uint256)": "infinite",
						"setSlippageFees(uint256)": "infinite",
						"setTaxes(uint256)": "infinite",
						"slippageFees()": "2536",
						"symbol()": "infinite",
						"taxAddress()": "2648",
						"taxFees()": "2538",
						"totalSupply()": "2478",
						"transfer(address,uint256)": "infinite",
						"transferFrom(address,address,uint256)": "infinite",
						"transferOwnership(address)": "infinite"
					},
					"internal": {
						"_update(address,address,uint256)": "infinite"
					}
				},
				"methodIdentifiers": {
					"addExemptionToTaxes(address)": "88210bb1",
					"addToBlacklist(address)": "44337ea1",
					"addToWhiteList(address)": "47ee0394",
					"allowance(address,address)": "dd62ed3e",
					"approve(address,uint256)": "095ea7b3",
					"balanceOf(address)": "70a08231",
					"cooldownTime()": "b319c6b7",
					"decimals()": "313ce567",
					"disableTax()": "ced695a4",
					"enableBlackListing()": "efc3a4aa",
					"enableTax()": "53eb3bcf",
					"enableWhiteListing()": "2958ad7f",
					"getContractDetials()": "d51d86f4",
					"getMaxTxAmount()": "6d8b0527",
					"getSlippageFees()": "93af22ff",
					"getTaxes()": "2973ef2d",
					"isBlacklisted(address)": "fe575a87",
					"isWhiteListed(address)": "6f9170f6",
					"maxTxAmount()": "8c0b5e22",
					"name()": "06fdde03",
					"owner()": "8da5cb5b",
					"removeExemptionFromTaxes(address)": "1bacad95",
					"removeFromBlacklist(address)": "537df3b6",
					"removeFromWhiteList(address)": "01bf6648",
					"renounceOwnership()": "715018a6",
					"setCooldownTime(uint256)": "6ff73201",
					"setMaxTxAmount(uint256)": "ec28438a",
					"setSlippageFees(uint256)": "49192418",
					"setTaxes(uint256)": "4ebc552d",
					"slippageFees()": "6b3907ca",
					"symbol()": "95d89b41",
					"taxAddress()": "b7bda68f",
					"taxFees()": "0ddc0976",
					"totalSupply()": "18160ddd",
					"transfer(address,uint256)": "a9059cbb",
					"transferFrom(address,address,uint256)": "23b872dd",
					"transferOwnership(address)": "f2fde38b"
				}
			},
			"storageLayout": {
				"storage": [
					{
						"astId": 279,
						"contract": "VaultCoin_flattened.sol:VaultCoin",
						"label": "_balances",
						"offset": 0,
						"slot": "0",
						"type": "t_mapping(t_address,t_uint256)"
					},
					{
						"astId": 285,
						"contract": "VaultCoin_flattened.sol:VaultCoin",
						"label": "_allowances",
						"offset": 0,
						"slot": "1",
						"type": "t_mapping(t_address,t_mapping(t_address,t_uint256))"
					},
					{
						"astId": 287,
						"contract": "VaultCoin_flattened.sol:VaultCoin",
						"label": "_totalSupply",
						"offset": 0,
						"slot": "2",
						"type": "t_uint256"
					},
					{
						"astId": 289,
						"contract": "VaultCoin_flattened.sol:VaultCoin",
						"label": "_name",
						"offset": 0,
						"slot": "3",
						"type": "t_string_storage"
					},
					{
						"astId": 291,
						"contract": "VaultCoin_flattened.sol:VaultCoin",
						"label": "_symbol",
						"offset": 0,
						"slot": "4",
						"type": "t_string_storage"
					},
					{
						"astId": 777,
						"contract": "VaultCoin_flattened.sol:VaultCoin",
						"label": "_owner",
						"offset": 0,
						"slot": "5",
						"type": "t_address"
					},
					{
						"astId": 929,
						"contract": "VaultCoin_flattened.sol:VaultCoin",
						"label": "initialSupply",
						"offset": 0,
						"slot": "6",
						"type": "t_uint256"
					},
					{
						"astId": 932,
						"contract": "VaultCoin_flattened.sol:VaultCoin",
						"label": "maxTxAmount",
						"offset": 0,
						"slot": "7",
						"type": "t_uint256"
					},
					{
						"astId": 935,
						"contract": "VaultCoin_flattened.sol:VaultCoin",
						"label": "cooldownTime",
						"offset": 0,
						"slot": "8",
						"type": "t_uint256"
					},
					{
						"astId": 938,
						"contract": "VaultCoin_flattened.sol:VaultCoin",
						"label": "taxFees",
						"offset": 0,
						"slot": "9",
						"type": "t_uint256"
					},
					{
						"astId": 941,
						"contract": "VaultCoin_flattened.sol:VaultCoin",
						"label": "slippageFees",
						"offset": 0,
						"slot": "10",
						"type": "t_uint256"
					},
					{
						"astId": 944,
						"contract": "VaultCoin_flattened.sol:VaultCoin",
						"label": "_whiteListingEnabled",
						"offset": 0,
						"slot": "11",
						"type": "t_bool"
					},
					{
						"astId": 947,
						"contract": "VaultCoin_flattened.sol:VaultCoin",
						"label": "_taxEnabled",
						"offset": 1,
						"slot": "11",
						"type": "t_bool"
					},
					{
						"astId": 949,
						"contract": "VaultCoin_flattened.sol:VaultCoin",
						"label": "taxAddress",
						"offset": 2,
						"slot": "11",
						"type": "t_address"
					},
					{
						"astId": 952,
						"contract": "VaultCoin_flattened.sol:VaultCoin",
						"label": "_blackListingEnabled",
						"offset": 22,
						"slot": "11",
						"type": "t_bool"
					},
					{
						"astId": 956,
						"contract": "VaultCoin_flattened.sol:VaultCoin",
						"label": "_blackList",
						"offset": 0,
						"slot": "12",
						"type": "t_mapping(t_address,t_bool)"
					},
					{
						"astId": 960,
						"contract": "VaultCoin_flattened.sol:VaultCoin",
						"label": "_taxList",
						"offset": 0,
						"slot": "13",
						"type": "t_mapping(t_address,t_bool)"
					},
					{
						"astId": 964,
						"contract": "VaultCoin_flattened.sol:VaultCoin",
						"label": "_whiteList",
						"offset": 0,
						"slot": "14",
						"type": "t_mapping(t_address,t_bool)"
					},
					{
						"astId": 968,
						"contract": "VaultCoin_flattened.sol:VaultCoin",
						"label": "_lastTxTime",
						"offset": 0,
						"slot": "15",
						"type": "t_mapping(t_address,t_uint256)"
					}
				],
				"types": {
					"t_address": {
						"encoding": "inplace",
						"label": "address",
						"numberOfBytes": "20"
					},
					"t_bool": {
						"encoding": "inplace",
						"label": "bool",
						"numberOfBytes": "1"
					},
					"t_mapping(t_address,t_bool)": {
						"encoding": "mapping",
						"key": "t_address",
						"label": "mapping(address => bool)",
						"numberOfBytes": "32",
						"value": "t_bool"
					},
					"t_mapping(t_address,t_mapping(t_address,t_uint256))": {
						"encoding": "mapping",
						"key": "t_address",
						"label": "mapping(address => mapping(address => uint256))",
						"numberOfBytes": "32",
						"value": "t_mapping(t_address,t_uint256)"
					},
					"t_mapping(t_address,t_uint256)": {
						"encoding": "mapping",
						"key": "t_address",
						"label": "mapping(address => uint256)",
						"numberOfBytes": "32",
						"value": "t_uint256"
					},
					"t_string_storage": {
						"encoding": "bytes",
						"label": "string",
						"numberOfBytes": "32"
					},
					"t_uint256": {
						"encoding": "inplace",
						"label": "uint256",
						"numberOfBytes": "32"
					}
				}
			},
			"userdoc": {
				"kind": "user",
				"methods": {},
				"version": 1
			}
		}
	}
}